S024000064656D6F70726F675F646973636F766572795F73746D3332663430372E7372656353
S3150800C0000000022069CA000835CA000837CA0008B5
S3150800C01039CA00083BCA00083DCA000800000000EB
S3150800C0200000000000000000000000003FCA0008F1
S3150800C03041CA00080000000043CA000845CA0008B3
S3150800C040B9CA0008B9CA0008B9CA0008B9CA0008B6
S3150800C050B9CA0008B9CA0008B9CA0008B9CA0008A6
S3150800C060B9CA0008B9CA0008B9CA0008B9CA000896
S3150800C070B9CA0008B9CA0008B9CA0008B9CA000886
S3150800C080B9CA0008B9CA0008B9CA0008B9CA000876
S3150800C090B9CA0008B9CA0008B9CA0008B9CA000866
S3150800C0A0B9CA0008B9CA0008B9CA0008B9CA000856
S3150800C0B0B9CA0008B9CA0008B9CA0008B9CA000846
S3150800C0C0B9CA0008B9CA0008B9CA0008B9CA000836
S3150800C0D0B9CA0008B9CA0008B9CA0008B9CA000826
S3150800C0E0B9CA0008B9CA0008B9CA0008B9CA000816
S3150800C0F0B9CA0008B9CA0008B9CA0008B9CA000806
S3150800C100B9CA0008B9CA0008B9CA0008B9CA0008F5
S3150800C110B9CA0008B9CA0008B9CA0008B9CA0008E5
S3150800C120B9CA0008B9CA0008B9CA0008B9CA0008D5
S3150800C130B9CA0008B9CA0008B9CA0008B9CA0008C5
S3150800C140B9CA0008B9CA0008B9CA0008B9CA0008B5
S3150800C150B9CA0008B9CA0008B9CA0008B9CA0008A5
S3150800C160B9CA0008B9CA0008B9CA0008B9CA000895
S3150800C170B9CA0008B9CA0008B9CA00080000000010
S3110800C180B9CA0008B9CA0008EE11AA5591
S3150800C18C10B5054C237833B9044B13B10448AFF3F7
S3150800C19C00800123237010BD0C0000200000000055
S3150800C1AC28DD000808B5034B1BB103490348AFF358
S3150800C1BC008008BD000000001000002028DD0008E3
S3150800C1CC53B94AB9002908BF00281CBF4FF0FF31E4
S3150800C1DC4FF0FF3000F072B9ADF1080C6DE904CEE2
S3150800C1EC00F006F8DDF804E0DDE9022304B0704738
S3150800C1FC2DE9F047089E04468846002B4BD18A4207
S3150800C20C154667D9B2FA82F24AB1C2F1200701FA89
S3150800C21C02F320FA07F7954047EA030894404FEAD9
S3150800C22C154E230CB8FBFEF71FFA85FC0EFB178878
S3150800C23C43EA084307FB0CF1994209D9EB1807F1B5
S3150800C24CFF3080F01B81994240F21881023F2B4443
S3150800C25C5B1AA4B2B3FBFEF00EFB103344EA03449C
S3150800C26C00FB0CFCA44509D92C1900F1FF3380F00E
S3150800C27C0781A44540F2048102382C4440EA074061
S3150800C28CA4EB0C0400271EB1D4400023C6E90043D6
S3150800C29C3946BDE8F0878B4209D9002E00F0EB80B1
S3150800C2AC0027C6E9000138463946BDE8F087B3FAD7
S3150800C2BC83F7002F47D18B4202D3824200F2FA80D1
S3150800C2CC841A61EB030301209846002EE0D0C6E9D8
S3150800C2DC0048DDE702B9FFDEB2FA82F2002A40F026
S3150800C2EC8F80491B4FEA154E1FFA85F80127B1FBBB
S3150800C2FCFEFC230C0EFB1C1143EA014308FB0CF154
S3150800C30C994207D9EB180CF1FF3002D2994200F288
S3150800C31CCD808446591AA3B2B1FBFEF00EFB10145D
S3150800C32C43EA044408FB00F8A04507D92C1900F188
S3150800C33CFF3302D2A04500F2B6801846A4EB0804D7
S3150800C34C40EA0C409FE7C7F1200CBB4022FA0CFED2
S3150800C35C4EEA030E01FA07F420FA0CF521FA0CF34F
S3150800C36C4FEA1E482543B3FBF8F92C0C08FB193386
S3150800C37C1FFA8EFA44EA034309FB0AF49C4202FAB2
S3150800C38C07F200FA07F10BD91EEB030309F1FF308C
S3150800C39C80F087809C4240F28480A9F1020973449C
S3150800C3AC1B1BADB2B3FBF8F008FB103345EA03448C
S3150800C3BC00FB0AFAA24508D91EEB040400F1FF3368
S3150800C3CC6BD2A24569D90238744440EA0940A0FBED
S3150800C3DC0289A4EB0A044C45C2464B4654D351D0A9
S3150800C3EC002E69D0B1EB0A0564EB030404FA0CFCC5
S3150800C3FCFD40FC404CEA0505C6E90054002747E712
S3150800C40CC2F1200320FA03F7954001FA02F021FA4B
S3150800C41C03F34FEA154E3843010CB3FBFEF71FFA2C
S3150800C42C85F80EFB173341EA034107FB08F38B42E9
S3150800C43C04FA02F407D9691807F1FF3C2FD28B428C
S3150800C44C2DD9023F2944CB1A81B2B3FBFEF00EFB61
S3150800C45C103341EA034100FB08F38B4207D96918EC
S3150800C46C00F1FF3C17D28B4215D902382944C91A58
S3150800C47C40EA07473BE73746304609E70746E7E60B
S3150800C48C1846FBE64145ABD2B8EB020A69EB0E023D
S3150800C49C01381346A4E76046E9E7184695E7674668
S3150800C4ACD1E781467CE702382C4447E7ACF1020C0D
S3150800C4BC2B442FE7384608E73746E9E6704700BFAE
S3150800C4CC08B500F0EDF800F093F800F02BF808BD6D
S3150800C4DC08B500F0ADF800F087F808BD08B50848AF
S3150800C4EC084B03604FF46143436000238360C360C9
S3150800C4FC036183610C224261C36101F040FB08BDF4
S3150800C50C280000200014014008B50023012201462A
S3150800C51C034801F063FB08B1002008BD0120FCE7C5
S3150800C52C2800002008B5FFF7D9FF08BDBFF34F8FC9
S3150800C53C0549CA6802F4E062044B1343CB60BFF3A7
S3150800C54C4F8F00BFFDE700BF00ED00E00400FA05C1
S3150800C55C08B5214B1B78B3B92048FFF7D5FF01283E
S3150800C56C00D008BD1D4B1B78013BDBB23F2BF8D81E
S3150800C57C00F097F81A4B1860174B01221A70194BD2
S3150800C58C00221A70EDE7174B1B7801331348184431
S3150800C59CFFF7BAFF012813D1124A13780133DBB21D
S3150800C5AC13700E4A12789342DBD10B4A0021117094
S3150800C5BC0A4A5278FF2AD4D1022BD2D1FFF7B6FFFA
S3150800C5CC00F06FF8064B1B6864339842C9D9024BC6
S3150800C5DC00221A70C5E700BFA900002068000020D9
S3150800C5ECAC000020AA00002008B5FFF7B1FF08BD73
S3150800C5FC10B501224FF400510B4800F045FE0B4CC8
S3150800C60C01224FF48051204600F03EFE01224FF4E1
S3150800C61C8041204600F038FE01224FF400412046A6
S3150800C62C00F032FE10BD00BF00080240000C0240AC
S3150800C63C70B500F036F8174B1B68C31AB3F5FA7FBA
S3150800C64C15D30446144B1B7893B90125124B1D7050
S3150800C65C124E2A464FF48051304600F015FE2A46F3
S3150800C66C4FF40041304600F00FFE0A4B1C6070BDBB
S3150800C67C0025094B1D70094E2A464FF48051304649
S3150800C68C00F002FE2A464FF40041304600F0FCFD4D
S3150800C69CEBE700BFB4000020B0000020000C0240FD
S3150800C6AC704708B500F050FA08BD0000014A024B65
S3150800C6BC9A60704700C0000800ED00E0F0B58BB03A
S3150800C6CC00240594069407940894099400942B4B1B
S3150800C6DC1A6B42F004021A631A6B02F004020092F7
S3150800C6EC009A01941A6B42F080021A631A6B02F0D4
S3150800C6FC80020192019A02941A6B42F001021A63A3
S3150800C70C1A6B02F001020292029A03941A6B42F017
S3150800C71C02021A631A6B02F002020392039A049439
S3150800C72C1A6B42F008021A631B6B03F00803049396
S3150800C73C049B134F22464FF40051384600F0A4FDD3
S3150800C74C104D22464FF47041284600F09DFD4FF4DB
S3150800C75C00530593012606960794089405A93846AE
S3150800C76C00F0AEFC4FF470430593069607940894B4
S3150800C77C05A9284600F0A4FC0BB0F0BD0038024011
S3150800C78C00080240000C024010B51248124B036018
S3150800C79C012242604FF4804383604FF40063C36008
S3150800C7AC0282416900230B70416980244C704169EF
S3150800C7BCE1248C704169CA7042690221117142697F
S3150800C7CC032151718361C3614FF40003036200F0C6
S3150800C7DC4BFB10BD200100200080024030B595B0FF
S3150800C7EC3022002108A801F091FA0024039404943D
S3150800C7FC05940694079401941B4B1A6C42F08052CC
S3150800C80C1A641B6C03F080530193019B0294174B1B
S3150800C81C1A6842F480421A601B6803F48043029338
S3150800C82C029B012308934FF48033099302250E9536
S3150800C83C4FF480030F9304231093A8221192129598
S3150800C84C139308A800F026FD0F230393049505946B
S3150800C85C4FF4A05306934FF480530793052103A86E
S3150800C86C00F07AFF15B030BD003802400070004069
S3150800C87C08B5FFF71BFF00F041F9FFF7AFFFFFF70D
S3150800C88C1DFFFFF781FFFFF71BFEFFF721FEFCE7F5
S3150800C89C82B0002100910B4B5A6C42F480425A64C8
S3150800C8AC5A6C02F480420092009A01911A6C42F07A
S3150800C8BC80521A641B6C03F080530193019B02B0DF
S3150800C8CC704700BF00380240F0B58DB000230793BF
S3150800C8DC089309930A930B930268334B9A4201D037
S3150800C8EC0DB0F0BD00240194A3F590431A6B42F0E9
S3150800C8FC00721A631A6B02F000720192019A029482
S3150800C90C1A6B42F080621A631A6B02F0806202920A
S3150800C91C029A03941A6B42F000621A631A6B02F0BD
S3150800C92C00620392039A04941A6B42F004021A6387
S3150800C93C1A6B02F004020492049A05941A6B42F0DC
S3150800C94C01021A631A6B02F001020592059A069403
S3150800C95C1A6B42F002021A631B6B03F0020306936E
S3150800C96C069B322307930227089703260A960B255C
S3150800C97C0B9507A90D4800F0A3FB86230793089788
S3150800C98C09940A960B9507A9094800F099FB4FF4E8
S3150800C99C60530793089709940A960B9507A90548B7
S3150800C9AC00F08EFB9CE700BF0080024000080240A6
S3150800C9BC000002400004024000B589B0002303932E
S3150800C9CC04930593069307930268154B9A4202D073
S3150800C9DC09B05DF804FB0021019103F592335A6CFA
S3150800C9EC42F020025A645A6C02F020020192019A13
S3150800C9FC02911A6B42F004021A631B6B03F00403D0
S3150800CA0C0293029BC02303930223049303230693E6
S3150800CA1C0823079303A9034800F052FBD8E700BF85
S3150800CA2C00140140000802407047FEE7FEE7FEE7E7
S3150800CA3CFEE770477047704708B500F079F808BDEF
S3150800CA4C054BD3F8882042F47002C3F888204FF0BF
S3150800CA5C00629A60704700BF00ED00E0DFF834D042
S3150800CA6C002103E00C4B5B58435004310B480C4B2C
S3150800CA7C42189A42F6D30B4A02E0002342F8043BCA
S3150800CA8C094B9A42F9D3FFF7DBFF01F01BF9FFF7C5
S3150800CA9CEFFE70470000022068DD00080000002049
S3150800CAAC0C0000200C0000206C010020FEE70000A2
S3150800CABC10B504460E4B18784FF47A73B3FBF0F3A3
S3150800CACC0C4A1068B0FBF3F000F09EF868B90F2C0E
S3150800CADC01D901200AE0002221464FF0FF3000F070
S3150800CAEC5FF8054B1C60002000E0012010BD00BF5C
S3150800CAFC04000020000000200800002008B50B4B9D
S3150800CB0C1A6842F400721A601A6842F480621A6053
S3150800CB1C1A6842F480721A60032000F02FF800207D
S3150800CB2CFFF7C6FFFFF7B4FE002008BD003C024025
S3150800CB3C034A1168034B1B780B441360704700BFFC
S3150800CB4C6801002004000020014B1868704700BFDC
S3150800CB5C6801002038B50446FFF7F6FF0546B4F120
S3150800CB6CFF3F02D0044B1B781C44FFF7EDFF401B1C
S3150800CB7CA042FAD338BD00BF04000020074AD36888
S3150800CB8C23F4E0631B041B0C000200F4E06018435A
S3150800CB9C40F0BF6040F40030D060704700ED00E014
S3150800CBAC30B4174BDB68C3F30223C3F10704042C18
S3150800CBBC28BF04241D1D062D18D9033B4FF0FF353D
S3150800CBCC05FA04F421EA0401994005FA03F322EA6A
S3150800CBDC0303194300280BDB0901C9B200F16040B5
S3150800CBEC00F5614080F8001330BC70470023E5E778
S3150800CBFC00F00F000901C9B2024B1954F4E700BF43
S3150800CC0C00ED00E014ED00E00138B0F1807F0AD2A7
S3150800CC1C064B5860064AF02182F8231000209860CB
S3150800CC2C07221A6070470120704700BF10E000E029
S3150800CC3C00ED00E05079137943EA002307480B50BE
S3150800CC4CD07893781B0443EA0063507843EA0023B0
S3150800CC5C12781343024A8B50704700BF408002403B
S3150800CC6C4480024070B59EB0044629B14FF4006367
S3150800CC7CC3604FF480438360E369002B6AD14FF499
S3150800CC8C8063079321680B68394A1A40A368E068E1
S3150800CC9C03430798034343F4007313430B60236859
S3150800CCAC1D680120FFF756FF23681D602368402284
S3150800CCBC5A6023685D680120FFF74CFF23685D60A6
S3150800CCCC236800259D602368DD602268936923F03C
S3150800CCDCBE031B041B0C43F08003936123689E69F7
S3150800CCEC0120FFF737FF23689E612368DD612368FF
S3150800CCFCDD690120FFF72EFF2368DD61226841F20A
S3150800CD0C180551591B4B0B4043F0087343F00403A9
S3150800CD1C535123685E590120FFF71CFF23685E51A7
S3150800CD2C236803F58053144A1A60236803F5805365
S3150800CD3C1D680120FFF70EFF236803F580531D605D
S3150800CD4CA369012B09D0626900212046FFF772FFFF
S3150800CD5C1EB070BD0023079394E7216841F21C02AC
S3150800CD6C8B5843F4803343F040038B50EBE700BFFA
S3150800CD7C0F8120FF233FDEF88020C102F8B590F81A
S3150800CD8C4430DBB2822B33D016460546822380F814
S3150800CD9C44300268136903F01C03048AE402A4B243
S3150800CDAC23438C0104F4F8641C4344F00104146115
S3150800CDBCFFF7CAFE074614F0010F10D0FFF7C4FEA2
S3150800CDCCC01BB0F5803F02D22B681C69F3E7012320
S3150800CDDC85F84430002385F84530032007E02B6896
S3150800CDEC5B699BB23360012385F844300020F8BD9B
S3150800CDFC0220FCE790F84430DBB2422B32D070B5F7
S3150800CE0C0546422380F844300068036903F01C0386
S3150800CE1C2C8AE402A4B223438C0104F4F8641C4360
S3150800CE2C44F0030492B242612B681C61FFF78CFE36
S3150800CE3C064614F0010F10D0FFF786FE801BB0F5DE
S3150800CE4C803F02D22B681C69F3E7012385F844302E
S3150800CE5C002385F84530032003E0012385F8443088
S3150800CE6C002070BD0220704770B582B00023019374
S3150800CE7C002800F00E81044690F84430002B34D07C
S3150800CE8C00230093844B5A6C42F480425A645B6CC0
S3150800CE9C03F480430093009B804B5A6822F40002EB
S3150800CEAC5A605A68216A0A435A60236803F5805304
S3150800CEBC1A6842F001021A60FFF746FE0546236817
S3150800CECC03F58052126812F0010F13D0FFF73CFEDF
S3150800CEDC401BB0F5FA7FF2D9032584F84450002399
S3150800CEEC84F84530284602B070BD80F84530FFF707
S3150800CEFCEBFCC5E71D6925F01C0500F0DDFC684B4D
S3150800CF0C0344684A934255D845F0080523681D61C1
S3150800CF1C4FF4004200212046FFF76CFF0546002817
S3150800CF2C60D1FF20FFF716FE6368002B00F0918096
S3150800CF3CFFF70AFE064601AA01212046FFF71EFF47
S3150800CF4CFFF702FE801B41F28833984252D8019BA8
S3150800CF5C13F0040FEFD04FF4805200212046FFF750
S3150800CF6C49FF002852D1FFF7EFFD064601AA012119
S3150800CF7C2046FFF703FFFFF7E7FD801B41F28833D6
S3150800CF8C98424BD8019B13F0200FEFD001AA1F2112
S3150800CF9C2046FFF7F3FE00284CD1019B13F0100F27
S3150800CFAC50D04FF40062E26013F0040F4DD000230A
S3150800CFBCA3605EE03C4B03443C4A934202D845F0DE
S3150800CFCC0C05A3E73A4B03443A4A93429ED93A4B8B
S3150800CFDC03443A4A934202D845F0040596E745F0CD
S3150800CFEC100593E701212046FFF73CFE012584F83E
S3150800CFFC445077E701212046FFF734FE012384F8D5
S3150800D00C4430002384F8453003256BE7012120467C
S3150800D01CFFF728FE012584F8445063E701212046D2
S3150800D02CFFF720FE012384F84430002384F84530AA
S3150800D03C032557E701212046FFF714FE012584F83E
S3150800D04C44504FE70022E260AEE74FF48043A360FA
S3150800D05C0FE0E268C2F3CF02A368C3F34F031A4387
S3150800D06C00212046FFF7C6FE58B940F6FF70FFF7B9
S3150800D07C71FD00212046FFF7F5FD012384F84430A5
S3150800D08C30E701212046FFF7EDFD012584F84450D1
S3150800D09C28E7012526E700BF003802400038014082
S3150800D0AC00D3CEFEBFE1E40040F1E9FD3F787D01F7
S3150800D0BC00796CFCFF596202001F0AFA7FF0FA022B
S3150800D0CC00230F2B00F2D780F0B583B039E0072286
S3150800D0DC00E00022AA403A430234674D45F8242062
S3150800D0EC664A1468F24302EA04054F6817F4803F4F
S3150800D0FC01D046EA0405614C2560646802EA040519
S3150800D10C4F6817F4003F01D046EA04055B4C65608E
S3150800D11CA46802EA04054F6817F4801F01D046EA92
S3150800D12C0405564CA560E46822404D6815F4001FAA
S3150800D13C01D046EA0402514CE26001330F2B00F28F
S3150800D14C988001229A400C6804EA0206B242F4D18D
S3150800D15C4C68651E012D03D9112C01D0122C12D145
S3150800D16C85685F000324BC4025EA0405CC68BC40EE
S3150800D17C2C438460456825EA02054C68C4F3001202
S3150800D18C9A402A434260C4685F000322BA40D243DD
S3150800D19C14408D68BD402543C5604C68022C01D0EF
S3150800D1AC122C13D1DD08083550F825E003F00704D6
S3150800D1BC4FEA840C0F2404FA0CF42EEA040E0C69BC
S3150800D1CC04FA0CF444EA0E0440F82540046822409C
S3150800D1DC4C6804F00304BC40224302604A6812F00F
S3150800D1EC805FAAD000220192254A546C44F48044EC
S3150800D1FC5464526C02F480420192019A9C08A51C54
S3150800D20C1D4A52F8257003F0030295000F22AA4016
S3150800D21C27EA02071B4A90423FF45BAF02F580628D
S3150800D22C90421AD002F58062904218D002F58062BC
S3150800D23C904216D002F58062904214D002F58062B4
S3150800D24C904212D002F58062904210D002F58062AC
S3150800D25C90423FF43CAF08223CE701223AE702220F
S3150800D26C38E7032236E7042234E7052232E706229A
S3150800D27C30E703B0F0BD704700380140003C014070
S3150800D28C003802400000024012B909048161704757
S3150800D29C81617047002800F0E48170B582B00446BD
S3150800D2AC036813F0010F3BD0A74B9B6803F00C03E4
S3150800D2BC042B2CD0A44B9B6803F00C03082B21D011
S3150800D2CC6368B3F5803F4FD0B3F5A02F52D09E4B71
S3150800D2DC1A6822F480321A601A6822F480221A60BC
S3150800D2EC6368002B50D0FFF72FFC0546964B1B683E
S3150800D2FC13F4003F14D1FFF727FC401B6428F5D91B
S3150800D30C0320B3E1904B5B6813F4800FD8D08E4B97
S3150800D31C1B6813F4003F03D06368002B00F0A3814D
S3150800D32C236813F0020F55D0874B9B6813F00C0F2C
S3150800D33C3ED0854B9B6803F00C03082B33D0E3686F
S3150800D34C002B68D0814B01221A60FFF7FDFB0546BE
S3150800D35C7D4B1B6813F0020F54D1FFF7F5FB401BEE
S3150800D36C0228F5D9032081E1774A136843F4803300
S3150800D37C1360B5E7744B1A6842F480221A601A686F
S3150800D38C42F480321A60ABE7FFF7DEFB05466E4BBC
S3150800D39C1B6813F4003FC3D0FFF7D6FB401B642869
S3150800D3ACF5D9032062E1684B5B6813F4800FC6D18C
S3150800D3BC654B1B6813F0020F04D0E368012B01D0F0
S3150800D3CC012053E1604A136823F0F803216943EA04
S3150800D3DCC1031360236813F0080F40D0636963B365
S3150800D3EC5B4B01221A60FFF7AFFB0546564B5B6F8A
S3150800D3FC13F0020F33D1FFF7A7FB401B0228F5D910
S3150800D40C032033E1504A136823F0F803216943EAF1
S3150800D41CC1031360DEE74D4B00221A60FFF794FB3D
S3150800D42C0546494B1B6813F0020FD3D0FFF78CFB4C
S3150800D43C401B0228F5D9032018E1454B00221A6037
S3150800D44CFFF782FB0546404B5B6F13F0020F06D0C5
S3150800D45CFFF77AFB401B0228F5D9032006E123685F
S3150800D46C13F0040F79D0384B1B6C13F0805F33D153
S3150800D47C00230193344B1A6C42F080521A641B6CCD
S3150800D48C03F080530193019B0125324B1B6813F45F
S3150800D49C807F23D0A368012B34D0052B38D02A4B98
S3150800D4AC1A6F22F001021A671A6F22F004021A6721
S3150800D4BCA368002B36D0FFF747FB0646224B1B6F9B
S3150800D4CC13F0020F48D1FFF73FFB801B41F288335C
S3150800D4DC9842F3D90320C9E00025D6E71D4A1368FC
S3150800D4EC43F480731360FFF72FFB0646194B1B6832
S3150800D4FC13F4807FCED1FFF727FB801B0228F5D9C2
S3150800D50C0320B3E0104A136F43F001031367CFE708
S3150800D51C0D4B1A6F42F004021A671A6F42F0010299
S3150800D52C1A67C5E7FFF710FB0646074B1B6F13F088
S3150800D53C020F11D0FFF708FB801B41F28833984283
S3150800D54CF3D9032092E000BF00380240000047429E
S3150800D55C800E474200700040EDB9A369002B00F01D
S3150800D56C8480454A926802F00C02082A51D0022B94
S3150800D57C17D0424B00221A60FFF7E6FA04463E4BD8
S3150800D58C1B6813F0007F42D0FFF7DEFA001B022857
S3150800D59CF5D903206AE0384A136C23F080531364D8
S3150800D5ACDBE7364B00221A60FFF7CEFA0546324BFC
S3150800D5BC1B6813F0007F06D0FFF7C6FA401B02283B
S3150800D5CCF5D9032052E0E369226A1343626A43EAF7
S3150800D5DC8213A26A5208013A43EA0243E26A43EA10
S3150800D5EC0263254A5360254B01221A60FFF7ACFAF1
S3150800D5FC0446214B1B6813F0007F06D1FFF7A4FAEB
S3150800D60C001B0228F5D9032030E000202EE000206C
S3150800D61C2CE0012B2CD0184B5B6803F48001E269D3
S3150800D62C914201D0012021E003F03F02216A8A428F
S3150800D63C01D001201AE0616A47F6C0721A408A4284
S3150800D64C01D0012012E003F44032A16A8A4201D0CB
S3150800D65C01200BE003F07063E26A93420AD00120C2
S3150800D66C04E001207047012000E0002002B070BDE4
S3150800D67C0120FBE70020F9E700380240600047422A
S3150800D68C324B9B6803F00C03042B5CD0082B01D09F
S3150800D69C2F4870472DE9F04B2C4B5A6802F03F0285
S3150800D6AC5B6813F4800F2BD0284B5B68C3F3881385
S3150800D6BC1E4600275C010025E41A65EB0705A9013F
S3150800D6CC41EA9461A001001B61EB0501CB0043EA1A
S3150800D6DC5073C400A01943EB07014B0243EAD0531D
S3150800D6EC4402204619460023FEF76AFD174B5B6871
S3150800D6FCC3F3014301335B00B0FBF3F0BDE8F08BD9
S3150800D70C124B5B68C3F388131E4600275C01002581
S3150800D71CE41A65EB0705A90141EA9461A001001B0F
S3150800D72C61EB0501CB0043EA5073C400A01943EB27
S3150800D73C07018B0243EA90538402204619460023BC
S3150800D74CFEF73EFDD2E70348704700BF003802409B
S3150800D75C0024F40000127A00002800F09E8070B5B0
S3150800D76C0446504B1B6803F00F038B4209D2CBB20D
S3150800D77C4C4A1370136803F00F038B4201D0012037
S3150800D78C70BD236813F0020F17D013F0040F04D0E2
S3150800D79C454A936843F4E0539360236813F0080FE3
S3150800D7AC04D0414A936843F4604393603E4A9368B5
S3150800D7BC23F0F003A068034393600D46236813F027
S3150800D7CC010F32D06368012B21D09A1E012A25D964
S3150800D7DC354A126812F0020F61D033498A6822F072
S3150800D7EC030213438B60FFF7AFF906462E4B9B6873
S3150800D7FC03F00C036268B3EB820F16D0FFF7A4F99B
S3150800D80C801B41F288339842F0D90320B8E7264AA0
S3150800D81C126812F4003FE0D10120B1E7224A1268DF
S3150800D82C12F0007FD9D10120AAE71E4B1B6803F022
S3150800D83C0F03AB4209D9EAB21A4B1A701B6803F0EC
S3150800D84C0F03AB4201D001209AE7236813F0040FAB
S3150800D85C06D0154A936823F4E053E1680B439360AA
S3150800D86C236813F0080F07D00F4A936823F4604314
S3150800D87C216943EAC1039360FFF702FF0A4B9B68D1
S3150800D88CC3F30313094AD35CD840094B1860094BF8
S3150800D89C1868FFF70DF9002072E701207047012080
S3150800D8AC6EE700BF003C02400038024040DD00082D
S3150800D8BC0000002008000020014B1868704700BFC4
S3150800D8CC0000002008B5FFF7F7FF044B9B68C3F36D
S3150800D8DC8223034AD35CD84008BD00BF00380240F7
S3150800D8EC50DD000808B5FFF7E7FF044B9B68C3F348
S3150800D8FC4233034AD35CD84008BD00BF0038024007
S3150800D90C50DD00082DE9F04B04460268136923F430
S3150800D91C4053C1680B431361836802691343426918
S3150800D92C1343C2691A430168CB6823F4164323F0E0
S3150800D93C0C031343CB600268536923F44073816963
S3150800D94C0B435361C369B3F5004F3BD00368714A67
S3150800D95C934200F0AB8002F58062934200F0A680F9
S3150800D96CFFF7B0FF4FF00009061849EB090716EB4D
S3150800D97C000B47EB090C4FEACC0343EA5B734FEAFF
S3150800D98CCB0293469C4663689A009B0F10EB0B00E0
S3150800D99C49EB0C01FEF714FC5F4DA5FB003251094F
S3150800D9AC642202FB110213013233A5FB03235B0924
S3150800D9BC03F0F00202EB011203F00F032168134483
S3150800D9CC8B60A4E00368534A934239D002F580620F
S3150800D9DC934235D0FFF776FF83464FF0000C0618B6
S3150800D9EC4CEB0C0716EB000847EB0C094FEAC9037E
S3150800D9FC43EA58734FEAC802904699466268002172
S3150800DA0C921841EB01031BEB08004CEB0901FEF7DE
S3150800DA1CD7FB414DA5FB00325109642202FB1102CA
S3150800DA2CD3003233A5FB03235B095A0002F4F872C0
S3150800DA3C02EB011203F00703216813448B6066E0BE
S3150800DA4CFFF750FF80464FF00009061849EB090707
S3150800DA5C16EB000B47EB090C4FEACC0343EA5B7356
S3150800DA6C4FEACB0293469C4662680021921841EB1A
S3150800DA7C010318EB0B0049EB0C01FEF7A1FB264D35
S3150800DA8CA5FB00325109642202FB1102D300323382
S3150800DA9CA5FB03235B095A0002F4F87202EB011288
S3150800DAAC03F00703216813448B6030E0FFF71AFF75
S3150800DABC4FF00009061849EB090716EB000B47EB64
S3150800DACC090C4FEACC0343EA5B734FEACB02934645
S3150800DADC9C4663689A009B0F10EB0B0049EB0C01F4
S3150800DAECFEF76EFB0C4DA5FB00325109642202FBB6
S3150800DAFC110213013233A5FB03235B0903F0F00271
S3150800DB0C02EB011203F00F03216813448B60BDE886
S3150800DB1CF08B00BF001001401F85EB512DE9F04139
S3150800DB2C05460F4616469846069C2B681B6837EA28
S3150800DB3C03030CBF01230023B3421DD1B4F1FF3FED
S3150800DB4CF3D02CB1FFF700F8A0EB0800A042ECD9F3
S3150800DB5C2A68D36823F4D073D3602A68536923F0F0
S3150800DB6C01035361202385F8393085F83A300023B0
S3150800DB7C85F83830032000E00020BDE8F08158B362
S3150800DB8C10B5044690F839300BB3242384F8393091
S3150800DB9C2268D36823F40053D3602046FFF7B2FEFD
S3150800DBAC2268136923F4904313612268536923F09E
S3150800DBBC2A0353612268D36843F40053D3600020C8
S3150800DBCCE063202384F8393084F83A3010BD80F8A5
S3150800DBDC3830FEF7F1FED8E7012070472DE9F043FF
S3150800DBEC83B01E4690F83A30DBB2202B5CD1044643
S3150800DBFC0D46904600295BD0002A5BD090F8383049
S3150800DC0C012B59D0012380F838304FF00009C0F8A1
S3150800DC1C3C90222380F83A30FEF796FF0746A4F884
S3150800DC2C2C80A4F82E8084F838901DE000963B468C
S3150800DC3C002220212046FFF771FF00283ED12369D8
S3150800DC4C33B923685B68C3F3080325F8023B0BE07A
S3150800DC5C23685B68DBB225F8013B05E023685B6843
S3150800DC6C03F07F032B700135E38D9BB2BBB1E38DBB
S3150800DC7C013B9BB2E385A368B3F5805FD6D00096CB
S3150800DC8C3B46002220212046FFF748FFC0B92369EE
S3150800DC9C002BE3D123685B682B700135E4E720235E
S3150800DCAC84F83A30002000E0022003B0BDE8F08387
S3150800DCBC0120FAE70120F8E70220F6E70320F4E74B
S3150800DCCC0320F2E770B50D4E0D4CA41BA4100025CD
S3150800DCDCA54209D10B4E0C4C00F020F8A41BA4103D
S3150800DCEC0025A54205D170BD56F825309847013553
S3150800DCFCEEE756F8253098470135F2E760DD00085F
S3150800DD0C60DD000860DD000864DD00080244034697
S3150800DD1C934200D1704703F8011BF9E7F8B500BF29
S3150800DD2CF8BC08BC9E467047F8B500BFF8BC08BCE2
S3090800DD3C9E4670473A
S3150800DD40000000000000000001020304060708099D
S30D0800DD500000000001020304B3
S30D0800DD58A4E4FF7F01000000AE
S3090800DD60B1C1000837
S3090800DD648DC1000857
S3110800DD680024F400010000001000000078
S7050800CA69BF
