S024000064656D6F70726F675F646973636F766572795F73746D3332663430372E7372656353
S3150800400000000220A14A0008AD490008AF4900088F
S31508004010B1490008B3490008B54900080000000086
S31508004020000000000000000000000000B74900087A
S31508004030B949000800000000BB490008BD4900084E
S31508004040F14A0008F14A0008F14A0008F14A000856
S31508004050F14A0008F14A0008F14A0008F14A000846
S31508004060F14A0008F14A0008F14A0008F14A000836
S31508004070F14A0008F14A0008F14A0008F14A000826
S31508004080F14A0008F14A0008F14A0008F14A000816
S31508004090F14A0008F14A0008F14A0008F14A000806
S315080040A0F14A0008F14A0008F14A0008F14A0008F6
S315080040B0F14A0008F14A0008F14A0008F14A0008E6
S315080040C0F14A0008F14A0008F14A0008F14A0008D6
S315080040D0F14A0008F14A0008F14A0008F14A0008C6
S315080040E0F14A0008F14A0008F14A0008F14A0008B6
S315080040F0F14A0008F14A0008F14A0008F14A0008A6
S31508004100F14A0008F14A0008F14A0008F14A000895
S31508004110F14A0008F14A0008F14A0008F14A000885
S31508004120F14A0008F14A0008F14A0008F14A000875
S31508004130F14A0008F14A0008F14A0008F14A000865
S31508004140F14A0008F14A0008F14A0008F14A000855
S31508004150F14A0008F14A0008F14A0008F14A000845
S31508004160F14A0008F14A0008F14A0008F14A000835
S31508004170F14A0008F14A0008F14A00080000000068
S31108004180F14A0008F14A0008EE11AA55A1
S3150800419010B5054C237833B9044B13B10448AFF373
S315080041A000800123237010BD80000020000000005D
S315080041B05453010808B5034B1BB103490348AFF331
S315080041C0008008BD00000000840000205453010848
S315080041D0034613F8012B002AFBD1181A0138704739
S315080041E001F0FF01102A2BDB10F0070F08D010F89A
S315080041F0013B013A8B422DD010F0070F42B3F6D19E
S31508004200F0B441EA012141EA014122F007047FF0B6
S3150800421000070023F0E80256083C85EA010586EA0D
S31508004220010685FA47F5A3FA87F586FA47F6A5FA49
S3150800423087F68EB9EED1F0BC01F0FF0102F0070255
S3150800424032B110F8013B013A83EA010313B1F8D100
S315080042500020704701387047002D06BF35460338E1
S31508004260073815F0010F07D1013015F4807F02BF1A
S31508004270013015F4C03F0130F0BC0138704700BF6B
S3150800428053B94AB9002908BF00281CBF4FF0FF31AF
S315080042904FF0FF3000F06EB9ADF1080C6DE904CEB1
S315080042A000F006F8DDF804E0DDE9022304B0704703
S315080042B02DE9F047089D04468C46002B40F0838084
S315080042C08A42174647D9B2FA82F242B1C2F12000B1
S315080042D024FA00F09140974040EA010C94404FEAD6
S315080042E01748230CBCFBF8F61FFA87FE08FB16C115
S315080042F043EA014306FB0EF1994209D9FB1806F178
S31508004300FF3080F01981994240F21681023E3B4403
S315080043105B1AA4B2B3FBF8F008FB103344EA034473
S3150800432000FB0EFEA64509D93C1900F1FF3380F0C3
S315080043300581A64540F2028102383C4440EA06401F
S31508004340A4EB0E0400261DB1D4400023C5E90043A2
S315080043503146BDE8F08702B9FFDEB2FA82F2002ADA
S3150800436050D1CB1B4FEA174E1FFA87F80126B3FB2D
S31508004370FEFC210C0EFB1C3341EA034108FB0CF33F
S315080043808B4207D979180CF1FF3002D28B4200F222
S31508004390E9808446C91AA3B2B1FBFEF00EFB1011E0
S315080043A043EA014408FB00F8A04507D93C1900F187
S315080043B0FF3302D2A04500F2D9801846A4EB0804C0
S315080043C040EA0C40BFE78B4209D9002D00F0B180C6
S315080043D00026C5E9000130463146BDE8F087B3FA44
S315080043E083F6002E4AD18B4202D3824200F2B8806D
S315080043F0841A61EB030101208C46002DA8D0C5E97B
S31508004400004CA5E7C2F1200320FA03F6974001FA0B
S3150800441002F04FEA174ED9403043030CB1FBFEF6C3
S315080044201FFA87F80EFB161143EA014306FB08F14B
S31508004430994204FA02F409D9FB1806F1FF3C80F008
S315080044408D80994240F28A80023E3B445B1A81B2D3
S31508004450B3FBFEF00EFB103341EA034100FB08F301
S315080044608B4207D9791800F1FF3C73D28B4271D978
S3150800447002383944CB1A40EA064678E7C6F1200CDA
S3150800448003FA06F422FA0CF31C4320FA0CF701FA95
S3150800449006F34FEA144E21FA0CF11F433B0CB1FB0D
S315080044A0FEF91FFA84F80EFB191143EA014109FBCC
S315080044B008FA8A4502FA06F200FA06F308D96118DC
S315080044C009F1FF3048D28A4546D9A9F102092144A3
S315080044D0A1EB0A01BFB2B1FBFEF00EFB101147EAD1
S315080044E0014700FB08F8B84507D9E71900F1FF317D
S315080044F02ED2B8452CD90238274440EA0940A7EB02
S315080045000807A0FB02894F45C64649461AD317D065
S315080045105DB1B3EB0E0267EB010707FA0CFCF2403C
S315080045204CEA0202F740C5E9002700263146BDE8F5
S31508004530F0872E4628460BE70646E9E61846FDE6C6
S315080045404345E5D2B8EB020E69EB04010138DFE713
S315080045500846D2E760468DE78146B9E7664675E7BD
S3150800456030464AE7ACF1020C394413E702383C44BA
S3150800457024E700BF704700BF08B500F087F800F0D1
S315080045802DF808BD08B500F049F800F023F808BD75
S31508004590BFF34F8F0549CA6802F4E062044B134320
S315080045A0CB60BFF34F8F00BFFDE700BF00ED00E013
S315080045B00400FA0508B5044B1B68044904489847E3
S315080045C000B908BDFFF7E4FF94010008DD000020EC
S315080045D09C00002008B5FFF7EDFF08BD10B50122C5
S315080045E04FF400510B4801F03FF90B4C01224FF4F0
S315080045F08051204601F038F901224FF480412046C7
S3150800460001F032F901224FF40041204601F02CF95D
S3150800461010BD00BF00080240000C024070B500F053
S3150800462036F8174B1B68C31AB3F5FA7F15D3044639
S31508004630144B1B7893B90125124B1D70124E2A464E
S315080046404FF48051304601F00FF92A464FF40041E5
S31508004650304601F009F90A4B1C6070BD0025094B6C
S315080046601D70094E2A464FF48051304601F0FCF879
S315080046702A464FF40041304601F0F6F8EBE700BF52
S31508004680E0000020DE000020000C0240704708B55C
S3150800469000F07CFA08BD0000014A024B9A60704798
S315080046A00040000800ED00E070B58CB000240B94C3
S315080046B0294B1A6B42F004021A631A6B02F00402C1
S315080046C00592059A1A6B42F080021A631A6B02F079
S315080046D080020492049A1A6B42F001021A631A6B5A
S315080046E002F001020392039A1A6B42F002021A635D
S315080046F01A6B02F002020292029A1A6B42F0080240
S315080047001A631B6B03F008030193019B13484FF4CC
S3150800471000538361124E4FF07042B2610693012531
S315080047200795089409940A9406A901F0A9F806952C
S3150800473007940A9406A90B4801F0A2F84FF47043AF
S3150800474006930795089409940A9406A9304601F039
S3150800475097F80CB070BD00BF003802400008024050
S31508004760000C02400000024010B590B000240994E5
S315080047700A940B940C940D940E940F941E4B5A6C39
S3150800478042F020025A645A6C02F020020292029AFF
S315080047901A6B42F004021A631B6B03F004030193BD
S315080047A0019BC023039302230493032305930694D2
S315080047B007940823089303A9104801F061F84FF4F9
S315080047C0E13309930A940B940C940C230D930E94DD
S315080047D00F940B4C09A9204601F05AF9236923F4D2
S315080047E090432361636923F02A036361E36843F412
S315080047F00053E36010B010BD0038024000080240C4
S315080048000014014010B50446024B1B68C0B2984715
S31508004810204610BD8C01000808B52E4A136823F0FF
S31508004820070343F0050313602A4B1B6803F00703CD
S31508004830052BF9D1284A136843F48043136002F51F
S31508004840E432136823F0F80343F080031360136817
S3150800485043F001031360214B1B6813F0020FFAD0D3
S315080048601E4A51681E4B0B4043F4285343F0080375
S315080048705360536823F440335360136843F08073DE
S315080048801360164B1B6813F0007FFAD0134B9A6817
S3150800489022F0F0029A609A6822F4E05242F4A0529A
S315080048A09A609A6822F4604242F400429A609A68D2
S315080048B022F0030242F002029A60084B9B6803F05A
S315080048C00C03082BF9D1074801F09EF9002000F0E7
S315080048D011F908BD003C0240007000400038024053
S315080048E00080BFFF007A030A30B585B0FFF7D4FE13
S315080048F000F026F9FFF790FFFFF7D6FEFFF734FF23
S3150800490001F088F9FFF738FE16480FF019FD164C26
S3150800491094F8DB3094F8DC2094F8DD1002910192CB
S31508004920009394F8DA3094F8D92094F8D8100F4800
S315080049300FF080FC656803E001F0B4F9FFF722FE8A
S31508004940002DF9D1084B5C68002CF5D0230E009396
S31508004950C4F30743C4F30722E1B205480FF06AFC23
S315080049602546E9E76C53010804080020845301082A
S31508004970B853010882B0002100910B4B5A6C42F4DF
S3150800498080425A645A6C02F480420092009A01915D
S315080049901A6C42F080521A641B6C03F08053019320
S315080049A0019B02B0704700BF003802407047FEE71F
S315080049B0FEE7FEE7FEE770477047704708B500F068
S315080049C0D9F808BD01207047024B16221A604FF02D
S315080049D0FF307047B87F002008B54FF0FF31FFF76A
S315080049E0F3FFFEE770B50C4616460025B54207DA12
S315080049F0AFF30080214601F8010B01350C46F5E7B7
S31508004A00304670BD70B50C4616460025B54205DA27
S31508004A1014F8010BFFF7F6FE0135F7E7304670BDCF
S31508004A204FF0FF3070474FF400534B60002070473B
S31508004A30012070470020704710B403460C4A0D4900
S31508004A400D48006850B10C4800680344521A934256
S31508004A5008D8094A13605DF8044B70470648074CA6
S31508004A600460F0E7064B0C221A604FF0FF30F2E7BD
S31508004A700000022000040000E4000020C87F002097
S31508004A80B87F0020054BD3F8882042F47002C3F89B
S31508004A9088204FF000629A60704700BF00ED00E082
S31508004AA0DFF834D0002103E00C4B5B584350043147
S31508004AB00B480C4B42189A42F6D30B4A02E00023E5
S31508004AC042F8043B094B9A42F9D3FFF7DBFF0FF094
S31508004AD04FFBFFF709FF704700000220E07F01083F
S31508004AE0000000208000002080000020C87F0020F1
S31508004AF0FEE7000010B504460E4B18784FF47A739B
S31508004B00B3FBF0F30C4A1068B0FBF3F000F09EF824
S31508004B1068B90F2C01D901200AE0002221464FF07E
S31508004B20FF3000F05FF8054B1C60002000E0012014
S31508004B3010BD00BF0400002000000020080000206F
S31508004B4008B50B4B1A6842F400721A601A6842F4E8
S31508004B5080621A601A6842F480721A60032000F0B4
S31508004B602FF80020FFF7C6FFFFF704FF002008BD57
S31508004B70003C0240034A1168034B1B780B44136040
S31508004B80704700BFEC07002004000020014B18689E
S31508004B90704700BFEC07002038B50446FFF7F6FF5C
S31508004BA00546B4F1FF3F02D0044B1B781C44FFF7BF
S31508004BB0EDFF401BA042FAD338BD00BF0400002019
S31508004BC0074AD36823F4E0631B041B0C000200F4B5
S31508004BD0E060034343F0BF6343F40033D360704798
S31508004BE000ED00E030B4174BDB68C3F30223C3F1D2
S31508004BF00704042C28BF04241D1D062D18D9033BC1
S31508004C004FF0FF3505FA04F421EA0401994005FA44
S31508004C1003F322EA0303194300280BDB0901C9B28F
S31508004C2000F1604000F5614080F8001330BC704721
S31508004C300023E5E700F00F000901C9B2024B195439
S31508004C40F4E700BF00ED00E014ED00E00138B0F134
S31508004C50807F0AD2064B5860064AF02182F8231054
S31508004C600020986007221A6070470120704700BF2D
S31508004C7010E000E000ED00E05079137943EA0023E4
S31508004C8007480B50D07893781B0443EA00635078A2
S31508004C9043EA002312781343024A8B50704700BF39
S31508004CA04080024044800240016841F218028B5855
S31508004CB043F400538B507047016841F218028B5831
S31508004CC023F400538B507047016841F218028B5841
S31508004CD043F002038B507047016841F218028B5863
S31508004CE023F002038B50704782B0084B1B68084AB2
S31508004CF0A2FB03235B0A00FB03F3019300BF019B9E
S31508004D005A1E0192002BF9D102B07047000000200C
S31508004D10D34D621010B582B0044600230193026891
S31508004D20136843F00803136003681B6801930120A6
S31508004D30FFF7DAFF2368019A1A6002B010BD10B5B2
S31508004D4082B00446002301930268136843F0040303
S31508004D50136003681B6801930120FFF7C5FF2368EA
S31508004D60019A1A6002B010BD30B583B0044600231C
S31508004D700193026841F21805535943F480135351BD
S31508004D8003685B5901930120FFF7AEFF2368019A78
S31508004D905A5103B030BD10B582B0044600230193C2
S31508004DA00268136823F00403136003681B68019301
S31508004DB00120FFF799FF2368019A1A6002B010BD17
S31508004DC010B582B00446002301930268136823F0E5
S31508004DD00803136003681B6801930120FFF784FF2B
S31508004DE02368019A1A6002B010BD000070B59EB023
S31508004DF0044629B14FF40063C3604FF480438360CF
S31508004E00E369002B6AD14FF48063079321680B6826
S31508004E10394A1A40A368E06803430798034343F4F2
S31508004E20007313430B6023681D680120FFF7B4FE67
S31508004E3023681D60236840225A6023685D68012044
S31508004E40FFF7AAFE23685D60236800259D60236836
S31508004E50DD602268936923F0BE031B041B0C43F034
S31508004E608003936123689E690120FFF795FE2368F6
S31508004E709E612368DD612368DD690120FFF78CFEEA
S31508004E802368DD61226841F2180551591B4B0B4016
S31508004E9043F0087343F00403535123685E59012015
S31508004EA0FFF77AFE23685E51236803F58053144A98
S31508004EB01A60236803F580531D680120FFF76CFE0E
S31508004EC0236803F580531D60A369012B09D0626925
S31508004ED000212046FFF7D0FE1EB070BD00230793C1
S31508004EE094E7216841F21C028B5843F4803343F05F
S31508004EF040038B50EBE700BF0F8120FF233FDEF80E
S31508004F008020C102F0B490F84540012C32D001242B
S31508004F1080F84540022480F84440C162002401E03C
S31508004F20F16001349C4218D2670101EB44164FF434
S31508004F308015CD5140F2F45505FB0425B560C569C9
S31508004F401DB9CD5945F44005CD515D1EA542E7D999
S31508004F50651C01EB4515F560E3E7026841F21003AD
S31508004F60D150012380F84430002380F84530184694
S31508004F70F0BC70470220FBE7F0B490F84540012CDE
S31508004F802FD0012480F84540022480F844408162ED
S31508004F90002401E0E96001349C4215D2660101EB68
S31508004FA044154FF000478F5144F2F4566E6040F2B4
S31508004FB0F45606FB0426AE605E1EA642EAD9661CB7
S31508004FC001EB4616EE60E6E7026841F20C03D150A3
S31508004FD0012380F84430002380F845301846F0BC99
S31508004FE070470220FBE7000090F84530012B00F0DF
S31508004FF08580012380F84530022380F84430B1B11A
S31508005000C36A1A68002A1ADB30B440F2F452914295
S315080050101DD93B4CA4FB0124A40A40F2F45202FB1E
S31508005020141202B10134012C11D0002348E00123E7
S3150800503080F84430002280F845201846704712232D
S3150800504080F84430002380F84530012070471A68FC
S3150800505042F040521A60C36AC1F30C015960C26A31
S31508005060136843F000431360C36ADB68C3620368CE
S3150800507041F214029A5812F0040F08D041F21402B1
S3150800508004219950026841F204030021D1500123FA
S3150800509080F84430002380F84530184630BC704705
S315080050A0C26A40F2F4555560621E9A4217D0C56A24
S315080050B02A6842F000422A60C26AD268C262013394
S315080050C09C42D4D9C56A2A6822F040522A60002B2D
S315080050D0E6D1C56A2A6842F080522A60E0E7C56AC6
S315080050E02A6842F000522A60064A02FB041202F2BB
S315080050F0F452C56AC2F30C026A60D8E70220704708
S315080051000BB002AC0CFAFFFF90F84530012B40D0EB
S31508005110012380F84530022380F84430836A1A68F0
S31508005120002A0EDB1A6812F4807F12D11A6812F46C
S31508005130007F28D003630022426301228263DB6872
S315080051408362012380F84430002280F845201846FF
S315080051507047826B01328263012A12D043631A6850
S31508005160C2F30D42043AC263026B92680264DB68BA
S315080051708362012380F84430002380F845301846BE
S3150800518070470363EAE7826B01328263DB688362F6
S31508005190D7E702207047F8B590F84430DBB2822B87
S315080051A033D005461646822380F8443000680269E3
S315080051B002F01C022B8ADB029BB213438C0104F417
S315080051C0F8641C4344F001040461FFF7DFFC07465A
S315080051D014F0010F10D0FFF7D9FCC31BB3F5803FBD
S315080051E002D22B681C69F3E7012385F844300023B3
S315080051F085F84530032007E02B685B699BB233606E
S31508005200012385F844300020F8BD0220FCE790F819
S315080052104430DBB2422B32D070B50546422380F8C3
S3150800522044300668306900F01C002B8ADB029BB20A
S3150800523003438C0104F4F8641C4344F0030492B25B
S3150800524072612B681C61FFF7A1FC064614F0010F7A
S3150800525010D0FFF79BFC831BB3F5803F02D22B6867
S315080052601C69F3E7012385F84430002385F84530A7
S31508005270032003E0012385F84430002070BD022096
S315080052807047000070B582B000230193002800F033
S315080052900F81044690F84430002B34D00023009345
S315080052A0844B5A6C42F480425A645B6C03F4804324
S315080052B00093009B804B5A6822F400025A605A6891
S315080052C0216A0A435A60236803F580531A6842F034
S315080052D001021A60FFF75AFC0546236803F5805257
S315080052E0126812F0010F13D0FFF750FC401BB0F5FF
S315080052F0FA7FF2D9032584F84450002384F8453010
S31508005300284602B070BD80F8453000F013FEC5E7A8
S315080053101D6925F01C0500F0ADFA684B0344684A80
S31508005320934256D245F0080523681D614FF40042A2
S3150800533000212046FFF76BFF0546002861D140F69D
S31508005340FF70FFF729FC6368002B00F09180FFF7D8
S315080053501DFC064601AA01212046FFF71CFFFFF7A0
S3150800536015FC801B41F28833984252D8019B13F0F2
S31508005370040FEFD04FF4805200212046FFF747FF75
S31508005380002852D1FFF702FC064601AA0121204651
S31508005390FFF701FFFFF7FAFB801B41F288339842BB
S315080053A04BD8019B13F0200FEFD001AA1F212046EE
S315080053B0FFF7F1FE00284CD1019B13F0040F50D0E3
S315080053C04FF40062E26013F0020F4DD00023A36091
S315080053D05EE03C4B03443C4A934202D845F00C0538
S315080053E0A2E73A4B03443A4A93429DD3394B0344C6
S315080053F0394A934202D845F0040595E745F0100569
S3150800540092E701212046FFF7F1FC012584F8445074
S3150800541076E701212046FFF7E9FC012384F84430AA
S31508005420002384F8453003256AE701212046FFF763
S31508005430DDFC012584F8445062E701212046FFF788
S31508005440D5FC012384F84430002384F8453003252D
S3150800545056E701212046FFF7C9FC012584F8445088
S315080054604EE70022E260AEE74FF48043A3600FE008
S31508005470E268C2F3CF02A368C3F34F031A430021BD
S315080054802046FFF7C4FE58B940F6FF70FFF784FBC5
S3150800549000212046FFF7AAFC012384F844302FE7B1
S315080054A001212046FFF7A2FC012584F8445027E78E
S315080054B0012525E7003802400038014000D3CEFE1A
S315080054C0C0E1E40040F1E9FD3F787D0100796CFC1C
S315080054D0005A6202001F0AFA7FF0FA0238B590F8FD
S315080054E04530012B1AD00446012580F84550022381
S315080054F080F84430FFF70EFC2046FFF720FC2046D4
S31508005500FFF732FC2046FFF7CFFB2046FFF7DCFB10
S3150800551084F84450002084F8450038BD0220FCE792
S3150800552038B590F84530012B1AD00446012580F885
S315080055304550022380F84430FFF7BEFB2046FFF7AC
S31508005540CBFB2046FFF727FC2046FFF70DFC20463D
S31508005550FFF736FC84F84450002084F8450038BD2F
S315080055600220FCE790F84530012B00F08E8070B5DC
S3150800557005460C46012380F84530022380F844305E
S31508005580002971D002681368414919402368606888
S315080055900343A0680343E0680343A86803432069FC
S315080055A0034360690343E8680343A0690343E0696A
S315080055B00343206A0343606A0343A06A03430B4319
S315080055C013602B681E680120FFF7E6FA2B681E6039
S315080055D0E36A226B1343626B1343A26B1343E26BBA
S315080055E01343226C1343626C1343A16C2A680B4362
S315080055F053602B685E680120FFF7CEFA2B685E6061
S315080056002B68E26C9A602B68226DDA6029688A69D1
S3150800561022F0BE021204120C606DA36D43EA004329
S31508005620E06D0343206E0343606E0343A06E03439D
S3150800563013438B612B689E690120FFF7ADFA2B682F
S315080056409E61E36E216F2A680B43D3612B68DC6980
S315080056500120FFF7A1FA2B68DC61012385F84430A5
S31508005660002085F8450070BD01680A6822F490425A
S315080056708368C068034313430B602B681C680120CA
S31508005680FFF78AFA2B681C60E7E70220704700BF1D
S315080056900F8120FF00230F2B00F2DD80F0B482B0CB
S315080056A05DE086685F000324BC4026EA0406CC68F1
S315080056B0BC4034438460466826EA02064C68C4F354
S315080056C000129A403243426057E0DC08083450F82A
S315080056D0247003F0070296000F22B24027EA020759
S315080056E00A69B2403A4340F824205AE0072200E00B
S315080056F00022B2403A430234574E46F82420574A0D
S315080057001468EA4324EA05064F6817F4803F01D077
S3150800571045EA0406514C2660646802EA04064F68A6
S3150800572017F4003F01D045EA04064C4C6660A468AD
S3150800573002EA04064F6817F4801F01D045EA0406FA
S31508005740464CA660E46822404E6816F4001F01D055
S3150800575045EA0402414CE26001330F2B78D8012256
S315080057609A400C6804EA020532EA0404F4D14C684B
S3150800577004F00304013C012C93D94A6802F00302A1
S31508005780032A09D0C4685E000322B24024EA020450
S315080057908A68B2402243C2604A6802F00302022ABB
S315080057A093D004685E000322B24024EA02044A68E1
S315080057B002F00302B240224302604A6812F0805F98
S315080057C0CAD000220192264A546C44F48044546498
S315080057D0526C02F480420192019A9C08A61C1E4A49
S315080057E052F8267003F0030296000F22B24027EA09
S315080057F002071C4A90423FF47BAF02F58062904252
S315080058001AD002F58062904218D002F58062904262
S3150800581016D002F58062904214D002F5806290425A
S3150800582012D002F58062904210D002F58062904252
S315080058303FF45CAF08225CE701225AE7022258E7E8
S31508005840032256E7042254E7052252E7062250E7C8
S3150800585002B0F0BC7047704700380140003C014078
S3150800586000380240000002400AB18161704709040D
S3150800587081617047014B1868704700BF000000201F
S31508005880F0B40C6894FAA4F4B4FA84F44AE08E6886
S31508005890826893FAA3F5B5FA85F56D00032707FA2A
S315080058A005F522EA050293FAA3F5B5FA85F56D0022
S315080058B006FA05F52A438260CD68426822EA0302A1
S315080058C003FB05F52A4342600E69C26893FAA3F5FD
S315080058D0B5FA85F56D00032707FA05F522EA0502EC
S315080058E093FAA3F5B5FA85F56D0006FA05F52A4388
S315080058F0C2604A68022A22D04A68056893FAA3F663
S31508005900B6FA86F67600032707FA06F625EA0605A6
S3150800591093FAA3F3B3FA83F35B0002FA03F32B4378
S31508005920036001340B6833FA04F23CD00122A2402A
S315080059301340F6D04A68013A012AC5D8A7E793FA70
S31508005940A3F2B2FA82F2072A15D84E69026A93FAC6
S31508005950A3F5B5FA85F5AD000F2707FA05F522EA8E
S31508005960050293FAA3F5B5FA85F5AD0006FA05F52D
S315080059702A430262C0E74D69466A1A0A92FAA2F7F2
S31508005980B7FA87F7BF004FF00F0C0CFA07F726EAAD
S31508005990070692FAA2F2B2FA82F2920005FA02F227
S315080059A032434262A8E70020F0BC7047034B9B686D
S315080059B0C3F30313024AD35CD84070470038024049
S315080059C0D4530108034B9B68C3F38223024AD35C72
S315080059D0D840704700380240E4530108034B9B68DF
S315080059E0C3F34233024AD35CD840704700380240BA
S315080059F0E45301080F4B5B6803F4800323B90E4B8D
S31508005A00082803D0002070470C4BF9E7094A50686C
S31508005A1000F03F00B3FBF0F35068C0F3881000FBBA
S31508005A2003F05368C3F3014301335B00B0FBF3F0A3
S31508005A30704700BF003802400024F40000127A00C4
S31508005A4008B5084B9B6803F00C03042B05D0082BFC
S31508005A5005D10820FFF7CEFF02E0034800E003481F
S31508005A6008BD00BF0038024000127A000024F40086
S31508005A7010B50446FFF7E4FF2060FFF797FF606064
S31508005A80FFF7A0FFA0606068FFF7A8FFE06010BD01
S31508005A90C36813F4005F01D001207047F0B585B0E4
S31508005AA004460D46C36823F4164323F00C034A68DC
S31508005AB0C9680A4329690A43A9690A431343C360A3
S31508005AC0AB68026922F44052134303616B69426969
S31508005AD022F44072134343616846FFF7C9FF434BFC
S31508005AE09C4210D0424B9C4214D0424B9C4213D04D
S31508005AF0414B9C4212D0414B9C4211D0404B9C4298
S31508005B0010D0012070E0039800286CD02B685BB990
S31508005B10012069E00298F7E70298F5E70398F3E7AA
S31508005B200298F1E70298EFE7AA69B2F5004F2CD080
S31508005B300026051846EB06012D1846EB0101CA009A
S31508005B4042EA5572EF0011469A009B0F381846EB49
S31508005B500101FEF795FB2B49A1FB003253091A01F7
S31508005B6092B2642505FB13031B013233A1FB031311
S31508005B70C3F34F1303F0F0010A4492B203F00F0384
S31508005B8013449BB2A36000202EE00026051846EBBE
S31508005B9006012D1846EB0101CA0042EA5572EF00CC
S31508005BA01146DA1846EB0603381846EB0101FEF7EC
S31508005BB067FB1449A1FB003253091A0192B2642506
S31508005BC005FB1303DB003233A1FB0313C3F34F13A7
S31508005BD0590001F4F8710A4492B203F0070313441A
S31508005BE09BB2A360CFE7012005B0F0BD00100140CD
S31508005BF0004400400048004000140140004C0040AA
S31508005C00005000401F85EB51014B1860704700BFDC
S31508005C100000002030B585B000F0ECFD1A490025DB
S31508005C200D601A4A15601A4B1D601A4C1A480290E4
S31508005C301A4801900095204601F00EFA294620469A
S31508005C4001F016FC10222946204601F067FB0123C5
S31508005C5084F8E330204601F011FB94F8DF3013F0A6
S31508005C60040F0CD0204601F00FFB0A4C0C492046C5
S31508005C7001F050FB204608F033FB05B030BD05485F
S31508005C8001F024FBF1E700BFF4080020F808002023
S31508005C90FC0800200408002021400108456000088F
S31508005CA0A960000808B5034800F0BCF906F0B4F985
S31508005CB008BD00BF040800202DE9F0473348FFF768
S31508005CC023FA00285ED1314B998FD3F8408079B9F1
S31508005CD04FF0000A2D4B1B6B00212C4A926B8A420F
S31508005CE03BD91A6842F000421A60DB680131F4E7D2
S31508005CF04FF4C17201F0B0FD82460028EAD0234B6A
S31508005D001F6B8146002421E0D9F80400C4F5BE6261
S31508005D10043208EB040130440EF05CFAFF68D7F849
S31508005D200880A5F2F452361B06F2F4560024A5188C
S31508005D3040F2F4539D42E7D8D9F8040008EB040171
S31508005D4030440EF047FAD9F800902C46B9F1000F06
S31508005D50C0D0B9F80A200026E9E70C4B00229A635E
S31508005D601B6841F214029A5812F0800F07D041F2CC
S31508005D7014028021995041F2080200219950504698
S31508005D80BDE8F0874FF0000AF9E700BFD0210020F0
S31508005D902DE9F84F8B462C4BDE6AD6F808A000246E
S31508005DA02746BBF1000F32D03368002B35DBBBF832
S31508005DB00A90002504EB090840F2F453984519D9CE
S31508005DC0DBF80410C4F5BE62043229440AEB040069
S31508005DD00EF000FAF6683368002B21DBD6F808A027
S31508005DE0A8F2F4592D1B05F2F4553F1B07F2F45798
S31508005DF00024DFE7DBF804104A4629440AEB0400CE
S31508005E000EF0E8F94F44DBF800B04446C9E73946D6
S31508005E100D48FFF7E9F8002004E06FF0070001E0FD
S31508005E206FF00700084B1B6841F214029A5812F0EB
S31508005E30200F07D041F214022021995041F20402A2
S31508005E4000219950BDE8F88FD021002030B583B0E5
S31508005E5004463248324B0360012242604FF48043C5
S31508005E6083604FF40063C360028200238DF800301C
S31508005E7080218DF80110E1218DF802108DF803209C
S31508005E8002228DF8042003228DF80520C0F814D0CC
S31508005E908361C3614FF400030362FFF7F3F928B97E
S31508005EA094F8DF3043F0040384F8DF301B4D2A688A
S31508005EB0536843F01003536004231A4A1A492846C4
S31508005EC0FFF720F80423194A19492846FFF754F81A
S31508005ED0062384F8DE306B691A7884F8D8205A7855
S31508005EE084F8D9209A7884F8DA20DA7884F8DB20DE
S31508005EF01A7984F8DC205B7984F8DD3040F2DC53CB
S31508005F00A4F8D43094F8DF3043F00A0384F8DF307D
S31508005F102846FFF7E3FA03B030BD00BFD0210020C2
S31508005F200080024018220020000900208009002075
S31508005F3050210020F0B58DB00023079308930993EC
S31508005F400A930B930268334B9A4201D00DB0F0BD09
S31508005F5000240194A3F590431A6B42F000721A6369
S31508005F601A6B02F000720192019A02941A6B42F0BF
S31508005F7080621A631A6B02F080620292029A039494
S31508005F801A6B42F000621A631A6B02F000620392FF
S31508005F90039A04941A6B42F004021A631A6B02F00D
S31508005FA004020492049A05941A6B42F001021A63D9
S31508005FB01A6B02F001020592059A06941A6B42F0D2
S31508005FC002021A631B6B03F002030693069B322335
S31508005FD0079302270897099403260A960B250B951B
S31508005FE007A90D48FFF756FB8623079308970994D8
S31508005FF00A960B9507A90948FFF74CFB4FF460531F
S315080060000793089709940A960B9507A90448FFF77A
S3150800601041FB9BE700800240000802400000024066
S315080060200004024038B50446FFF746FE28B1054687
S31508006030D4F8B0302146984700B938BD284601F053
S31508006040A9FBFAE710B5044698B1732384F8E03043
S31508006050742384F8E1300B4BC4F8B4300A4BC4F807
S31508006060BC300A4BC4F8B8302046FFF7EFFE0020D4
S3150800607010BD074B4FF4FF72064907480EF0DAF8D1
S31508006080E3E700BF9DEC000819010108915D0008CF
S31508006090EC530108085401081854010808B5FEF71E
S315080060A075FD08BD7047000030B583B0044600236F
S315080060B00193009390F8DF3013F0040F51D02B4B67
S315080060C05B68002B35D04FF4805200212748FFF734
S315080060D09EF8FEF75BFD01906A4601212348FFF70B
S315080060E05AF8FEF753FD019BC31AB3F57A7F20D8F9
S315080060F0009B13F0200FEFD06A461F211B48FFF7BD
S315080061004AF8009B13F0040F0AD0184A4FF40061AE
S31508006110D16013F0020F07D0144B00229A6013E0E7
S31508006120124A0021D160F4E7104B4FF480429A607E
S315080061300AE00E48C268C2F3CF028368C3F34F036E
S315080061401A430021FFF763F8084D00212846FFF798
S3150800615009FA2846FFF7C2F92046FFF7A3FF03B05E
S3150800616030BD0248FFF7DCF9F6E700BFD021002072
S31508006170030A43EA002080B27047030203F47F0350
S3150800618043EA0063020A02F47F42134343EA1060BB
S3150800619070470000002836D0C07F002835D1431C40
S315080061A003EB43011B4A02EBC102127D062A09D002
S315080061B003EB4303174A52F83330003B18BF012359
S315080061C02BBB70470A46134951F832209AB903EB9C
S315080061D0430201EBC20252687AB903EB430201EBB0
S315080061E0C20292685AB903EB430301EBC303DB68A7
S315080061F03BB10123E4E70123E2E70123E0E70123BA
S31508006200DEE70023DCE70020704700207047012006
S31508006210704700BF2801002008B50EF099F880B233
S31508006220002301E00133DBB2032B0FD808494FF4F2
S31508006230947202FB0312927F022AF3D14FF49472EE
S3150800624002FB0312928B8242ECD1E6E708BD00BF3F
S31508006250580100202DE9F04705468846A9B10B7D6F
S31508006260062B14D0514A4FF4947303FB002393F87A
S315080062702431032B27D0012B25D04C4A4FF4947395
S3150800628003FB0523002283F82421002425E0474A3E
S315080062904FF4947303FB002393F82431032B01D0A6
S315080062A0012B08D1414A4FF4947303FB05230122BD
S315080062B083F82421E9E73E4B4FF46E723D493E4888
S315080062C00DF0B8FFEEE73A4B40F2BB3239493A488F
S315080062D00DF0B0FFD1E70134E4B2032C24D82646EA
S315080062E004EB4403354A52F82370002FF3D002EB2F
S315080062F083031B7AAB42EED14FF4947000FB05F092
S3150800630020302A4B184492464FEA440904EB4403CA
S3150800631002EB83035A6841460430B8474E44B60038
S3150800632000234AF80630D6E7002301E00133DBB242
S31508006330032B1CD8AB42F9D01C494FF4947202FBCC
S315080063400312927F022AF1D14FF4947202FB0310D2
S3150800635090F8230002FB051292F823209042E5D11B
S315080063604FF4947202FB0514042384F823300F4A71
S315080063704FF4947303FB052393F82330032B01D9B9
S31508006380BDE8F0870E4C54F8230006F0FDFC0748DC
S315080063904FF4947303FB050595F82330002244F85F
S315080063A02320042385F82330EAE700BF580100209C
S315080063B0405401087054010818540108F8000020D8
S315080063C0E80000202DE9F04784B006467E4A4FF4DF
S315080063D0947303FB0023DB7F012B4CD87A4A4FF4D6
S315080063E0947303FB0623DB7F03EB4301774A02EB37
S315080063F0C102127D062A46D003EB4303734A52F8BC
S315080064003330B3FA83F35B09002B5CD14FF49473F2
S3150800641003FB06F320336C4F1F4404373846FDF759
S31508006420D7FE00F112014FF4207289B24A2001F01A
S3150800643013FA0546002800F0C3800023019302934F
S315080064400393614A4FF4947303FB0623988BFFF773
S315080064508FFEADF8040001238DF806304FF48073E3
S31508006460ADF808300C2201A9284601F037FC013F97
S315080064704FF00C0855E0564B40F2FA22554956485B
S315080064800DF0D8FEAAE70A46504951F8322092B9CB
S3150800649003EB43014D4A02EBC10252686AB94B4A03
S315080064A002EBC102926852B9484A02EBC103DB68A3
S315080064B03BB10023A8E70023A6E70023A4E70023AF
S315080064C0A2E70123A0E700213046FFF7C3FE3E4AB4
S315080064D04FF4947303FB06260024B477204604B0D1
S315080064E0BDE8F087A7EB090A1FFA8AFA08EB040247
S315080064F04FF6FE739A4220DC22464146284601F0B2
S31508006500CBFC08F101039BB252464946284601F0E6
S3150800651045FC4444A4B204F101081FFA88F83B7804
S315080065208BB10137B94600243B782E2BDAD0002BE5
S31508006530D8D00134E4B20137F6E7284601F02AF943
S315080065406FF00504CAE700224146284601F0A4FC7C
S31508006550A31C9BB21C494FF4947202FB061292F8D4
S315080065602421032A06D0012A04D04FF48072ADF8FC
S31508006570002003E04FF4E052ADF800204FF480729B
S31508006580ADF8022004226946284601F007FC0E4BA6
S315080065904FF4947202FB063696F82340F27F02EB1C
S315080065A042023523094901EBC20229460B4850F835
S315080065B0240006F099FA0446284601F0EBF88DE720
S315080065C04FF0FF348AE700BF580100202801002059
S315080065D0405401088454010818540108E8000020B2
S315080065E038B50446494D4FF4947000FB0455032C06
S315080065F00BD8464A4FF4947303FB04239B7F032B63
S315080066007CD8DFE803F01E0A1F63414B40F21C42A8
S31508006610404941480DF00EFEEBE7FFF7FDFD3B4A0A
S315080066204FF4947303FB0423988302229A7700227B
S31508006630DA77012183F8201083F821202046FFF716
S31508006640C1FE38BD314B4FF4947202FB043292F806
S315080066502030013BDBB282F82030002BF1D12B4BE6
S315080066604FF4947202FB043292F821300133DBB204
S3150800667082F82130042B0AD024494FF4947202FB85
S31508006680041282F820302046FFF79CFED9E72846F8
S31508006690FFF780FD70B11D4A4FF4947303FB042382
S315080066A0DA7F0132DA77012283F82020002283F884
S315080066B02120E8E700212046FFF7CCFD134A4FF4D6
S315080066C0947303FB04240023A377BAE74FF4947367
S315080066D003FB04F30D4AD35843B1013B4FF49472BC
S315080066E002FB04F209498B50002BAAD107484FF444
S315080066F0947303FB04040023A377A2E7044B40F238
S315080067005B42064904480DF095FD9AE758010020BA
S31508006710405401089C54010818540108B85401084B
S3150800672010B5002404E02046FFF75AFF0134E4B20E
S31508006730032CF8D910BD7047012800D9704730B42A
S3150800674069B100EB40000C4D05EBC0050C460FCCBB
S315080067500FC594E8030085E8030030BC704700EBDA
S315080067604000054C04EBC004044D0FCD0FC495E85A
S31508006770030084E80300F0E728010020D478010824
S3150800678008B5FFF7CDFF08BD10B483B00023ADF8F8
S31508006790063010F0010406D0994204DD10F8013BDA
S315080067A08DF8073001390023012904DD30F8022B62
S315080067B013440239F8E7002902DD02788DF806202D
S315080067C0BDF80600034498B200EB134398B200EBF9
S315080067D0134024B103029BB2C0F30720184380B2CA
S315080067E003B05DF8044B704708B5FFF7CDFFC0430B
S315080067F080B208BD08B500F0CBF800F0FDFA00F04D
S31508006800F3FB05F007FD01F01BFC08F0ADFCFFF7F4
S3150800681092FF05F0EDFB08BD014B1B681844704755
S31508006820FC050020024B1B68C01A80B2704700BFE7
S31508006830FC050020F8B50446FFF7F4FF074625884F
S315080068402846FFF7E9FF064664882046FFF7E4FF77
S31508006850B5F5486F10D8B4F5486F0FD8BC4202D0CA
S315080068600388BB420CD1094B1B68B3420AD0738814
S31508006870BB4209D1012000E00020F8BD0020FCE75A
S315080068800020FAE70120F8E70020F6E700060020D6
S3150800689038B50446354B1B68834240D8344B1B68D1
S315080068A0A34244D92379002B49D12388B3F5486FED
S315080068B04DD82088FFF7B0FF844216D00379A3B9D4
S315080068C02B4B1B68834210D02A4B1B68834246D049
S315080068D0038823800088B0F5486F06D0FFF79CFF31
S315080068E005462046FFF79EFF68806088FFF794FFFD
S315080068F00546844212D0037983B91E4B1B68A3420E
S3150800690030D023882B802088B0F5486F06D0FFF753
S3150800691083FF04462846FFF785FF608038BD164B7F
S3150800692040F2DF12154916480DF084FCB6E7124B03
S315080069304FF4F072134912480DF07CFCB2E70E4B87
S3150800694040F2E11210490E480DF074FCADE70A4B0F
S315080069504FF4F2720D490A480DF06CFCA9E7054B95
S315080069601C60B5E7034B1860CBE700BFFC050020A9
S3150800697000060020F8050020D8540108085501082B
S3150800698018540108205501083C55010858550108B6
S3150800699038B50B4C24F003040A4B1C604FF44865C9
S315080069A025800023638023712846FFF735FF064BB1
S315080069B018600123037105804580044B1C6038BDAF
S315080069C02F3A0020FC05002000060020F8050020CC
S315080069D0002844D038B5044610F0030F1FD1A0F1A3
S315080069E008051F4B1B68AB4221D800F10C031D4A52
S315080069F0126893421BD810F8043C03B32846FFF7E5
S31508006A0019FF20B3002304F8043C174B1B68AB425C
S31508006A1001D9154B1D602846FFF73AFF0EE0134BC8
S31508006A2040F27322124913480DF004FC06E00F4B9E
S31508006A3040F27F2210490F480DF0FCFB38BD0B4B86
S31508006A404FF423720D490B480DF0F4FBF6E7074B9C
S31508006A5040F295220A4907480DF0ECFBEEE770472D
S31508006A60FC05002000060020F8050020D85401087F
S31508006A708455010818540108A8550108C455010889
S31508006A80EC5501082DE9F8430546CC1CA4B224F0C0
S31508006A900304A4B20B2C04D9B4F5486F02D9002517
S31508006AA099E00C248C42C0F095804D4B1B68AB4294
S31508006AB003D84C4B1B68AB4206D84B4B40F2D1224D
S31508006AC04A494B480DF0B6FB454B1B68AB4200F2F2
S31508006AD08280444B1B68AB427DD9A5F10800FFF7BD
S31508006AE0A1FE064635F8088CA8EB00081FFA88F8B8
S31508006AF0A8F108081FFA88F8444529D844456DD8EE
S31508006B0069D035F8087C3846FFF786FE8146037952
S31508006B10002B33D1B7F5486F22D0B9F8007034444A
S31508006B20A4B20834A4B2334B1B684B4520D0204688
S31508006B30FFF772FE002303710780468025F8084C8C
S31508006B400088B0F5486F46D0FFF766FE448042E0FD
S31508006B50254B4FF43972284925480DF06BFBCDE7D4
S31508006B60214B40F2F522254921480DF063FBD4E775
S31508006B702046FFF751FE1F4B1860D8E704F11403AF
S31508006B80434528D83444A4B20834A4B2B7F5486FAC
S31508006B9018D02046FFF740FE164B1B68834201D9E2
S31508006BA0144B18600023037135F8083C03804680AF
S31508006BB025F8084C0088B0F5486F0CD0FFF72CFE76
S31508006BC0448008E0084B40F216320C4908480DF09C
S31508006BD031FBDEE700252846BDE8F8830025FAE7FD
S31508006BE0FC05002000060020D8540108205601089C
S31508006BF018540108F80500203856010858560108A7
S31508006C00002800F09A802DE9F0410346C61CB6B26A
S31508006C1026F00306B6B20B2E04D9B6F5486F02D98C
S31508006C20002088E00C269E42C0F08980454B1868F3
S31508006C30FFF7F8FD05464CE0434B40F287324349DF
S31508006C4043480DF0F7FA62E0012303713D4B1868DB
S31508006C50A0420FD0274408373E4B1B689F421FD8D7
S31508006C6014F0030524D15DBB04F1080063E0008835
S31508006C70FFF7D2FD03791BB1364A12688242F6D174
S31508006C80304A1060334A12688242E3D0002BE1D0C2
S31508006C902D4B40F2B53230492D480DF0CBFAD9E7E5
S31508006CA0294B40F2B9322D4929480DF0C3FAD7E7E6
S31508006CB0254B40F2BB322A4925480DF0BBFAD2E7EC
S31508006CC0214B40F2BD32274921480DF0B3FACBE7F4
S31508006CD02588A8463746C6F548639D422AD22846DF
S31508006CE0FFF79AFD04460379002BF1D10388A3EB3D
S31508006CF00803083BBB42EBD307F114029342A3D324
S31508006D002E44B6B20836B6B2B6F5486F94D03046B9
S31508006D10FFF782FD002303712388038045802680C0
S31508006D20012323710088B0F5486F8FD0FFF774FDF3
S31508006D3046808BE70020BDE8F081002070470020E0
S31508006D40F9E700BFF8050020D8540108585601088D
S31508006D5018540108000600206C56010888560108D8
S31508006D60B8560108E856010810B583681C6824B1AE
S31508006D7022681A6014F0030F01D1204610BD044B97
S31508006D804FF48C72034904480DF054FAF5E700BF36
S31508006D900C5701083C5701081854010838B5054630
S31508006DA00C4611F0030F05D1AB681B682360AB686E
S31508006DB01C6038BD034B4FF4B672034903480DF007
S31508006DC039FAF1E70C570108605701081854010809
S31508006DD0836800221A604368033323F0030341885B
S31508006DE0914208DD81680968196081680B6001882D
S31508006DF00B440132F3E7704710B5002406E0054B53
S31508006E0053F82400FFF7E4FF0134A4B20C2CF6D99A
S31508006E1010BD00BF5858010808B50C2805D8074BFF
S31508006E2053F82000FFF7A0FF08BD054B40F25712A4
S31508006E30044905480DF0FEF90020F5E75858010801
S31508006E400C570108805701081854010808B50C2882
S31508006E5006D821B1064B53F82000FFF79FFF08BD5F
S31508006E60044B4FF4D572044904480DF0E3F9F6E7EC
S31508006E70585801080C570108A0570108185401086A
S31508006E800B68C269934208D029B1C361002380F810
S31508006E903030012070470023F7E7002070470B6861
S31508006EA0426B934208D029B14363002380F84830E7
S31508006EB0012070470023F7E7002070476FF00B00AA
S31508006EC070476FF00B00704738B504460D4601F061
S31508006ED0BDFB2946204605F093FF38BD38B50C465C
S31508006EE00546B0B195F8DF3003F00502052A0FD143
S31508006EF014F0010F09D06A683AB113F0080F10D1DF
S31508006F0095F8DF3013F0200F10D114F0020F11D1CD
S31508006F1038BD0A4B40F26D3209490A480DF08AF924
S31508006F20E0E7291D284607F025FDE9E7284608F089
S31508006F3029F9EAE728460AF04FFDE9E78C580108DF
S31508006F40C05801081854010870B586B0044615469D
S31508006F500E4621B35DB3326863689A423CD000920C
S31508006F6000238DF81430237E2B75237E062B26D01E
S31508006F7063682B600023EB60AB606B602B7469461B
S31508006F802846FFF7A1FF2EB33368636000232376F4
S31508006F9001212046FFF7A2FF012006B070BD0F4B66
S31508006FA040F2CB120E490F480DF044F9D2E70B4BCD
S31508006FB04FF4E6720A490B480DF03CF9CBE76368D3
S31508006FC02B60A3686B60E368AB602369EB60237D85
S31508006FD02B74D4E70023D8E70020DEE78C58010895
S31508006FE0E458010818540108704700002DE9F041DB
S31508006FF086B0044616461D460F46D9B1E6B1EDB130
S315080070000FB13B68E3B96A4639462046FFF79CFF4D
S315080070104FF00108002231462046FFF731FF0022D3
S3150800702029462046FFF73BFFB8F1000F0BD006B004
S31508007030BDE8F081074FE1E7064EE0E7054DDFE7DB
S315080070404FF00008E6E76A4639462046FFF77CFF18
S31508007050EDE700BFD47801082DE9F843DDF8249060
S315080070600546002833D00E4617469846B9F1000F54
S3150800707035D000293CD0002F3CD0B8F1000F3BD0CA
S3150800708000236B60AB60EB602B612B7515F1040F69
S3150800709000D02B760023EB612B626B62AB6285F81E
S315080070A02C3015F11C0F01D085F8303000236B63A6
S315080070B0AB63EB632B6485F8443015F1340F01D0CC
S315080070C085F84830624BC5F8B430002025E0614B9E
S315080070D040F22712604961480DF0ACF8AAE05D4B12
S315080070E04FF494725E495D480DF0A4F80025A1E0BE
S315080070F05C4EC0E75B4FC0E7DFF86881C0E72A1936
S31508007100002382F8943004F1260245F82230283408
S3150800711005EB84046360013040B202281BDC044698
S3150800712000EB400305EBC3030022DA641A655A65CF
S315080071309A6583F85C2000EB4003DB0048332B4458
S3150800714013F1040FDBD000EB400305EBC303062263
S3150800715083F86020D3E7444BC5F8BC300024A5F873
S31508007160D44085F8DF40C5F8C840C5F8CC40C5F816
S31508007170D04085F8E34028460CF04EFFC5F8C040DD
S31508007180C5F8E840C5F8EC40089BC5F8C430374B4D
S315080071901B7885F8E2300A9BC5F8B03043463A4674
S315080071A031462846FFF722FF2846C84700284CD113
S315080071B0B5F8D430A5F8D63024E0002385F8E230B7
S315080071C024E0244B40F28B12294924480DF032F86A
S315080071D010E0204B40F28D12264920480DF02AF87F
S315080071E094F8E22095F8E2309A4207D0246844B130
S315080071F0AC42E6D00136FF2EF2DDEAE7013385F828
S31508007200E2303CB195F8E230FF2BD6D01A4B1C6819
S315080072100026ECE795F8E230FE2B0ED00133134A30
S315080072201370154B1A682A601D6095F8DF3013F045
S31508007230200F06D12846BDE8F8830C4B00221A70A9
S31508007240EFE7284608F000F8F4E70025F2E700BF64
S31508007250C36E00088C580108F45801081854010830
S3150800726010590108D4780108BD6E000838060020B8
S315080072703459010848590108107B0020014B186051
S31508007280704700BF147B002010B530B1044690F853
S31508007290DF3013F0010F08D010BD094B4FF45472BC
S315080072A0084909480CF0C6FFF6E743F0010380F8E1
S315080072B0DF300321FFF712FE20460CF0ADFEEBE7A8
S315080072C08C580108785901081854010810B580B17E
S315080072D0044690F8DF3013F0010F09D003F0FE03DF
S315080072E080F8DF3013F0080F0BD120460CF0FEFDB6
S315080072F010BD054B40F29B32044905480CF09AFF35
S31508007300F6E707F0B5FAF0E78C5801089459010832
S315080073101854010808B1C0F8C01070472DE9F041AB
S315080073200C4615460746E0B1022C22DC3B1993F8B9
S315080073309430AB4213D003F0100605F0100897F806
S31508007340DF3013F0400F1CD116B1B8F1000F1ED074
S315080073503C4484F8945016B9B8F1000F21D1BDE821
S31508007360F081124B40F27552114912480CF062FF37
S31508007370DAE70E4B40F276520F490E480CF05AFFE8
S31508007380D4E72A46214638460CF006FEDCE704EB2D
S315080073904400C0004830384400210430FFF794FD0B
S315080073A0D6E702213846FFF799FDD8E78C58010839
S315080073B00854010818540108B459010838B50C4690
S315080073C0054658B194B1227C002A41D095F8E2309E
S315080073D00133DBB29A4240D1002011E0204B40F243
S315080073E0BE52204920480CF025FFEBE71C4B40F223
S315080073F0BF521E491C480CF01DFFE4E7013040B29D
S31508007400022827DC2B1893F89430002BF6D000EBD3
S31508007410400305EBC303D96C23689942EED100EB10
S31508007420400305EBC303196D63689942E6D100EB87
S31508007430400305EBC303596DA3689942DED100EBFF
S31508007440400205EBC2039A6DE3689A42D6D103E07F
S315080074500020D5E74FF0FF3038BD4FF0FF30FBE78F
S315080074608C580108C459010818540108EC59010838
S3150800747070B50C46054650B148F2FE03EB6400238E
S315080074802B6564B900236B65AB65032650E02F4B6B
S3150800749040F2DF522E492F480CF0CCFEECE795F867
S315080074A0D80080F0020395F8D900000440EA03608A
S315080074B095F8DA3040EA032040F0FF00FEF75DFE5B
S315080074C0686595F8DB3095F8DC00000240EA034071
S315080074D095F8DD30184340F07E40FEF74EFEA8656D
S315080074E0EB6C23F47C531B041B0C48F2FE029342FC
S315080074F027D0002385F85C30082200212846FFF7AC
S315080075000DFF70BD013EF6B21B1B013B2B4493F8E1
S31508007510D80004F00303DB009840FEF72EFE06F1C0
S31508007520120305EB83035A6802435A600134E4B236
S31508007530072CD5D895F8DE30A342D1D9042CE3D14F
S31508007540E0E795F8E2300133DBB2D3E78C5801085F
S31508007550185A010818540108024658B1064B18680B
S3150800756038B190F8E2300133DBB2934203D00068B9
S31508007570F6E7704700207047107B0020014B012278
S315080075801A707047187B002010B40024046041600C
S31508007590028143819DF8043003739DF808304373D4
S315080075A001238373C4735DF8044B704730B1438974
S315080075B08B4203D8C91A89B20068F7E702B111806D
S315080075C07047000070B50C4616460546C0B13DB377
S315080075D0B4F5803F26D23CB3A2B22B8913449BB2A2
S315080075E0934223D395F90C10002911DB06B3696879
S315080075F00C1B6C6069890A446A812B81002012E0A1
S315080076000C4B40F2DF120C490C480CF013FEDEE777
S3150800761069680C1B05F11001A142EAD9012002E0B4
S31508007620012000E0012070BD0020FCE70120FAE7F8
S315080076300120F8E74C5A0108A872010818540108F5
S3150800764008B5074B00221A70064B186830B1D0F8F7
S315080076509C300BB9406BF9E700F022FE08BD00BF6D
S31508007660187B0020207B0020F0B583B006460D4627
S315080076701446412A01D0012A0FD10B20FFF7CCFB73
S31508007680074638B10023019300942B462A46314613
S31508007690FFF77AFF384603B0F0BD044B4FF4A572E6
S315080076A0034904480CF0C6FDE7E700BF4C5A010839
S315080076B07C5A01081854010870B582B00D461E465A
S315080076C00699C41C24F003042819BDF81C309842F6
S315080076D00DD801B1214434460223019300922B466A
S315080076E02A463046FFF750FF204602B070BD0024F8
S315080076F0FAE708B50022FFF765FF08BD08B50122BD
S31508007700FFF760FF08BD000038B50C46054690B186
S3150800771015B3B4F5803F21D214B3A2B26B89934254
S3150800772011D36968214469609B1A6B812B899A1A5F
S315080077302A81002038BD0B4B40F24B220A490B48E0
S315080077400CF078FDE4E7074B40F255220849074854
S315080077500CF070FD0120EDE70120EBE70120E9E7D9
S315080077600020E7E74C5A0108A872010818540108D6
S31508007770905A010808B5002902DBFFF723FF08BD68
S315080077804942FFF7C1FFFAE708B50122FFF7F2FF02
S3150800779008BD000070B510B10446002517E0284B57
S315080077A04FF43772274928480CF044FD002528462F
S315080077B070BD234B40F2F122244923480CF03AFDD0
S315080077C00AE02369204698470135EDB23446002C75
S315080077D0EDD0A37B002BECD0A37B013BDBB2A373DC
S315080077E0002BE4D12668237B03F00F03627B12F09B
S315080077F0020F0AD02369002BE3D1114B40F2FF2276
S31508007800134911480CF016FDDBE7022B06D0012BB5
S3150800781009D06BB92046FFF7DBF8D5E721460C20DF
S31508007820FFF714FBD0E721460B20FFF70FFBCBE74A
S31508007830034B40F20F32074903480CF0FBFCC3E741
S315080078404C5A0108A872010818540108B05A0108D0
S31508007850C85A0108EC5A01082DE9F04782B00E46CD
S31508007860904685B2B2F5C17F46D007460ED8012AA2
S3150800787002D0412A40F08480424631460020FFF774
S31508007880F3FE8146484602B0BDE8F087B2F5207F90
S3150800789076D1033525F00305ADB2CA1C93B223F0A1
S315080078A003031D44ADB205F1100080B222F00302B5
S315080078B095426FD3824270D8FFF7A2F98146002815
S315080078C0E0D007F110010144033100230193CDF8FC
S315080078D000803346324621F00301FFF755FED9F8FA
S315080078E0043013F0030FCDD02D4B4FF491722D4970
S315080078F02D480CF09FFCC5E70027B9461AE0FFF7AC
S315080079003DFEB9F1000F02D04846FFF743FFB946DE
S31508007910B8E7234B4FF48072244923480CF08AFCBD
S31508007920B9F1000F2AD0CAF80070361BB6B2002586
S31508007930002EA7D0BA460C20FFF76EFA0746002895
S31508007940DDD0EC1C24F00304A4B2C4F51474A4B26C
S31508007950B44228BF344605F110010144033100231F
S315080079600193CDF800802346324621F00301FFF744
S315080079700BFE7B6813F0030FD2D0CAE7B946D4E7EB
S31508007980074B40F227120A4907480CF053FC4FF000
S31508007990000977E74FF0000974E74FF0000971E72F
S315080079A04C5A0108645B010818540108005B010879
S315080079B0905B0108F8B50E460446B8B12789B74268
S315080079C02ED935466389AB4218D2EB1A9DB2238964
S315080079D0F21B134423812468002CF3D11A4B40F27E
S315080079E0AF121A491A480CF025FCEBE7164B4FF470
S315080079F0CC72184916480CF01DFCDFE7227B12F002
S31508007A000F0F05D1AB4203D0637B13F0020F08D0EA
S31508007A1065812581206808B1FFF7BCFE0023236035
S31508007A20F8BD63681B1BE91889B22046FFF72AF8D8
S31508007A3004460028ECD1044B40F2BD12064904481E
S31508007A400CF0F8FBE4E700BF4C5A0108C45B0108D8
S31508007A5018540108AC5B0108DC5B010803460020EA
S31508007A601BB1013080B21B68FAE7704770B108B5E0
S31508007A70837B0133DBB2837303B108BD044B40F249
S31508007A804232044904480CF0D5FBF6E7704700BFBC
S31508007A904C5A0108F85B01081854010838B510B1AA
S31508007AA00D46044661B9154B40F25932144915483A
S31508007AB00CF0C0FB19E02389288903442381144666
S31508007AC02268002AF7D1228963899A420ED123684F
S31508007AD033B10A4B40F263320B490A480CF0AAFB51
S31508007AE023892A8913442381256038BD034B40F234
S31508007AF06232064903480CF09DFBE8E74C5A010838
S31508007B000C5C010818540108745C0108445C0108FF
S31508007B1010B50C46FFF7C2FF2046FFF7A7FF10BDBA
S31508007B202DE9F04148B10C46054631B102890B8969
S31508007B309A4202D30027B8463AE03A4B40F2C93295
S31508007B4039493A480CF076FB6FF00F0068E0354B80
S31508007B5040F2D932364935480CF06CFB3CE0314BE3
S31508007B6040F2DA32334931480CF064FB37E02D68CD
S31508007B7015B14FF000083AE014B94FF0000836E0A6
S31508007B80284B4FF479722C4928480CF053FB6FF0B8
S31508007B900F0045E023687BB3224B40F2E9322749C0
S31508007BA022480CF047FB6FF0050039E0002C36D070
S31508007BB06E89A6EB08066389DB1B9E4200D31E4628
S31508007BC0686861683246394440440CF003FBB044A7
S31508007BD037446B894345BAD36389BB42BFD36389AC
S31508007BE0BB4201D8246800276B894345BFD01CB126
S31508007BF0628923899A42CDD0002DD7D06A892B89EC
S31508007C009A42D3D12B68002BD0D0064B40F2EE32E5
S31508007C100A4906480CF00EFB6FF0050000E000204C
S31508007C20BDE8F0814C5A0108845C01081854010823
S31508007C30B45C0108CC5C0108E85C0108F85C010842
S31508007C402DE9F84330B188469146054669B10027C3
S31508007C503E462AE01B4B40F20A421B491B480CF0E1
S31508007C60E9FA00273846BDE8F883164B40F20B427E
S31508007C70174916480CF0DEFA0027F3E76C89E41A70
S31508007C80A4B2A14500D24C4669682246194408EBBD
S31508007C9006000CF09FFA2744BFB22644B6B2A9EBF9
S31508007CA004041FFA84F900232D68B9F1000FD9D00E
S31508007CB0002DD7D0002BE1D069899942DED85B1A0E
S31508007CC09BB2F1E74C5A0108245D010818540108D3
S31508007CD0445D010808B5FFF769FC08BD2DE9F843BE
S31508007CE048B188469146054679B10389934216D329
S31508007CF0164600272EE0224B40F2B342214922487D
S31508007D000CF098FA6FF00F002FE01D4B40F2B442CA
S31508007D101E491D480CF08EFA6FF00F0025E0184B2F
S31508007D2040F2B5421A4918480CF084FA4FF0FF3071
S31508007D301BE0134B40F2BD42164913480CF07AFA81
S31508007D400BE0224608EB070168680CF043FA361B7D
S31508007D5027442D6836B1002DEBD06C89B442F0D398
S31508007D603446EEE74F4502D10020BDE8F883044BC0
S31508007D704FF49962084904480CF05CFA0020F4E7CD
S31508007D804C5A0108685D010818540108805D01080D
S31508007D909C5D0108BC5D0108D45D0108F0B583B09F
S31508007DA00E4614460DF106021946FFF793FF58B31F
S31508007DB007460189BDF806301A19914227DB428920
S31508007DC0934213D27B89BDF806001A1A944215DD30
S31508007DD095B27B682A46314618440CF0FBF9621BBB
S31508007DE092B2711962B9002003B0F0BD094B40F296
S31508007DF0E342094909480CF01DFAE3E72546E8E796
S31508007E003868FFF76BFFEFE74FF0FF30ECE74FF00E
S31508007E10FF30E9E74C5A0108EC5D010818540108DF
S31508007E2038B514460A462189FFF716FD054618B1E6
S31508007E302146FFF775FE08B9284638BD034B40F2C0
S31508007E402452034903480CF0F5F9F5E74C5A0108A2
S31508007E50045E01081854010800B583B00DF1060246
S31508007E60FFF7A4FB48B14189BDF80620914207D91E
S31508007E704368985C03B05DF804FB4FF0FF30F9E700
S31508007E804FF0FF30F6E708B5FFF7E6FF002801DAFE
S31508007E90002008BDC0B2FCE710B582B014460DF14B
S31508007EA00602FFF717FF30B14189BDF80620914257
S31508007EB001D943689C5402B010BD000038B5044689
S31508007EC00D4651B9084BFF22084909480CF0B2F98A
S31508007ED003E00023C4F8A430646B24B1D4F8A430BA
S31508007EE0AB42F9D1F5E738BD185E0108485E0108CE
S31508007EF01854010838B5054628B195F83C30012BC9
S31508007F0009D1012417E00D4B40F211120C490D4816
S31508007F100CF090F9F1E7094B4FF489720A490948C0
S31508007F200CF088F9EDE7094B53F824302946186810
S31508007F30FFF7C4FF0134032CF5D938BD185E0108D4
S31508007F40705E0108185401087C5E01085063010838
S31508007F5010B5044690F83C30012B04D02146022087
S31508007F60FEF774FF10BD034BDF22034903480CF0EC
S31508007F7061F9F3E7185E0108945E010818540108D0
S31508007F8038B5054650B195F83C30042B22D0072B5E
S31508007F902AD0032B0AD00024204638BD194B4FF4AB
S31508007FA0CE72194919480CF045F9ECE7284603F052
S31508007FB04DFB044610B9052385F83C30F4B1B4F1FD
S31508007FC0FF3FE9D1B5F8423043F00803A5F842303F
S31508007FD00024E1E7284603F039FB04460028EDD1E2
S31508007FE0052385F83C30E9E7284603F02FFB0446CD
S31508007FF00028E3D1092385F83C30DFE7284603F05B
S31508008000BDFCC9E7185E0108705E0108185401082E
S315080080100A4B186888B110B507E023F00803A0F8E2
S315080080204230FFF7ADFF204634B1446BB0F842301A
S3150800803013F0080FF7D0F0E710BD7047207B00203B
S3150800804008B50CF085F96FEA80406FEA9040014B5D
S31508008050188008BD1000002010B5044690F83C3082
S31508008060012B04D021460120FEF7F0FE10BD034B7C
S31508008070D422034903480CF0DDF8F3E7185E01083B
S31508008080B05E01081854010838B5044698B1E56C85
S31508008090B4F850106818626DB4F85A30B3F5866FA4
S315080080A094BFD31802F58663C31A002B0BDBA4F81A
S315080080B05210801A38BD0F4B40F2A6320E490F48AF
S315080080C00CF0B8F8E3E7AB1A002B04DD0023A4F89C
S315080080D052300020EEE7551BB5F5803F02D2A4F8D2
S315080080E05250F6E7034B40F2B632054903480CF006
S315080080F0A1F8F4E7185E0108C45E010818540108DF
S31508008100E85E010838B5C8B10C46054690F83C301B
S31508008110012B1BD0B5F85030191989B2B1F5066F85
S3150800812001D88B421AD94FF40663A5F85030284671
S31508008130FFF7AAFFB0F5067F13D238BD0E4B40F203
S31508008140CF320E490E480CF075F8F6E70A4B40F2A6
S31508008150D2320C490A480CF06DF8DBE7A5F8501046
S31508008160E5E7B5F8423043F00203A5F84230284661
S3150800817003F004FCE1E700BF185E0108045F01088C
S31508008180185401081C5F010850B110B50446406830
S3150800819008B1FFF7FFFA21460320FEF757FE10BD88
S315080081A0704738B110B50468FFF7EEFF2046002C7B
S315080081B0F9D110BD7047000038B5054688B10320CF
S315080081C0FEF72AFE044650B128686968AA68EB6873
S315080081D020606160A260E3606068FFF747FC2046A4
S315080081E038BD044B40F28262034904480CF022F879
S315080081F0E5E700BF185E0108445F01081854010846
S3150800820008B530B1074B1868074A12681044186059
S3150800821008BD064B40F6AF02054906480CF00AF8B9
S31508008220F0E700BF0C000020247B0020185E010840
S31508008230605F01081854010870B504460D461646D5
S31508008240AAB116B1337D062B19D075B1B5F8D4008D
S3150800825058B1CEB1337D062B18D02823984217D9AA
S31508008260C01A80B2844228BF0446204670BD094B16
S3150800827040F6C502084909480BF0DCFFE1E7294644
S3150800828030460BF07FFDE3E72823E7E73C23E5E7E5
S315080082900020E7E7185E01087C5F0108185401080A
S315080082A010B50446D0F89C0020B1FFF77AFF0023EA
S315080082B0C4F89C3010BD000010B548B3044690F8C9
S315080082C03C3023B30A2B22D0012B20D0D0F8A000B3
S315080082D020B1FFF75FFA0023C4F8A030D4F89C3029
S315080082E013B12046FFF7DCFF4FF6FF73A4F85830AA
S315080082F0D4F89400FFF755FFD4F89800FFF751FF1C
S315080083000023C4F89430C4F89830A4F8903010BD0F
S31508008310034B40F65102034903480BF08BFFF6E77F
S31508008320185E0108A45F01081854010838B5054607
S315080083300C4649B185B12B68A34215D0CBB15A6B0F
S31508008340A24214D01346F9E7294B40F6830229497D
S3150800835029480BF06FFFEDE7254B40F684022749C5
S3150800836025480BF067FFE6E75B6B2B6001E0626B65
S315080083705A63002363632046FFF79EFF94F83C3058
S315080083800A2B06D0012B04D0B4F8423013F0010FA3
S3150800839026D194F83C30012B1DD0D4F8943033B153
S315080083A0134B40F69302164913480BF043FFD4F8D3
S315080083B0983033B10E4B40F6940212490E480BF032
S315080083C039FFD4F89C3033B1094B40F696020E4972
S315080083D009480BF02FFF002384F83C30E38738BDAB
S315080083E043F00203A4F84230204603F0C7FAD0E768
S315080083F0185E0108C05F010818540108DC5F01080F
S31508008400FC5F010814600108306001082DE9F04797
S3150800841084B008B30D46044690F83C30012B23D0AF
S3150800842094F83C300A2B27D0D4F87880D4F84C90AE
S31508008430D4F8B860A76B002B4AD1B4F83EA0BAF1BD
S31508008440000F4FD0304B1B68A3421DD013B35A6B95
S31508008450A2421DD01346F9E72C4B40F23D222C4987
S315080084602C480BF0E7FE30E0284B4FF410722A49EF
S3150800847028480BF0DFFED3E721462848FFF756FFCA
S315080084802046FFF7E9FD20E05A6B1F4B1A6001E012
S31508008490626B5A6300256563AA46D4F8980008B14A
S315080084A0FFF77FFED4F8940008B1FFF77AFED4F8F8
S315080084B09C0008B1FFF775FEB5B92046FFF7CCFD5D
S315080084C01EB16FF00C013846B04704B0BDE8F0871E
S315080084D0B4F83EA021461248FFF728FF114B0122A7
S315080084E01A70DAE70025D8E704F11803B4F8402033
S315080084F00292CDF804A0009323464A4641462046F8
S3150800850003F0B2F9D9E700BF2C7B0020185E0108FA
S31508008510486001081854010864600108307B00208F
S31508008520207B00201C7B002008B50121FFF76EFF89
S3150800853008BD000010B50A4B1B680024204600E061
S315080085405B6B43B1996C074A1268521AA242F7D379
S3150800855014461846F4E708B1FFF7E6FF10BD00BF5A
S31508008560307B0020247B002010F0800F01D108B951
S3150800857070477F2070B50138C2B20E4B1B680024C5
S31508008580204606E00C4A12689C6C141B0A461846DC
S315080085905B6B5BB193F83D109142F3D3F8D19E6CB7
S315080085A0054D2D68AD1BA542F2D3EBE708B1FFF7E1
S315080085B0BBFF70BD207B0020247B002070B50C46D5
S315080085C0054648BB1E4B4FF410621E491E480BF069
S315080085D031FE21E062686B689A4201D0002319E0F7
S315080085E0A268AB689A4201D0002313E0E268EB6800
S315080085F09A4201D000230DE0227C2B7C9A4201D0BE
S31508008600002307E0012305E023682A68934214BF84
S31508008610002301236BB9646B8CB1237D2A7D9342B9
S31508008620F9D1062BF0D122682B689A42D2D00023C2
S31508008630F0E7666B2046FFF777FF3446ECE770BD38
S31508008640185E01089860010818540108002800F00F
S31508008650998038B50D460446037D062B04D0B8B17B
S315080086600368BBB9C3B938BD50B1036853B9436889
S3150800867053B9836853B9C368002BF3D00123F1E7D4
S315080086800023EFE70123EDE70123EBE70123E9E701
S315080086900023E7E70123E5E73B4B19682046FFF788
S315080086A08DFF3A4B19682046FFF788FF002DDAD070
S315080086B02B7D062B07D0D5B12B68D3B9002BD2D08A
S315080086C0334B1B6842E055B12B6853B96B6853B9F5
S315080086D0AB6853B9EB68002BF0D00123EEE7002313
S315080086E0ECE70123EAE70123E8E70123E6E70023AD
S315080086F0E4E70123E2E719682268914201D00022E3
S3150800870032E059686268914201D000222CE09968EB
S31508008710A268914201D0002226E0D968E268914217
S3150800872001D0002220E0197C227C914201D000224F
S315080087301AE0012218E02A681A606A685A60AA686C
S315080087409A60EA68DA602A7C1A745B6B002B8AD016
S315080087501A7D217D8A42F8D1062ACCD01A6821686A
S315080087608A4214BF00220122002AEED02A7D1A75F9
S31508008770062AE0D02A681A600022DA609A605A60EF
S315080087801A74E2E7704700BF207B00202C7B00208C
S31508008790287B002038B50446A0F10803DBB2012B7C
S315080087A004D8104B1B680021084608E00E4B40F21F
S315080087B0DD620E490E480BF03DFDF2E75B6B63B1D7
S315080087C093F83C20A242F9D19D6C0A4A1268521BC2
S315080087D08A42F3D311461846F0E710B10021FFF795
S315080087E015FE38BD207B0020185E0108CC60010804
S315080087F018540108247B002038B505460120FEF7E9
S315080088000BFB0446A8B394B3C422002120460BF000
S3150800881009FD84F83D504FF48663A4F88C304FF474
S315080088200662A4F85220A4F85020FF2284F83320C8
S315080088304FF40672A4F85A200622A4F86820A4F871
S3150800884066204FF6FF72A4F858200122A4F870207B
S315080088501A4A1268A2641A4A127884F84620A4F8BA
S315080088607230184BC4F8AC30174BC4F8BC302046ED
S3150800887038BDFFF7CDFBFFF75DFE0120FEF7CCFA0A
S3150800888004460028BFD10920FFF784FF0120FEF720
S31508008890C3FA04460028B6D10820FFF77BFF01205B
S315080088A0FEF7BAFA04460028ADD12846FFF75CFE63
S315080088B00120FEF7B1FA0446A5E700BF247B002095
S315080088C03A060020698A000800DD6D0030B585B0DB
S315080088D00D46044690B12DB194F83C30042B15D0C2
S315080088E0072B13D094F83C30012B71D0022B7BD088
S315080088F0002B54D02046FFF743FB4BE0404B4FF488
S31508008900AF72404940480BF095FCE4E7D4F8A03034
S31508008910FBB1B4F8423013F0100F20D004F118035D
S31508008920B4F840200292E28F019200932346E26C4B
S31508008930A16F204602F098FF2046FFF7BDFC334B97
S315080089401B68A34213D0C3B15A6BA24213D0134675
S31508008950F9E7B4F85030B3F5066FC3D0D9E7284B1A
S315080089604FF4B2722A4928480BF064FCD6E75A6BD2
S31508008970264B1A6001E0626B5A6300236363254B3A
S3150800898001221A70244B1B68A34205D02046FFF724
S3150800899063FB002005B030BD02F070FAF9E7E38FFB
S315080089A08BB11E4B1B68A34205D053B15A6BA2422A
S315080089B005D01346F9E75A6B184B1A6001E0626B4B
S315080089C05A63002363632046FFF746FB0020E1E76E
S315080089D02046FFF78FFA21461148FFF7A7FC2046E5
S315080089E0FFF7B6FA0020D5E721460848FFF79EFCB0
S315080089F0084B01221A702046FFF72EFB0020C9E714
S31508008A00185E0108DC60010818540108207B002064
S31508008A10FC6001081C7B0020347B00202C7B002096
S31508008A20287B002008B578B1034690F83C20012A37
S31508008A3005D0B0F8422042F01002A0F842200121E9
S31508008A401846FFF743FF08BD044B4FF4F472044978
S31508008A5004480BF0EFFB6FF00F00F4E7185E01080F
S31508008A60186101081854010810B551B11446084692
S31508008A708AB11189FFF746FB2046FEF78BFE0020D8
S31508008A8010BD084B4FF4D362074908480BF0D2FBD8
S31508008A906FF00F00F4E70BB10020F1E7FFF7C2FF14
S31508008AA0EEE700BF185E0108306101081854010896
S31508008AB0F8B538B30446D0F8A060777B0023C0F831
S31508008AC0A030D0F8AC503DB332460146806BA8477B
S31508008AD005464DBB17F0200F2DD0B4F85030B3F52E
S31508008AE0066F02D00133A4F85030D4F8AC6016B340
S31508008AF000231A462146A06BB04710F10D0F1AD174
S31508008B00054618E00D4B40F209620D490D480BF079
S31508008B1091FB6FF00F050EE000233246014618461A
S31508008B20FFF7A2FF0546D4E715F10D0F03D0C4F8E9
S31508008B30A0606FF004052846F8BD00BF185E01085E
S31508008B404C6101081854010870B5214A137801339D
S31508008B501370204B1C6817E043F00203A4F8423058
S31508008B60204602F00BFFB4F8423023F00303A4F8C2
S31508008B70423017E023F00803A4F842302046FFF7F6
S31508008B80FFF914E0656B2C4604B394F84620104BA5
S31508008B901B789A42F6D084F84630B4F8423013F07F
S31508008BA0010FD9D1B4F8423013F0080FE2D1656B42
S31508008BB0D4F8A030002BE6D0074E002333702046A9
S31508008BC0FFF776FF3378002BDDD0C2E770BD00BF14
S31508008BD03A060020207B00201C7B00202DE9F0416E
S31508008BE084B0B44A136801331360B34A1378013367
S31508008BF01370B24B1C680026A6E1B14B40F2BE4288
S31508008C00B049B1480BF016FBA5E1AD4B40F2BF42A7
S31508008C10AE49AD480BF00EFBA2E1A94B4FF49862A2
S31508008C20AB49A9480BF006FB9FE12646646B8BE12E
S31508008C3094F86A30052B40F2A681012575E0A04B11
S31508008C4040F2D542A349A0480BF0F4FAB4E1204615
S31508008C5002F060FB60B1002384F8C03094F8C1309C
S31508008C60062B00F2AE80013384F8C13000255CE0A3
S31508008C70204602F083FE0028EDD1002555E0B4F920
S31508008C8058309BB247F6FE72934202D80133A4F8D5
S31508008C905830B4F95820B4F968309A4245DB204672
S31508008CA002F008FD30B1D4F89830002B3DD1D4F845
S31508008CB09430D3B394F83C30022B14D094F86A203D
S31508008CC00C2A28BF0C22B4F96410B4F9663003EBF9
S31508008CD0E10381498A5C934047F6FE72934220DCA1
S31508008CE01BB2A4F868300023A4F85830B4F88830CA
S31508008CF0B4F87020934228BF13465B08A4F8723074
S31508008D00B4F85A104A0092B2934201D2A4F87220DB
S31508008D10A4F870100023A4F89230204602F0E6FF6B
S31508008D2003E047F6FF73DCE7012594F83C20062AA2
S31508008D3049D094F8313013F0080704D0042A50D0EB
S31508008D40072A4ED00027D4F89C3053B1A36C594A51
S31508008D501268D21AB4F9683003EB4303B2EB430F37
S31508008D606DD294F83C30032B6DD0092B74D0002DAE
S31508008D707BD1656B94F844300133DBB284F8443018
S31508008D8094F845209342C0F0DD80002384F84430EF
S31508008D90524A1370D4F8B430002B00F0CB80214629
S31508008DA0A06B98474D4B1B78002B7FF422AF002809
S31508008DB000F0C28026462C46C6E00125B5E7002508
S31508008DC0B3E70025B1E7B4F8423013F0100FB0D07E
S31508008DD0A16C384B1B685B1A282BAAD90135EDB252
S31508008DE0A7E7344B1A68A36CD21AD4F8BC1001F55D
S31508008DF0242303F6B8433A48A0FB0303B2EB531FF8
S31508008E0003D90135EDB201279DE794F8C3303548FB
S31508008E1000FB03133249A1FB0313B2EB531F01D81E
S31508008E20002790E7204602F097FF30B994F8C33040
S31508008E30013384F8C330002785E7002783E72046F7
S31508008E40FFF72EFA8DE7A16C1A4A1268521A282AD9
S31508008E508BD90135EDB288E7A26C164B1B689B1AB5
S31508008E60F02B84D90135EDB281E7D4F8B850204605
S31508008E70FFF722FA002E3FD0104B1B68A34233D0CF
S31508008E80636B7363002F46D1D4F83880676B20462E
S31508008E90FFF7E2F8114B00221A701DB16FF00C01B2
S31508008EA04046A8470D4B1B78002B7FF4A2AE3C46E4
S31508008EB04AE000BF247B00203A060020207B0020E1
S31508008EC0185E01087461010818540108A0610108B8
S31508008ED0CC61010830620108406301081C7B002050
S31508008EE0D34D6210F8240100664B40F26D52664974
S31508008EF066480BF09FF9C3E7654B1B68A34206D08B
S31508008F00604B40F27152634960480BF093F9626B0B
S31508008F105F4B1A60B6E704F11803E26CA16FB4F868
S31508008F2040000290E08F019000932346204602F00D
S31508008F309BFCA9E7002035E7204602F01FFD2646E0
S31508008F402C4601E026462C46002C58D094F83C3096
S31508008F50002B3FF452AE94F83C30012B3FF455AE4B
S31508008F6094F83C300A2B3FF458AE94F846204A4B06
S31508008F701B789A423FF459AE84F8463094F83C3050
S31508008F80022B3FF455AE94F86A300B2B3FF6CCAE65
S31508008F9094F8C150002D3FF472AED4F8983033B12E
S31508008FA0384B40F2D4423D4938480BF043F9D4F8DF
S31508008FB09430002B3FF443AE94F8C2300B2B3FF6A7
S31508008FC0FCAE94F8C130013B354AD25C94F8C03007
S31508008FD0934202D2013384F8C03094F8C0309342E9
S31508008FE0FFF4EDAEB4F8881000297FF430AE2046C1
S31508008FF002F0E0FE00283FF42EAE002595E6294B48
S315080090001D680EE01F4B40F2A15227491F480BF07E
S3150800901011F9AA6C254B1B689B1AF02B07D82C460E
S315080090206D6B5DB395F83C300A2BF2D0EAE728461B
S31508009030FFF742F99CB11B4B1B68AB4207D06B6B21
S3150800904063636E6B2846FFF707F83546E9E70D4B6D
S3150800905040F2AF5216490D480BF0ECF8EFE7114B0A
S315080090601B68AB4206D0074B40F2B352114907487A
S315080090700BF0E0F86A6B0B4B1A60E2E704B0BDE848
S31508009080F08100BF185E01086862010818540108DB
S31508009090207B0020946201083A060020FC61010842
S315080090A060630108307B0020C0620108247B002031
S315080090B0F06201081863010808B5FFF745FD064A7E
S315080090C013780133DBB2137013F0010F00D108BD1A
S315080090D0FFF784FDFBE700BF390600200A4A13881C
S315080090E0591C1180094A116819B1094A1288934214
S315080090F004D2084A12681344187D7047DBB2D2B20C
S315080091009B1ADBB2C85C7047640600207006002014
S315080091106C0600206806002038B50446E8B1224BE4
S315080091201B88002B3FD0214B00221A801F4B1A8820
S315080091301D4B1B889A4236D2FFF7D0FF0128F5D07F
S31508009140022812D078B3FFF7C9FF01282BD9174B8D
S315080091501A88104402381880E8E7154B40F27D72E9
S31508009160144915480BF066F8D9E7FFF7B7FF042846
S3150800917019D10E4B1B8801330B4A1288934212DA17
S31508009180FFF7ACFF85B22D02ADB2FFF7A7FF80B29D
S3150800919005436B1E9BB2B3F5067F01D34FF40675E4
S315080091A0A4F85A50C2E738BD7406002064060020A9
S315080091B0686301089C6301081854010810B5044641
S315080091C030B1124B1B7813F0100F09D1002010BDD7
S315080091D00F4B40F25A220F490F480BF02BF8F0E7D5
S315080091E0B4F8423013F0100F06D1D4F8B8301BB1DA
S315080091F06FF00E01A06B984721460848FFF796F8CE
S315080092002046FEF729FF0120E1E700BF5C060020A3
S3150800921068630108B863010818540108207B002018
S31508009220254B1B7813F0040F45D130B585B004469D
S31508009230A8B1214B1B7813F0020F2BD01F4B1A68CD
S31508009240E36CD11A002905DBB4F850100B44D31A85
S31508009250002B0CDD1A4B1B881BBB05B030BD194B08
S3150800926040F2EE22184919480AF0E4FFE1E7184BE4
S315080092701968184B124800880D880295498801918B
S31508009280A3F118010091024413490968204602F027
S31508009290EBFAE2E713F0010FDCD0104B1B68A3646E
S315080092A0D8E7B4F8423043F00203A4F84230204627
S315080092B002F064FBD1E770474006002060060020F4
S315080092C07606002068630108E0630108185401085F
S315080092D068060020143A00203C060020247B002063
S315080092E06F4B1B7813F0040F40F0D980F0B585B0AA
S315080092F0054648B16A4B1B7813F0100F0CD113F0D2
S31508009300020F1ED105B0F0BD664B40F281226649B8
S3150800931066480AF08FFFEDE7654B1968654B664AA4
S315080093201088664A12680C88029449880191A3F14C
S3150800933018010091024462490968284602F094FA25
S31508009340E0E795F83D00FFF757FA0446002876D07F
S315080093505C4B93F840300375062B7AD0594BDB6A81
S3150800936003600023C360836043600374554B93F81E
S31508009370283084F82C30062B78D0524B5B69A361D1
S31508009380002363622362E36184F82830EB8FE38766
S31508009390474E33681B88A4F84030032384F83C30D2
S315080093A0464F3B680133E36463652046FEF728FFB2
S315080093B0C4F88000A067E066C4F884003B68013BF7
S315080093C0E367AB6BA363C4F8A45095F8313003F098
S315080093D00C0384F8313095F8303084F830303A4B45
S315080093E01A6862631C6002F0C9FD384B01221A70C4
S315080093F02046FFF791FE3368DB89A4F88830A4F885
S315080094008A30B4F85A5014F1180603D094F82C3060
S31508009410062B39D004F1180005F0CAFF014632467A
S315080094202846FEF709FFA4F85A001221204602F042
S315080094304FF800282ED1204602F0A0FA62E72B6CDE
S31508009440002B3FF45FAF4FF0FF320021A86B98471F
S3150800945058E71C4BDA6A02601A6B42605A6B8260E4
S315080094609A6BC26093F83C3003747FE7154B5A69D0
S31508009470A2619A69E261DA6922621A6A626293F8FB
S31508009480243084F8283081E73146204607F004F86E
S315080094900146C4E700212046FEF7B8FF32E77047C9
S315080094A04006002068630108006401081854010892
S315080094B068060020143A0020760600206006002080
S315080094C03C060020E8390020207B00201C7B002079
S315080094D02DE9F84306460C46994608E0264B40F225
S315080094E05742264926480AF0A5FE21E03C46002CAC
S315080094F03ED0E3685868FCF740FE0546B4F8088095
