S024000064656D6F70726F675F646973636F766572795F73746D3332663430372E7372656353
S3150801000000000220C50A0108D1090108D30901081F
S31508010010D5090108D7090108D90901080000000016
S31508010020000000000000000000000000DB090108D4
S31508010030DD09010800000000DF090108E1090108DE
S31508010040150B0108150B0108150B0108150B0108FD
S31508010050150B0108150B0108150B0108150B0108ED
S31508010060150B0108150B0108150B0108150B0108DD
S31508010070150B0108150B0108150B0108150B0108CD
S31508010080150B0108150B0108150B0108150B0108BD
S31508010090150B0108150B0108150B0108150B0108AD
S315080100A0150B0108150B0108150B0108150B01089D
S315080100B0150B0108150B0108150B0108150B01088D
S315080100C0150B0108150B0108150B0108150B01087D
S315080100D0150B0108150B0108150B0108150B01086D
S315080100E0150B0108150B0108150B0108150B01085D
S315080100F0150B0108150B0108150B0108150B01084D
S31508010100150B0108150B0108150B0108150B01083C
S31508010110150B0108150B0108150B0108150B01082C
S31508010120150B0108150B0108150B0108150B01081C
S31508010130150B0108150B0108150B0108150B01080C
S31508010140150B0108150B0108150B0108150B0108FC
S31508010150150B0108150B0108150B0108150B0108EC
S31508010160150B0108150B0108150B0108150B0108DC
S31508010170150B0108150B0108150B010800000000F5
S31108010180150B0108150B0108EE11AA5514
S3150801019010B5054C237833B9044B13B10448AFF3B2
S315080101A000800123237010BD7800002000000000A4
S315080101B0E0CB010808B5034B1BB103490348AFF36C
S315080101C0008008BD000000007C000020E0CB01088B
S315080101D010F8012B11F8013B012A28BF9A42F7D0E2
S315080101E0D01A7047034613F8012B002AFBD1181AB7
S315080101F00138704700000000000000000000000000
S3150801020001F0FF01102A2BDB10F0070F08D010F8B8
S31508010210013B013A8B422DD010F0070F42B3F6D1BC
S31508010220F0B441EA012141EA014122F007047FF0D5
S3150801023000070023F0E80256083C85EA010586EA2C
S31508010240010685FA47F5A3FA87F586FA47F6A5FA68
S3150801025087F68EB9EED1F0BC01F0FF0102F0070274
S3150801026032B110F8013B013A83EA010313B1F8D11F
S315080102700020704701387047002D06BF3546033800
S31508010280073815F0010F07D1013015F4807F02BF39
S31508010290013015F4C03F0130F0BC0138704700BF8A
S315080102A053B94AB9002908BF00281CBF4FF0FF31CE
S315080102B04FF0FF3000F06EB9ADF1080C6DE904CED0
S315080102C000F006F8DDF804E0DDE9022304B0704722
S315080102D02DE9F047089D04468C46002B40F08380A3
S315080102E08A42174647D9B2FA82F242B1C2F12000D0
S315080102F024FA00F09140974040EA010C94404FEAF5
S315080103001748230CBCFBF8F61FFA87FE08FB16C133
S3150801031043EA014306FB0EF1994209D9FB1806F196
S31508010320FF3080F01981994240F21681023E3B4422
S315080103305B1AA4B2B3FBF8F008FB103344EA034492
S3150801034000FB0EFEA64509D93C1900F1FF3380F0E2
S315080103500581A64540F2028102383C4440EA06403E
S31508010360A4EB0E0400261DB1D4400023C5E90043C1
S315080103703146BDE8F08702B9FFDEB2FA82F2002AF9
S3150801038050D1CB1B4FEA174E1FFA87F80126B3FB4C
S31508010390FEFC210C0EFB1C3341EA034108FB0CF35E
S315080103A08B4207D979180CF1FF3002D28B4200F241
S315080103B0E9808446C91AA3B2B1FBFEF00EFB1011FF
S315080103C043EA014408FB00F8A04507D93C1900F1A6
S315080103D0FF3302D2A04500F2D9801846A4EB0804DF
S315080103E040EA0C40BFE78B4209D9002D00F0B180E5
S315080103F00026C5E9000130463146BDE8F087B3FA63
S3150801040083F6002E4AD18B4202D3824200F2B8808B
S31508010410841A61EB030101208C46002DA8D0C5E999
S31508010420004CA5E7C2F1200320FA03F6974001FA2A
S3150801043002F04FEA174ED9403043030CB1FBFEF6E2
S315080104401FFA87F80EFB161143EA014306FB08F16A
S31508010450994204FA02F409D9FB1806F1FF3C80F027
S315080104608D80994240F28A80023E3B445B1A81B2F2
S31508010470B3FBFEF00EFB103341EA034100FB08F320
S315080104808B4207D9791800F1FF3C73D28B4271D997
S3150801049002383944CB1A40EA064678E7C6F1200CF9
S315080104A003FA06F422FA0CF31C4320FA0CF701FAB4
S315080104B006F34FEA144E21FA0CF11F433B0CB1FB2C
S315080104C0FEF91FFA84F80EFB191143EA014109FBEB
S315080104D008FA8A4502FA06F200FA06F308D96118FB
S315080104E009F1FF3048D28A4546D9A9F102092144C2
S315080104F0A1EB0A01BFB2B1FBFEF00EFB101147EAF0
S31508010500014700FB08F8B84507D9E71900F1FF319B
S315080105102ED2B8452CD90238274440EA0940A7EB20
S315080105200807A0FB02894F45C64649461AD317D084
S315080105305DB1B3EB0E0267EB010707FA0CFCF2405B
S315080105404CEA0202F740C5E9002700263146BDE814
S31508010550F0872E4628460BE70646E9E61846FDE6E5
S315080105604345E5D2B8EB020E69EB04010138DFE732
S315080105700846D2E760468DE78146B9E7664675E7DC
S3150801058030464AE7ACF1020C394413E702383C44D9
S3150801059024E700BF704700BF08B500F089F800F0EE
S315080105A02FF802F0C7F908BD08B500F049F800F0C0
S315080105B023F808BDBFF34F8F0549CA6802F4E06204
S315080105C0044B1343CB60BFF34F8F00BFFDE700BF5A
S315080105D000ED00E00400FA0508B5044B1B68044960
S315080105E00448984700B908BDFFF7E4FF94010008DD
S315080105F0D50000209400002008B5FFF7EDFF08BDDF
S3150801060010B501224FF400510B4801F03FF90B4C8C
S3150801061001224FF48051204601F038F901224FF4A6
S315080106208041204601F032F901224FF4004120466B
S3150801063001F02CF910BD00BF00080240000C024071
S3150801064070B500F036F8174B1B68C31AB3F5FA7F75
S3150801065015D30446144B1B7893B90125124B1D700B
S31508010660124E2A464FF48051304601F00FF92A46B8
S315080106704FF40041304601F009F90A4B1C6070BD80
S315080106800025094B1D70094E2A464FF48051304604
S3150801069001F0FCF82A464FF40041304601F0F6F81D
S315080106A0EBE700BFD8000020D6000020000C02406E
S315080106B0704708B500F07CFA08BD0000014A024BF4
S315080106C09A6070470000010800ED00E070B58CB033
S315080106D000240B94294B1A6B42F004021A631A6B15
S315080106E002F004020592059A1A6B42F080021A6317
S315080106F01A6B02F080020492049A1A6B42F0010204
S315080107001A631A6B02F001020392039A1A6B42F0FA
S3150801071002021A631A6B02F002020292029A1A6B19
S3150801072042F008021A631B6B03F008030193019B4D
S3150801073013484FF400538361124E4FF07042B26171
S31508010740069301250795089409940A9406A901F0C8
S31508010750A9F8069507940A9406A90B4801F0A2F888
S315080107604FF4704306930795089409940A9406A9C9
S31508010770304601F097F80CB070BD00BF0038024052
S3150801078000080240000C02400000024010B590B07B
S31508010790002409940A940B940C940D940E940F94C6
S315080107A01E4B5A6C42F020025A645A6C02F020021F
S315080107B00292029A1A6B42F004021A631B6B03F047
S315080107C004030193019BC023039302230493032388
S315080107D00593069407940823089303A9104801F082
S315080107E061F84FF4E13309930A940B940C940C23A2
S315080107F00D930E940F940B4C09A9204601F05AF952
S31508010800236923F490432361636923F02A0363610F
S31508010810E36843F40053E36010B010BD00380240AA
S31508010820000802400014014010B50446024B1B683B
S31508010830C0B29847204610BD8C01000808B52E4A5B
S31508010840136823F0070343F0050313602A4B1B685B
S3150801085003F00703052BF9D1284A136843F48043AB
S31508010860136002F5E432136823F0F80343F08003BA
S315080108701360136843F001031360214B1B6813F0DF
S31508010880020FFAD01E4A51681E4B0B4043F42853F7
S3150801089043F008035360536823F4403353601368E5
S315080108A043F080731360164B1B6813F0007FFAD070
S315080108B0134B9A6822F0F0029A609A6822F4E05281
S315080108C042F4A0529A609A6822F4604242F40042C5
S315080108D09A609A6822F0030242F002029A60084B73
S315080108E09B6803F00C03082BF9D1074801F09EF920
S315080108F0002000F011F908BD003C024000700040DC
S31508010900003802400080BFFF007A030A30B585B07F
S31508010910FFF7D4FE00F026F9FFF790FFFFF7D6FEA2
S31508010920FFF734FF01F088F9FFF736FE16480BF09A
S315080109302DF9164C94F82D3094F82E2094F82F1092
S3150801094002910192009394F82C3094F82B2094F894
S315080109502A100F480BF094F8656803E001F0A8F92E
S31508010960FFF722FE002DF9D1084B5C68002CF5D063
S31508010970230E0093C4F30743C4F30722E1B20548E3
S315080109800BF07EF82546E9E7F8CB01083C0B002079
S3150801099010CC010844CC010882B0002100910B4B10
S315080109A05A6C42F480425A645A6C02F480420092AC
S315080109B0009A01911A6C42F080521A641B6C03F07A
S315080109C080530193019B02B0704700BF0038024073
S315080109D07047FEE7FEE7FEE7FEE770477047704798
S315080109E008B500F0D9F808BD01207047024B162258
S315080109F01A604FF0FF3070476C72002008B54FF04F
S31508010A00FF31FFF7F3FFFEE770B50C4616460025E2
S31508010A10B54207DAAFF30080214601F8010B01352B
S31508010A200C46F5E7304670BD70B50C4616460025EE
S31508010A30B54205DA14F8010BFFF7F6FE0135F7E7BB
S31508010A40304670BD4FF0FF3070474FF400534B608E
S31508010A5000207047012070470020704710B40346F4
S31508010A600C4A0D490D48006850B10C48006803440A
S31508010A70521A934208D8094A13605DF8044B704725
S31508010A800648074C0460F0E7064B0C221A604FF043
S31508010A90FF30F2E70000022000040000DC0000201D
S31508010AA0807200206C720020054BD3F8882042F42E
S31508010AB07002C3F888204FF000629A60704700BF41
S31508010AC000ED00E0DFF834D0002103E00C4B5B5861
S31508010AD0435004310B480C4B42189A42F6D30B4A41
S31508010AE002E0002342F8043B094B9A42F9D3FFF787
S31508010AF0DBFF0AF07DFFFFF709FF704700000220C0
S31508010B002407020800000020780000207800002051
S31508010B107C720020FEE7000010B504460E4B1878DB
S31508010B204FF47A73B3FBF0F30C4A1068B0FBF3F099
S31508010B3000F09EF868B90F2C01D901200AE00022BD
S31508010B4021464FF0FF3000F05FF8054B1C6000208E
S31508010B5000E0012010BD00BF0400002000000020B5
S31508010B600800002008B50B4B1A6842F400721A6097
S31508010B701A6842F480621A601A6842F480721A602E
S31508010B80032000F02FF80020FFF7C6FFFFF704FF48
S31508010B90002008BD003C0240034A1168034B1B783C
S31508010BA00B441360704700BF380B00200400002077
S31508010BB0014B1868704700BF380B002038B504464A
S31508010BC0FFF7F6FF0546B4F1FF3F02D0044B1B7849
S31508010BD01C44FFF7EDFF401BA042FAD338BD00BF06
S31508010BE004000020074AD36823F4E0631B041B0CA6
S31508010BF0000200F4E060034343F0BF6343F40033AB
S31508010C00D360704700ED00E030B4174BDB68C3F3DF
S31508010C100223C3F10704042C28BF04241D1D062D35
S31508010C2018D9033B4FF0FF3505FA04F421EA04010C
S31508010C30994005FA03F322EA0303194300280BDB5B
S31508010C400901C9B200F1604000F5614080F800135E
S31508010C5030BC70470023E5E700F00F000901C9B26F
S31508010C60024B1954F4E700BF00ED00E014ED00E073
S31508010C700138B0F1807F0AD2064B5860064AF02146
S31508010C8082F823100020986007221A607047012015
S31508010C90704700BF10E000E000ED00E050791379DD
S31508010CA043EA002307480B50D07893781B0443EA9C
S31508010CB00063507843EA002312781343024A8B50A3
S31508010CC0704700BF4080024044800240016841F2FB
S31508010CD018028B5843F400538B507047016841F250
S31508010CE018028B5823F400538B507047016841F260
S31508010CF018028B5843F002038B507047016841F282
S31508010D0018028B5823F002038B50704782B0084BA8
S31508010D101B68084AA2FB03235B0A00FB03F3019342
S31508010D2000BF019B5A1E0192002BF9D102B07047F0
S31508010D3000000020D34D621010B582B0044600238E
S31508010D4001930268136843F00803136003681B687C
S31508010D5001930120FFF7DAFF2368019A1A6002B0AE
S31508010D6010BD10B582B004460023019302681368CA
S31508010D7043F00403136003681B6801930120FFF71E
S31508010D80C5FF2368019A1A6002B010BD30B583B059
S31508010D90044600230193026841F21805535943F4A6
S31508010DA08013535103685B5901930120FFF7AEFF86
S31508010DB02368019A5A5103B030BD10B582B0044672
S31508010DC0002301930268136823F004031360036880
S31508010DD01B6801930120FFF799FF2368019A1A609E
S31508010DE002B010BD10B582B0044600230193026813
S31508010DF0136823F00803136003681B680193012035
S31508010E00FFF784FF2368019A1A6002B010BD00003B
S31508010E1070B59EB0044629B14FF40063C3604FF420
S31508010E2080438360E369002B6AD14FF4806307939B
S31508010E3021680B68394A1A40A368E0680343079892
S31508010E40034343F4007313430B6023681D680120B1
S31508010E50FFF7B4FE23681D60236840225A602368A1
S31508010E605D680120FFF7AAFE23685D6023680025F7
S31508010E709D602368DD602268936923F0BE031B0425
S31508010E801B0C43F08003936123689E690120FFF7D9
S31508010E9095FE23689E612368DD612368DD6901206B
S31508010EA0FFF78CFE2368DD61226841F21805515966
S31508010EB01B4B0B4043F0087343F00403535123685B
S31508010EC05E590120FFF77AFE23685E51236803F510
S31508010ED08053144A1A60236803F580531D6801205C
S31508010EE0FFF76CFE236803F580531D60A369012B88
S31508010EF009D0626900212046FFF7D0FE1EB070BDF9
S31508010F000023079394E7216841F21C028B5843F4A6
S31508010F10803343F040038B50EBE700BF0F8120FF7E
S31508010F20233FDEF88020C102F0B490F84540012C39
S31508010F3032D0012480F84540022480F84440C16239
S31508010F40002401E0F16001349C4218D2670101EBEB
S31508010F5044164FF48015CD5140F2F45505FB04258E
S31508010F60B560C5691DB9CD5945F44005CD515D1E1C
S31508010F70A542E7D9651C01EB4515F560E3E702686B
S31508010F8041F21003D150012380F84430002380F840
S31508010F9045301846F0BC70470220FBE7F0B490F8DC
S31508010FA04540012C2FD0012480F84540022480F8C1
S31508010FB044408162002401E0E96001349C4215D273
S31508010FC0660101EB44154FF000478F5144F2F45680
S31508010FD06E6040F2F45606FB0426AE605E1EA6421B
S31508010FE0EAD9661C01EB4616EE60E6E7026841F2AD
S31508010FF00C03D150012380F84430002380F8453092
S315080110001846F0BC70470220FBE7000090F845300F
S31508011010012B00F08580012380F84530022380F8F2
S315080110204430B1B1C36A1A68002A1ADB30B440F2F7
S31508011030F45291421DD93B4CA4FB0124A40A40F267
S31508011040F45202FB141202B10134012C11D000230F
S3150801105048E0012380F84430002280F845201846EC
S315080110607047122380F84430002380F84530012068
S3150801107070471A6842F040521A60C36AC1F30C01FC
S315080110805960C26A136843F000431360C36ADB6898
S31508011090C362036841F214029A5812F0040F08D089
S315080110A041F2140204219950026841F20403002115
S315080110B0D150012380F84430002380F84530184682
S315080110C030BC7047C26A40F2F4555560621E9A42B6
S315080110D017D0C56A2A6842F000422A60C26AD268F5
S315080110E0C26201339C42D4D9C56A2A6822F04052A9
S315080110F02A60002BE6D1C56A2A6842F080522A6026
S31508011100E0E7C56A2A6842F000522A60064A02FBED
S31508011110041202F2F452C56AC2F30C026A60D8E7F5
S31508011120022070470BB002AC0CFAFFFF90F845306D
S31508011130012B40D0012380F84530022380F8443042
S31508011140836A1A68002A0EDB1A6812F4807F12D1A4
S315080111501A6812F4007F28D0036300224263012231
S315080111608263DB688362012380F84430002280F8B9
S31508011170452018467047826B01328263012A12D0D4
S3150801118043631A68C2F30D42043AC263026B92685A
S315080111900264DB688362012380F84430002380F807
S315080111A04530184670470363EAE7826B013282636A
S315080111B0DB688362D7E702207047F8B590F84430B8
S315080111C0DBB2822B33D005461646822380F844309B
S315080111D00068026902F01C022B8ADB029BB21343E8
S315080111E08C0104F4F8641C4344F001040461FFF71C
S315080111F0DFFC074614F0010F10D0FFF7D9FCC31B1B
S31508011200B3F5803F02D22B681C69F3E7012385F801
S315080112104430002385F84530032007E02B685B69D5
S315080112209BB23360012385F844300020F8BD0220C3
S31508011230FCE790F84430DBB2422B32D070B5054654
S31508011240422380F844300668306900F01C002B8A76
S31508011250DB029BB203438C0104F4F8641C4344F09B
S31508011260030492B272612B681C61FFF7A1FC064662
S3150801127014F0010F10D0FFF79BFC831BB3F5803FD9
S3150801128002D22B681C69F3E7012385F84430002351
S3150801129085F84530032003E0012385F84430002012
S315080112A070BD02207047000070B582B0002301931B
S315080112B0002800F00F81044690F84430002B34D002
S315080112C000230093844B5A6C42F480425A645B6C47
S315080112D003F480430093009B804B5A6822F4000272
S315080112E05A605A68216A0A435A60236803F580538B
S315080112F01A6842F001021A60FFF75AFC054623688C
S3150801130003F58052126812F0010F13D0FFF750FC53
S31508011310401BB0F5FA7FF2D9032584F8445000231F
S3150801132084F84530284602B070BD80F8453000F093
S3150801133001FEC5E71D6925F01C0500F0ADFA684BED
S315080113400344684A934256D245F0080523681D614D
S315080113504FF4004200212046FFF76BFF054600289F
S3150801136061D140F6FF70FFF729FC6368002B00F096
S315080113709180FFF71DFC064601AA01212046FFF7C9
S315080113801CFFFFF715FC801B41F28833984252D89F
S31508011390019B13F0040FEFD04FF480520021204631
S315080113A0FFF747FF002852D1FFF702FC064601AABC
S315080113B001212046FFF701FFFFF7FAFB801B41F2E7
S315080113C0883398424BD8019B13F0200FEFD001AA1E
S315080113D01F212046FFF7F1FE00284CD1019B13F08F
S315080113E0040F50D04FF40062E26013F0020F4DD0A3
S315080113F00023A3605EE03C4B03443C4A934202D877
S3150801140045F00C05A2E73A4B03443A4A93429DD369
S31508011410394B0344394A934202D845F0040595E706
S3150801142045F0100592E701212046FFF7F1FC012559
S3150801143084F8445076E701212046FFF7E9FC0123A9
S3150801144084F84430002384F8453003256AE70121EE
S315080114502046FFF7DDFC012584F8445062E70121A7
S315080114602046FFF7D5FC012384F84430002384F88D
S315080114704530032556E701212046FFF7C9FC01251A
S3150801148084F844504EE70022E260AEE74FF4804309
S31508011490A3600FE0E268C2F3CF02A368C3F34F0368
S315080114A01A4300212046FFF7C4FE58B940F6FF70DB
S315080114B0FFF784FB00212046FFF7AAFC012384F8E5
S315080114C044302FE701212046FFF7A2FC012584F8C5
S315080114D0445027E7012525E7003802400038014036
S315080114E000D3CEFEC0E1E40040F1E9FD3F787D017D
S315080114F000796CFC005A6202001F0AFA7FF0FA02B0
S3150801150038B590F84530012B1AD00446012580F8E4
S315080115104550022380F84430FFF70EFC2046FFF7BA
S3150801152020FC2046FFF732FC2046FFF7CFFB20467A
S31508011530FFF7DCFB84F84450002084F8450038BDE9
S315080115400220FCE738B590F84530012B1AD004463D
S31508011550012580F84550022380F84430FFF7BEFB89
S315080115602046FFF7CBFB2046FFF727FC2046FFF76F
S315080115700DFC2046FFF736FC84F84450002084F819
S31508011580450038BD0220FCE790F84530012B00F0F4
S315080115908E8070B505460C46012380F84530022336
S315080115A080F84430002971D002681368414919400E
S315080115B0236860680343A0680343E0680343A86897
S315080115C003432069034360690343E8680343A06949
S315080115D00343E0690343206A0343606A0343A06A3D
S315080115E003430B4313602B681E680120FFF7E6FAD5
S315080115F02B681E60E36A226B1343626B1343A26B6B
S315080116001343E26B1343226C1343626C1343A16CBD
S315080116102A680B4353602B685E680120FFF7CEFAF0
S315080116202B685E602B68E26C9A602B68226DDA6023
S3150801163029688A6922F0BE021204120C606DA36D34
S3150801164043EA0043E06D0343206E0343606E0343A0
S31508011650A06E034313438B612B689E690120FFF734
S31508011660ADFA2B689E61E36E216F2A680B43D3613D
S315080116702B68DC690120FFF7A1FA2B68DC610123DD
S3150801168085F84430002085F8450070BD01680A6870
S3150801169022F490428368C068034313430B602B68A6
S315080116A01C680120FFF78AFA2B681C60E7E702200D
S315080116B0704700BF0F8120FF00230F2B00F2DD804A
S315080116C0F0B482B05DE086685F000324BC4026EA78
S315080116D00406CC68BC4034438460466826EA0206A0
S315080116E04C68C4F300129A403243426057E0DC0862
S315080116F0083450F8247003F0070296000F22B2400E
S3150801170027EA02070A69B2403A4340F824205AE018
S31508011710072200E00022B2403A430234574E46F807
S315080117202420574A1468EA4324EA05064F6817F441
S31508011730803F01D045EA0406514C2660646802EAF6
S3150801174004064F6817F4003F01D045EA04064C4CDD
S315080117506660A46802EA04064F6817F4801F01D080
S3150801176045EA0406464CA660E46822404E6816F42B
S31508011770001F01D045EA0402414CE26001330F2BF8
S3150801178078D801229A400C6804EA020532EA040470
S31508011790F4D14C6804F00304013C012C93D94A683E
S315080117A002F00302032A09D0C4685E000322B2408C
S315080117B024EA02048A68B2402243C2604A6802F0F7
S315080117C00302022A93D004685E000322B24024EA87
S315080117D002044A6802F00302B240224302604A68E0
S315080117E012F0805FCAD000220192264A546C44F452
S315080117F080445464526C02F480420192019A9C0816
S31508011800A61C1E4A52F8267003F0030296000F2200
S31508011810B24027EA02071C4A90423FF47BAF02F521
S31508011820806290421AD002F58062904218D002F581
S315080118308062904216D002F58062904214D002F579
S315080118408062904212D002F58062904210D002F571
S31508011850806290423FF45CAF08225CE701225AE7B6
S31508011860022258E7032256E7042254E7052252E7E3
S31508011870062250E702B0F0BC7047704700380140B5
S31508011880003C014000380240000002400AB1816173
S315080118907047090481617047014B1868704700BF9A
S315080118A000000020F0B40C6894FAA4F4B4FA84F4A5
S315080118B04AE08E68826893FAA3F5B5FA85F56D0054
S315080118C0032707FA05F522EA050293FAA3F5B5FAFD
S315080118D085F56D0006FA05F52A438260CD684268EA
S315080118E022EA030203FB05F52A4342600E69C26830
S315080118F093FAA3F5B5FA85F56D00032707FA05F5F9
S3150801190022EA050293FAA3F5B5FA85F56D0006FAFA
S3150801191005F52A43C2604A68022A22D04A68056840
S3150801192093FAA3F6B6FA86F67600032707FA06F6B9
S3150801193025EA060593FAA3F3B3FA83F35B0002FAE1
S3150801194003F32B43036001340B6833FA04F23CD0EA
S315080119500122A2401340F6D04A68013A012AC5D8A5
S31508011960A7E793FAA3F2B2FA82F2072A15D84E69C3
S31508011970026A93FAA3F5B5FA85F5AD000F2707FABA
S3150801198005F522EA050293FAA3F5B5FA85F5AD0040
S3150801199006FA05F52A430262C0E74D69466A1A0A3C
S315080119A092FAA2F7B7FA87F7BF004FF00F0C0CFAB5
S315080119B007F726EA070692FAA2F2B2FA82F292002B
S315080119C005FA02F232434262A8E70020F0BC7047EA
S315080119D0034B9B68C3F30313024AD35CD840704791
S315080119E00038024060CC0108034B9B68C3F382238D
S315080119F0024AD35CD84070470038024070CC0108CF
S31508011A00034B9B68C3F34233024AD35CD840704701
S31508011A100038024070CC01080F4B5B6803F4800361
S31508011A2023B90E4B082803D0002070470C4BF9E761
S31508011A30094A506800F03F00B3FBF0F35068C0F361
S31508011A40881000FB03F05368C3F3014301335B00BD
S31508011A50B0FBF3F0704700BF003802400024F400E1
S31508011A6000127A0008B5084B9B6803F00C03042B97
S31508011A7005D0082B05D10820FFF7CEFF02E0034861
S31508011A8000E0034808BD00BF0038024000127A0092
S31508011A900024F40010B50446FFF7E4FF2060FFF7C1
S31508011AA097FF6060FFF7A0FFA0606068FFF7A8FFD7
S31508011AB0E06010BDC36813F4005F01D001207047D0
S31508011AC0F0B585B004460D46C36823F4164323F0E2
S31508011AD00C034A68C9680A4329690A43A9690A437A
S31508011AE01343C360AB68026922F44052134303618E
S31508011AF06B69426922F44072134343616846FFF7F2
S31508011B00C9FF434B9C4210D0424B9C4214D0424BD6
S31508011B109C4213D0414B9C4212D0414B9C4211D05E
S31508011B20404B9C4210D0012070E0039800286CD0ED
S31508011B302B685BB9012069E00298F7E70298F5E797
S31508011B400398F3E70298F1E70298EFE7AA69B2F575
S31508011B50004F2CD00026051846EB06012D1846EB3A
S31508011B600101CA0042EA5572EF0011469A009B0F1D
S31508011B70381846EB0101FEF793FB2B49A1FB00320E
S31508011B8053091A0192B2642505FB13031B0132336B
S31508011B90A1FB0313C3F34F1303F0F0010A4492B2F6
S31508011BA003F00F0313449BB2A36000202EE0002626
S31508011BB0051846EB06012D1846EB0101CA0042EA53
S31508011BC05572EF001146DA1846EB0603381846EB4C
S31508011BD00101FEF765FB1449A1FB003253091A01FD
S31508011BE092B2642505FB1303DB003233A1FB031311
S31508011BF0C3F34F13590001F4F8710A4492B203F082
S31508011C00070313449BB2A360CFE7012005B0F0BDDB
S31508011C100010014000440040004800400014014003
S31508011C20004C0040005000401F85EB51014B1860E5
S31508011C30704700BF0000002030B585B001F0FEF8FE
S31508011C40144900200860144A1060144B1860144C9B
S31508011C50144D0295144D01950090204601F0ECFCB7
S31508011C60204601F07BFD94F8313013F0040F0CD0B7
S31508011C70204601F079FD0A4C0C49204601F0B2FDD7
S31508011C80204608F075F905B030BD054801F08AFD12
S31508011C90F1E700BF740B0020780B00207C0B0020B5
S31508011CA03C0B0020D9B801084520010899200108F4
S31508011CB008B5034800F0B6F906F026FC08BD00BFD2
S31508011CC03C0B00202DE9F0473348FFF72FFA00288F
S31508011CD05ED1314B998FD3F8408079B94FF0000A1C
S31508011CE02D4B1B6B00212C4A926B8A423BD91A68F1
S31508011CF042F000421A60DB680131F4E74FF4C17221
S31508011D0001F0ECFE82460028EAD0234B1F6B814680
S31508011D10002421E0D9F80400C4F5BE62043208EBB8
S31508011D200401304409F096FEFF68D7F80880A5F249
S31508011D30F452361B06F2F4560024A51840F2F45361
S31508011D409D42E7D8D9F8040008EB0401304409F0AC
S31508011D5081FED9F800902C46B9F1000FC0D0B9F828
S31508011D600A200026E9E70C4B00229A631B6841F218
S31508011D7014029A5812F0800F07D041F214028021FA
S31508011D80995041F20802002199505046BDE8F08762
S31508011D904FF0000AF9E700BF502400202DE9F84F5B
S31508011DA08B462C4BDE6AD6F808A000242746BBF1E1
S31508011DB0000F32D03368002B35DBBBF80A900025BB
S31508011DC004EB090840F2F453984519D9DBF80410D5
S31508011DD0C4F5BE62043229440AEB040009F03AFE4E
S31508011DE0F6683368002B21DBD6F808A0A8F2F45967
S31508011DF02D1B05F2F4553F1B07F2F4570024DFE7C4
S31508011E00DBF804104A4629440AEB040009F022FECD
S31508011E104F44DBF800B04446C9E739460D48FFF799
S31508011E20F5F8002004E06FF0070001E06FF0070005
S31508011E30084B1B6841F214029A5812F0200F07D07A
S31508011E4041F214022021995041F2040200219950CD
S31508011E50BDE8F88F5024002030B583B004462F48DA
S31508011E602F4B0360012242604FF4804383604FF495
S31508011E700063C360002303828DF8003080218DF84A
S31508011E800110E1218DF802108DF8032002228DF848
S31508011E90042003228DF80520C0F814D08361C3619C
S31508011EA04FF400030362FFF7FFF928B994F83130BC
S31508011EB043F0040384F83130184D0423194A1A49AA
S31508011EC02846FFF731F80423184A19492846FFF727
S31508011ED065F8062384F830306B691A7884F82A2065
S31508011EE05A7884F82B209A7884F82C20DA7884F8A2
S31508011EF02D201A7984F82E205B7984F82F3040F248
S31508011F00DC53238594F8313043F00A0384F83130E1
S31508011F102846FFF7F5FA03B030BD00BF502400206C
S31508011F200080024098240020800B0020000C00202D
S31508011F30D0230020F0B58DB00023079308930993A9
S31508011F400A930B930268334B9A4201D00DB0F0BD48
S31508011F5000240194A3F590431A6B42F000721A63A8
S31508011F601A6B02F000720192019A02941A6B42F0FE
S31508011F7080621A631A6B02F080620292029A0394D3
S31508011F801A6B42F000621A631A6B02F0006203923E
S31508011F90039A04941A6B42F004021A631A6B02F04C
S31508011FA004020492049A05941A6B42F001021A6318
S31508011FB01A6B02F001020592059A06941A6B42F011
S31508011FC002021A631B6B03F002030693069B322374
S31508011FD0079302270897099403260A960B250B955A
S31508011FE007A90D48FFF768FB862307930897099405
S31508011FF00A960B9507A90948FFF75EFB4FF460534C
S315080120000793089709940A960B9507A90448FFF7B9
S3150801201053FB9BE700800240000802400000024093
S315080120200004024038B50446FFF74CFE20B10546C8
S3150801203023692146984700B938BD284601F0ECFCCA
S31508012040FAE7000010B5044670B1732384F83230FC
S31508012050742384F83330084B6361084BA361204627
S31508012060FFF7FAFE002010BD054B4FF4FE72054935
S31508012070054809F005FDE8E731A901089D1D010894
S3150801208078CC010894CC0108A4CC010808B5FEF760
S315080120908FFD08BD7047000030B583B004460023A4
S315080120A00193009390F8313013F0040F51D02B4B64
S315080120B05B68002B35D04FF4805200212748FFF783
S315080120C0B8F8FEF775FD01906A4601212348FFF726
S315080120D074F8FEF76DFD019BC31AB3F57A7F20D814
S315080120E0009B13F0200FEFD06A461F211B48FFF70C
S315080120F064F8009B13F0040F0AD0184A4FF40061E4
S31508012100D16013F0020F07D0144B00229A6013E036
S31508012110124A0021D160F4E7104B4FF480429A60CD
S315080121200AE00E48C268C2F3CF028368C3F34F03BD
S315080121301A430021FFF77DF8084D00212846FFF7CD
S3150801214023FA2846FFF7DCF92046FFF7A3FF03B079
S3150801215030BD0248FFF7F6F9F6E700BF5024002024
S31508012160C0B170B50D460646B9B10D4C7CB1616872
S315080121702846FEF72DF808B12468F7E7A368336007
S31508012180E3687360B360F060237C337401E06FF039
S31508012190050070BD6FF00F0070476FF00F00F8E78C
S315080121A0F0D90108704742688068101A7047000024
S315080121B030B338B50C460546012102F01BFA224612
S315080121C01049284602F0ACF850B9FF21284602F01A
S315080121D07DF9044660B10C49204602F095FA38BDEE
S315080121E00A4B40F657220A490A4809F049FCECE726
S315080121F0064B40F659220849064809F041FCEAE728
S31508012200704700BF5C030208C928010804DA0108FF
S315080122103CDA0108A4CC010858DA01082DE9F04195
S3150801222005460E461F46904672B1B8F80030BBB354
S31508012230B5F86420934200D81A466C8E6400A4B29D
S31508012240A2420FD814460DE0174B40F2192217493E
S31508012250174809F015FCE8E70124B0F1FF3F17D14B
S31508012260012C15D93B4622463146284605F052F837
S31508012270B0F1FF3FF1D1B5F86430002BECD0B5F8D9
S315080122806630082B02D8C4F34F04E6E70124E4E7D5
S3150801229010B9A8F8004004E00023A8F8003000E0CF
S315080122A00020BDE8F08100BF04DA010878DA0108E8
S315080122B0A4CC010810B582B00C464B6A4FF6FE72E3
S315080122C0934214D89BB2ADF8063000230DF10602ED
S315080122D0A169FFF7A3FF68B9BDF80610A2690A4408
S315080122E0A261636A5B1A6362012002B010BD4FF6F0
S315080122F0FF73E8E70020F8E710B50446406918B10E
S31508012300FFF750FF00236361206A18B101F084FBCF
S315080123100023236210BD38B110B50446FFF7ECFF60
S31508012320204600F077FE10BD7047000070B50446E0
S315080123300D461646002102F095F90021204602F0C5
S3150801234095F90021204602F0C5F9002211462046DA
S3150801235002F0E2F90021204602F0A2F915B1284659
S31508012360FFF7D9FF36B9204602F04CFD054630B9CC
S31508012370284670BD204602F059FB0025F8E70422DD
S315080123800249204602F0C8F9F2E700BF55240108C0
S3150801239008B50022FFF7CAFF08BD08B5FFF7F8FF21
S315080123A008BD000038B505460C46486960B1FFF717
S315080123B0FAFE00280DDD0A4B40F29D4209490A48FA
S315080123C009F05EFB012038BD2846FFF7E6FF00202D
S315080123D0F9E721462846FFF7E0FF0020F3E700BFAB
S315080123E004DA010888DA0108A4CC010870B5D9B164
S315080123F004460E464B6A1BB9FFF7D4FF054630B1B2
S3150801240031462046FFF756FF0546736A0BB1284643
S3150801241070BD7069FFF7C7FE0028F8DC3146204613
S31508012420FFF7BBFF0025F2E70025F0E750B108B535
S315080124300B460146002280F828201846FFF7D6FFEA
S31508012440002008BD0020704718B108B5FFF763FFE3
S3150801245008BD704710B50C4680B1014690F8283082
S315080124600133DBB280F82830042B0CD043691BB149
S315080124702046FFF7BBFF50B9002010BD00212046BA
S31508012480FFF786FFF8E72046FFF782FFF4E72046C5
S3150801249005F04EFDF0E7000070B50446002941D06D
S315080124A016460D460B682BB365612B68A3616B68ED
S315080124B0002B27DB6B686362002384F82830636985
S315080124C01B7C13F0010F25D0002E31D063691B7CCC
S315080124D013F0010F2CD0626A1649A06900F055FA6B
S315080124E0034628B30433A2699A1AA361636A9B1A3D
S315080124F063621DE0104B40F60B121049104809F0B3
S31508012500BFFAD1E70C4B40F634120E490C4809F0D4
S31508012510B7FACFE7084B40F643120B49084809F0CA
S31508012520AFFAD1E7002343618361436280F828301B
S31508012530002070BD20DB010804DA0108C0DA0108B1
S31508012540A4CC0108D4DA0108F4DA010870B5064604
S315080125500C460C4921600546FFF702FE08B92846D4
S3150801256070BD094921603046FFF7FAFD0028F6D00B
S31508012570064921603046FFF7F3FD0028EFD0002514
S315080125802560ECE728DB010834DB010840DB01089C
S315080125902DE9F04F85B00446039116460D460846C7
S315080125A0FDF720FE20B18046471EEB5D2F2B1DD07F
S315080125B03F21039809F032FB074610B1002307F8BB
S315080125C0013B254603992046FFF7CAFD00285BD142
S315080125D0002D5FD0019700230093039B32462946BD
S315080125E02046FFF759FF05B0BDE8F08F2C4B9D42F9
S315080125F008D03F2F28BF3F27B8F1010F05D14FF06B
S3150801260000092DE00128D3D1F3E7DFF894903A4683
S315080126102946484609F01EFA002309F80730EEE76D
S31508012620204B53F839A05046FDF7DCFD834528BFFA
S3150801263083461B4D5A465146E81909F00BFABB4425
S31508012640002305F80B30AA4602E0164B53F839A0C9
S31508012650254651462046FFF783FD68B109F1010970
S31508012660B9F1040F0BD8B8F1010FEED0D7F13F0B32
S31508012670D6D1DFF82CA0EBE7CDF80CA000E00025B9
S31508012680002D95D00027A3E703A92046FFF75EFF93
S3150801269005469DE703A92046FFF758FF054699E732
S315080126A0E0000020ECDB01082DE9F0470C46054661
S315080126B000284FD0002C55D06369002B7ED1A36921
S315080126C0002B7ED1206A002854D0294601F028FB28
S315080126D0284601F00DFB206A0368002B4CD00589BA
S315080126E040F2FF339D4228BF1D463A4E00232A4633
S315080126F0314601F0E7FB062D1ED9A9462A46364979
S31508012700304600F042F9B8B104223449304609F09E
S3150801271092FA8246002832D106F10308371D043D94
S31508012720ADB22A462E49384600F02FF9034658B36A
S31508012730DD1B0BB1434530D8206A01F0D1FA236A73
S315080127401B89B3F5806F3FD2052840D96FF00F007A
S31508012750BDE8F087234B40F2AE722349234809F0BE
S315080127608FF9A7E71F4B40F2AF7221491F4809F0BD
S3150801277087F9A1E72562ABE76E686D89BBE7002398
S3150801278033716FF00F00E3E72A461349384600F024
S31508012790FCF803464FF0010ACAE74A46154930468E
S315080127A000F0F3F80028C7D00023F370ADB27B55CB
S315080127B0524639462046FFF7EBFEC9E76FF0070098
S315080127C0C6E76FF00700C3E76FF00F00C0E76FF0C9
S315080127D00400BDE72001002058DB01085CDB010885
S315080127E00CCC010804DA010838FE0108A4CC01085A
S315080127F04CDB010820DB0108F8B505460E461446F0
S315080128005BB952B148B11189304601F09FFE6B6937
S315080128108BB1204601F000F90BE034B1218930462D
S3150801282001F094FE204601F0F7F829463046FFF7F5
S31508012830AFFD0020F8BD324629462046FFF734FF92
S31508012840074640B110F1050F05D010F1100F02D05F
S3150801285010F1080F14D117F1050F05D0286A18B120
S3150801286001F0DAF800232B62204601F0D5F87FB192
S3150801287017F1100FDDD129463046FFF789FDD8E754
S31508012880064B40F604220649064809F0F9F8E2E73C
S3150801289029463046FFF7AAFDCBE700BF04DA01084F
S315080128A064DB0108A4CC010808B52C22002109F033
S315080128B0DFF808BD10B52C2000F0C4FC044608B1A9
S315080128C0FFF7F2FF204610BD12BB38B50C46154678
S315080128D009B30121204601F08DFEFFF7EBFF014602
S315080128E0E0B1C461204601F0BDFE0E49204601F063
S315080128F0BDFE0D49204601F0EDFE04220B49204696
S3150801290001F00AFF0A49204601F0CAFE284638BDE9
S315080129106FF0050070476FF00500F8E74FF0FF30DC
S31508012920F5E700BFF92701084924010855240108DC
S315080129302D24010810B52E2002F0B8F9044620B15D
S3150801294050212046FFF734FC10BD044B40F6722295
S315080129500349044809F094F8F2E700BF04DA0108CC
S3150801296090DB0108A4CC0108030A43EA002080B2DF
S315080129707047030203F47F0343EA0063020A02F481
S315080129807F42134343EA106070472DE9F84307462F
S315080129900E4691460846FDF725FCC0B180463C46E1
S315080129A000E001342578B5B104EB080307EB090209
S315080129B093420AD83378AB42F3D142463146204690
S315080129C009F039F90028ECD102E0002400E03C4680
S315080129D02046BDE8F8830024FAE7000038B1C07A3A
S315080129E038B9431C054A52F8233023B970470020E9
S315080129F07047002070470120704700BF600500201E
S31508012A0008B509F0CBF880B2002301E00133DBB247
S31508012A10032B0FD803EB0312074901EB0212927A33
S31508012A20022AF3D103EB031201EB02121289824245
S31508012A30ECD1E6E708BD00BF680500202DE9F0479F
S31508012A4005468846002401E00134E4B2032C22D865
S31508012A50264604EB4403304A52F82370002FF3D07C
S31508012A6002EB83031B7AAB42EED105EB05131B017F
S31508012A70103392464FEA440904EB44020AEB8202F8
S31508012A805268414625481844B8474E44B6000023C3
S31508012A904AF80630D8E7002301E00133DBB2032BFD
S31508012AA01BD8AB42F9D003EB03121C4901EB021206
S31508012AB0927A022AF1D10A4603EB031102EB0111BC
S31508012AC0C97B05EB051002EB0012D27B9142E4D1DA
S31508012AD0124B03EB00140423E37305EB05130F4AAA
S31508012AE002EB0313DB7B032B01D9BDE8F0870C4C02
S31508012AF054F8230006F076F8084B05EB051203EBAC
S31508012B000212D27B002144F8221005EB051503EBCE
S31508012B1005150423EB73E8E7300500206805002056
S31508012B20200500202DE9F04784B0064600EB001287
S31508012B305B4B03EB0213DB7A012B3DD806EB06133D
S31508012B40574A02EB0313DA7A564B53F82230002B15
S31508012B503AD006EB06131B011033514F1F44384672
S31508012B60FDF740FB00F112014FF4207289B23620BD
S31508012B7000F0B4FF0546002800F08E80002301937B
S31508012B800293039306EB0613454A02EB03131889CE
S31508012B90FFF7EAFEADF8040001238DF806304FF47D
S31508012BA08073ADF808300C2201A9284601F0D8F93E
S31508012BB0013F4FF00C083DE03B4B40F2FA223B49FE
S31508012BC03B4808F05DFFB9E700213046FFF736FFBD
S31508012BD006EB0616324B03EB061300249C722046BD
S31508012BE004B0BDE8F0870134E4B201373B782E2BF7
S31508012BF001D0002BF7D1A7EB090A1FFA8AFA08EBCD
S31508012C0004024FF6FE739A4218DC224641462846CC
S31508012C1001F064FA08F101039BB252464946284677
S31508012C2001F0FEF94444A4B204F101081FFA88F838
S31508012C303B784BB10137B9460024D7E7284600F05F
S31508012C40EBFE6FF00504CAE700224146284601F06B
S31508012C5045FAA31C4FF48072ADF80020ADF80220A6
S31508012C609BB204226946284601F0DAF90C4B06EBB9
S31508012C70061203EB0212D47BD17A3523094A02EBF9
S31508012C80810229460B4850F8240005F00FFF044637
S31508012C90284600F0C1FEA2E74FF0FF349FE700BFC8
S31508012CA0680500206005002014DC010844DC0108E1
S31508012CB0A4CC01082005002038B5044600EB001510
S31508012CC0474B03EB051503280BD804EB0413444AB9
S31508012CD002EB03139B7A032B79D8DFE803F0200A6A
S31508012CE02162404B40F21C423F49404808F0C8FE69
S31508012CF0EBE7FFF785FE3A4A04EB041302EB0313ED
S31508012D001881022199720021D9720120187304EBE6
S31508012D10041302EB031251732046FFF703FF38BD74
S31508012D2004EB04122E4B03EB0212137B013BDBB2BD
S31508012D301373002BF3D104EB0412294B03EB021294
S31508012D40537B0133DBB25373042B09D004EB041212
S31508012D50234901EB021213732046FFF7E3FEDEE770
S31508012D602846FFF73BFE80B11D4A04EB041302EB2C
S31508012D700313D97A0131D9720121197304EB0413AA
S31508012D8002EB031200235373E6E700212046FFF7FF
S31508012D9055FE04EB0414124B03EB041300229A723A
S31508012DA0BDE704EB04131B010D4AD3583BB1013BA4
S31508012DB004EB041212010A498B50002BAFD104EB24
S31508012DC00414074B03EB04140023A372A7E7054B6E
S31508012DD040F25B420649054808F052FE9FE700BFEC
S31508012DE06805002014DC01085CDC0108A4CC010894
S31508012DF078DC010810B5002404E02046FFF75CFFE3
S31508012E000134E4B2032CF8D910BD7047012800D962
S31508012E10704721B10A68054B43F820207047044BD7
S31508012E201A68024B43F82020F2E700BF600500202C
S31508012E305C03020808B5FFF7DDFF08BD08B500F019
S31508012E40C9F800F0FBFA00F0BFFB05F0FBFB01F047
S31508012E5043FAFFF7DAFF05F043FB08BD014B1B6890
S31508012E6018447047AC090020024B1B68C01A80B28F
S31508012E70704700BFAC090020F8B50446FFF7F4FF18
S31508012E80074625882846FFF7E9FF0646648820464F
S31508012E90FFF7E4FFB5F5C86F10D8B4F5C86F0FD8BA
S31508012EA0BC4202D00388BB420CD1094B1B68B34212
S31508012EB00AD07388BB4209D1012000E00020F8BD81
S31508012EC00020FCE70020FAE70120F8E70020F6E7F2
S31508012ED0B009002038B50446354B1B68834240D8F3
S31508012EE0344B1B68A34244D92379002B49D1238843
S31508012EF0B3F5C86F4DD82088FFF7B0FF844216D0C6
S31508012F000379A3B92B4B1B68834210D02A4B1B6844
S31508012F10834246D0038823800088B0F5C86F06D05F
S31508012F20FFF79CFF05462046FFF79EFF68806088ED
S31508012F30FFF794FF0546844212D0037983B91E4BE5
S31508012F401B68A34230D023882B802088B0F5C86F30
S31508012F5006D0FFF783FF04462846FFF785FF608002
S31508012F6038BD164B40F2DF121549164808F088FDA0
S31508012F70B6E7124B4FF4F0721349124808F080FD78
S31508012F80B2E70E4B40F2E11210490E4808F078FDFF
S31508012F90ADE70A4B4FF4F2720D490A4808F070FD85
S31508012FA0A9E7054B1C60B5E7034B1860CBE700BFE3
S31508012FB0AC090020B0090020A809002098DC010806
S31508012FC0C8DC0108A4CC0108E0DC0108FCDC010826
S31508012FD018DD010838B50B4C24F003040A4B1C60B4
S31508012FE04FF4C86525800023638023712846FFF7BF
S31508012FF035FF064B18600123037105804580044B94
S315080130001C6038BD833C0020AC090020B0090020B3
S31508013010A8090020002844D038B5044610F0030F4B
S315080130201FD1A0F108051F4B1B68AB4221D800F13F
S315080130300C031D4A126893421BD810F8043C03B3CB
S315080130402846FFF719FF20B3002304F8043C174B61
S315080130501B68AB4201D9154B1D602846FFF73AFF9D
S315080130600EE0134B40F273221249134808F008FD8B
S3150801307006E00F4B40F27F2210490F4808F000FD89
S3150801308038BD0B4B4FF423720D490B4808F0F8FC79
S31508013090F6E7074B40F295220A49074808F0F0FC83
S315080130A0EEE77047AC090020B0090020A809002006
S315080130B098DC010844DD0108A4CC010868DD010893
S315080130C084DD0108ACDD01082DE9F8430546CC1C71
S315080130D0A4B224F00304A4B20B2C04D9B4F5C86F26
S315080130E002D9002599E00C248C42C0F095804D4BFD
S315080130F01B68AB4203D84C4B1B68AB4206D84B4BFB
S3150801310040F2D1224A494B4808F0BAFC454B1B68A4
S31508013110AB4200F28280444B1B68AB427DD9A5F1D4
S315080131200800FFF7A1FE064635F8088CA8EB00084B
S315080131301FFA88F8A8F108081FFA88F8444529D81B
S3150801314044456DD869D035F8087C3846FFF786FEC0
S3150801315081460379002B33D1B7F5C86F22D0B9F868
S3150801316000703444A4B20834A4B2334B1B684B45EF
S3150801317020D02046FFF772FE0023037107804680A0
S3150801318025F8084C0088B0F5C86F46D0FFF766FEEB
S31508013190448042E0254B4FF439722849254808F006
S315080131A06FFCCDE7214B40F2F5222549214808F06D
S315080131B067FCD4E72046FFF751FE1F4B1860D8E796
S315080131C004F11403434528D83444A4B20834A4B2FC
S315080131D0B7F5C86F18D02046FFF740FE164B1B6897
S315080131E0834201D9144B18600023037135F8083C52
S315080131F00380468025F8084C0088B0F5C86F0CD0C6
S31508013200FFF72CFE448008E0084B40F216320C49C1
S31508013210084808F035FCDEE700252846BDE8F883AE
S315080132200025FAE7AC090020B009002098DC01085E
S31508013230E0DD0108A4CC0108A8090020F8DD010891
S3150801324018DE0108002800F09A802DE9F0410346AE
S31508013250C61CB6B226F00306B6B20B2E04D9B6F5CD
S31508013260C86F02D9002088E00C269E42C0F08980EA
S31508013270454B1868FFF7F8FD05464CE0434B40F20D
S3150801328087324349434808F0FBFB62E00123037197
S315080132903D4B1868A0420FD0274408373E4B1B68A0
S315080132A09F421FD814F0030524D15DBB04F1080021
S315080132B063E00088FFF7D2FD03791BB1364A12682D
S315080132C08242F6D1304A1060334A12688242E3D00C
S315080132D0002BE1D02D4B40F2B53230492D4808F08C
S315080132E0CFFBD9E7294B40F2B9322D49294808F0D5
S315080132F0C7FBD7E7254B40F2BB322A49254808F0D8
S31508013300BFFBD2E7214B40F2BD322749214808F0DD
S31508013310B7FBCBE72588A8463746C6F5C8639D425D
S315080133202AD22846FFF79AFD04460379002BF1D1E4
S315080133300388A3EB0803083BBB42EBD307F114024E
S315080133409342A3D32E44B6B20836B6B2B6F5C86FC1
S3150801335094D03046FFF782FD00230371238803804A
S3150801336045802680012323710088B0F5C86F8FD068
S31508013370FFF774FD46808BE70020BDE8F081002049
S3150801338070470020F9E700BFA809002098DC01086A
S3150801339018DE0108A4CC0108B00900202CDE0108BA
S315080133A048DE010878DE0108A8DE010810B5C36801
S315080133B01C6824B122681A6014F0030F01D1204653
S315080133C010BD044B4FF48C720349044808F058FBAE
S315080133D0F5E700BFCCDE0108FCDE0108A4CC010834
S315080133E038B505460C4611F0030F05D1EB681B6885
S315080133F02360EB681C6038BD034B4FF4B672034972
S31508013400034808F03DFBF1E7CCDE010820DF01089F
S31508013410A4CC0108C36800221A608368033323F029
S315080134200303C188914208DDC16809681960C1684A
S315080134300B6081880B440132F3E7704710B500240D
S3150801344006E0054B53F82400FFF7E4FF0134A4B264
S31508013450082CF6D910BD00BF74E0010808B5082884
S3150801346005D8074B53F82000FFF7A0FF08BD054B09
S3150801347040F257120449054808F002FB0020F5E717
S3150801348074E00108CCDE010840DF0108A4CC01087C
S3150801349008B5082806D821B1064B53F82000FFF7CE
S315080134A09FFF08BD044B4FF4D5720449044808F040
S315080134B0E7FAF6E774E00108CCDE010860DF0108E7
S315080134C0A4CC01080B688268934205D011B18360C8
S315080134D0012070470023FAE7002070470B68C2688D
S315080134E0934205D011B1C360012070470023FAE762
S315080134F0002070476FF00B00704738B504460D463B
S3150801350001F016FB2946204605F0A4FB38BD00004C
S3150801351038B50C46054670B195F8313003F0050209
S31508013520052A07D114F0010F04D06A6812B113F005
S31508013530080F08D138BD064B40F26D3205490648D9
S3150801354008F09EFAE8E7291D284607F05DF8F1E735
S3150801355098E00108CCE00108A4CC010870B582B056
S31508013560044615460E4639B175B1326863689A4202
S3150801357012D1002002B070BD104B40F2CB12104997
S31508013580104808F07DFAEFE70C4B4FF4E6720C4948
S315080135900C4808F075FAE8E701922B6001A928465C
S315080135A0FFF7ABFF3EB13368636001212046FFF7A1
S315080135B0AFFF0120DEE70023F6E700BF98E0010828
S315080135C0F0E00108A4CC0108704700002DE9F0419C
S315080135D082B0044616461D460F46D9B1E6B1EDB18D
S315080135E00FB13B68E3B901AA39462046FFF7B6FF92
S315080135F04FF00108002231462046FFF763FF0022FB
S3150801360029462046FFF76AFFB8F1000F0BD002B032
S31508013610BDE8F081074FE1E7064EE0E7054DDFE734
S315080136204FF00008E6E701AA39462046FFF796FF5C
S31508013630EDE700BF5C03020870B5059C064618B3A2
S31508013640002C2AD0002931D0002A31D0002B31D0C4
S3150801365000207060B060F060364D7561308586F87F
S3150801366031007062F061049830623348007886F858
S315080136703400069830613046FFF7A8FF3046A04768
S3150801368000283ED0002050E02C4B40F227122C494E
S315080136902C4808F0F5F9304647E0284B4FF4947268
S315080136A02949284808F0ECF900203EE02749CBE7EC
S315080136B0264ACBE7254BCBE7002386F8343024E0AE
S315080136C01E4B40F28B1222491E4808F0D9F910E028
S315080136D01A4B40F28D121F491A4808F0D1F994F88D
S315080136E0342096F834309A4207D0246844B1A64269
S315080136F0E6D00135FF2DF2DDEAE7013386F83430ED
S315080137003CB196F83430FF2BD6D0134B1C680025F4
S31508013710ECE796F83430FE2B08D00133064A1370CD
S315080137200D4B1A6832601E60304670BD024B00228E
S315080137301A70F5E7F5340108D809002098E0010860
S3150801374000E10108A4CC01081CE101085C03020898
S3150801375040E1010854E101080C720020014B186090
S31508013760704700BF1072002008B528B190F83130B3
S3150801377013F0010F08D008BD074B4FF454720749DF
S31508013780074808F07DF9F6E743F0010380F8313080
S315080137900321FFF7BDFEEEE798E0010884E1010881
S315080137A0A4CC010808B560B190F8313013F0010FC7
S315080137B006D003F0FE0380F8313013F0080F08D164
S315080137C008BD054B40F29B320449054808F058F9F3
S315080137D0F6E706F097FEF3E798E00108A0E101088D
S315080137E0A4CC010800B1C16170470000024658B176
S315080137F0064B186838B190F834300133DBB293427E
S3150801380003D00068F6E77047002070470C72002065
S31508013810014B01221A7070471472002010B400245B
S3150801382004604160028143819DF8043003739DF869
S315080138300830437301238373C4735DF8044B7047DF
S3150801384030B143898B4203D8C91A89B20068F7E7B0
S3150801385002B111807047000070B50C461646054640
S31508013860C0B13DB3B4F5803F26D23CB3A2B22B8991
S3150801387013449BB2934223D395F90C10002911DB0B
S3150801388006B369680C1B6C6069890A446A812B81D5
S31508013890002012E00C4B40F2DF120C490C4808F0EC
S315080138A0EFF8DEE769680C1B05F11001A142EAD9B8
S315080138B0012002E0012000E0012070BD0020FCE7A4
S315080138C00120FAE70120F8E7C0E1010838FE0108FE
S315080138D0A4CC010808B5064B00221A70054B1868D6
S315080138E028B1436F0BB9C068FAE700F075FF08BD48
S315080138F0147200201C720020F0B583B006460D46EE
S315080139001446412A01D0012A0FD10720FFF7A6FD47
S31508013910074638B10023019300942B462A463146BF
S31508013920FFF77CFF384603B0F0BD044B4FF4A57290
S315080139300349044808F0A4F8E7E700BFC0E1010815
S31508013940F0E10108A4CC010870B582B00D461E4607
S315080139500699C41C24F003042819BDF81C309842A2
S315080139600DD801B1214434460223019300922B4616
S315080139702A463046FFF752FF204602B070BD0024A2
S31508013980FAE708B50022FFF767FF08BD38B50C4608
S31508013990054690B115B3B4F5803F21D214B3A2B24E
S315080139A06B89934211D36968214469609B1A6B81BB
S315080139B02B899A1A2A81002038BD0B4B40F24B22DB
S315080139C00A490B4808F05CF8E4E7074B40F2552230
S315080139D00849074808F054F80120EDE70120EBE70C
S315080139E00120E9E70020E7E7C0E1010838FE010800
S315080139F0A4CC010804E2010808B5002902DBFFF797
S31508013A002BFF08BD4942FFF7C1FFFAE708B50122B6
S31508013A10FFF7F2FF08BD000070B510B10446002596
S31508013A2017E0284B4FF437722749284808F028F839
S31508013A300025284670BD234B40F2F122244923482C
S31508013A4008F01EF80AE02369204698470135EDB2C9
S31508013A503446002CEDD0A37B002BECD0A37B013B95
S31508013A60DBB2A373002BE4D12668237B03F00F0393
S31508013A70627B12F0020F0AD02369002BE3D1114BA6
S31508013A8040F2FF221349114807F0FAFFDBE7022B40
S31508013A9006D0012B09D06BB92046FFF7BBFAD5E74B
S31508013AA021460820FFF7F4FCD0E721460720FFF757
S31508013AB0EFFCCBE7034B40F20F320749034807F007
S31508013AC0DFFFC3E7C0E1010838FE0108A4CC0108FD
S31508013AD024E201083CE2010860E201082DE9F04709
S31508013AE082B00E46904685B2B2F5C17F46D00746EA
S31508013AF00ED8012A02D0412A40F084804246314636
S31508013B000020FFF7F9FE8146484602B0BDE8F08776
S31508013B10B2F5207F76D1033525F00305ADB2CA1C6F
S31508013B2093B223F003031D44ADB205F1100080B230
S31508013B3022F0030295426FD3824270D8FFF782FBC7
S31508013B4081460028E0D007F1100101440331002322
S31508013B500193CDF800803346324621F00301FFF781
S31508013B605DFED9F8043013F0030FCDD02D4B4FF479
S31508013B7091722D492D4807F083FFC5E70027B946FD
S31508013B801AE0FFF745FEB9F1000F02D04846FFF7E4
S31508013B9043FFB946B8E7234B4FF4807224492348BB
S31508013BA007F06EFFB9F1000F2AD0CAF80070361B6C
S31508013BB0B6B20025002EA7D0BA460820FFF74EFC5C
S31508013BC007460028DDD0EC1C24F00304A4B2C4F592
S31508013BD01474A4B2B44228BF344605F11001014455
S31508013BE0033100230193CDF800802346324621F0A4
S31508013BF00301FFF713FE7B6813F0030FD2D0CAE760
S31508013C00B946D4E7074B40F227120A49074807F095
S31508013C1037FF4FF0000977E74FF0000974E74FF0D7
S31508013C20000971E7C0E10108D8E20108A4CC01083E
S31508013C3074E2010804E30108F8B50E460446B8B172
S31508013C402789B7422ED935466389AB4218D2EB1A72
S31508013C509DB22389F21B134423812468002CF3D1D6
S31508013C601A4B40F2AF121A491A4807F009FFEBE757
S31508013C70164B4FF4CC721849164807F001FFDFE7D7
S31508013C80227B12F00F0F05D1AB4203D0637B13F0F1
S31508013C90020F08D065812581206808B1FFF7BCFEAF
S31508013CA000232360F8BD63681B1BE91889B2204607
S31508013CB0FFF70AFA04460028ECD1044B40F2BD127C
S31508013CC00649044807F0DCFEE4E700BFC0E1010845
S31508013CD038E30108A4CC010820E3010850E30108F0
S31508013CE0034600201BB1013080B21B68FAE7704712
S31508013CF070B108B5837B0133DBB2837303B108BDA9
S31508013D00044B40F242320449044807F0B9FEF6E78B
S31508013D10704700BFC0E101086CE30108A4CC0108A3
S31508013D2038B510B10D46044661B9154B40F2593202
S31508013D301449154807F0A4FE19E023892889034484
S31508013D40238114462268002AF7D1228963899A4277
S31508013D500ED1236833B10A4B40F263320B490A4844
S31508013D6007F08EFE23892A8913442381256038BDED
S31508013D70034B40F262320649034807F081FEE8E741
S31508013D80C0E1010880E30108A4CC0108E8E30108C1
S31508013D90B8E3010810B50C46FFF7C2FF2046FFF746
S31508013DA0A7FF10BD2DE9F04148B10C46054631B1D2
S31508013DB002890B899A4202D30027B8463AE03A4B60
S31508013DC040F2C93239493A4807F05AFE6FF00F00F6
S31508013DD068E0354B40F2D9323649354807F050FE8E
S31508013DE03CE0314B40F2DA323349314807F048FEBC
S31508013DF037E02D6815B14FF000083AE014B94FF0D5
S31508013E00000836E0284B4FF479722C49284807F008
S31508013E1037FE6FF00F0045E023687BB3224B40F273
S31508013E20E9322749224807F02BFE6FF0050039E0F1
S31508013E30002C36D06E89A6EB08066389DB1B9E42E9
S31508013E4000D31E466868616832463944404407F023
S31508013E5001FEB04437446B894345BAD36389BB42F3
S31508013E60BFD36389BB4201D8246800276B894345C0
S31508013E70BFD01CB1628923899A42CDD0002DD7D0F3
S31508013E806A892B899A42D3D12B68002BD0D0064B4D
S31508013E9040F2EE320A49064807F0F2FD6FF00500D6
S31508013EA000E00020BDE8F081C0E10108F8E301085F
S31508013EB0A4CC010828E4010840E401085CE40108EF
S31508013EC06CE401082DE9F84330B188469146054668
S31508013ED069B100273E462AE01B4B40F20A421B49BC
S31508013EE01B4807F0CDFD00273846BDE8F883164B79
S31508013EF040F20B421749164807F0C2FD0027F3E7BF
S31508013F006C89E41AA4B2A14500D24C4669682246D6
S31508013F10194408EB060007F09DFD2744BFB2264465
S31508013F20B6B2A9EB04041FFA84F900232D68B9F186
S31508013F30000FD9D0002DD7D0002BE1D0698999423D
S31508013F40DED85B1A9BB2F1E7C0E1010898E40108E3
S31508013F50A4CC0108B8E4010808B5FFF771FC08BD4F
S31508013F602DE9F84348B188469146054679B1038952
S31508013F70934216D3164600272EE0224B40F2B3424F
S31508013F802149224807F07CFD6FF00F002FE01D4BF9
S31508013F9040F2B4421E491D4807F072FD6FF00F004A
S31508013FA025E0184B40F2B5421A49184807F068FD52
S31508013FB04FF0FF301BE0134B40F2BD421649134840
S31508013FC007F05EFD0BE0224608EB0701686807F07B
S31508013FD041FD361B27442D6836B1002DEBD06C897F
S31508013FE0B442F0D33446EEE74F4502D10020BDE88E
S31508013FF0F883044B4FF499620849044807F040FDD9
S315080140000020F4E7C0E10108DCE40108A4CC0108BA
S31508014010F4E4010810E5010830E5010848E501085E
S31508014020F0B583B00E4614460DF106021946FFF7A0
S3150801403093FF58B307460189BDF806301A1991420C
S3150801404027DB4289934213D27B89BDF806001A1AE7
S31508014050944215DD95B27B682A463146184407F025
S31508014060F9FC621B92B2711962B9002003B0F0BD66
S31508014070094B40F2E3420949094807F001FDE3E724
S315080140802546E8E73868FFF76BFFEFE74FF0FF30A3
S31508014090ECE74FF0FF30E9E7C0E1010860E5010808
S315080140A0A4CC010838B514460A462189FFF716FD3E
S315080140B0054618B12146FFF775FE08B9284638BDE9
S315080140C0034B40F224520349034807F0D9FCF5E7AC
S315080140D0C0E1010878E50108A4CC010810B582B051
S315080140E014460DF10602FFF737FF30B14189BDF8D5
S315080140F00620914201D943689C5402B010BD0000C4
S3150801410010B4002409E0164B4FF440421A800DE022
S315080141100134A4B2B4F5804F1FD2114A1388013372
S315080141209BB213804FF6FF729342ECD0002003280E
S315080141300ED80C4B53F820301B6833B1D98A084A7C
S3150801414012889142E4D0DB68F7E70130C0B2EEE7A6
S31508014150034B18885DF8044B70470020FAE700BF47
S315080141601000002058EC010838B504460D4649B937
S31508014170074BFF220749084807F082FC02E00023A3
S31508014180E367E4681CB1E36FAB42FAD1F7E738BDE0
S315080141908CE50108BCE50108A4CC010838B505463B
S315080141A020B12B7D012B09D1012417E00D4B40F2DB
S315080141B011120D490D4807F063FCF2E7094B4FF45C
S315080141C089720B49094807F05BFCEDE7094B53F87F
S315080141D0243029461868FFF7C7FF0134032CF5D99F
S315080141E038BD00BF8CE50108E4E50108A4CC010847
S315080141F0F0E5010858EC010810B50446037D012BCA
S3150801420004D021460220FFF743F910BD034BDF22F4
S315080142100349044807F034FCF3E700BF8CE50108BD
S3150801422008E60108A4CC010838B5054648B12B7D36
S31508014230042B1FD0072B26D0032B0AD00024204697
S3150801424038BD174B4FF4CE721649174807F018FCBC
S31508014250EDE7284603F0E8FC044608B905232B7563
S31508014260D4B1B4F1FF3FEAD16B8B43F008036B83FA
S315080142700024E4E7284603F0D7FC04460028EFD1DA
S3150801428005232B75ECE7284603F0CEFC04460028E7
S31508014290E6D109232B75E3E7284603F049FECEE765
S315080142A08CE50108E4E50108A4CC0108094B186866
S315080142B078B110B506E023F008034383FFF7B4FF8E
S315080142C020462CB1C468438B13F0080FF8D0F2E7E7
S315080142D010BD70471C72002008B507F05FFC6FEA35
S315080142E080406FEA9040014B188008BD10000020FD
S315080142F010B50446037D012B04D021460120FFF7A2
S31508014300C7F810BD034BD4220349044807F0B8FB8C
S31508014310F3E700BF8CE5010824E60108A4CC0108EF
S3150801432070B506460D4659B166B1337DA3B9EAB1F2
S31508014330002003281EDC264B53F820301B6827E093
S31508014340244DF1E7244B40F2A9222449244807F0D9
S3150801435097FB6FF00F0019E01F4B40F2AB22214982
S315080143601F4807F08DFB6FF005000FE0FFF7C8FE49
S315080143700246F0B115B12B6803B13360F2821A4BCC
S315080143801A68F2601E6004F071F8002070BDDB68DF
S315080143906BB1D98A9142FAD173B1196879B18DB1E4
S315080143A02C6894B1A142F2D16FF00700EEE7013013
S315080143B0BFE76FF00100E9E76FF00700E6E76FF086
S315080143C00700E3E76FF00700E0E76FF00700DDE7B6
S315080143D058EC01085C0302088CE5010838E6010877
S315080143E0A4CC010850E601082872002070B51646CB
S315080143F0044640B3037D002B30D1012B51D0022056
S31508014400FFF72CF8054600284FD023690361E38A94
S31508014410C38201230375637D4375637A437200235F
S315080144200372E37AC372A37A837223680360E38A09
S315080144303BB31F4B1B68A3421BD003B3DA68A242E6
S315080144401BD01346F9E71B4B40F259321A491B4850
S3150801445007F016FB25466FF00F031EE0154B40F2D9
S315080144605A321749154807F00BFB6FF00E03002562
S3150801447013E0DA680E4B1A6001E0E268DA6000239D
S31508014480E3602046FFF734FF0E4BAB610E4B1A680B
S31508014490EA601D6003F0EAFF002306B1337028467F
S315080144A070BD05466FF00803F7E74FF0FF33F4E7F1
S315080144B0287200208CE5010878E60108A4CC0108D9
S315080144C0A8E60108394A01082472002008B5002225
S315080144D0FFF78CFF08BD000038B5044680B1656A50
S315080144E0218D6818E26A638EB3F5866F94BFD31877
S315080144F002F58663C31A002B0ADB6185801A38BD6B
S315080145000E4B40F2A6320E490E4807F0B9FAE6E715
S31508014510AB1A002B03DD002363850020EFE7551B4B
S31508014520B5F5803F01D26585F7E7044B40F2B6320F
S315080145300549044807F0A4FAF5E700BF8CE5010828
S31508014540E0E60108A4CC010804E7010838B5B0B1D2
S315080145500C460546037D012B19D02B8D191989B2F5
S31508014560B1F5066F01D88B4219D94FF406632B852D
S315080145702846FFF7B1FFB0F5067F12D238BD0D4BBD
S3150801458040F2CF320C490D4807F07AFAF6E7094BA3
S3150801459040F2D2320A49094807F072FADDE729855D
S315080145A0E6E76B8B43F002036B83284603F0C0FCF6
S315080145B0E4E700BF8CE5010820E70108A4CC01085F
S315080145C038E7010850B110B50446406808B1FFF74D
S315080145D023FA21460320FEF75BFF10BD704738B169
S315080145E010B50468FFF7EEFF2046002CF9D110BD7F
S315080145F07047000008B508B1417508BD034B4FF473
S31508014600CE620349034807F03BFAF6E78CE5010851
S3150801461060E70108A4CC010838B5054698B103201E
S31508014620FEF71CFF044660B12B686868A968EA684A
S3150801463023606060A160E2602B6923616068FFF70F
S3150801464057FB204638BD044B40F2826203490448B1
S3150801465007F016FAE3E700BF8CE501087CE70108D5
S31508014660A4CC010800B101617047000080B138B5DA
S315080146700C460546037D012B02D0C5F8844038BD9A
S31508014680044B40F2DF720449044807F0F9F9F4E7EC
S31508014690704700BF8CE5010898E70108A4CC01081A
S315080146A080B138B50C460546037D012B02D0C5F805
S315080146B0804038BD044B40F2F3720449044807F0C0
S315080146C0DFF9F4E7704700BF8CE50108C0E7010888
S315080146D0A4CC010880B138B50C460546037D012BEB
S315080146E002D0C5F8904038BD044B40F60D02044986
S315080146F0044807F0C5F9F4E7704700BF8CE50108DF
S31508014700E8E70108A4CC010810B1027D012A00D00E
S3150801471070478161FCE7000070B548B10D46144643
S315080147200646037D012B0BD0C6F88C50747770BDF5
S31508014730074B40F63D020749074807F0A1F9F6E796
S31508014740034B40F63E020549034807F099F9EBE7A2
S315080147508CE5010810E80108A4CC010828E801083D
S3150801476008B530B1074B1868074A12681044186033
S3150801477008BD064B40F6AF020549064807F080F921
S31508014780F0E700BF0C000020207200208CE501082C
S3150801479048E80108A4CC010838B505460C465AB1C3
S315080147A044B1238D33B1282B0ED9283B9BB29D42A8
S315080147B028BF1D46284638BD044B40F6C5020449A4
S315080147C0044807F05DF9EBE70023F0E78CE50108FB
S315080147D064E80108A4CC010810B50446406F18B175
S315080147E0FFF7FDFE0023636710BD000010B500B397
S315080147F00446037DE3B10A2B1AD0012B18D0806F2A
S3150801480018B1FFF709F90023A367636F13B12046AF
S31508014810FFF7E2FF4FF6FF732386E06EFFF7DFFE31
S31508014820206FFFF7DCFE0023E3662367A4F86830F0
S3150801483010BD044B40F651020349044807F020F91C
S31508014840F6E700BF8CE501088CE80108A4CC01084D
S3150801485038B505460C4649B185B12B68A34215D032
S31508014860CBB1DA68A24214D01346F9E7254B40F6D4
S3150801487083022549254807F003F9EDE7214B40F660
S3150801488084022349214807F0FBF8E6E7DB682B6039
S3150801489001E0E268DA600023E3602046FFF7A6FF3D
S315080148A0237D0A2B05D0012B03D0638B13F0010F4F
S315080148B021D1237D012B1AD0E36E33B1114B40F67A
S315080148C093021449114807F0DBF8236F33B10D4BF6
S315080148D040F6940210490D4807F0D2F8636F33B1D8
S315080148E0084B40F696020D49084807F0C9F8002317
S315080148F02375E38238BD43F002036383204603F040
S3150801490017FBD6E78CE50108A8E80108A4CC01083D
S31508014910C4E80108E4E80108FCE8010818E9010807
S315080149202DE9F04784B0F8B10D460446037D012B05
S3150801493022D0237D0A2B27D0D4F85080D4F824908E
S31508014940D4F890602769002B47D1B4F816A0BAF1BC
S31508014950000F4CD02D4B1B68A3421DD013B3DA6848
S31508014960A2421DD01346F9E7294B40F23D222949B7
S31508014970294807F085F82DE0254B4FF41072274991
S31508014980254807F07DF8D4E721462548FFF760FF5B
S315080149902046FFF7ADFC1DE0DA681C4B1A6001E002
S315080149A0E268DA600025E560AA46206F08B1FFF7DC
S315080149B016FEE06E08B1FFF712FE606F08B1FFF749
S315080149C00EFEB5B92046FFF793FC1EB16FF00C0138
S315080149D03846B04704B0BDE8F087B4F816A02146BA
S315080149E01048FFF735FF104B01221A70DDE7002545
S315080149F0DBE7231D228B0292CDF804A00093234600
S31508014A004A464146204603F011FADBE728720020A0
S31508014A108CE5010830E90108A4CC01084CE9010834
S31508014A202C7200201C7200201872002008B5012182
S31508014A30FFF776FF08BD000010B50C4629B12046E0
S31508014A40FFF7F4FF6FF00C0010BD044B40F20F3274
S31508014A500349044807F014F8F1E700BF8CE501089B
S31508014A6080E90108A4CC010810B50A4B1B6800248B
S31508014A70204600E0DB6843B1196A074A1268521AF0
S31508014A80A242F7D314461846F4E708B1FFF7CEFF5A
S31508014A9010BD00BF2C7200202072002010F0800F7C
S31508014AA001D108B970477F2070B50138C2B20E4BE3
S31508014AB01B680024204606E00C4A12681C6A141B6F
S31508014AC00A461846DB6853B1597D9142F4D3F9D1A8
S31508014AD01E6A064D2D68AD1BA542F3D3ECE708B156
S31508014AE0FFF7A4FF70BD00BF1C72002020720020D2
S31508014AF070B50C46054660B90A4B4FF410620A496F
S31508014B000A4806F0BDFF04E0E6682046FFF78EFF77
S31508014B1034462CB122682B689A42F5D0E468F8E746
S31508014B2070BD00BF8CE50108A0E90108A4CC010805
S31508014B3000B338B50D460446036803B938BD0E4BB4
S31508014B401968FFF7D5FF0D4B19682046FFF7D0FF07
S31508014B50002DF3D02B68002BF0D0094B1B6800E021
S31508014B60DB68002BEAD0196822689142F8D12A68D5
S31508014B701A60F5E7704700BF1C72002028720020F2
S31508014B802472002038B50446A0F10803DBB2012BD4
S31508014B9004D8104B1B680021084608E00E4B40F26A
S31508014BA0DD620E490E4806F06BFFF2E7DB685BB182
S31508014BB01A7DA242FAD11D6A0A4A1268521B8A4212
S31508014BC0F4D311461846F1E710B10021FFF7A8FE04
S31508014BD038BD00BF1C7200208CE50108D4E9010824
S31508014BE0A4CC01082072002038B505460120FEF73D
S31508014BF035FC044668B354B39C220021204606F0CE
S31508014C0037FF65754FF48663A4F864304FF406627E
S31508014C1062852285FF22E2724FF4067262860622B7
S31508014C20A4F84020E2874FF6FF7222860122A4F8F3
S31508014C3048201A4A12682262194A1278A277A4F8F9
S31508014C404A30184BC4F88430174BC4F894302046C0
S31508014C5038BDFFF72BFBFFF707FF0120FEF7FEFB29
S31508014C6004460028C7D10920FFF78CFF0120FEF76B
S31508014C70F5FB04460028BED10820FFF783FF012073
S31508014C80FEF7ECFB04460028B5D12846FFF706FFD8
S31508014C900120FEF7E3FB0446ADE700BF20720020C2
S31508014CA0DA090020454E010800DD6D0008B54020EF
S31508014CB0FFF79AFF08BD000030B585B00D460446DA
S31508014CC080B125B1237D042B14D0072B12D0237D67
S31508014CD0012B6CD0022B76D0002B4FD02046FFF744
S31508014CE0A3FA46E03E4B4FF4AF723E493E4806F002
S31508014CF0C7FEE6E7A36FE3B1638B13F0100F1DD070
S31508014D00231D228B0292E28A019200932346626A4C
S31508014D10216D204603F08AF82046FFF767FD334BDD
S31508014D201B68A34212D0BBB1DA68A24212D013465D
S31508014D30F9E7238DB3F5066FC9D0DDE7284B4FF4A4
S31508014D40B2722B49284806F09BFED9E7DA68274B49
S31508014D501A6001E0E268DA600023E360254B01226C
S31508014D601A70254B1B68A34205D02046FFF7C0FAE7
S31508014D70002005B030BD01F0FDFFF9E7E38A8BB1EC
S31508014D801E4B1B68A34205D053B1DA68A24205D06F
S31508014D901346F9E7DA68194B1A6001E0E268DA6046
S31508014DA00023E3602046FFF7A3FA0020E1E7204647
S31508014DB0FFF7F4F921461248FFF74AFD2046FFF7A7
S31508014DC01BFA0020D5E721460848FFF741FD094BA4
S31508014DD001221A702046FFF78BFA0020C9E700BFA7
S31508014DE08CE50108E4E90108A4CC01081C7200203D
S31508014DF004EA010818720020307200202872002087
S31508014E002472002008B560B10346027D012A03D049
S31508014E10428B42F01002428301211846FFF74CFFEC
S31508014E2008BD054B4FF4F4720449054806F028FEFF
S31508014E306FF00F00F4E700BF8CE5010820EA0108CE
S31508014E40A4CC010810B551B1144608468AB1118996
S31508014E50FFF77CFB2046FEF7DFFD002010BD084B5F
S31508014E604FF4D3620749084806F00AFE6FF00F00AF
S31508014E70F4E70BB10020F1E7FFF7C4FFEEE700BF47
S31508014E808CE5010838EA0108A4CC0108F8B518B37D
S31508014E900446866F777B00238367D0F884502DB349
S31508014EA0324601460069A84705463DBB17F0200F63
S31508014EB02AD0238DB3F5066F01D001332385D4F8A3
S31508014EC084600EB300231A4621462069B04710F1C3
S31508014ED00D0F19D1054617E00C4B40F209620C4932
S31508014EE00C4806F0CDFD6FF00F050DE000233246A4
S31508014EF001461846FFF7A6FF0546D6E715F10D0F39
S31508014F0002D0A6676FF004052846F8BD8CE50108AE
S31508014F1054EA0108A4CC010870B51C4A1378013378
S31508014F2013701B4B1C6813E043F00203638320468E
S31508014F3002F0FEFF638B23F00303638313E023F080
S31508014F40080363832046FFF76FF910E0E5682C46EE
S31508014F50DCB1A27F0D4B1B789A42F7D0A377638BFE
S31508014F6013F0010FE0D1638B13F0080FE7D1E56861
S31508014F70A36F002BEBD0074E002333702046FFF7B3
S31508014F8085FF3378002BE2D0CBE770BDDA09002024
S31508014F901C720020187200202DE9F04184B0AC4A39
S31508014FA0136801331360AB4A137801331370AA4BA4
S31508014FB01C68002694E1A94B40F2BE42A849A948BB
S31508014FC006F05EFD92E1A54B40F2BF42A649A5480F
S31508014FD006F056FD8EE1A14B4FF49862A349A1480C
S31508014FE006F04EFD8AE12646E46879E194F84230F6
S31508014FF0052B40F28E8101256FE0984B40F2D54290
S315080150009B49984806F03CFD9AE1204602F07EFC51
S3150801501060B1002384F8983094F89930062B00F291
S31508015020A080013384F89930002556E0204602F025
S315080150307FFF0028EDD100254FE0B4F930309BB24F
S3150801504047F6FE72934201D801332386B4F930201C
S31508015050B4F940309A4240DB204602F017FE20B1EF
S31508015060236F002B39D1E36EBBB3237D022B14D0FA
S3150801507094F842200C2A28BF0C22B4F93C10B4F942
S315080150803E3003EBE1037B498A5C934047F6FE72A7
S3150801509093421EDC1BB2A4F8403000232386B4F8E1
S315080150A06030B4F84820934228BF13465B08A4F839
S315080150B04A30618E4A0092B2934201D2A4F84A203C
S315080150C0A4F848100023A4F86A30204603F088F8AB
S315080150D003E047F6FF73DEE70125227D062A42D063
S315080150E0637A13F0080704D0042A49D0072A47D05F
S315080150F00027636F53B1236A554A1268D21AB4F965
S31508015100403003EB4303B2EB430F67D2237D032BF6
S3150801511068D0092B6FD0002D76D1E568237F01333E
S31508015120DBB22377627F9342C0F0D88000232377CE
S31508015130514A1370D4F88C30002B00F0C7802146F1
S31508015140206998474C4B1B78002B7FF430AF002819
S3150801515000F0BE8026462C46C2E00125BDE70025A3
S31508015160BBE70025B9E7638B13F0100FB8D0216AA6
S31508015170374B1B685B1A282BB2D90135EDB2AFE75D
S31508015180334B1A68236AD21AD4F8941001F52423EA
S3150801519003F6B8433948A0FB0303B2EB531F03D9FF
S315080151A00135EDB20127A4E794F89B30344800FB9A
S315080151B003133249A1FB0313B2EB531F01D800278E
S315080151C097E7204603F042F830B994F89B3001334B
S315080151D084F89B3000278CE700278AE72046FFF7EB
S315080151E0FBFA93E7216A1A4A1268521A282A90D9B1
S315080151F00135EDB28DE7226A154B1B689B1AF02B18
S3150801520089D90135EDB286E7D4F890502046FFF7E3
S31508015210EDFA002E3ED0104B1B689C4232D0E36853
S31508015220F360002F45D1D4F81080E7682046FFF7D0
S315080152305FF8114B00221A701DB16FF00C01404640
S31508015240A8470D4B1B78002B7FF4B1AE3C4647E0CF
S3150801525020720020DA0900201C7200208CE5010862
S315080152607CEA0108A4CC0108A8EA0108D4EA0108E5
S3150801527038EB010848EC010818720020D34D62107A
S31508015280F8240100604B40F26D526049604806F00F
S31508015290F7FBC4E75F4B1B689C4206D05A4B40F2AA
S315080152A071525D495A4806F0EBFBE268594B1A60A0
S315080152B0B7E7231D626A216D208B0290E08A01906F
S315080152C000932346204602F0B1FDACE7002039E7FA
S315080152D0204602F02DFE26462C4601E026462C469F
S315080152E0002C50D0237D002B3FF465AE237D012B86
S315080152F03FF469AE237D0A2B3FF46DAEA27F474B7F
S315080153001B789A423FF46FAEA377237D022B3FF4B5
S315080153106DAE94F842300B2B3FF6DEAE94F89950F9
S31508015320002D3FF48AAE236F33B1374B40F2D44296
S315080153303B49374806F0A4FBE36E002B3FF45DAE0C
S3150801534094F89A300B2B3FF608AF94F89930013B45
S31508015350344AD25C94F89830934202D2013384F8E5
S31508015360983094F898309342FFF4F9AEB4F8601087
S3150801537000297FF44AAE204602F096FF00283FF442
S3150801538048AE0025A9E6284B1D680EE01E4B40F2E3
S31508015390A15226491E4806F073FB2A6A244B1B684C
S315080153A09B1AF02B06D82C46ED6855B32B7D0A2B94
S315080153B0F3D0EBE72846FFF719FA9CB11A4B1B689D
S315080153C09D4207D0EB68E360EE682846FEF790FF3A
S315080153D03546EAE70C4B40F2AF5216490C4806F03F
S315080153E04FFBEFE7104B1B689D4206D0064B40F278
S315080153F0B3521149064806F043FBEA680A4B1A609C
S31508015400E2E704B0BDE8F0818CE5010870EB01081C
S31508015410A4CC01081C7200209CEB0108DA090020C3
S3150801542004EB010868EC01082C720020C8EB01089E
S3150801543020720020F8EB010820EC010808B5FFF7F7
S315080154406BFD064A13780133DBB2137013F0010FB3
S3150801545000D108BDFFF7A0FDFBE700BFD909002071
S315080154600A4A1388591C1180094A116819B1094A4F
S315080154701288934204D2084A12681344187D704769
S31508015480DBB2D2B29B1ADBB2C85C7047080A0020AD
S31508015490140A0020100A00200C0A002038B5044618
S315080154A0E8B1224B1B88002B3ED0214B00221A80E3
S315080154B01F4B1A881D4B1B889A4235D2FFF7D0FF1E
S315080154C00128F5D0022812D070B3FFF7C9FF0128C9
S315080154D02AD9174B1A88104402381880E8E7154B61
S315080154E040F27D721449154806F0CAFAD9E7FFF762
S315080154F0B7FF042818D10E4B1B8801330B4A1288B3
