S024000064656D6F70726F675F646973636F766572795F73746D3332663430372E7372656353
S3150800400000000220C54A0008D1490008D349000823
S31508004010D5490008D7490008D9490008000000001A
S31508004020000000000000000000000000DB49000856
S31508004030DD49000800000000DF490008E1490008E2
S31508004040154B0008154B0008154B0008154B0008C2
S31508004050154B0008154B0008154B0008154B0008B2
S31508004060154B0008154B0008154B0008154B0008A2
S31508004070154B0008154B0008154B0008154B000892
S31508004080154B0008154B0008154B0008154B000882
S31508004090154B0008154B0008154B0008154B000872
S315080040A0154B0008154B0008154B0008154B000862
S315080040B0154B0008154B0008154B0008154B000852
S315080040C0154B0008154B0008154B0008154B000842
S315080040D0154B0008154B0008154B0008154B000832
S315080040E0154B0008154B0008154B0008154B000822
S315080040F0154B0008154B0008154B0008154B000812
S31508004100154B0008154B0008154B0008154B000801
S31508004110154B0008154B0008154B0008154B0008F1
S31508004120154B0008154B0008154B0008154B0008E1
S31508004130154B0008154B0008154B0008154B0008D1
S31508004140154B0008154B0008154B0008154B0008C1
S31508004150154B0008154B0008154B0008154B0008B1
S31508004160154B0008154B0008154B0008154B0008A1
S31508004170154B0008154B0008154B000800000000F9
S31108004180154B0008154B0008EE11AA5557
S3150800419010B5054C237833B9044B13B10448AFF373
S315080041A000800123237010BD80000020000000005D
S315080041B0F06A010808B5034B1BB103490348AFF37E
S315080041C0008008BD0000000084000020F06A010895
S315080041D010F8012B11F8013B012A28BF9A42F7D0A3
S315080041E0D01A7047034613F8012B002AFBD1181A78
S315080041F001387047000000000000000000000000C1
S3150800420001F0FF01102A2BDB10F0070F08D010F879
S31508004210013B013A8B422DD010F0070F42B3F6D17D
S31508004220F0B441EA012141EA014122F007047FF096
S3150800423000070023F0E80256083C85EA010586EAED
S31508004240010685FA47F5A3FA87F586FA47F6A5FA29
S3150800425087F68EB9EED1F0BC01F0FF0102F0070235
S3150800426032B110F8013B013A83EA010313B1F8D1E0
S315080042700020704701387047002D06BF35460338C1
S31508004280073815F0010F07D1013015F4807F02BFFA
S31508004290013015F4C03F0130F0BC0138704700BF4B
S315080042A053B94AB9002908BF00281CBF4FF0FF318F
S315080042B04FF0FF3000F06EB9ADF1080C6DE904CE91
S315080042C000F006F8DDF804E0DDE9022304B07047E3
S315080042D02DE9F047089D04468C46002B40F0838064
S315080042E08A42174647D9B2FA82F242B1C2F1200091
S315080042F024FA00F09140974040EA010C94404FEAB6
S315080043001748230CBCFBF8F61FFA87FE08FB16C1F4
S3150800431043EA014306FB0EF1994209D9FB1806F157
S31508004320FF3080F01981994240F21681023E3B44E3
S315080043305B1AA4B2B3FBF8F008FB103344EA034453
S3150800434000FB0EFEA64509D93C1900F1FF3380F0A3
S315080043500581A64540F2028102383C4440EA0640FF
S31508004360A4EB0E0400261DB1D4400023C5E9004382
S315080043703146BDE8F08702B9FFDEB2FA82F2002ABA
S3150800438050D1CB1B4FEA174E1FFA87F80126B3FB0D
S31508004390FEFC210C0EFB1C3341EA034108FB0CF31F
S315080043A08B4207D979180CF1FF3002D28B4200F202
S315080043B0E9808446C91AA3B2B1FBFEF00EFB1011C0
S315080043C043EA014408FB00F8A04507D93C1900F167
S315080043D0FF3302D2A04500F2D9801846A4EB0804A0
S315080043E040EA0C40BFE78B4209D9002D00F0B180A6
S315080043F00026C5E9000130463146BDE8F087B3FA24
S3150800440083F6002E4AD18B4202D3824200F2B8804C
S31508004410841A61EB030101208C46002DA8D0C5E95A
S31508004420004CA5E7C2F1200320FA03F6974001FAEB
S3150800443002F04FEA174ED9403043030CB1FBFEF6A3
S315080044401FFA87F80EFB161143EA014306FB08F12B
S31508004450994204FA02F409D9FB1806F1FF3C80F0E8
S315080044608D80994240F28A80023E3B445B1A81B2B3
S31508004470B3FBFEF00EFB103341EA034100FB08F3E1
S315080044808B4207D9791800F1FF3C73D28B4271D958
S3150800449002383944CB1A40EA064678E7C6F1200CBA
S315080044A003FA06F422FA0CF31C4320FA0CF701FA75
S315080044B006F34FEA144E21FA0CF11F433B0CB1FBED
S315080044C0FEF91FFA84F80EFB191143EA014109FBAC
S315080044D008FA8A4502FA06F200FA06F308D96118BC
S315080044E009F1FF3048D28A4546D9A9F10209214483
S315080044F0A1EB0A01BFB2B1FBFEF00EFB101147EAB1
S31508004500014700FB08F8B84507D9E71900F1FF315C
S315080045102ED2B8452CD90238274440EA0940A7EBE1
S315080045200807A0FB02894F45C64649461AD317D045
S315080045305DB1B3EB0E0267EB010707FA0CFCF2401C
S315080045404CEA0202F740C5E9002700263146BDE8D5
S31508004550F0872E4628460BE70646E9E61846FDE6A6
S315080045604345E5D2B8EB020E69EB04010138DFE7F3
S315080045700846D2E760468DE78146B9E7664675E79D
S3150800458030464AE7ACF1020C394413E702383C449A
S3150800459024E700BF704700BF08B500F089F800F0AF
S315080045A02FF802F051FA08BD08B500F049F800F0F6
S315080045B023F808BDBFF34F8F0549CA6802F4E062C5
S315080045C0044B1343CB60BFF34F8F00BFFDE700BF1B
S315080045D000ED00E00400FA0508B5044B1B68044921
S315080045E00448984700B908BDFFF7E4FF940100089E
S315080045F0DD0000209C00002008B5FFF7EDFF08BD90
S3150800460010B501224FF400510B4801F03FF90B4C4D
S3150800461001224FF48051204601F038F901224FF467
S315080046208041204601F032F901224FF4004120462C
S3150800463001F02CF910BD00BF00080240000C024032
S3150800464070B500F036F8174B1B68C31AB3F5FA7F36
S3150800465015D30446144B1B7893B90125124B1D70CC
S31508004660124E2A464FF48051304601F00FF92A4679
S315080046704FF40041304601F009F90A4B1C6070BD41
S315080046800025094B1D70094E2A464FF480513046C5
S3150800469001F0FCF82A464FF40041304601F0F6F8DE
S315080046A0EBE700BFE0000020DE000020000C02401F
S315080046B0704708B500F07CFA08BD0000014A024BB5
S315080046C09A6070470040000800ED00E070B58CB0B5
S315080046D000240B94294B1A6B42F004021A631A6BD6
S315080046E002F004020592059A1A6B42F080021A63D8
S315080046F01A6B02F080020492049A1A6B42F00102C5
S315080047001A631A6B02F001020392039A1A6B42F0BB
S3150800471002021A631A6B02F002020292029A1A6BDA
S3150800472042F008021A631B6B03F008030193019B0E
S3150800473013484FF400538361124E4FF07042B26132
S31508004740069301250795089409940A9406A901F089
S31508004750A9F8069507940A9406A90B4801F0A2F849
S315080047604FF4704306930795089409940A9406A98A
S31508004770304601F097F80CB070BD00BF0038024013
S3150800478000080240000C02400000024010B590B03C
S31508004790002409940A940B940C940D940E940F9487
S315080047A01E4B5A6C42F020025A645A6C02F02002E0
S315080047B00292029A1A6B42F004021A631B6B03F008
S315080047C004030193019BC023039302230493032349
S315080047D00593069407940823089303A9104801F043
S315080047E061F84FF4E13309930A940B940C940C2363
S315080047F00D930E940F940B4C09A9204601F05AF913
S31508004800236923F490432361636923F02A036361D0
S31508004810E36843F40053E36010B010BD003802406B
S31508004820000802400014014010B50446024B1B68FC
S31508004830C0B29847204610BD8C01000808B52E4A1C
S31508004840136823F0070343F0050313602A4B1B681C
S3150800485003F00703052BF9D1284A136843F480436C
S31508004860136002F5E432136823F0F80343F080037B
S315080048701360136843F001031360214B1B6813F0A0
S31508004880020FFAD01E4A51681E4B0B4043F42853B8
S3150800489043F008035360536823F4403353601368A6
S315080048A043F080731360164B1B6813F0007FFAD031
S315080048B0134B9A6822F0F0029A609A6822F4E05242
S315080048C042F4A0529A609A6822F4604242F4004286
S315080048D09A609A6822F0030242F002029A60084B34
S315080048E09B6803F00C03082BF9D1074801F09EF9E1
S315080048F0002000F011F908BD003C0240007000409D
S31508004900003802400080BFFF007A030A30B585B040
S31508004910FFF7D4FE00F026F9FFF790FFFFF7D6FE63
S31508004920FFF734FF01F088F9FFF736FE164811F055
S31508004930B5F8164C94F8DB3094F8DC2094F8DD10C2
S3150800494002910192009394F8DA3094F8D92094F8F9
S31508004950D8100F4811F01CF8656803E001F0B4F9A7
S31508004960FFF722FE002DF9D1084B5C68002CF5D024
S31508004970230E0093C4F30743C4F30722E1B20548A4
S3150800498011F006F82546E9E7086B0108500C0020E7
S31508004990206B0108546B010882B0002100910B4B73
S315080049A05A6C42F480425A645A6C02F4804200926D
S315080049B0009A01911A6C42F080521A641B6C03F03B
S315080049C080530193019B02B0704700BF0038024034
S315080049D07047FEE7FEE7FEE7FEE770477047704759
S315080049E008B500F0D9F808BD01207047024B162219
S315080049F01A604FF0FF3070474484002008B54FF026
S31508004A00FF31FFF7F3FFFEE770B50C4616460025A3
S31508004A10B54207DAAFF30080214601F8010B0135EC
S31508004A200C46F5E7304670BD70B50C4616460025AF
S31508004A30B54205DA14F8010BFFF7F6FE0135F7E77C
S31508004A40304670BD4FF0FF3070474FF400534B604F
S31508004A5000207047012070470020704710B40346B5
S31508004A600C4A0D490D48006850B10C4800680344CB
S31508004A70521A934208D8094A13605DF8044B7047E6
S31508004A800648074C0460F0E7064B0C221A604FF004
S31508004A90FF30F2E70000022000040000E4000020D6
S31508004AA05884002044840020054BD3F8882042F41B
S31508004AB07002C3F888204FF000629A60704700BF02
S31508004AC000ED00E0DFF834D0002103E00C4B5B5822
S31508004AD0435004310B480C4B42189A42F6D30B4A02
S31508004AE002E0002342F8043B094B9A42F9D3FFF748
S31508004AF0DBFF10F0EBFEFFF709FF7047000002200E
S31508004B00E0AB0108000000208000002080000020A3
S31508004B1054840020FEE7000010B504460E4B1878B2
S31508004B204FF47A73B3FBF0F30C4A1068B0FBF3F05A
S31508004B3000F09EF868B90F2C01D901200AE000227E
S31508004B4021464FF0FF3000F05FF8054B1C6000204F
S31508004B5000E0012010BD00BF040000200000002076
S31508004B600800002008B50B4B1A6842F400721A6058
S31508004B701A6842F480621A601A6842F480721A60EF
S31508004B80032000F02FF80020FFF7C6FFFFF704FF09
S31508004B90002008BD003C0240034A1168034B1B78FD
S31508004BA00B441360704700BF380C00200400002037
S31508004BB0014B1868704700BF380C002038B504460A
S31508004BC0FFF7F6FF0546B4F1FF3F02D0044B1B780A
S31508004BD01C44FFF7EDFF401BA042FAD338BD00BFC7
S31508004BE004000020074AD36823F4E0631B041B0C67
S31508004BF0000200F4E060034343F0BF6343F400336C
S31508004C00D360704700ED00E030B4174BDB68C3F3A0
S31508004C100223C3F10704042C28BF04241D1D062DF6
S31508004C2018D9033B4FF0FF3505FA04F421EA0401CD
S31508004C30994005FA03F322EA0303194300280BDB1C
S31508004C400901C9B200F1604000F5614080F800131F
S31508004C5030BC70470023E5E700F00F000901C9B230
S31508004C60024B1954F4E700BF00ED00E014ED00E034
S31508004C700138B0F1807F0AD2064B5860064AF02107
S31508004C8082F823100020986007221A6070470120D6
S31508004C90704700BF10E000E000ED00E0507913799E
S31508004CA043EA002307480B50D07893781B0443EA5D
S31508004CB00063507843EA002312781343024A8B5064
S31508004CC0704700BF4080024044800240016841F2BC
S31508004CD018028B5843F400538B507047016841F211
S31508004CE018028B5823F400538B507047016841F221
S31508004CF018028B5843F002038B507047016841F243
S31508004D0018028B5823F002038B50704782B0084B69
S31508004D101B68084AA2FB03235B0A00FB03F3019303
S31508004D2000BF019B5A1E0192002BF9D102B07047B1
S31508004D3000000020D34D621010B582B0044600234F
S31508004D4001930268136843F00803136003681B683D
S31508004D5001930120FFF7DAFF2368019A1A6002B06F
S31508004D6010BD10B582B0044600230193026813688B
S31508004D7043F00403136003681B6801930120FFF7DF
S31508004D80C5FF2368019A1A6002B010BD30B583B01A
S31508004D90044600230193026841F21805535943F467
S31508004DA08013535103685B5901930120FFF7AEFF47
S31508004DB02368019A5A5103B030BD10B582B0044633
S31508004DC0002301930268136823F004031360036841
S31508004DD01B6801930120FFF799FF2368019A1A605F
S31508004DE002B010BD10B582B00446002301930268D4
S31508004DF0136823F00803136003681B6801930120F6
S31508004E00FFF784FF2368019A1A6002B010BD0000FC
S31508004E1070B59EB0044629B14FF40063C3604FF4E1
S31508004E2080438360E369002B6AD14FF4806307935C
S31508004E3021680B68394A1A40A368E0680343079853
S31508004E40034343F4007313430B6023681D68012072
S31508004E50FFF7B4FE23681D60236840225A60236862
S31508004E605D680120FFF7AAFE23685D6023680025B8
S31508004E709D602368DD602268936923F0BE031B04E6
S31508004E801B0C43F08003936123689E690120FFF79A
S31508004E9095FE23689E612368DD612368DD6901202C
S31508004EA0FFF78CFE2368DD61226841F21805515927
S31508004EB01B4B0B4043F0087343F00403535123681C
S31508004EC05E590120FFF77AFE23685E51236803F5D1
S31508004ED08053144A1A60236803F580531D6801201D
S31508004EE0FFF76CFE236803F580531D60A369012B49
S31508004EF009D0626900212046FFF7D0FE1EB070BDBA
S31508004F000023079394E7216841F21C028B5843F467
S31508004F10803343F040038B50EBE700BF0F8120FF3F
S31508004F20233FDEF88020C102F0B490F84540012CFA
S31508004F3032D0012480F84540022480F84440C162FA
S31508004F40002401E0F16001349C4218D2670101EBAC
S31508004F5044164FF48015CD5140F2F45505FB04254F
S31508004F60B560C5691DB9CD5945F44005CD515D1EDD
S31508004F70A542E7D9651C01EB4515F560E3E702682C
S31508004F8041F21003D150012380F84430002380F801
S31508004F9045301846F0BC70470220FBE7F0B490F89D
S31508004FA04540012C2FD0012480F84540022480F882
S31508004FB044408162002401E0E96001349C4215D234
S31508004FC0660101EB44154FF000478F5144F2F45641
S31508004FD06E6040F2F45606FB0426AE605E1EA642DC
S31508004FE0EAD9661C01EB4616EE60E6E7026841F26E
S31508004FF00C03D150012380F84430002380F8453053
S315080050001846F0BC70470220FBE7000090F84530D0
S31508005010012B00F08580012380F84530022380F8B3
S315080050204430B1B1C36A1A68002A1ADB30B440F2B8
S31508005030F45291421DD93B4CA4FB0124A40A40F228
S31508005040F45202FB141202B10134012C11D00023D0
S3150800505048E0012380F84430002280F845201846AD
S315080050607047122380F84430002380F84530012029
S3150800507070471A6842F040521A60C36AC1F30C01BD
S315080050805960C26A136843F000431360C36ADB6859
S31508005090C362036841F214029A5812F0040F08D04A
S315080050A041F2140204219950026841F204030021D6
S315080050B0D150012380F84430002380F84530184643
S315080050C030BC7047C26A40F2F4555560621E9A4277
S315080050D017D0C56A2A6842F000422A60C26AD268B6
S315080050E0C26201339C42D4D9C56A2A6822F040526A
S315080050F02A60002BE6D1C56A2A6842F080522A60E7
S31508005100E0E7C56A2A6842F000522A60064A02FBAE
S31508005110041202F2F452C56AC2F30C026A60D8E7B6
S31508005120022070470BB002AC0CFAFFFF90F845302E
S31508005130012B40D0012380F84530022380F8443003
S31508005140836A1A68002A0EDB1A6812F4807F12D165
S315080051501A6812F4007F28D00363002242630122F2
S315080051608263DB688362012380F84430002280F87A
S31508005170452018467047826B01328263012A12D095
S3150800518043631A68C2F30D42043AC263026B92681B
S315080051900264DB688362012380F84430002380F8C8
S315080051A04530184670470363EAE7826B013282632B
S315080051B0DB688362D7E702207047F8B590F8443079
S315080051C0DBB2822B33D005461646822380F844305C
S315080051D00068026902F01C022B8ADB029BB21343A9
S315080051E08C0104F4F8641C4344F001040461FFF7DD
S315080051F0DFFC074614F0010F10D0FFF7D9FCC31BDC
S31508005200B3F5803F02D22B681C69F3E7012385F8C2
S315080052104430002385F84530032007E02B685B6996
S315080052209BB23360012385F844300020F8BD022084
S31508005230FCE790F84430DBB2422B32D070B5054615
S31508005240422380F844300668306900F01C002B8A37
S31508005250DB029BB203438C0104F4F8641C4344F05C
S31508005260030492B272612B681C61FFF7A1FC064623
S3150800527014F0010F10D0FFF79BFC831BB3F5803F9A
S3150800528002D22B681C69F3E7012385F84430002312
S3150800529085F84530032003E0012385F844300020D3
S315080052A070BD02207047000070B582B000230193DC
S315080052B0002800F00F81044690F84430002B34D0C3
S315080052C000230093844B5A6C42F480425A645B6C08
S315080052D003F480430093009B804B5A6822F4000233
S315080052E05A605A68216A0A435A60236803F580534C
S315080052F01A6842F001021A60FFF75AFC054623684D
S3150800530003F58052126812F0010F13D0FFF750FC14
S31508005310401BB0F5FA7FF2D9032584F844500023E0
S3150800532084F84530284602B070BD80F8453000F054
S3150800533013FEC5E71D6925F01C0500F0ADFA684B9C
S315080053400344684A934256D245F0080523681D610E
S315080053504FF4004200212046FFF76BFF0546002860
S3150800536061D140F6FF70FFF729FC6368002B00F057
S315080053709180FFF71DFC064601AA01212046FFF78A
S315080053801CFFFFF715FC801B41F28833984252D860
S31508005390019B13F0040FEFD04FF4805200212046F2
S315080053A0FFF747FF002852D1FFF702FC064601AA7D
S315080053B001212046FFF701FFFFF7FAFB801B41F2A8
S315080053C0883398424BD8019B13F0200FEFD001AADF
S315080053D01F212046FFF7F1FE00284CD1019B13F050
S315080053E0040F50D04FF40062E26013F0020F4DD064
S315080053F00023A3605EE03C4B03443C4A934202D838
S3150800540045F00C05A2E73A4B03443A4A93429DD32A
S31508005410394B0344394A934202D845F0040595E7C7
S3150800542045F0100592E701212046FFF7F1FC01251A
S3150800543084F8445076E701212046FFF7E9FC01236A
S3150800544084F84430002384F8453003256AE70121AF
S315080054502046FFF7DDFC012584F8445062E7012168
S315080054602046FFF7D5FC012384F84430002384F84E
S315080054704530032556E701212046FFF7C9FC0125DB
S3150800548084F844504EE70022E260AEE74FF48043CA
S31508005490A3600FE0E268C2F3CF02A368C3F34F0329
S315080054A01A4300212046FFF7C4FE58B940F6FF709C
S315080054B0FFF784FB00212046FFF7AAFC012384F8A6
S315080054C044302FE701212046FFF7A2FC012584F886
S315080054D0445027E7012525E70038024000380140F7
S315080054E000D3CEFEC0E1E40040F1E9FD3F787D013E
S315080054F000796CFC005A6202001F0AFA7FF0FA0271
S3150800550038B590F84530012B1AD00446012580F8A5
S315080055104550022380F84430FFF70EFC2046FFF77B
S3150800552020FC2046FFF732FC2046FFF7CFFB20463B
S31508005530FFF7DCFB84F84450002084F8450038BDAA
S315080055400220FCE738B590F84530012B1AD00446FE
S31508005550012580F84550022380F84430FFF7BEFB4A
S315080055602046FFF7CBFB2046FFF727FC2046FFF730
S315080055700DFC2046FFF736FC84F84450002084F8DA
S31508005580450038BD0220FCE790F84530012B00F0B5
S315080055908E8070B505460C46012380F845300223F7
S315080055A080F84430002971D00268136841491940CF
S315080055B0236860680343A0680343E0680343A86858
S315080055C003432069034360690343E8680343A0690A
S315080055D00343E0690343206A0343606A0343A06AFE
S315080055E003430B4313602B681E680120FFF7E6FA96
S315080055F02B681E60E36A226B1343626B1343A26B2C
S315080056001343E26B1343226C1343626C1343A16C7E
S315080056102A680B4353602B685E680120FFF7CEFAB1
S315080056202B685E602B68E26C9A602B68226DDA60E4
S3150800563029688A6922F0BE021204120C606DA36DF5
S3150800564043EA0043E06D0343206E0343606E034361
S31508005650A06E034313438B612B689E690120FFF7F5
S31508005660ADFA2B689E61E36E216F2A680B43D361FE
S315080056702B68DC690120FFF7A1FA2B68DC6101239E
S3150800568085F84430002085F8450070BD01680A6831
S3150800569022F490428368C068034313430B602B6867
S315080056A01C680120FFF78AFA2B681C60E7E70220CE
S315080056B0704700BF0F8120FF00230F2B00F2DD800B
S315080056C0F0B482B05DE086685F000324BC4026EA39
S315080056D00406CC68BC4034438460466826EA020661
S315080056E04C68C4F300129A403243426057E0DC0823
S315080056F0083450F8247003F0070296000F22B240CF
S3150800570027EA02070A69B2403A4340F824205AE0D9
S31508005710072200E00022B2403A430234574E46F8C8
S315080057202420574A1468EA4324EA05064F6817F402
S31508005730803F01D045EA0406514C2660646802EAB7
S3150800574004064F6817F4003F01D045EA04064C4C9E
S315080057506660A46802EA04064F6817F4801F01D041
S3150800576045EA0406464CA660E46822404E6816F4EC
S31508005770001F01D045EA0402414CE26001330F2BB9
S3150800578078D801229A400C6804EA020532EA040431
S31508005790F4D14C6804F00304013C012C93D94A68FF
S315080057A002F00302032A09D0C4685E000322B2404D
S315080057B024EA02048A68B2402243C2604A6802F0B8
S315080057C00302022A93D004685E000322B24024EA48
S315080057D002044A6802F00302B240224302604A68A1
S315080057E012F0805FCAD000220192264A546C44F413
S315080057F080445464526C02F480420192019A9C08D7
S31508005800A61C1E4A52F8267003F0030296000F22C1
S31508005810B24027EA02071C4A90423FF47BAF02F5E2
S31508005820806290421AD002F58062904218D002F542
S315080058308062904216D002F58062904214D002F53A
S315080058408062904212D002F58062904210D002F532
S31508005850806290423FF45CAF08225CE701225AE777
S31508005860022258E7032256E7042254E7052252E7A4
S31508005870062250E702B0F0BC704770470038014076
S31508005880003C014000380240000002400AB1816134
S315080058907047090481617047014B1868704700BF5B
S315080058A000000020F0B40C6894FAA4F4B4FA84F466
S315080058B04AE08E68826893FAA3F5B5FA85F56D0015
S315080058C0032707FA05F522EA050293FAA3F5B5FABE
S315080058D085F56D0006FA05F52A438260CD684268AB
S315080058E022EA030203FB05F52A4342600E69C268F1
S315080058F093FAA3F5B5FA85F56D00032707FA05F5BA
S3150800590022EA050293FAA3F5B5FA85F56D0006FABB
S3150800591005F52A43C2604A68022A22D04A68056801
S3150800592093FAA3F6B6FA86F67600032707FA06F67A
S3150800593025EA060593FAA3F3B3FA83F35B0002FAA2
S3150800594003F32B43036001340B6833FA04F23CD0AB
S315080059500122A2401340F6D04A68013A012AC5D866
S31508005960A7E793FAA3F2B2FA82F2072A15D84E6984
S31508005970026A93FAA3F5B5FA85F5AD000F2707FA7B
S3150800598005F522EA050293FAA3F5B5FA85F5AD0001
S3150800599006FA05F52A430262C0E74D69466A1A0AFD
S315080059A092FAA2F7B7FA87F7BF004FF00F0C0CFA76
S315080059B007F726EA070692FAA2F2B2FA82F29200EC
S315080059C005FA02F232434262A8E70020F0BC7047AB
S315080059D0034B9B68C3F30313024AD35CD840704752
S315080059E000380240706B0108034B9B68C3F382239F
S315080059F0024AD35CD840704700380240806B0108E1
S31508005A00034B9B68C3F34233024AD35CD8407047C2
S31508005A1000380240806B01080F4B5B6803F4800373
S31508005A2023B90E4B082803D0002070470C4BF9E722
S31508005A30094A506800F03F00B3FBF0F35068C0F322
S31508005A40881000FB03F05368C3F3014301335B007E
S31508005A50B0FBF3F0704700BF003802400024F400A2
S31508005A6000127A0008B5084B9B6803F00C03042B58
S31508005A7005D0082B05D10820FFF7CEFF02E0034822
S31508005A8000E0034808BD00BF0038024000127A0053
S31508005A900024F40010B50446FFF7E4FF2060FFF782
S31508005AA097FF6060FFF7A0FFA0606068FFF7A8FF98
S31508005AB0E06010BDC36813F4005F01D00120704791
S31508005AC0F0B585B004460D46C36823F4164323F0A3
S31508005AD00C034A68C9680A4329690A43A9690A433B
S31508005AE01343C360AB68026922F44052134303614F
S31508005AF06B69426922F44072134343616846FFF7B3
S31508005B00C9FF434B9C4210D0424B9C4214D0424B97
S31508005B109C4213D0414B9C4212D0414B9C4211D01F
S31508005B20404B9C4210D0012070E0039800286CD0AE
S31508005B302B685BB9012069E00298F7E70298F5E758
S31508005B400398F3E70298F1E70298EFE7AA69B2F536
S31508005B50004F2CD00026051846EB06012D1846EBFB
S31508005B600101CA0042EA5572EF0011469A009B0FDE
S31508005B70381846EB0101FEF793FB2B49A1FB0032CF
S31508005B8053091A0192B2642505FB13031B0132332C
S31508005B90A1FB0313C3F34F1303F0F0010A4492B2B7
S31508005BA003F00F0313449BB2A36000202EE00026E7
S31508005BB0051846EB06012D1846EB0101CA0042EA14
S31508005BC05572EF001146DA1846EB0603381846EB0D
S31508005BD00101FEF765FB1449A1FB003253091A01BE
S31508005BE092B2642505FB1303DB003233A1FB0313D2
S31508005BF0C3F34F13590001F4F8710A4492B203F043
S31508005C00070313449BB2A360CFE7012005B0F0BD9C
S31508005C1000100140004400400048004000140140C4
S31508005C20004C0040005000401F85EB51014B1860A6
S31508005C30704700BF0000002030B585B001F088FA33
S31508005C401A4900250D601A4A15601A4B1D601A4C30
S31508005C501A4802901A4801900095204601F0AAFEBB
S31508005C602946204602F0B2F810222946204602F0BC
S31508005C7003F8012384F8E330204601F0ADFF94F8D9
S31508005C80DF3013F0040F0CD0204601F0ABFF0A4CAE
S31508005C900C49204601F0ECFF204609F0C3FE05B08A
S31508005CA030BD054801F0C0FFF1E700BF400D0020F8
S31508005CB0440D0020480D0020500C00207D57010897
S31508005CC069600008CD60000808B5034800F0BCF913
S31508005CD007F044FD08BD00BF500C00202DE9F04731
S31508005CE03348FFF723FA00285ED1314B998FD3F852
S31508005CF0408079B94FF0000A2D4B1B6B00212C4AC6
S31508005D00926B8A423BD91A6842F000421A60DB68F5
S31508005D100131F4E74FF4C17202F04CFA82460028CA
S31508005D20EAD0234B1F6B8146002421E0D9F80400F2
S31508005D30C4F5BE62043208EB040130440FF0F8FDE6
S31508005D40FF68D7F80880A5F2F452361B06F2F45617
S31508005D500024A51840F2F4539D42E7D8D9F8040068
S31508005D6008EB040130440FF0E3FDD9F800902C4607
S31508005D70B9F1000FC0D0B9F80A200026E9E70C4BA4
S31508005D8000229A631B6841F214029A5812F0800F97
S31508005D9007D041F214028021995041F208020021ED
S31508005DA099505046BDE8F0874FF0000AF9E700BF62
S31508005DB01C2600202DE9F84F8B462C4BDE6AD6F8B8
S31508005DC008A000242746BBF1000F32D03368002B09
S31508005DD035DBBBF80A90002504EB090840F2F453BA
S31508005DE0984519D9DBF80410C4F5BE620432294473
S31508005DF00AEB04000FF09CFDF6683368002B21DBE4
S31508005E00D6F808A0A8F2F4592D1B05F2F4553F1B45
S31508005E1007F2F4570024DFE7DBF804104A46294462
S31508005E200AEB04000FF084FD4F44DBF800B044464B
S31508005E30C9E739460D48FFF7E9F8002004E06FF096
S31508005E40070001E06FF00700084B1B6841F21402D7
S31508005E509A5812F0200F07D041F2140220219950C7
S31508005E6041F2040200219950BDE8F88F1C26002053
S31508005E7030B583B004463248324B03600122426093
S31508005E804FF4804383604FF40063C36000230382AA
S31508005E908DF8003080218DF80110E1218DF802106F
S31508005EA08DF8032002228DF8042003228DF80520A0
S31508005EB0C0F814D08361C3614FF400030362FFF78F
S31508005EC0F3F928B994F8DF3043F0040384F8DF3097
S31508005ED01B4D2A68536843F01003536004231A4A7B
S31508005EE01A492846FFF720F80423194A194928466B
S31508005EF0FFF754F8062384F8DE306B691A7884F8BD
S31508005F00D8205A7884F8D9209A7884F8DA20DA786A
S31508005F1084F8DB201A7984F8DC205B7984F8DD3094
S31508005F2040F2DC53A4F8D43094F8DF3043F00A0387
S31508005F3084F8DF302846FFF7E3FA03B030BD00BF28
S31508005F401C26002000800240642600204C0D0020FC
S31508005F50CC0D00209C250020F0B58DB000230793BA
S31508005F60089309930A930B930268334B9A4201D01C
S31508005F700DB0F0BD00240194A3F590431A6B42F0CE
S31508005F8000721A631A6B02F000720192019A029467
S31508005F901A6B42F080621A631A6B02F080620292F0
S31508005FA0029A03941A6B42F000621A631A6B02F0A3
S31508005FB000620392039A04941A6B42F004021A636D
S31508005FC01A6B02F004020492049A05941A6B42F0C2
S31508005FD001021A631A6B02F001020592059A0694E9
S31508005FE01A6B42F002021A631B6B03F00203069354
S31508005FF0069B3223079302270897099403260A96D5
S315080060000B250B9507A90D48FFF756FB8623079323
S31508006010089709940A960B9507A90948FFF74CFBB8
S315080060204FF460530793089709940A960B9507A9A6
S315080060300448FFF741FB9BE7008002400008024046
S31508006040000002400004024038B50446FFF746FE49
S3150800605028B10546D4F8B0302146984700B938BD6E
S31508006060284602F045F8FAE710B5044698B17323B6
S3150800607084F8E030742384F8E1300B4BC4F8B4306C
S315080060800A4BC4F8BC300A4BC4F8B8302046FFF7B0
S31508006090EFFE002010BD074B4FF4FF720649074874
S315080060A00FF076FCE3E700BFF9030108751801084D
S315080060B0B55D0008886B0108A46B0108B46B01087C
S315080060C008B5FEF775FD08BD7047000030B583B00A
S315080060D0044600230193009390F8DF3013F0040F71
S315080060E051D02B4B5B68002B35D04FF480520021E2
S315080060F02748FFF79EF8FEF75BFD01906A460121E7
S315080061002348FFF75AF8FEF753FD019BC31AB3F568
S315080061107A7F20D8009B13F0200FEFD06A461F2104
S315080061201B48FFF74AF8009B13F0040F0AD0184AD9
S315080061304FF40061D16013F0020F07D0144B002210
S315080061409A6013E0124A0021D160F4E7104B4FF42D
S3150800615080429A600AE00E48C268C2F3CF0283689A
S31508006160C3F34F031A430021FFF763F8084D0021D4
S315080061702846FFF709FA2846FFF7C2F92046FFF72F
S31508006180A3FF03B030BD0248FFF7DCF9F6E700BF0E
S315080061901C260020C0B170B50D460646B9B10D4C97
S315080061A07CB161682846FEF713F808B12468F7E75A
S315080061B0A3683360E3687360B360F060237C33746C
S315080061C001E06FF0050070BD6FF00F0070476FF0CB
S315080061D00F00F8E700790108704742688068101ACE
S315080061E07047000030B338B50C460546012102F069
S315080061F0FDFE22461049284602F028FC50B9FF2128
S31508006200284602F055FE044660B10C49204602F0C5
S3150800621079FF38BD0A4B40F657220A490A480FF05B
S31508006220B7FBECE7064B40F65922084906480FF03B
S31508006230AFFBEAE7704700BFC07B0108DD690008CD
S31508006240147901084C790108B46B010868790108CA
S315080062502DE9F04105460E461F4690467AB1B8F834
S315080062600030C3B3B5F88C20934200D81A46B5F867
S315080062705A406400A4B2A2420FD814460DE0174B48
S3150800628040F21922164917480FF082FBE7E7012466
S31508006290B0F1FF3F17D1012C15D93B4622463146AE
S315080062A0284606F0D5F8B0F1FF3FF1D1B5F88C30A5
S315080062B0002BECD0B5F88E30082B02D8C4F34F0467
S315080062C0E6E70124E4E710B9A8F8004004E0002353
S315080062D0A8F8003000E00020BDE8F0811479010834
S315080062E088790108B46B010810B582B00C464B6A70
S315080062F04FF6FE72934214D89BB2ADF806300023CF
S315080063000DF10602A169FFF7A3FF68B9BDF80610EB
S31508006310A2690A44A261636A5B1A6362012002B039
S3150800632010BD4FF6FF73E8E70020F8E710B50446FE
S31508006330406918B1FFF750FF00236361206A18B15E
S3150800634001F0D6FE0023236210BD38B110B504460D
S31508006350FFF7ECFF204600F0E9FF10BD704700008C
S3150800636070B504460D461646002102F079FE002156
S31508006370204602F079FE0021204602F0A9FE0022FE
S315080063801146204602F0C6FE0021204602F086FE8F
S3150800639015B12846FFF7D9FF36B9204603F016FB94
S315080063A0054630B9284670BD204603F06DF800252D
S315080063B0F8E704220249204602F0ACFEF2E700BFE5
S315080063C08964000808B50022FFF7CAFF08BD08B5AA
S315080063D0FFF7F8FF08BD000038B505460C464869C2
S315080063E060B1FFF7FAFE00280DDD0A4B40F29D4228
S315080063F009490A480FF0CCFA012038BD2846FFF7AC
S31508006400E6FF0020F9E721462846FFF7E0FF0020CF
S31508006410F3E700BF1479010898790108B46B0108FD
S3150800642070B5D9B104460E464B6A1BB9FFF7D4FFBF
S31508006430054630B131462046FFF756FF0546736AD2
S315080064400BB1284670BD7069FFF7C7FE0028F8DC57
S3150800645031462046FFF7BBFF0025F2E70025F0E7A7
S3150800646050B108B50B460146002280F82820184688
S31508006470FFF7D6FF002008BD0020704718B108B501
S31508006480FFF763FF08BD704710B50C4680B101469B
S3150800649090F828300133DBB280F82830042B0CD072
S315080064A043691BB12046FFF7BBFF50B9002010BD5A
S315080064B000212046FFF786FFF8E72046FFF782FF10
S315080064C0F4E7204606F0FAFDF0E7000070B504464A
S315080064D0002941D016460D460B682BB365612B681B
S315080064E0A3616B68002B27DB6B686362002384F863
S315080064F0283063691B7C13F0010F25D0002E31D09C
S3150800650063691B7C13F0010F2CD0626A1649A069D7
S3150800651000F0C5FA034628B30433A2699A1AA361A0
S31508006520636A9B1A63621DE0104B40F60B12104912
S3150800653010480FF02DFAD1E70C4B40F634120E49ED
S315080065400C480FF025FACFE7084B40F643120B49E3
S3150800655008480FF01DFAD1E70023436183614362BF
S3150800656080F82830002070BD307A010814790108B7
S31508006570D0790108B46B0108E4790108047A0108A6
S3150800658070B506460C460C4921600546FFF702FE23
S3150800659008B9284670BD094921603046FFF7FAFD5B
S315080065A00028F6D0064921603046FFF7F3FD00289B
S315080065B0EFD000252560ECE7387A0108447A01080F
S315080065C0507A0108F8B5002939D007460C460B78E9
S315080065D0BBB3002511E0202120460FF0A7FA10B121
S315080065E0002202701BE0064619E005F11A0307EBC4
S315080065F0830300225A60013534460F2D22DC0CB382
S3150800660005F10A0307EB83035C60262120460FF099
S315080066108DFA06460028DED0002306F8013B3D2108
S3150800662020460FF083FA03460028DED0002203F83E
S31508006630012B05F11A0207EB82025360DBE70025FE
S3150800664000E000252846F8BD2DE9F04F85B005463F
S31508006650039117460C460846FDF7C4FD20B180464F
S31508006660461EA35D2F2B20D03F2103980FF05EFA1C
S31508006670814610B1002309F8013B4C4B1E68002ED9
S3150800668073D04B4BD3F80080B8F1000F6DD00024BF
S31508006690A6426ADD4FEAC40A58F834100398FDF793
S315080066A097FD002850D00134F2E7424B9C4208D0AF
S315080066B03F2E28BF3F26B8F1010F05D14FF000093C
S315080066C02DE00128D0D1F3E7DFF8E89032462146DD
S315080066D048460FF02DF9002309F80630EEE7364B49
S315080066E053F839A05046FDF77DFD834528BF8346FC
S315080066F0304C5A465146A0190FF01AF9B3440023F4
S3150800670004F80B30A24602E02B4B53F839A02C466E
S3150800671051462846FFF73EFD68B109F10109B9F16E
S31508006720040F0BD8B8F1010FEED0D6F13F0BD6D136
S31508006730DFF880A0EBE7CDF80CA000E00024002CE1
S3150800674092D04FF0000916E049462846FFF73AFF6F
S315080067500146174B1B689A44DAF8046005F16C0386
S3150800676005F12C022046B04703902C46039928468B
S31508006770FFF710FD68B994B1CDF804900023009393
S31508006780039B3A4621462846FFF7A0FE05B0BDE81A
S31508006790F08F03A92846FFF7F3FE0446EBE703A9A3
S315080067A02846FFF7EDFE0446E6E700BF2C01002069
S315080067B028010020E8000020007B01082DE9F047A9
S315080067C00C46054600284FD0002C55D06369002B8F
S315080067D07ED1A369002B7ED1206A002854D0294691
S315080067E001F00AFE284601F0EFFD206A0368002B37
S315080067F04CD0058940F2FF339D4228BF1D463A4ECC
S3150800680000232A46314601F0C9FE062D1ED9A9469F
S315080068102A463649304600F042F9B8B104223449CE
S3150800682030460FF090F98246002832D106F1030867
S31508006830371D043DADB22A462E49384600F02FF9D9
S31508006840034658B3DD1B0BB1434530D8206A01F027
S31508006850B3FD236A1B89B3F5806F3FD2052840D95B
S315080068606FF00F00BDE8F087234B40F2AE72234964
S3150800687023480FF08DF8A7E71F4B40F2AF72214966
S315080068801F480FF085F8A1E72562ABE76E686D89AA
S31508006890BBE7002333716FF00F00E3E72A4613497D
S315080068A0384600F0FCF803464FF0010ACAE74A46A4
S315080068B01549304600F0F3F80028C7D00023F370D6
S315080068C0ADB27B55524639462046FFF7BDFEC9E7AD
S315080068D06FF00700C6E76FF00700C3E76FF00F0019
S315080068E0C0E76FF00400BDE730010020687A0108B0
S315080068F06C7A0108747A010814790108A89E0108BF
S31508006900B46B01085C7A0108307A0108F8B50546C7
S315080069100E4614465BB952B148B11189304602F0A9
S315080069200BFB6B698BB1204601F0E2FB0BE034B13F
S315080069302189304602F000FB204601F0D9FB2946A2
S315080069403046FFF73FFD0020F8BD3246294620466F
S31508006950FFF734FF074640B110F1050F05D010F1D7
S31508006960100F02D010F1080F14D117F1050F05D03A
S31508006970286A18B101F0BCFB00232B62204601F0FF
S31508006980B7FB7FB117F1100FDDD129463046FFF767
S3150800699019FDD8E7064B40F60422064906480EF0CC
S315080069A0F7FFE2E729463046FFF73AFDCBE700BF97
S315080069B014790108787A0108B46B010808B5AC2285
S315080069C000210EF0DDFF08BD10B5AC2000F0C6FDB5
S315080069D0044608B1FFF7F2FF204610BD12BB38B5D2
S315080069E00C46154609B30121204602F0FFFAFFF7C7
S315080069F0EBFF0146E0B1C461204602F031FB0E49C7
S31508006A00204602F031FB0D49204602F061FB0422C4
S31508006A100B49204602F07EFB0A49204602F03EFB5F
S31508006A20284638BD6FF0050070476FF00500F8E797
S31508006A304FF0FF30F5E700BF0D6900087D640008D8
S31508006A40896400086164000810B52E2002F006FF6C
S31508006A50044620B150212046FFF7C4FB10BD044B65
S31508006A6040F67222034904480EF092FFF2E700BF8F
S31508006A7014790108A47A0108B46B0108030A43EAE9
S31508006A80002080B27047030203F47F0343EA0063E1
S31508006A90020A02F47F42134343EA106070472DE965
S31508006AA0F84307460E4691460846FDF79BFBC0B1DC
S31508006AB080463C4600E001342578B5B104EB08036E
S31508006AC007EB090293420AD83378AB42F3D1424620
S31508006AD0314620460FF037F80028ECD102E00024B2
S31508006AE000E03C462046BDE8F8830024FAE70000AB
S31508006AF0002836D0C07F002835D1431C03EB43015C
S31508006B001B4A02EBC102127D062A09D003EB430396
S31508006B10174A52F83330003B18BF01232BBB704786
S31508006B200A46134951F832209AB903EB430201EB9E
S31508006B30C20252687AB903EB430201EBC2029268B9
S31508006B405AB903EB430301EBC303DB683BB10123EB
S31508006B50E4E70123E2E70123E0E70123DEE7002378
S31508006B60DCE700207047002070470120704700BF0F
S31508006B707005002008B50EF099FF80B2002301E0E9
S31508006B800133DBB2032B0FD808494FF4947202FB8A
S31508006B900312927F022AF3D14FF4947202FB031276
S31508006BA0928B8242ECD1E6E708BD00BFA005002023
S31508006BB02DE9F04705468846A9B10B7D062B14D06A
S31508006BC0514A4FF4947303FB002393F82431032BA3
S31508006BD027D0012B25D04C4A4FF4947303FB052389
S31508006BE0002283F82421002425E0474A4FF49473B1
S31508006BF003FB002393F82431032B01D0012B08D182
S31508006C00414A4FF4947303FB0523012283F8242198
S31508006C10E9E73E4B4FF46E723D493E480EF0B8FE2A
S31508006C20EEE73A4B40F2BB3239493A480EF0B0FE2D
S31508006C30D1E70134E4B2032C24D8264604EB4403F6
S31508006C40354A52F82370002FF3D002EB83031B7AE0
S31508006C50AB42EED14FF4947000FB05F020302A4B7E
S31508006C60184492464FEA440904EB440302EB8303B3
S31508006C705A6841460430B8474E44B60000234AF8DD
S31508006C800630D6E7002301E00133DBB2032B1CD81C
S31508006C90AB42F9D01C494FF4947202FB0312927F5F
S31508006CA0022AF1D14FF4947202FB031090F82300E4
S31508006CB002FB051292F823209042E5D14FF4947214
S31508006CC002FB0514042384F823300F4A4FF4947307
S31508006CD003FB052393F82330032B01D9BDE8F0877E
S31508006CE00E4C54F8230007F0F1FB07484FF4947351
S31508006CF003FB050595F82330002244F823200423D6
S31508006D0085F82330EAE700BFA0050020287B0108A4
S31508006D10587B0108B46B01084005002030050020A7
S31508006D202DE9F04784B006467E4A4FF4947303FB78
S31508006D300023DB7F012B4CD87A4A4FF4947303FB6C
S31508006D400623DB7F03EB4301774A02EBC102127D80
S31508006D50062A46D003EB4303734A52F83330B3FA94
S31508006D6083F35B09002B5CD14FF4947303FB06F3A2
S31508006D7020336C4F1F4404373846FDF733FA00F1C9
S31508006D8012014FF4207289B24A2001F013FA05461F
S31508006D90002800F0C3800023019302930393614AFD
S31508006DA04FF4947303FB0623988BFFF767FEADF841
S31508006DB0040001238DF806304FF48073ADF80830CF
S31508006DC00C2201A9284601F037FC013F4FF00C08B8
S31508006DD055E0564B40F2FA22554956480EF0D8FD72
S31508006DE0AAE70A46504951F8322092B903EB430103
S31508006DF04D4A02EBC10252686AB94B4A02EBC1021C
S31508006E00926852B9484A02EBC103DB683BB10023DA
S31508006E10A8E70023A6E70023A4E70023A2E70123A7
S31508006E20A0E700213046FFF7C3FE3E4A4FF49473AD
S31508006E3003FB06260024B477204604B0BDE8F08795
S31508006E40A7EB090A1FFA8AFA08EB04024FF6FE7343
S31508006E509A4220DC22464146284601F0CBFC08F13E
S31508006E6001039BB252464946284601F045FC444474
S31508006E70A4B204F101081FFA88F83B788BB10137F0
S31508006E80B94600243B782E2BDAD0002BD8D0013413
S31508006E90E4B20137F6E7284601F02AF96FF005044F
S31508006EA0CAE700224146284601F0A4FCA31C9BB26F
S31508006EB01C494FF4947202FB061292F82421032A05
S31508006EC006D0012A04D04FF48072ADF8002003E002
S31508006ED04FF4E052ADF800204FF48072ADF802206E
S31508006EE004226946284601F007FC0E4B4FF49472BB
S31508006EF002FB063696F82340F27F02EB4202352360
S31508006F00094901EBC20229460B4850F8240007F04C
S31508006F108DF90446284601F0EBF88DE74FF0FF346B
S31508006F208AE700BFA005002070050020287B01081D
S31508006F306C7B0108B46B01083005002038B504469F
S31508006F40494D4FF4947000FB0455032C0BD8464A60
S31508006F504FF4947303FB04239B7F032B7CD8DFE851
S31508006F6003F01E0A1F63414B40F21C424049414848
S31508006F700EF00EFDEBE7FFF7FDFD3B4A4FF4947369
S31508006F8003FB0423988302229A770022DA770121E9
S31508006F9083F8201083F821202046FFF7C1FE38BD6C
S31508006FA0314B4FF4947202FB043292F82030013BC5
S31508006FB0DBB282F82030002BF1D12B4B4FF49472C0
S31508006FC002FB043292F821300133DBB282F8213019
S31508006FD0042B0AD024494FF4947202FB041282F857
S31508006FE020302046FFF79CFED9E72846FFF780FDAC
S31508006FF070B11D4A4FF4947303FB0423DA7F013200
S31508007000DA77012283F82020002283F82120E8E796
S3150800701000212046FFF7CCFD134A4FF4947303FB77
S3150800702004240023A377BAE74FF4947303FB04F30D
S315080070300D4AD35843B1013B4FF4947202FB04F254
S3150800704009498B50002BAAD107484FF4947303FBC8
S3150800705004040023A377A2E7044B40F25B420649E7
S3150800706004480EF095FC9AE7A0050020287B010845
S31508007070847B0108B46B0108A07B010810B50024C5
S3150800708004E02046FFF75AFF0134E4B2032CF8D98E
S3150800709010BD7047012800D9704730B469B100EBBC
S315080070A040000C4D05EBC0050C460FCC0FC594E807
S315080070B0030085E8030030BC704700EB4000054C30
S315080070C004EBC004044D0FCD0FC495E8030084E813
S315080070D00300F0E770050020D4A4010808B5FFF7FF
S315080070E0CDFF08BD10B483B00023ADF8063010F00C
S315080070F0010406D0994204DD10F8013B8DF80730EB
S3150800710001390023012904DD30F8022B1344023922
S31508007110F8E7002902DD02788DF80620BDF806009A
S31508007120034498B200EB134398B200EB134024B122
S3150800713003029BB2C0F30720184380B203B05DF880
S31508007140044B704708B5FFF7CDFFC04380B208BDB2
S3150800715008B500F0CBF800F0FDFA00F0F3FB06F0F6
S31508007160FBFB01F04FFC09F0ADFBFFF792FF06F0C1
S31508007170E1FA08BD014B1B6818447047440A002011
S31508007180024B1B68C01A80B2704700BF440A002031
S31508007190F8B50446FFF7F4FF074625882846FFF7A3
S315080071A0E9FF064664882046FFF7E4FFB5F5486F11
S315080071B010D8B4F5486F0FD8BC4202D00388BB423A
S315080071C00CD1094B1B68B3420AD07388BB4209D15C
S315080071D0012000E00020F8BD0020FCE70020FAE7C7
S315080071E00120F8E70020F6E7480A002038B50446EB
S315080071F0354B1B68834240D8344B1B68A34244D99D
S315080072002379002B49D12388B3F5486F4DD82088B8
S31508007210FFF7B0FF844216D00379A3B92B4B1B683E
S31508007220834210D02A4B1B68834246D003882380AA
S315080072300088B0F5486F06D0FFF79CFF0546204644
S31508007240FFF79EFF68806088FFF794FF0546844233
S3150800725012D0037983B91E4B1B68A34230D023880A
S315080072602B802088B0F5486F06D0FFF783FF0446C9
S315080072702846FFF785FF608038BD164B40F2DF12BF
S31508007280154916480EF084FBB6E7124B4FF4F07218
S31508007290134912480EF07CFBB2E70E4B40F2E1129E
S315080072A010490E480EF074FBADE70A4B4FF4F27224
S315080072B00D490A480EF06CFBA9E7054B1C60B5E7BB
S315080072C0034B1860CBE700BF440A0020480A002099
S315080072D0400A0020D87B0108087C0108B46B010825
S315080072E0207C01083C7C0108587C010838B50B4C09
S315080072F024F003040A4B1C604FF4486525800023DC
S31508007300638023712846FFF735FF064B1860012373
S31508007310037105804580044B1C6038BD7B3E002008
S31508007320440A0020480A0020400A0020002844D0C9
S3150800733038B5044610F0030F1FD1A0F108051F4BFE
S315080073401B68AB4221D800F10C031D4A1268934210
S315080073501BD810F8043C03B32846FFF719FF20B3DF
S31508007360002304F8043C174B1B68AB4201D9154BA4
S315080073701D602846FFF73AFF0EE0134B40F27322D2
S31508007380124913480EF004FB06E00F4B40F27F2229
S3150800739010490F480EF0FCFA38BD0B4B4FF4237218
S315080073A00D490B480EF0F4FAF6E7074B40F2952222
S315080073B00A4907480EF0ECFAEEE77047440A00203F
S315080073C0480A0020400A0020D87B0108847C01086E
S315080073D0B46B0108A87C0108C47C0108EC7C010890
S315080073E02DE9F8430546CC1CA4B224F00304A4B244
S315080073F00B2C04D9B4F5486F02D9002599E00C2462
S315080074008C42C0F095804D4B1B68AB4203D84C4B61
S315080074101B68AB4206D84B4B40F2D1224A494B482F
S315080074200EF0B6FA454B1B68AB4200F28280444B1D
S315080074301B68AB427DD9A5F10800FFF7A1FE0646F9
S3150800744035F8088CA8EB00081FFA88F8A8F1080890
S315080074501FFA88F8444529D844456DD869D035F8C7
S31508007460087C3846FFF786FE81460379002B33D120
S31508007470B7F5486F22D0B9F800703444A4B208347E
S31508007480A4B2334B1B684B4520D02046FFF772FE4B
S31508007490002303710780468025F8084C0088B0F55C
S315080074A0486F46D0FFF766FE448042E0254B4FF40E
S315080074B03972284925480EF06BFACDE7214B40F280
S315080074C0F522254921480EF063FAD4E72046FFF74E
S315080074D051FE1F4B1860D8E704F11403434528D81A
S315080074E03444A4B20834A4B2B7F5486F18D020467D
S315080074F0FFF740FE164B1B68834201D9144B1860F0
S315080075000023037135F8083C0380468025F8084CAB
S315080075100088B0F5486F0CD0FFF72CFE448008E0D1
S31508007520084B40F216320C4908480EF031FADEE7ED
S3150800753000252846BDE8F8830025FAE7440A002016
S31508007540480A0020D87B0108207D0108B46B010891
S31508007550400A0020387D0108587D0108002800F0FF
S315080075609A802DE9F0410346C61CB6B226F00306FA
S31508007570B6B20B2E04D9B6F5486F02D9002088E0BA
S315080075800C269E42C0F08980454B1868FFF7F8FD27
S3150800759005464CE0434B40F28732434943480EF0D8
S315080075A0F7F962E0012303713D4B1868A0420FD03A
S315080075B0274408373E4B1B689F421FD814F0030523
S315080075C024D15DBB04F1080063E00088FFF7D2FD13
S315080075D003791BB1364A12688242F6D1304A1060E6
S315080075E0334A12688242E3D0002BE1D02D4B40F299
S315080075F0B53230492D480EF0CBF9D9E7294B40F280
S31508007600B9322D4929480EF0C3F9D7E7254B40F280
S31508007610BB322A4925480EF0BBF9D2E7214B40F286
S31508007620BD32274921480EF0B3F9CBE72588A8468D
S315080076303746C6F548639D422AD22846FFF79AFD83
S3150800764004460379002BF1D10388A3EB0803083B12
S31508007650BB42EBD307F114029342A3D32E44B6B22E
S315080076600836B6B2B6F5486F94D03046FFF782FDB5
S315080076700023037123880380458026800123237114
S315080076800088B0F5486F8FD0FFF774FD46808BE70A
S315080076900020BDE8F081002070470020F9E700BF10
S315080076A0400A0020D87B0108587D0108B46B010800
S315080076B0480A00206C7D0108887D0108B87D01080C
S315080076C0E87D010810B5C3681C6824B122681A60F1
S315080076D014F0030F01D1204610BD044B4FF48C72F1
S315080076E0034904480EF054F9F5E700BF0C7E01087B
S315080076F03C7E0108B46B010838B505460C4611F006
S31508007700030F05D1EB681B682360EB681C6038BD66
S31508007710034B4FF4B672034903480EF039F9F1E703
S315080077200C7E0108607E0108B46B0108C36800225C
S315080077301A608368033323F00303C188914208DD86
S31508007740C16809681960C1680B6081880B440132F9
S31508007750F3E7704710B5002406E0054B53F82400FC
S31508007760FFF7E4FF0134A4B20C2CF6D910BD00BF14
S315080077701C80010808B50C2805D8074B53F82000CB
S31508007780FFF7A0FF08BD054B40F25712044905480C
S315080077900EF0FEF80020F5E71C8001080C7E0108B3
S315080077A0807E0108B46B010808B50C2806D821B1FB
S315080077B0064B53F82000FFF79FFF08BD044B4FF414
S315080077C0D572044904480EF0E3F8F6E71C80010870
S315080077D00C7E0108A07E0108B46B01080B68C2691B
S315080077E0934208D029B1C361002380F830300120C4
S315080077F070470023F7E7002070470B68426B9342F7
S3150800780008D029B14363002380F848300120704727
S315080078100023F7E7002070476FF00B0070476FF002
S315080078200B00704738B504460D4601F0D7FE2946C9
S31508007830204606F087FE38BD38B50C460546B0B179
S3150800784095F8DF3003F00502052A0FD114F0010F71
S3150800785009D06A683AB113F0080F10D195F8DF30ED
S3150800786013F0200F10D114F0020F11D138BD0A4BB6
S3150800787040F26D3209490A480EF08AF8E0E7291DF8
S31508007880284608F025FCE9E7284609F029F8EAE73A
S3150800789028460BF04FFCE9E7508001088480010870
S315080078A0B46B010870B586B0044615460E4621B37A
S315080078B05DB3326863689A423CD0009200238DF823
S315080078C01430237E2B75237E062B26D063682B6007
S315080078D00023EB60AB606B602B7469462846FFF7A4
S315080078E0A1FF2EB333686360002323760121204667
S315080078F0FFF7A2FF012006B070BD0F4B40F2CB1276
S315080079000E490F480EF044F8D2E70B4B4FF4E672D7
S315080079100A490B480EF03CF8CBE763682B60A3686E
S315080079206B60E368AB602369EB60237D2B74D4E757
S315080079300023D8E70020DEE750800108A880010868
S31508007940B46B0108704700002DE9F04186B0044683
S3150800795016461D460F46D9B1E6B1EDB10FB13B68E3
S31508007960E3B96A4639462046FFF79CFF4FF00108FF
S31508007970002231462046FFF731FF002229462046DD
S31508007980FFF73BFFB8F1000F0BD006B0BDE8F0815A
S31508007990074FE1E7064EE0E7054DDFE74FF0000841
S315080079A0E6E76A4639462046FFF77CFFEDE700BF63
S315080079B0D4A401082DE9F843DDF8249005460028EB
S315080079C033D00E4617469846B9F1000F35D0002930
S315080079D03CD0002F3CD0B8F1000F3BD000236B60A1
S315080079E0AB60EB602B612B7515F1040F00D02B767D
S315080079F00023EB612B626B62AB6285F82C3015F1C4
S31508007A001C0F01D085F8303000236B63AB63EB6342
S31508007A102B6485F8443015F1340F01D085F84830C9
S31508007A20624BC5F8B430002025E0614B40F22712BE
S31508007A30604961480DF0ACFFAAE05D4B4FF49472C3
S31508007A405E495D480DF0A4FF0025A1E05C4EC0E745
S31508007A505B4FC0E7DFF86881C0E72A19002382F880
S31508007A60943004F1260245F82230283405EB8404C4
S31508007A706360013040B202281BDC044600EB400379
S31508007A8005EBC3030022DA641A655A659A6583F81A
S31508007A905C2000EB4003DB0048332B4413F1040F52
S31508007AA0DBD000EB400305EBC303062283F8602016
S31508007AB0D3E7444BC5F8BC300024A5F8D44085F874
S31508007AC0DF40C5F8C840C5F8CC40C5F8D04085F8B1
S31508007AD0E34028460DF04EFEC5F8C040C5F8E8401C
S31508007AE0C5F8EC40089BC5F8C430374B1B7885F8B9
S31508007AF0E2300A9BC5F8B03043463A463146284636
S31508007B00FFF722FF2846C84700284CD1B5F8D430DD
S31508007B10A5F8D63024E0002385F8E23024E0244B8B
S31508007B2040F28B12294924480DF032FF10E0204B11
S31508007B3040F28D12264920480DF02AFF94F8E220DB
S31508007B4095F8E2309A4207D0246844B1A542E6D0B7
S31508007B500136FF2EF2DDEAE7013385F8E2303CB163
S31508007B6095F8E230FF2BD6D01A4B1C680026ECE7B6
S31508007B7095F8E230FE2B0ED00133134A1370154BDD
S31508007B801A682A601D6095F8DF3013F0200F06D1B9
S31508007B902846BDE8F8830C4B00221A70EFE7284602
S31508007BA008F000FFF4E70025F2E700BF1F78000899
S31508007BB050800108B8800108B46B0108D480010818
S31508007BC0D4A4010819780008800A0020F880010862
S31508007BD00C8101089C7F0020014B1860704700BF8C
S31508007BE0A07F002010B530B1044690F8DF3013F0BE
S31508007BF0010F08D010BD094B4FF4547208490948C3
S31508007C000DF0C6FEF6E743F0010380F8DF300321E6
S31508007C10FFF712FE20460DF0ADFDEBE75080010898
S31508007C203C810108B46B010810B580B1044690F890
S31508007C30DF3013F0010F09D003F0FE0380F8DF30C0
S31508007C4013F0080F0BD120460DF0FEFC10BD054BB6
S31508007C5040F29B32044905480DF09AFEF6E708F013
S31508007C60B5F9F0E75080010858810108B46B01089E
S31508007C7008B1C0F8C01070472DE9F0410C4615460A
S31508007C800746E0B1022C22DC3B1993F89430AB424C
S31508007C9013D003F0100605F0100897F8DF3013F03C
S31508007CA0400F1CD116B1B8F1000F1ED03C4484F821
S31508007CB0945016B9B8F1000F21D1BDE8F081124BE6
S31508007CC040F27552114912480DF062FEDAE70E4B82
S31508007CD040F276520F490E480DF05AFED4E72A466E
S31508007CE0214638460DF006FDDCE704EB4400C000EB
S31508007CF04830384400210430FFF794FDD6E70221C6
S31508007D003846FFF799FDD8E750800108A46B0108AB
S31508007D10B46B01087881010838B50C46054658B198
S31508007D2094B1227C002A41D095F8E2300133DBB2C7
S31508007D309A4240D1002011E0204B40F2BE52204921
S31508007D4020480DF025FEEBE71C4B40F2BF521E49BA
S31508007D501C480DF01DFEE4E7013040B2022827DC7E
S31508007D602B1893F89430002BF6D000EB400305EB64
S31508007D70C303D96C23689942EED100EB400305EBA7
S31508007D80C303196D63689942E6D100EB400305EB1E
S31508007D90C303596DA3689942DED100EB400205EB97
S31508007DA0C2039A6DE3689A42D6D103E00020D5E76C
S31508007DB04FF0FF3038BD4FF0FF30FBE75080010829
S31508007DC088810108B46B0108B081010870B50C46BA
S31508007DD0054650B148F2FE03EB6400232B6564B9EF
S31508007DE000236B65AB65032650E02F4B40F2DF524C
S31508007DF02E492F480DF0CCFDECE795F8D80080F019
S31508007E00020395F8D900000440EA036095F8DA30D1
S31508007E1040EA032040F0FF00FEF735FE686595F856
S31508007E20DB3095F8DC00000240EA034095F8DD30C7
S31508007E30184340F07E40FEF726FEA865EB6C23F457
S31508007E407C531B041B0C48F2FE02934227D00023E6
S31508007E5085F85C30082200212846FFF70DFF70BD23
S31508007E60013EF6B21B1B013B2B4493F8D80004F0E5
S31508007E700303DB009840FEF706FE06F1120305EB46
S31508007E8083035A6802435A600134E4B2072CD5D8F2
S31508007E9095F8DE30A342D1D9042CE3D1E0E795F872
S31508007EA0E2300133DBB2D3E750800108DC810108F8
S31508007EB0B46B0108024658B1064B186838B190F8F9
S31508007EC0E2300133DBB2934203D00068F6E770472D
S31508007ED0002070479C7F0020014B01221A707047D2
S31508007EE0A47F002010B4002404604160028143810D
S31508007EF09DF8043003739DF8083043730123837398
S31508007F00C4735DF8044B704730B143898B4203D87C
S31508007F10C91A89B20068F7E702B1118070470000F4
S31508007F2070B50C4616460546C0B13DB3B4F5803F5C
S31508007F3026D23CB3A2B22B8913449BB2934223D3D5
S31508007F4095F90C10002911DB06B369680C1B6C60E7
S31508007F5069890A446A812B81002012E00C4B40F2A1
S31508007F60DF120C490C480DF013FDDEE769680C1B9F
S31508007F7005F11001A142EAD9012002E0012000E042
S31508007F80012070BD0020FCE70120FAE70120F8E790
S31508007F9010820108A89E0108B46B010808B5074BB2
S31508007FA000221A70064B186830B1D0F89C300BB90D
S31508007FB0406BF9E701F024F908BD00BFA47F002053
S31508007FC0AC7F0020F0B583B006460D461446412A1C
S31508007FD001D0012A0FD10B20FFF7CCFB074638B199
S31508007FE00023019300942B462A463146FFF77AFF71
S31508007FF0384603B0F0BD044B4FF4A5720349044854
S315080080000DF0C6FCE7E700BF1082010840820108B0
S31508008010B46B010870B582B00D461E460699C41C9D
S3150800802024F003042819BDF81C3098420DD801B174
S31508008030214434460223019300922B462A463046B1
S31508008040FFF750FF204602B070BD0024FAE708B5D6
S315080080500022FFF765FF08BD08B50122FFF760FF9C
S3150800806008BD000038B50C46054690B115B3B4F501
S31508008070803F21D214B3A2B26B89934211D36968A7
S31508008080214469609B1A6B812B899A1A2A810020E0
S3150800809038BD0B4B40F24B220A490B480DF078FCD1
S315080080A0E4E7074B40F25522084907480DF070FCF3
S315080080B00120EDE70120EBE70120E9E70020E7E7EB
S315080080C010820108A89E0108B46B010854820108B1
S315080080D008B5002902DBFFF723FF08BD4942FFF771
S315080080E0C1FFFAE708B50122FFF7F2FF08BD000055
S315080080F070B510B10446002517E0284B4FF43772C7
S31508008100274928480DF044FC0025284670BD234B16
S3150800811040F2F122244923480DF03AFC0AE023698B
S31508008120204698470135EDB23446002CEDD0A37BA6
S31508008130002BECD0A37B013BDBB2A373002BE4D16D
S315080081402668237B03F00F03627B12F0020F0AD026
S315080081502369002BE3D1114B40F2FF221349114842
S315080081600DF016FCDBE7022B06D0012B09D06BB904
S315080081702046FFF7DBF8D5E721460C20FFF714FB6E
S31508008180D0E721460B20FFF70FFBCBE7034B40F266
S315080081900F32074903480DF0FBFBC3E710820108BD
S315080081A0A89E0108B46B0108748201088C82010834
S315080081B0B08201082DE9F04782B00E46904685B296
S315080081C0B2F5C17F46D007460ED8012A02D0412A09
S315080081D040F08480424631460020FFF7F3FE814690
S315080081E0484602B0BDE8F087B2F5207F76D1033560
S315080081F025F00305ADB2CA1C93B223F003031D4450
S31508008200ADB205F1100080B222F0030295426FD399
S31508008210824270D8FFF7A2F981460028E0D007F11C
S3150800822010010144033100230193CDF80080334641
S31508008230324621F00301FFF755FED9F8043013F052
S31508008240030FCDD02D4B4FF491722D492D480DF0CB
S315080082509FFBC5E70027B9461AE0FFF73DFEB9F1CF
S31508008260000F02D04846FFF743FFB946B8E7234B4D
S315080082704FF48072244923480DF08AFBB9F1000FA8
S315080082802AD0CAF80070361BB6B20025002EA7D031
S31508008290BA460C20FFF76EFA07460028DDD0EC1C1C
S315080082A024F00304A4B2C4F51474A4B2B44228BFDB
S315080082B0344605F110010144033100230193CDF83A
S315080082C000802346324621F00301FFF70BFE7B6848
S315080082D013F0030FD2D0CAE7B946D4E7074B40F2EA
S315080082E027120A4907480DF053FB4FF0000977E7B4
S315080082F04FF0000974E74FF0000971E71082010892
S3150800830028830108B46B0108C48201085483010854
S31508008310F8B50E460446B8B12789B7422ED9354670
S315080083206389AB4218D2EB1A9DB22389F21B134418
S3150800833023812468002CF3D11A4B40F2AF121A4954
S315080083401A480DF025FBEBE7164B4FF4CC7218498B
S3150800835016480DF01DFBDFE7227B12F00F0F05D143
S31508008360AB4203D0637B13F0020F08D065812581E9
S31508008370206808B1FFF7BCFE00232360F8BD6368D8
S315080083801B1BE91889B22046FFF72AF8044600287D
S31508008390ECD1044B40F2BD12064904480DF0F8FA38
S315080083A0E4E700BF1082010888830108B46B01085E
S315080083B070830108A0830108034600201BB1013021
S315080083C080B21B68FAE7704770B108B5837B013342
S315080083D0DBB2837303B108BD044B40F24232044951
S315080083E004480DF0D5FAF6E7704700BF1082010879
S315080083F0BC830108B46B010838B510B10D460446B4
S3150800840061B9154B40F25932144915480DF0C0FAB6
S3150800841019E0238928890344238114462268002AFF
S31508008420F7D1228963899A420ED1236833B10A4B60
S3150800843040F263320B490A480DF0AAFA23892A89C1
S3150800844013442381256038BD034B40F26232064946
S3150800845003480DF09DFAE8E710820108D083010869
S31508008460B46B0108388401080884010810B50C4665
S31508008470FFF7C2FF2046FFF7A7FF10BD2DE9F04121
S3150800848048B10C46054631B102890B899A4202D396
S315080084900027B8463AE03A4B40F2C93239493A48D9
S315080084A00DF076FA6FF00F0068E0354B40F2D932DE
S315080084B0364935480DF06CFA3CE0314B40F2DA3279
S315080084C0334931480DF064FA37E02D6815B14FF09D
S315080084D000083AE014B94FF0000836E0284B4FF48C
S315080084E079722C4928480DF053FA6FF00F0045E0D1
S315080084F023687BB3224B40F2E932274922480DF024
S3150800850047FA6FF0050039E0002C36D06E89A6EBE5
S3150800851008066389DB1B9E4200D31E4668686168AD
S315080085203246394440440DF003FAB04437446B8967
S315080085304345BAD36389BB42BFD36389BB4201D8DB
S31508008540246800276B894345BFD01CB162892389FB
S315080085509A42CDD0002DD7D06A892B899A42D3D199
S315080085602B68002BD0D0064B40F2EE320A4906485B
S315080085700DF00EFA6FF0050000E00020BDE8F0816E
S315080085801082010848840108B46B01087884010840
S3150800859090840108AC840108BC8401082DE9F843DD
S315080085A030B188469146054669B100273E462AE01D
S315080085B01B4B40F20A421B491B480DF0E9F90027FC
S315080085C03846BDE8F883164B40F20B421749164861
S315080085D00DF0DEF90027F3E76C89E41AA4B2A14589
S315080085E000D24C4669682246194408EB06000DF08D
S315080085F09FF92744BFB22644B6B2A9EB04041FFA72
S3150800860084F900232D68B9F1000FD9D0002DD7D0F1
S31508008610002BE1D069899942DED85B1A9BB2F1E753
S3150800862010820108E8840108B46B0108088501086E
S3150800863008B5FFF769FC08BD2DE9F84348B1884637
S315080086409146054679B10389934216D31646002703
S315080086502EE0224B40F2B342214922480DF098F908
S315080086606FF00F002FE01D4B40F2B4421E491D4823
S315080086700DF08EF96FF00F0025E0184B40F2B54269
S315080086801A4918480DF084F94FF0FF301BE0134BD8
S3150800869040F2BD42164913480DF07AF90BE022461E
S315080086A008EB070168680DF043F9361B27442D6867
S315080086B036B1002DEBD06C89B442F0D33446EEE7E0
S315080086C04F4502D10020BDE8F883044B4FF4996268
S315080086D0084904480DF05CF90020F4E71082010807
S315080086E02C850108B46B01084485010860850108DA
S315080086F08085010898850108F0B583B00E461446B2
S315080087000DF106021946FFF793FF58B3074601898C
S31508008710BDF806301A19914227DB4289934213D2D3
S315080087207B89BDF806001A1A944215DD95B27B6856
S315080087302A46314618440DF0FBF8621B92B27119AD
S3150800874062B9002003B0F0BD094B40F2E342094983
S3150800875009480DF01DF9E3E72546E8E73868FFF70D
S315080087606BFFEFE74FF0FF30ECE74FF0FF30E9E73C
S3150800877010820108B0850108B46B010838B51446A3
S315080087800A462189FFF716FD054618B12146FFF767
S3150800879075FE08B9284638BD034B40F224520349F2
S315080087A003480DF0F5F8F5E710820108C8850108B9
S315080087B0B46B010800B583B00DF10602FFF7A4FB00
S315080087C048B14189BDF80620914207D94368985CAB
S315080087D003B05DF804FB4FF0FF30F9E74FF0FF30C8
S315080087E0F6E708B5FFF7E6FF002801DA002008BD1E
S315080087F0C0B2FCE710B582B014460DF10602FFF7C9
S3150800880017FF30B14189BDF80620914201D9436866
S315080088109C5402B010BD000010B4002409E0164BA9
S315080088204FF440421A800DE00134A4B2B4F5804FEB
S315080088301FD2114A138801339BB213804FF6FF7279
S315080088409342ECD0002003280ED80C4B53F8203066
S315080088501B6833B1D98F084A12889142E4D05B6B02
S31508008860F7E70130C0B2EEE7034B18885DF8044B12
S3150800887070470020FAE700BF10000020A88C010806
S3150800888038B504460D4651B9084BFF220849094830
S315080088900DF07EF803E00023C4F8A430646B24B11D
S315080088A0D4F8A430AB42F9D1F5E738BDDC85010828
S315080088B00C860108B46B010838B5054628B195F849
S315080088C03C30012B09D1012417E00D4B40F211125F
S315080088D00C490D480DF05CF8F1E7094B4FF4897225
S315080088E00A4909480DF054F8EDE7094B53F82430C6
S315080088F029461868FFF7C4FF0134032CF5D938BD9B
S31508008900DC85010834860108B46B01084086010835
S31508008910A88C010810B5044690F83C30012B04D009
S3150800892021460220FEF740FF10BD034BDF22034914
S3150800893003480DF02DF8F3E7DC8501085886010891
S31508008940B46B010838B5054650B195F83C30042B90
S3150800895022D0072B2AD0032B0AD00024204638BD64
S31508008960194B4FF4CE72194919480DF011F8ECE776
S31508008970284604F007FA044610B9052385F83C3062
S31508008980F4B1B4F1FF3FE9D1B5F8423043F008033A
S31508008990A5F842300024E1E7284604F0F3F9044636
S315080089A00028EDD1052385F83C30E9E7284604F090
S315080089B0E9F904460028E3D1092385F83C30DFE7C6
S315080089C0284604F07BFBC9E7DC85010834860108E4
S315080089D0B46B01080A4B186888B110B507E023F094
S315080089E00803A0F84230FFF7ADFF204634B1446BC8
S315080089F0B0F8423013F0080FF7D0F0E710BD704713
S31508008A00AC7F002008B50DF051F86FEA80406FEA98
S31508008A109040014B188008BD1000002010B5044690
S31508008A2090F83C30012B04D021460120FEF7BCFE0D
S31508008A3010BD034BD422034903480CF0A9FFF3E702
S31508008A40DC85010874860108B46B01082DE9F0413C
S31508008A5086B0064615460C4661B16EB196F83C706E
S31508008A60A7B914B1237D062B1AD0002D59D04FF083
S31508008A70000C2BE19A4CF0E79A4B40F2A9229A494E
S31508008A809A480CF085FF6FF00F007BE0954B40F29B
S31508008A90AB22974995480CF07BFF6FF0050071E013
S31508008AA094F81080B8F1000FDFD1226822F47C52C6
S31508008AB01204120C48F2FE018A42D6D18DF81430FF
S31508008AC02368009363680193A3680293E36803939A
S31508008AD0237C8DF810306946684609F08BF8024603
S31508008AE0E8B1009B4CF2FF00184048F2FE018842AC
S31508008AF00BD023F4E0431B041B0C40F2FF118B42FE
S31508008B0003D040F2FF218B4205D192F8E28008F1AA
S31508008B1001085FFA88F88DF810806C46A5E76C4660
S31508008B20A3E7FFF779FE0546002800F01C815CB133
S31508008B30237D062B00F0E280002C00F0F5802368E8
S31508008B40002B40F0F3801BB9227D337D9A4211D069
S31508008B500EB1237D33751CB1237D062B00F0E8800A
S31508008B60002C00F0FE80236833600023F360B360B6
S31508008B7073603374F5875F4B1A6872631E6004F07E
S31508008B809FFD002006B0BDE8F08100201A7D062A68
S31508008B9014BF0021012188420FD05B6B002B00F027
S31508008BA09380D98FA942F8D1002CEED0227D062ACF
S31508008BB001D00020EAE70120E8E7002B00F0D68084
S31508008BC0062A23D0002B3AD01968002939D1012169
S31508008BD0002940F0CE80002C00F0CE80217D0629A9
S31508008BE031D0002C48D02168002947D1012100291D
S31508008BF040F0C580217D8A42CFD1062A40D0196827
S31508008C0022689142C9D16FF00700BBE74BB11968DA
S31508008C1049B9596869B9996869B9D96869B10021C2
S31508008C2002E0012100E000210029D4D06FF00700FE
S31508008C30A8E70021F8E70021F6E70121F4E701217A
S31508008C40C6E70021C4E74CB1216849B9616869B92A
S31508008C50A16869B9E16869B1002102E0012100E073
S31508008C6000210029C6D06FF007008BE70021F8E73E
S31508008C700021F6E70121F4E70121B8E70021B6E76C
S31508008C8019682268914205D00022002A85D06FF023
S31508008C90070077E759686268914201D00022F4E735
S31508008CA09968A268914201D00022EEE7D968E26885
S31508008CB0914201D00022E8E7197C227C914201D03A
S31508008CC00022E2E70122E0E70CF1010CBCF1030FF8
S31508008CD03FF72DAF084B53F82C301B685EE700BFF3
S31508008CE0D4A40108DC85010888860108B46B01084C
S31508008CF0A0860108B87F0020A88C01084CB123681B
S31508008D004BB9636863B9A36863B9E36823B1012300
S31508008D1002E0002300E00123002B7FF419AF13E7DC
S31508008D200123F9E70123F7E700230CE701230AE704
S31508008D30234674B1226832606BB16268726063B1AF
S31508008D40A268B2605BB1E268F26003B1277C37744F
S31508008D5010E70022EFE70022F0E70022F1E7002201
S31508008D60F2E7002300E76FF001000BE76FF007005A
S31508008D7008E76FF0070005E76FF0070002E76FF0F6
S31508008D800700FFE670B516460546002841D090F85C
S31508008D903C30002B48D1012B74D00220FEF7EAFCA8
S31508008DA00446002872D0AB6B8363EB8FC38701231D
S31508008DB080F83C3095F83D3080F83D3095F83130F4
S31508008DC080F83130002380F8303095F8333080F859
S31508008DD0333095F8323080F832302B7D80F82C30DD
S31508008DE003752B7D062B2AD02B6803600023C360EE
S31508008DF0836043600374EB8F002B33D0254B1B68CD
S31508008E00AB4227D0002B2BD05A6BAA4226D013464A
S31508008E10F8E7214B40F25932204921480CF0B8FDB9
S31508008E202C466FF00F0329E01B4B40F25A321D49BE
S31508008E301B480CF0ADFD6FF00E0300241EE02B68F6
S31508008E4003606B684360AB688360EB68C3602B7C28
S31508008E500374D0E75A6B0F4B1A6001E06A6B5A63CA
S31508008E6000236B632846FFF7D9FD0F4B23640F4B8E
S31508008E701A6862631C6004F023FC002306B1337091
S31508008E80204670BD04466FF00803F7E74FF0FF333E
S31508008E90F4E700BFB87F0020DC850108C886010812
S31508008EA0B46B0108F886010895940008B47F002081
S31508008EB008B50022FFF766FF08BD000038B504466E
S31508008EC098B1E56CB4F850106818626DB4F85A3069
S31508008ED0B3F5866F94BFD31802F58663C31A002BC1
S31508008EE00BDBA4F85210801A38BD0F4B40F2A6329D
S31508008EF00E490F480CF04CFDE3E7AB1A002B04DDD6
S31508008F000023A4F852300020EEE7551BB5F5803F44
S31508008F1002D2A4F85250F6E7034B40F2B63205499E
S31508008F2003480CF035FDF4E7DC85010830870108B5
S31508008F30B46B01085487010838B5C8B10C46054614
S31508008F4090F83C30012B1BD0B5F85030191989B26E
S31508008F50B1F5066F01D88B421AD94FF40663A5F806
S31508008F6050302846FFF7AAFFB0F5067F13D238BD62
S31508008F700E4B40F2CF320E490E480CF009FDF6E7CB
S31508008F800A4B40F2D2320C490A480CF001FDDBE7E5
S31508008F90A5F85010E5E7B5F8423043F00203A5F806
S31508008FA04230284604F08AF8E1E700BFDC8501086C
S31508008FB070870108B46B01088887010850B110B59D
S31508008FC00446406808B1FFF793F821460320FEF7E8
S31508008FD0EBFB10BD704738B110B50468FFF7EEFF1C
S31508008FE02046002CF9D110BD7047000008B510B115
S31508008FF080F83D1008BD044B4FF4CE62034904487F
S315080090000CF0C6FCF6E700BFDC850108B08701084E
S31508009010B46B010838B5054698B10320FEF7AAFBDC
S31508009020044660B12B686868A968EA6823606060CE
S31508009030A160E2602B6923616068FFF7C5F92046E5
S3150800904038BD044B40F28262034904480CF0A0FC88
S31508009050E3E700BFDC850108CC870108B46B01088B
S3150800906000B181637047000088B138B50C460546E3
S3150800907090F83C30012B02D0C5F8AC4038BD044B03
S3150800908040F2DF72034904480CF082FCF4E77047AB
S31508009090DC850108E8870108B46B010888B138B592
S315080090A00C46054690F83C30012B02D0C5F8A8407E
S315080090B038BD044B40F2F372034904480CF068FCCF
S315080090C0F4E77047DC85010810880108B46B0108CD
S315080090D088B138B50C46054690F83C30012B02D0CD
S315080090E0C5F8B84038BD044B40F60D02034904489C
S315080090F00CF04EFCF4E77047DC8501083888010857
S31508009100B46B010818B190F83C20012A00D07047CA
S315080091100164FCE770B558B10D461446064690F84A
S315080091203C30012B0CD0C6F8B45086F8454070BDCB
S31508009130074B40F63D02074907480CF029FCF6E7BD
S31508009140034B40F63E02054903480CF021FCEAE7CA
S31508009150DC85010860880108B46B01087888010875
S3150800916008B530B1074B1868074A126810441860EA
S3150800917008BD064B40F6AF02054906480CF008FC48
S31508009180F0E700BF0C000020B07F0020DC85010856
S3150800919098880108B46B010870B504460D46164652
S315080091A0AAB116B1337D062B19D075B1B5F8D4001E
S315080091B058B1CEB1337D062B18D02823984217D93B
S315080091C0C01A80B2844228BF0446204670BD094BA7
S315080091D040F6C502084909480CF0DAFBE1E72946DA
S315080091E030460CF07DF9E3E72823E7E73C23E5E77B
S315080091F00020E7E7DC850108B4880108B46B01089C
S3150800920010B50446D0F89C0020B1FFF7E4FE002311
S31508009210C4F89C3010BD000010B548B3044690F859
S315080092203C3023B30A2B22D0012B20D0D0F8A00043
S3150800923020B1FEF75DFF0023C4F8A030D4F89C30B7
S3150800924013B12046FFF7DCFF4FF6FF73A4F858303A
S31508009250D4F89400FFF7BFFED4F89800FFF7BBFEDA
S315080092600023C4F89430C4F89830A4F8903010BDA0
S31508009270034B40F65102034903480CF089FBF6E715
S31508009280DC850108DC880108B46B010838B5054699
S315080092900C4649B185B12B68A34215D0CBB15A6BA0
S315080092A0A24214D01346F9E7294B40F6830229490E
S315080092B029480CF06DFBEDE7254B40F6840227495B
S315080092C025480CF065FBE6E75B6B2B6001E0626BFB
S315080092D05A63002363632046FFF79EFF94F83C30E9
S315080092E00A2B06D0012B04D0B4F8423013F0010F34
S315080092F026D194F83C30012B1DD0D4F8943033B1E4
S31508009300134B40F69302164913480CF041FBD4F868
S31508009310983033B10E4B40F6940212490E480CF0C1
S3150800932037FBD4F89C3033B1094B40F696020E4908
S3150800933009480CF02DFB002384F83C30E38738BD40
S3150800934043F00203A4F84230204603F0B7FED0E704
S31508009350DC850108F8880108B46B0108148901083E
S31508009360348901084C890108688901082DE9F04704
S3150800937084B008B30D46044690F83C30012B23D040
S3150800938094F83C300A2B27D0D4F87880D4F84C903F
S31508009390D4F8B860A76B002B4AD1B4F83EA0BAF14E
S315080093A0000F4FD0304B1B68A3421DD013B35A6B26
S315080093B0A2421DD01346F9E72C4B40F23D222C4918
S315080093C02C480CF0E5FA30E0284B4FF410722A4985
S315080093D028480CF0DDFAD3E721462848FFF756FF60
S315080093E02046FFF71BFB20E05A6B1F4B1A6001E073
S315080093F0626B5A6300256563AA46D4F8980008B1DB
S31508009400FFF7E9FDD4F8940008B1FFF7E4FDD4F8B6
S315080094109C0008B1FFF7DFFDB5B92046FFF7FEFA55
S315080094201EB16FF00C013846B04704B0BDE8F087AE
S31508009430B4F83EA021461248FFF728FF114B012237
S315080094401A70DAE70025D8E704F11803B4F84020C3
S315080094500292CDF804A0009323464A464146204688
S3150800946003F0A2FDD9E700BFB87F0020DC8501081C
S3150800947080890108B46B01089C890108BC7F00201B
S31508009480AC7F0020A87F002008B50121FFF76EFFFA
S3150800949008BD000010B50C4629B12046FFF7F4FFB9
S315080094A06FF00C0010BD044B40F20F32034904481C
S315080094B00CF06EFAF1E700BFDC850108D0890108D7
S315080094C0B46B010810B50A4B1B680024204600E05F
S315080094D05B6B43B1996C074A1268521AA242F7D3DA
S315080094E014461846F4E708B1FFF7CEFF10BD00BFD3
S315080094F0BC7F0020B07F002010F0800F01D108B992
