S02300006F70656E626C745F646973636F766572795F73746D3332663430372E73726563BD
S3150800000000000220490C0008790B00087B0B000849
S315080000107D0B00087F0B0008810B0008000000001C
S31508000020000000000000000000000000830B00082C
S31508000030850B000800000000870B0008890B0008E4
S31508000040990C0008990C0008990C0008990C0008EE
S31508000050990C0008990C0008990C0008990C0008DE
S31508000060990C0008990C0008990C0008990C0008CE
S31508000070990C0008990C0008990C0008990C0008BE
S31508000080990C0008990C0008990C0008990C0008AE
S31508000090990C0008990C0008990C0008990C00089E
S315080000A0990C0008990C0008990C0008990C00088E
S315080000B0990C0008990C0008990C0008990C00087E
S315080000C0990C0008990C0008990C0008990C00086E
S315080000D0990C0008990C0008990C0008990C00085E
S315080000E0990C0008990C0008990C0008990C00084E
S315080000F0990C0008990C0008990C0008990C00083E
S31508000100990C0008990C0008990C0008990C00082D
S31508000110990C0008990C0008990C0008990C00081D
S31508000120990C0008990C0008990C0008990C00080D
S31508000130990C0008990C0008990C0008990C0008FD
S31508000140990C0008990C0008990C0008990C0008ED
S31508000150990C0008990C0008990C0008990C0008DD
S31508000160990C0008990C0008990C0008990C0008CD
S31508000170990C0008990C0008990C0008000000006A
S30D08000180990C0008990C00080F
S3150800019010B5054C237833B9044B13B10448AFF3B3
S315080001A000800123237010BDF0010020000000002C
S315080001B0A05C010808B5034B1BB103490348AFF31C
S315080001C0008008BD00000000F4010020A05C0108C2
S315080001D0034613F8012B002AFBD1181A0138704779
S315080001E001F0FF01102A2BDB10F0070F08D010F8DA
S315080001F0013B013A8B422DD010F0070F42B3F6D1DE
S31508000200F0B441EA012141EA014122F007047FF0F6
S3150800021000070023F0E80256083C85EA010586EA4D
S31508000220010685FA47F5A3FA87F586FA47F6A5FA89
S3150800023087F68EB9EED1F0BC01F0FF0102F0070295
S3150800024032B110F8013B013A83EA010313B1F8D140
S315080002500020704701387047002D06BF3546033821
S31508000260073815F0010F07D1013015F4807F02BF5A
S31508000270013015F4C03F0130F0BC0138704700BFAB
S3150800028053B94AB9002908BF00281CBF4FF0FF31EF
S315080002904FF0FF3000F072B9ADF1080C6DE904CEED
S315080002A000F006F8DDF804E0DDE9022304B0704743
S315080002B02DE9F047089E04468846002B4BD18A4212
S315080002C0154667D9B2FA82F24AB1C2F1200701FA95
S315080002D002F320FA07F7954047EA030894404FEAE5
S315080002E0154E230CB8FBFEF71FFA85FC0EFB178884
S315080002F043EA084307FB0CF1994209D9EB1807F1C1
S31508000300FF3080F01B81994240F21881023F2B444E
S315080003105B1AA4B2B3FBFEF00EFB103344EA0344A7
S3150800032000FB0CFCA44509D92C1900F1FF3380F019
S315080003300781A44540F2048102382C4440EA07406C
S31508000340A4EB0C0400271EB1D4400023C6E90043E1
S315080003503946BDE8F0878B4209D9002E00F0EB80BC
S315080003600027C6E9000138463946BDE8F087B3FAE2
S3150800037083F7002F47D18B4202D3824200F2FA80DC
S31508000380841A61EB030301209846002EE0D0C6E9E3
S315080003900048DDE702B9FFDEB2FA82F2002A40F031
S315080003A08F80491B4FEA154E1FFA85F80127B1FBC6
S315080003B0FEFC230C0EFB1C1143EA014308FB0CF15F
S315080003C0994207D9EB180CF1FF3002D2994200F294
S315080003D0CD808446591AA3B2B1FBFEF00EFB101469
S315080003E043EA044408FB00F8A04507D92C1900F194
S315080003F0FF3302D2A04500F2B6801846A4EB0804E3
S3150800040040EA0C409FE7C7F1200CBB4022FA0CFEDD
S315080004104EEA030E01FA07F420FA0CF521FA0CF35A
S315080004204FEA1E482543B3FBF8F92C0C08FB193391
S315080004301FFA8EFA44EA034309FB0AF49C4202FABD
S3150800044007F200FA07F10BD91EEB030309F1FF3097
S3150800045080F087809C4240F28480A9F102097344A7
S315080004601B1BADB2B3FBF8F008FB103345EA034497
S3150800047000FB0AFAA24508D91EEB040400F1FF3373
S315080004806BD2A24569D90238744440EA0940A0FBF8
S315080004900289A4EB0A044C45C2464B4654D351D0B4
S315080004A0002E69D0B1EB0A0564EB030404FA0CFCD0
S315080004B0FD40FC404CEA0505C6E90054002747E71D
S315080004C0C2F1200320FA03F7954001FA02F021FA57
S315080004D003F34FEA154E3843010CB3FBFEF71FFA38
S315080004E085F80EFB173341EA034107FB08F38B42F5
S315080004F004FA02F407D9691807F1FF3C2FD28B4298
S315080005002DD9023F2944CB1A81B2B3FBFEF00EFB6C
S31508000510103341EA034100FB08F38B4207D96918F7
S3150800052000F1FF3C17D28B4215D902382944C91A63
S3150800053040EA07473BE73746304609E70746E7E616
S315080005401846FBE64145ABD2B8EB020A69EB0E0248
S3150800055001381346A4E76046E9E7184695E7674673
S31508000560D1E781467CE702382C4447E7ACF1020C18
S315080005702B442FE7384608E73746E9E6704700BFB9
S3150800058008B503F075FF08BD08B503F081FF08BD7F
S3150800059008B5054B1B6913F0010F01D0002008BDF3
S315080005A000F0E8F80120FAE70000024008B56420E8
S315080005B000F0ACF808BD08B500F0AEF808BD0000BC
S315080005C000B5C7B04FF48C720021684614F031FCB0
S315080005D06946094806F0B8FC40B9009B53B19DF836
S315080005E0083013F0100F02D1012000E0002047B0B8
S315080005F05DF804FB0020FAE7C85C0108004870476C
S31508000600C85C010808B50748002380F828320A2282
S31508000610054906F0FFF818B9024B012283F828228B
S3150800062008BD00BF0C020020B85C010810B50D4BD0
S3150800063093F82832012B10D003F0C6FE00F16404AB
S31508000640094B1B6813F0400F03D103F0BDFEA0420F
S31508000650F6D9064806F0A2FC10BD024806F0A6FB2D
S31508000660EAE700BF0C02002000140140C85C01083C
S3150800067008B5054B93F82832012B00D008BD02486F
S3150800068006F094FBFAE700BF0C02002038B50546D1
S31508000690134B93F82832012B0CD1114906F006FDAD
S315080006A0002807DA0E48002380F8283206F07EFB79
S315080006B000E001352B788BB10A4A536003F084FEBB
S315080006C000F10A04074B1B6813F0800FF1D103F001
S315080006D067FF03F079FEA042F4D9EAE738BD00BF08
S315080006E00C0200200014014010F0100F01D0552311
S315080006F00B7001207047102801D0002070470B7836
S31508000700542B01D00020704701207047014B1880F8
S31508000710704700BF3804002008B503F055FE114B9A
S315080007201B68984212D3104B1B7883B90E4B0122D3
S315080007301A7000224FF400510C4801F04FFB03F0E9
S3150800074043FE0B4B1B881844064B186008BD064B26
S3150800075000221A7001224FF40051044801F03EFBB2
S31508000760EDE700BF3C0400203A040020000C0240DC
S315080007703804002008B501224FF40051014801F061
S315080007802DFB08BD000C02407047704770470000FB
S3150800079070B58CB00024089409940A940B94284BDD
S315080007A01A6B42F004021A631A6B02F004020592ED
S315080007B0059A1A6B42F080021A631A6B02F08002DD
S315080007C00492049A1A6B42F001021A631A6B02F039
S315080007D001020392039A1A6B42F002021A631A6B19
S315080007E002F002020292029A1A6B42F008021A6397
S315080007F01B6B03F008030193019B12484FF4005347
S315080008008361114E4FF07042B26106930125079538
S3150800081006A902F04DF9069507940A9406A90B480D
S3150800082002F046F94FF47043069307950894099425
S315080008300A9406A9304602F03BF90CB070BD00BF19
S315080008400038024000080240000C02400000024046
S3150800085010B590B0002409940A940B940C940D9446
S315080008600E940F94069407941D4B5A6C42F020027E
S315080008705A645A6C02F020020292029A1A6B42F0EB
S3150800088004021A631B6B03F004030193019BC02344
S31508000890039302230493032305930823089303A9C8
S315080008A0104802F005F94FF4E13309930A940B94C2
S315080008B00C940C230D930E940F940B4C09A9204607
S315080008C002F0DEFD236923F490432361636923F074
S315080008D02A036361E36843F40053E36010B010BD74
S315080008E000380240000802400014014008B52E4AAC
S315080008F0136823F00F0343F0050313602A4B1B68A4
S3150800090003F00F03052BF9D1284A136843F48043F3
S31508000910136002F5E432136823F0F80343F080030A
S315080009201360136843F001031360214B1B6813F02F
S31508000930020FFAD01E4A51681E4B0B4043F4285347
S3150800094043F008035360536823F440335360136835
S3150800095043F080731360164B1B6813F0007FFAD0C0
S31508000960134B9A6822F0F0029A609A6822F4E052D1
S3150800097042F4A0529A609A6822F4604242F4004215
S315080009809A609A6822F0030242F002029A60084BC3
S315080009909B6803F00C03082BF9D1074802F03AFECE
S315080009A0002000F091F908BD003C024000700040AC
S315080009B0003802400080BFFF007A030A08B500F03D
S315080009C0A9F9FFF793FFFFF7E3FEFFF741FF02F0F0
S315080009D027FEFFF7D5FD02F06BFEFFF7D5FDFAE718
S315080009E04FF06043D3F8803E13F0010F11D04FF05B
S315080009F06043D3F8003E13F0010F01D1704700BFE2
S31508000A004FF060431B68002BF9D0C3B24FF0604229
S31508000A101370704782B0002100910B4B5A6C42F458
S31508000A2080425A645A6C02F480420092009A0191FC
S31508000A301A6C42F080521A641B6C03F080530193BF
S31508000A40019B02B0704700BF00380240F0B589B07C
S31508000A500023039304930593069307930268204B98
S31508000A609A4201D009B0F0BD0024009403F58633FC
S31508000A705A6C42F400625A645A6C02F4006200929C
S31508000A80009A01941A6B42F004021A631A6B02F078
S31508000A9004020192019A02941A6B42F008021A6340
S31508000AA01B6B03F008030293029B4FF4F85303935E
S31508000AB002270497032606960C2507950DEB0501D4
S31508000AC0084801F0A7F804230393049705940696AB
S31508000AD007950DEB0501044801F09CF8C2E700BF35
S31508000AE0002C014000080240000C024008B502F044
S31508000AF075F81B4801F040FF1A4801F03DFF1A48F7
S31508000B0001F03AFF194801F037FF194B5A6C22F4E5
S31508000B1000625A641A6C22F080621A641A6C22F017
S31508000B2000721A641349CA6822F40052CA605A6CE1
S31508000B3022F020025A641A6B22F004021A631A6B16
S31508000B4022F002021A631A6B22F001021A631A6C67
S31508000B5022F080521A645A6C22F480425A6408BD04
S31508000B60000C024000080240000402400000024057
S31508000B7000380240001401407047FEE7FEE7FEE732
S31508000B80FEE770477047704708B500F0DDF808BD06
S31508000B9070B50D461646002404E0AFF300802870B1
S31508000BA001340135B442F8DB304670BD70B51646DF
S31508000BB0002405E04D1C0878FFF712FF013429468A
S31508000BC0B442F7DB304670BD4FF0FF3070474FF444
S31508000BD000534B6000207047012070470020704783
S31508000BE010B403460C4A0D490D48006850B10C482C
S31508000BF000680344521A934208D8094A13605DF8FC
S31508000C00044B70470648074C0460F0E7064B0C2275
S31508000C101A604FF0FF30F2E70000022000080000DB
S31508000C2040040020B08A0020A88A0020054BD3F88B
S31508000C30882042F47002C3F888204FF000629A6058
S31508000C40704700BF00ED00E0DFF834D0002103E074
S31508000C500C4B5B58435004310B480C4B42189A42D4
S31508000C60F6D30B4A02E0002342F8043B094B9A42AA
S31508000C70F9D3FFF7DBFF14F065F8FFF79FFE70471F
S31508000C8000000220508F010800000020F00100201B
S31508000C90F0010020AC8A0020FEE7000010B5094BE1
S31508000CA04FF0FF321A6200241C625A625C621A61B3
S31508000CB01C615A615C619A619C61FFF717FF2046C7
S31508000CC010BD00BF0038024010B504460E4B187818
S31508000CD04FF47A73B3FBF0F30C4A1068B0FBF3F0E9
S31508000CE000F098F868B90F2C01D901200AE0002213
S31508000CF021464FF0FF3000F059F8054B1C600020E4
S31508000D0000E0012010BD00BF040000200000002004
S31508000D100800002008B50B4B1A6842F400721A60E6
S31508000D201A6842F480621A601A6842F480721A607D
S31508000D30032000F029F80020FFF7C6FFFFF76AFE38
S31508000D40002008BD003C0240034A1168034B1B788B
S31508000D500B441360704700BF981900200400002058
S31508000D6038B5044603F038FB0546B4F1FF3F02D018
S31508000D70044B1B781C4403F02FFB401BA042FAD3FC
S31508000D8038BD00BF04000020074AD36823F4E06397
S31508000D901B041B0C000200F4E060184340F0BF601F
S31508000DA040F40030D060704700ED00E030B4174BD7
S31508000DB0DB68C3F30223C3F10704042C28BF042409
S31508000DC01D1D062D18D9033B4FF0FF3505FA04F40F
S31508000DD021EA0401994005FA03F322EA03031943B9
S31508000DE000280BDB0901C9B200F1604000F561403B
S31508000DF080F8001330BC70470023E5E700F00F00C9
S31508000E000901C9B2024B1954F4E700BF00ED00E02E
S31508000E1014ED00E00138B0F1807F0AD2064B586025
S31508000E20064AF02182F823100020986007221A60EB
S31508000E3070470120704700BF10E000E000ED00E0B9
S31508000E405079137943EA002307480B50D0789378F2
S31508000E501B0443EA0063507843EA002312781343DD
S31508000E60024A8B50704700BF4080024044800240CF
S31508000E70016841F218028B5843F400538B507047AF
S31508000E80016841F218028B5823F400538B507047BF
S31508000E90016841F218028B5843F002038B507047E1
S31508000EA0016841F218028B5823F002038B507047F1
S31508000EB082B0084B1B68084AA2FB03235B0A00FBA7
S31508000EC003F0019000BF019B5A1E0192002BF9D135
S31508000ED002B0704700000020D34D621010B582B0F2
S31508000EE00446002301930268136843F0080313605D
S31508000EF003681B6801930120FFF7DAFF2368019A4C
S31508000F001A6002B010BD10B582B0044600230193E2
S31508000F100268136843F00403136003681B680193AF
S31508000F200120FFF7C5FF2368019A1A6002B010BDB9
S31508000F3030B583B0054600230193026841F21804D0
S31508000F40135943F48013135103681B590193012065
S31508000F50FFF7AEFF2B68019A1A5103B030BD10B5E2
S31508000F6082B00446002301930268136823F0040341
S31508000F70136003681B6801930120FFF799FF236834
S31508000F80019A1A6002B010BD10B582B0044600235B
S31508000F9001930268136823F00803136003681B684B
S31508000FA001930120FFF784FF2368019A1A6002B0B3
S31508000FB010BD000070B59EB0044629B14FF4006319
S31508000FC0C3604FF480438360E369002B6AD14FF412
S31508000FD08063079321680B68394A1A40A368E0685A
S31508000FE003430798034343F4007313430B602368D2
S31508000FF01D680120FFF7B4FE23681D6023684022A0
S315080010005A6023685D680120FFF7AAFE23685D60C1
S31508001010236800259D602368DD602268936923F0B4
S31508001020BE031B041B0C43F08003936123689E696F
S315080010300120FFF795FE23689E612368DD6123681A
S31508001040DD690120FFF78CFE2368DD61226841F225
S31508001050180551591B4B0B4043F0087343F0040322
S31508001060535123685E590120FFF77AFE23685E51C3
S31508001070236803F58053144A1A60236803F58053DE
S315080010801D680120FFF76CFE236803F580531D6079
S31508001090A369012B09D0626900212046FFF7D0FE1B
S315080010A01EB070BD0023079394E7216841F21C0225
S315080010B08B5843F4803343F040038B50EBE700BF73
S315080010C00F8120FF233FDEF88020C102F0B490F89C
S315080010D04540012C31D0012480F84540022480F88F
S315080010E04440C162002401E0F96001349C4217D2F1
S315080010F065014F194FF480164E5140F2F45606FB1F
S315080011000426BE60C6691EB94E5946F440064E51BD
S315080011105D1EA542E8D9651C01EB4515FD60E4E7AF
S31508001120026841F21003D150012380F844300023AD
S3150800113080F845301846F0BC70470220FBE7F0B44B
S3150800114090F84540012C2ED0012480F84540022411
S3150800115080F844408162002401E0E96001349C4241
S3150800116014D266018D194FF000478F5144F2F45698
S315080011706E6040F2F45606FB0426AE605E1EA6427A
S31508001180EBD9661C01EB4616EE60E7E7026841F20A
S315080011900C03D150012380F84430002380F84530F1
S315080011A01846F0BC70470220FBE7000090F845306F
S315080011B0012B00F08580012380F84530022380F852
S315080011C04430B1B1C36A1A68002A1ADB30B440F257
S315080011D0F45291421DD93B4AA2FB0142920A40F2BF
S315080011E0F45404FB121404B10132012A11D000236D
S315080011F047E0012380F84430002280F8452018464D
S315080012007047122380F84430002380F845300120C7
S3150800121070471A6842F040521A60C36AC1F30C015B
S315080012205960C26A136843F000431360C36ADB68F7
S31508001230C362036841F214029A5812F0040F08D0E8
S3150800124041F2140204219950026841F20403002174
S31508001250D150012380F84430002380F845301846E1
S3150800126030BC7047C56A2C6844F080542C6011E085
S31508001270C56A2C6844F000442C60C46AE468C462F9
S3150800128001339A42D5D9C56A2C6824F040542C609B
S31508001290002BE7D0C46A40F2F4556560541E9C42A0
S315080012A0E6D1C56A2C6844F000542C60064C04FB51
S315080012B0021404F2F454C56AC4F30C046C60D7E74C
S315080012C0022070470BB002AC0CFAFFFF90F84530CD
S315080012D0012B40D0012380F84530022380F84430A2
S315080012E0836A1A68002A28DB1A6812F4807F19D0E4
S315080012F0826B01328263012A12D043631A68C2F3F1
S315080013000D42043AC263026B92680264DB68836228
S31508001310012380F84430002380F84530184670478A
S315080013200363EAE71A6812F4007F0ED0036300220B
S31508001330426301228263DB688362012380F84430BA
S31508001340002280F8452018467047826B0132826376
S31508001350DB688362F1E702207047F8B590F84430FD
S31508001360DBB2822B33D016460546822380F84430FA
S315080013700268136903F01C03048AE402A4B2234337
S315080013808C0104F4F8641C4344F00104146103F06E
S3150800139023F8074614F0010F10D003F01DF8C01B00
S315080013A0B0F5803F02D22B681C69F3E7012385F864
S315080013B04430002385F84530032007E02B685B6935
S315080013C09BB23360012385F844300020F8BD022023
S315080013D0FCE790F84430DBB2422B32D070B50546B4
S315080013E0422380F844300068036903F01C032C8A02
S315080013F0E402A4B223438C0104F4F8641C4344F0C9
S31508001400030492B242612B681C6102F0E5FF0646AE
S3150800141014F0010F10D002F0DFFF801BB0F5803FFB
S3150800142002D22B681C69F3E7012385F844300023B0
S3150800143085F84530032003E0012385F84430002071
S3150800144070BD02207047000070B582B0002301937A
S31508001450002800F00E81044690F84430002B34D062
S3150800146000230093844B5A6C42F480425A645B6CA6
S3150800147003F480430093009B804B5A6822F40002D1
S315080014805A605A68216A0A435A60236803F58053EA
S315080014901A6842F001021A6002F09EFF05462368A8
S315080014A003F58052126812F0010F13D002F094FF70
S315080014B0401BB0F5FA7FF2D9032584F8445000237F
S315080014C084F84530284602B070BD80F8453002F0F1
S315080014D049FAC5E71D6925F01C0500F085FC684B2F
S315080014E00344684A934255D845F0080523681D61A8
S315080014F04FF4004200212046FFF76BFF05460028FF
S3150800150060D1FF20FFF72CFC6368002B00F0918068
S3150800151002F062FF064601AA01212046FFF71DFFD9
S3150800152002F05AFF801B41F28833984252D8019B39
S3150800153013F0040FEFD04FF4805200212046FFF736
S3150800154048FF002852D102F047FF064601AA0121AA
S315080015502046FFF702FF02F03FFF801B41F2883367
S3150800156098424BD8019B13F0200FEFD001AA1F21F8
S315080015702046FFF7F2FE00284CD1019B13F0100F0E
S3150800158050D04FF40062E26013F0040F4DD00023F0
S31508001590A3605EE03C4B03443C4A934202D845F0C4
S315080015A00C05A3E73A4B03443A4A93429ED93A4B71
S315080015B003443A4A934202D845F0040596E745F0B3
S315080015C0100593E701212046FFF7F4FC012584F86E
S315080015D0445077E701212046FFF7ECFC012384F805
S315080015E04430002384F8453003256BE70121204663
S315080015F0FFF7E0FC012584F8445063E70121204603
S31508001600FFF7D8FC012384F84430002384F84530DA
S31508001610032557E701212046FFF7CCFC012584F86E
S3150800162044504FE70022E260AEE74FF48043A360E0
S315080016300FE0E268C2F3CF02A368C3F34F031A436D
S3150800164000212046FFF7C5FE58B940F6FF70FFF7A0
S3150800165087FB00212046FFF7ADFC012384F84430C0
S3150800166030E701212046FFF7A5FC012584F8445000
S3150800167028E7012526E700BF003802400038014068
S3150800168000D3CEFEBFE1E40040F1E9FD3F787D01DD
S3150800169000796CFCFF596202001F0AFA7FF0FA0211
S315080016A038B590F84530012B1AD00446012580F844
S315080016B04550022380F84430FFF710FC2046FFF718
S315080016C022FC2046FFF734FC2046FFF7D1FB2046D4
S315080016D0FFF7DEFB84F84450002084F8450038BD47
S315080016E00220FCE738B590F84530012B1AD004469D
S315080016F0012580F84550022380F84430FFF7C0FBE7
S315080017002046FFF7CDFB2046FFF729FC2046FFF7CA
S315080017100FFC2046FFF738FC84F84450002084F874
S31508001720450038BD0220FCE790F84530012B00F053
S315080017308E8070B50C460546012380F84530022395
S3150800174080F84430002971D002681368414919406D
S31508001750236860680343A0680343E0680343A868F6
S3150800176003432069034360690343E8680343A069A8
S315080017700343E0690343206A0343606A0343A06A9C
S3150800178003430B4313602B681E680120FFF7E8FA32
S315080017902B681E60E36A226B1343626B1343A26BCA
S315080017A01343E26B1343226C1343626C1343A16C1D
S315080017B02A680B4353602B685E680120FFF7D0FA4E
S315080017C02B685E602B68E26C9A602B68226DDA6083
S315080017D029688A6922F0BE021204120C606DA36D94
S315080017E043EA0043E06D0343206E0343606E034300
S315080017F0A06E034313438B612B689E690120FFF794
S31508001800AFFA2B689E61E36E216F2A680B43D3619A
S315080018102B68DC690120FFF7A3FA2B68DC6101233A
S3150800182085F84430002085F8450070BD01680A68CF
S3150800183022F490428368C068034313430B602B6805
S315080018401C680120FFF78CFA2B681C60E7E702206A
S31508001850704700BF0F8120FF10B40A490C6924F4B1
S3150800186040740C610C6944F440740C610C6944F0D2
S3150800187001040C610260BFF36F8F43605DF8044B8F
S31508001880704700BF003C0240074B1A6922F44072B9
S315080018901A611A6942F400721A611A6942F0010261
S315080018A01A610160704700BF003C0240074B1A6985
S315080018B022F440721A611A6942F480721A611A692E
S315080018C042F001021A610180704700BF003C0240E5
S315080018D0064B1A6922F440721A611A691A611A6962
S315080018E042F001021A610170704700BF003C0240D5
S315080018F0204BDB6813F0100F07D01F4AD36943F05B
S315080019001003D3611B4B1022DA601A4BDB6813F005
S31508001910200F07D0184AD36943F00803D361154B43
S315080019202022DA60134BDB6813F0400F07D0124A07
S31508001930D36943F00403D3610E4B4022DA600D4BA2
S31508001940DB6813F0800F07D00B4AD36943F0020314
S31508001950D361084B8022DA60064BDB6813F0020F6E
S3150800196007D0054AD36943F02003D361014B02220D
S31508001970DA607047003C02409C190020094B1B693D
S31508001980002B01DB00207047064B074A5A6002F11C
S3150800199088325A601B69002B01DB00207047012042
S315080019A0704700BF003C024023016745034A13699C
S315080019B043F0004313610020704700BF003C02401B
S315080019C038B50446154B0022DA6102F005FD0546D6
S315080019D0134BDB6813F4803F0AD0B4F1FF3FF7D00E
S315080019E0CCB102F0F9FC401BA042F1D903200DE06E
S315080019F00B4BDB6813F0010F02D0094B0122DA60AA
S31508001A00074BDB6813F0F20F01D1002038BDFFF752
S31508001A106FFF0120FAE70320F8E700BF9C190020B2
S31508001A20003C0240F8B51D4C247E012C34D01F46DC
S31508001A3016460D460446194B01221A764CF25030CA
S31508001A40FFF7BEFF014698B9BCB1012C1AD0022C8B
S31508001A501DD032463B462846FFF7FEFE4CF2503074
S31508001A60FFF7AEFF01460E4A136923F0010313611F
S31508001A700A4B00221A760846F8BDF1B22846FFF747
S31508001A8027FFEBE7B1B22846FFF710FFE6E7314636
S31508001A902846FFF7F9FEE1E70221ECE79C1900204A
S31508001AA0003C0240074B1A6922F440721A611A690F
S31508001AB042F004021A611A6942EA002040F48030B2
S31508001AC018617047003C024010B449B1012921D081
S31508001AD0022902D04FF4407403E04FF4007400E08A
S31508001AE000240E4B196921F4407119611A692243C1
S31508001AF01A611A6922F0F8021A611A6942EAC000E4
S31508001B0040F0020018611A6942F480321A615DF8E1
S31508001B10044B70474FF48074E3E700BF003C024073
S31508001B20164B1B6813F4007F10D0144B1A6822F466
S31508001B3000721A601A6842F400621A601A6822F47F
S31508001B4000621A601A6842F400721A600B4B1B682E
S31508001B5013F4806F10D0094B1A6822F480621A6059
S31508001B601A6842F480521A601A6822F480521A607F
S31508001B701A6842F480621A60704700BF003C02404F
S31508001B80F8B5224B1B7E012B3ED00E4604461F4B52
S31508001B9001221A764CF25030FFF712FF074670BB47
S31508001BA04FF0FF3333602368012B16D0A568E3682E
S31508001BB0A2681344AB4220D9217C2846FFF784FF4C
S31508001BC04CF25030FFF7FCFE114A136923F0FA0372
S31508001BD01361074680B90135E9E76168207CFFF79C
S31508001BE061FF4CF25030FFF7EBFE0746084A1369CF
S31508001BF023F00403136100E03560FFF791FF034B00
S31508001C0000221A763846F8BD0227FBE79C19002001
S31508001C10003C024000230F2B00F2D780F0B583B0BA
S31508001C2039E0072200E00022AA403A430234674D11
S31508001C3045F82420664A1468F24302EA04054F6808
S31508001C4017F4803F01D046EA0405614C25606468B4
S31508001C5002EA04054F6817F4003F01D046EA040576
S31508001C605B4C6560A46802EA04054F6817F4801F98
S31508001C7001D046EA0405564CA560E46822404D6842
S31508001C8015F4001F01D046EA0402514CE260013304
S31508001C900F2B00F2988001229A400C6804EA02068B
S31508001CA0B242F4D14C68651E012D03D9112C01D01E
S31508001CB0122C12D185685F000324BC4025EA04056E
S31508001CC0CC68BC402C438460456825EA02054C680C
S31508001CD0C4F300129A402A434260C4685F00032294
S31508001CE0BA40D24314408D68BD402543C5604C6850
S31508001CF0022C01D0122C13D1DD08083550F825E046
S31508001D0003F007044FEA840C0F2404FA0CF42EEAB5
S31508001D10040E0C6904FA0CF444EA0E0440F8254053
S31508001D20046822404C6804F00304BC402243026065
S31508001D304A6812F0805FAAD000220192254A546CA4
S31508001D4044F480445464526C02F480420192019A2D
S31508001D509C08A51C1D4A52F8257003F0030295003D
S31508001D600F22AA4027EA02071B4A90423FF45BAFBC
S31508001D7002F5806290421AD002F58062904218D02D
S31508001D8002F58062904216D002F58062904214D025
S31508001D9002F58062904212D002F58062904210D01D
S31508001DA002F5806290423FF43CAF08223CE70122EC
S31508001DB03AE7022238E7032236E7042234E7052207
S31508001DC032E7062230E703B0F0BD7047003801401D
S31508001DD0003C0140003802400000024012B90904E4
S31508001DE08161704781617047014B1868704700BF71
S31508001DF00000002070B582B00446002301930068F5
S31508001E0001F058FA064610B1304602B070BD206897
S31508001E1001F063FA38B90123A364A36C012B0BD034
S31508001E203546304614E00023A364206801F042FAE0
S31508001E300028F2D00646E7E70021206801F064FA98
S31508001E400028EDD04FF08056DEE7019B0133019361
S31508001E50019A4FF6FE739A4213D895B90021206865
S31508001E6001F052FAD8B91249206801F065FA054618
S31508001E70B8B90021206801F060F8C30FE5D01D4607
S31508001E80E3E7019A4FF6FE739A420DD810F0804F99
S31508001E9002D100236364B7E701236364B4E7064607
S31508001EA0B2E74FF08056AFE74FF08076ACE700BF59
S31508001EB0000010C12DE9F04188B004460F4602F033
S31508001EC08BFA06460023009301930821206801F047
S31508001ED047F9054618B1284608B0BDE8F081216DD6
S31508001EE00904206801F010FA05460028F3D14FF0DE
S31508001EF0FF330293082303933023049302230593A5
S31508001F00002306930123079302A9206801F016F916
S31508001F10206801F042FA05460028DCD1804605E033
S31508001F2002F05AFA801BB0F1FF3F43D02068426B9B
S31508001F3040F22A431A420AD1436B13F4001FEFD02A
S31508001F4000F0D2FF4DF8280008F10108E8E7436BD6
S31508001F5013F0080F25D1436B13F0020F24D1436BFE
S31508001F6013F0200F23D140F23A538363019A1302E8
S31508001F7003F47F0343EA0263110A01F47F410B432A
S31508001F8043EA12633B60009A130203F47F0343EAB1
S31508001F900263110A01F47F410B4343EA12637B6033
S31508001FA099E70825856396E70225856393E7202543
S31508001FB0856390E74FF000458DE710B582B004467B
S31508001FC0002100910191006800F0B7FF10F0007F32
S31508001FD016D169462046FFF76DFF034690B9019B67
S31508001FE013F4802F11D0216D0904206801F08CF9B3
S31508001FF0034638B90221206801F0B7F9034601E023
S315080020004FF40063184602B010BD4FF08063F9E73D
S3150800201010B582B00446002100910191006800F0D5
S315080020208CFF10F0007F16D169462046FFF742FF65
S31508002030034690B9019B13F4803F11D0216D090422
S31508002040206801F061F9034638B90021206801F0DB
S315080020508CF9034601E04FF40063184602B010BD40
S315080020604FF08063F9E770B581B10D460446016DFE
S315080020700904006801F0EBF9064608B1304670BD60
S315080020800021206800F059FF2860F7E74FF0006646
S31508002090F4E700002DE9F04786B004460D46904661
S315080020A01E4602F099F96DB1074694F83430DBB252
S315080020B0012B0DD0A36B43F00053A363012006B098
S315080020C0BDE8F087A36B43F00063A3630120F6E73E
S315080020D00023A36308EB0603E26D93421BD8032390
S315080020E084F8343023680022DA62636C012B01D04D
S315080020F04FEA48284FF40071206801F031F803468A
S3150800210078B122687C499163A06B1843A0630120CB
S3150800211084F83400D3E7A36B43F00073A36301206C
S31508002120CDE74FF0FF330093730201939023029398
S315080021300223039300230493012305936946206829
S3150800214000F0FCFF012E0CD90223236341462068C8
S3150800215001F036F88246BAF1000F0AD1DDF804908C
S315080021602FE0012323634146206801F011F88246D7
S31508002170F1E72368604A9A63A36B43EA0A03A363F9
S31508002180012084F834000023236398E7206800F0D0
S31508002190ABFE2870C0F307236B70C0F30743AB7020
S315080021A0000EE8700435A9F1040908F10108B8F130
S315080021B0070FEBD902F010F9C01B0E9B98420FD2FD
S315080021C073B12068426B40F22A331A4216D1436B28
S315080021D013F4004FEED0B9F1000FEBD0D046E6E786
S315080021E02368454A9A63A36B43F00043A36301231C
S315080021F084F8343000232363032060E7436B13F429
S31508002200807F08D0012E06D9636C032B03D001F01A
S315080022101FF8002837D123685A6B12F0080F3ED1F1
S315080022205A6B12F0020F46D15A6B12F0200F4ED19C
S315080022302068436B13F4001F55D0B9F1000F52D034
S3150800224000F052FE2870C0F307236B70C0F30743F3
S31508002250AB70000EE8700435A9F1040902F0BCF869
S31508002260C01B0E9B984201D2002BE1D12368224A5B
S315080022709A63A36B43F00043A363012084F83400F8
S31508002280002323631BE723681B499963A36B034356
S31508002290A363012084F83400002323630FE7164A5A
S315080022A09A63A36B43F00803A363012084F8340000
S315080022B00023236303E7104A9A63A36B43F00203E0
S315080022C0A363012084F8340000232363F7E60A4A4F
S315080022D09A63A36B43F02003A363012084F83400B8
S315080022E000232363EBE640F23A538363012384F821
S315080022F034300020E3E600BFFF0540002DE9F04733
S3150800230088B004460D4690461E4602F065F86DB143
S31508002310074694F83430DBB2012B0DD0A36B43F09B
S315080023200053A363012008B0BDE8F087A36B43F010
S315080023300063A3630120F6E70023A36308EB060303
S31508002340E26D93421BD8032384F8343023680022B5
S31508002350DA62636C012B01D04FEA48284FF400710A
S31508002360206800F0FDFE034678B12268674991634C
S31508002370A06B1843A063012084F83400D3E7A36B4D
S3150800238043F00073A3630120CDE74FF0FF330293B8
S315080023907302039390230493002305930693012362
S315080023A0079302A9206800F0C9FE012E0CD9202344
S315080023B023634146206800F033FF8246BAF1000FD6
S315080023C00AD1DDF80C9033E01023236341462068D8
S315080023D000F00EFF8246F1E723684C4A9A63A36B26
S315080023E043EA0A03A363012084F834000023236325
S315080023F099E72B786A7843EA0223AA7843EA0243E4
S31508002400EA7843EA026308A941F81C3D0435A9F1B4
S315080024100409206800F06BFD08F10108B8F1070F00
S31508002420E7D901F0D9FFC01B109B98420FD273B1B0
S315080024302068426B40F21A331A4216D1436B13F4E2
S31508002440804FEED0B9F1000FEBD0D046E6E723680F
S315080024502E4A9A63A36B43EA0A03A363012384F80B
S3150800246034300023236303205DE7436B13F4807F36
S3150800247007D0012E05D9636C032B02D000F0E8FEC5
S31508002480C0B923685A6B12F0080F1FD15A6B12F0A5
S31508002490020F27D15A6B12F0100F2FD01B4A9A63DE
S315080024A0A36B43F01003A363012084F834000023D0
S315080024B0236338E7236815499963A36B0343A3632A
S315080024C0012084F83400002323632CE70F4A9A631B
S315080024D0A36B43F00803A363012084F834000023A8
S315080024E0236320E7094A9A63A36B43F00203A363B5
S315080024F0012084F834000023236314E740F23A529B
S315080025009A63012384F8343000200CE7FF05400065
S3150800251010B4436E9B0F0B70436EC3F383634B700B
S3150800252090F8673003F003038B7090F86630CB7031
S3150800253090F865300B7190F864304B71836E1B0D03
S31508002540CB80B0F86A3003F00F030B72836EC3F3C7
S31508002550C0334B72836EC3F380338B72836EC3F3BF
S315080025604033CB72836EC3F300330B7300234B7374
S31508002570436C002B40F08880826E40F6FC7303EAB9
S315080025808203C26E43EA92730B61C36EC3F3C263DE
S315080025900B7590F86F3003F007034B75C36EC3F3E2
S315080025A042538B75C36EC3F38243CB75C36EC3F3B5
S315080025B0C2330B760B69013343650A7E02F00702C4
S315080025C0023203FA02F242650B7A03F00F04012382
S315080025D0A34083655B0A03FB02F3C3654FF40073EC
S315080025E00366C36EC3F380334B76C36EC3F3C61359
S315080025F08B76C36E03F07F03CB76036FDB0F0B7707
S31508002600036FC3F341734B77036FC3F382638B770F
S31508002610036FC3F38353CB77036FC3F3405381F838
S315080026202030002381F82130B0F8722002F0010230
S3150800263081F82220026FC2F3C03281F82320026F8C
S31508002640C2F3803281F82420026FC2F3403281F847
S315080026502520026FC2F3003281F82620026FC2F3EA
S31508002660812281F82720026FC2F3012281F82820EF
S31508002670026FC2F3460281F82920012281F82A2036
S3150800268018465DF8044B7047012B0BD003680E4AB9
S315080026909A63836B43F080538363012380F8343055
S315080026A01846EEE7836E1B0403F47C13B0F86E201D
S315080026B013430B610B6901339B024365C3654FF4F2
S315080026C00073836503668CE7FF05400070B590B01C
S315080026D004460123ADF81230006800F015FC002806
S315080026E06CD0636C032B45D1636C032B5DD1636C93
S315080026F0032B1DD0BDF8121021650904206800F0CF
S3150800270079FE054600285BD10021206800F015FCFB
S3150800271060660421206800F010FCA0660821206885
S3150800272000F00BFCE0660C21206800F006FC206730
S315080027300421206800F001FC000DE06405A920468C
S31508002740FFF7E6FE00283ED1226D1204002320681A
S3150800275000F098FD054698BB234653F8106B93E89E
S3150800276007008DE80700043494E80E00304600F0B0
S315080027709FFB25E0206800F028FE054600BB0021E7
S31508002780206800F0DAFB60670421206800F0D5FBBA
S31508002790A0670821206800F0D0FBE0670C212068BC
S315080027A000F0CBFBC4F880009EE70DF1120120680B
S315080027B000F035FE0546002899D001E04FF0806507
S315080027C0284610B070BD4FF08055F9E770B58AB04D
S315080027D005460023049305930693079308937623E7
S315080027E009930AAB13E907008DE8070004AB0ECB83
S315080027F0286800F05DFB18B1012420460AB070BDB8
S315080028000446104E00233360286800F075FB012348
S3150800281033602846FFF7EEFA034630B1012485F8FF
S315080028203440A86B1843A863E7E72846FFF74EFF2E
S3150800283003460028E1D0012485F83440A86B1843E4
S31508002840A863DAE7A0802542C0B110B5044690F81F
S3150800285034307BB1032384F834302046FFF7B6FFC3
S31508002860034670B90022A2632263012284F8342049
S31508002870184610BD0377FEF7E9F8EBE7012318467B
S3150800288070470123F4E7436C0B60836C4B60C36CA1
S315080028908B60036DCB60436D0B61836D4B61C36DBC
S315080028A08B61036ECB6100207047000030B58BB09A
S315080028B004460D46032380F83430436C032B1CD0A2
S315080028C0B1F5805F08D0B1F5006F0AD079B1836B96
S315080028D043F00063836314E0836B43F080538363A0
S315080028E00FE0FFF76AFBA36B1843A06309E0FFF745
S315080028F08FFBA36B1843A06303E0836B43F08053FD
S315080029008363A36B3BB12368104A9A63012084F85A
S3150800291034000BB030BD63680493A3680593E3687D
S315080029200693079563690893A36909930AAB13E9A4
S3150800293007008DE8070004AB0ECB206800F0B8FA54
S31508002940012384F834300020E3E700BFFF05400088
S3150800295010B582B0044602A9002341F8043DFFF7EA
S3150800296082FB18B10346A06B1843A0630198C0F315
S31508002970432002B010BD0000444B984219D0444B86
S31508002980984222D0434B98422BD0434B984234D09E
S31508002990424B98423DD0424B984246D0414B9842D2
S315080029A04FD0414B984258D0404B984261D00120B5
S315080029B0704703F560531A6942F001021A611A69F1
S315080029C022F001021A610020704703F550531A6974
S315080029D042F002021A611A6922F002021A61002004
S315080029E0704703F540531A6942F004021A611A69DE
S315080029F022F004021A610020704703F530531A6961
S31508002A0042F008021A611A6922F008021A610020C7
S31508002A10704703F520531A6942F010021A611A69C1
S31508002A2022F010021A610020704703F510531A6944
S31508002A3042F020021A611A6922F020021A61002067
S31508002A40704703F500531A6942F040021A611A6981
S31508002A5022F040021A610020704703F5E0531A6914
S31508002A6042F080021A611A6922F080021A61002077
S31508002A70704703F5C0531A6942F480721A611A69DD
S31508002A8022F480721A610020704700BF00000240DD
S31508002A900004024000080240000C024000100240F8
S31508002AA00014024000180240001C024000200240A8
S31508002AB0F0B40A6892FAA2F2B2FA82F22DE00E692E
S31508002AC0C46893FAA3F5B5FA85F56D00032707FAE6
S31508002AD005F524EA050493FAA3F5B5FA85F56D001C
S31508002AE006FA05F52C43C4604C68022C3FD04C68A6
S31508002AF0056893FAA3F6B6FA86F67600032707FA68
S31508002B0006F625EA060593FAA3F3B3FA83F35B0000
S31508002B1004FA03F32B43036001320B6833FA02F419
S31508002B2059D0012494402340F6D04C68013C012C2E
S31508002B30C5D88E68846893FAA3F5B5FA85F56D004D
S31508002B40032707FA05F524EA050493FAA3F5B5FA67
S31508002B5085F56D0006FA05F52C438460CD68446852
S31508002B6024EA030403FB05F52C434460A7E793FA1C
S31508002B70A3F4B4FA84F4072C15D84E69046A93FAB8
S31508002B80A3F5B5FA85F5AD000F2707FA05F524EA8A
S31508002B90050493FAA3F5B5FA85F5AD0006FA05F529
S31508002BA02C430462A3E74D69466A1C0A94FAA4F703
S31508002BB0B7FA87F7BF004FF00F0C0CFA07F726EAAB
S31508002BC0070694FAA4F4B4FA84F4A40005FA04F403
S31508002BD0344344628BE70020F0BC704782B0234A36
S31508002BE0136843F001031360204B1B6813F0020FB0
S31508002BF0FAD01E4B00229A601A680192019A22F0B6
S31508002C00867222F480320192019A22F08062019241
S31508002C10019A1A601A6822F0F80242F080021A60D5
S31508002C20124B1B6813F0007FFAD1104B104A5A60FA
S31508002C30104AC3F88420DA6822F4F852DA60DA68AF
S31508002C4022F40052DA60DA6842F41F02DA60DA68BF
S31508002C5042F40012DA605A6F22F001025A675A6F7C
S31508002C6042F080725A67002002B07047003802406E
S31508002C701030002400300020034B9B68C3F3031375
S31508002C80024AD35CD840704700380240E85C010825
S31508002C90034B9B68C3F38223024AD35CD840704730
S31508002CA000380240F85C0108034B9B68C3F34233C3
S31508002CB0024AD35CD840704700380240F85C0108E5
S31508002CC00F4B5B6803F4800323B90E4B082803D027
S31508002CD0002070470C4BF9E7094A506800F03F009E
S31508002CE0B3FBF0F35068C0F3881000FB03F0536899
S31508002CF0C3F3014301335B00B0FBF3F0704700BF39
S31508002D00003802400024F40000127A0008B5084B87
S31508002D109B6803F00C03042B07D0082B01D0054849
S31508002D2008BD0820FFF7CCFFFAE70348F8E700BF1D
S31508002D30003802400024F40000127A0010B5044658
S31508002D40FFF7E4FF2060FFF797FF6060FFF7A0FF3B
S31508002D50A0606068FFF7A8FFE06010BD0B4B1B681A
S31508002D600B4AA2FB03235A0A41F2883303FB02F3F8
S31508002D705A1E43B1416B134611F0800FF8D0C52394
S31508002D808363002070474FF0004070470000002022
S31508002D90D34D6210154B1B68154AA2FB03235A0A2A
S31508002DA041F2883303FB02F35A1EDBB1416B13462B
S31508002DB011F0450FF8D011F4006FF5D1436B13F0FD
S31508002DC0040F07D1436B13F0010F07D1C5238363A3
S31508002DD000207047042383631846704701238363E2
S31508002DE0184670474FF00040704700BF00000020AB
S31508002DF0D34D6210114B1B68114AA2FB03235A0AD2
S31508002E0041F2883303FB02F35A1E9BB1416B13460A
S31508002E1011F0450FF8D011F4006FF5D1436B13F09C
S31508002E20040F03D1C52383630020704704238363FB
S31508002E30184670474FF00040704700BF000000205A
S31508002E40D34D6210184B1B68184AA2FB03235A0A73
S31508002E5041F2883303FB02F35A1EFBB1416B13465A
S31508002E6011F0450FF8D011F4006FF5D1436B13F04C
S31508002E70040F0BD1436B13F0010F0BD1436B13F007
S31508002E80400F0ED0402383630020704704238363DA
S31508002E901846704701238363184670474FF0004071
S31508002EA070470020704700BF00000020D34D621015
S31508002EB084B010B402AC84E80E000B46039A1343A0
S31508002EC0049A1343059A1343069A1343079A13431E
S31508002ED0426822F4FD4222F07F0213434360002039
S31508002EE05DF8044B04B07047D0F8800070470B6853
S31508002EF0C0F880300020704708B50323036002201D
S31508002F00FDF72EFF002008BD006800F0030070479B
S31508002F100B6883604B688A681343CA6813430A6957
S31508002F201343C26822F47F6222F00F021343C36080
S31508002F30002070470069C0B2704714304058704787
S31508002F4038B5524B1B68524CA4FB03435B0A02FB81
S31508002F5003F2531E002A60D0446B1A4614F0450F3C
S31508002F60F7D014F4006FF4D1436B13F0040F07D1B4
S31508002F70436B13F0010F07D00123836318464EE015
S31508002F800423836318464AE00D460446C523836333
S31508002F90FFF7D0FFA84201D0012040E000212046DB
S31508002FA0FFF7CBFF3B4B0340D3B300283ADB10F0C7
S31508002FB0804F3AD110F0005F39D110F0805F38D1D8
S31508002FC010F0006F38D110F0806F38D110F0807F84
S31508002FD038D110F4000F38D110F4800F38D110F41E
S31508002FE0001F38D110F4801F38D110F4802F38D143
S31508002FF010F4003F38D110F4803F38D110F4004F58
S3150800300038D110F4804F38D110F4005F38D110F061
S31508003010080F38D04FF4000001E04FF0004038BDEB
S315080030200020FCE74FF00070F9E74020F7E7802022
S31508003030F5E74FF48070F2E74FF40070EFE74FF4CE
S315080030408060ECE74FF40060E9E74FF48050E6E76C
S315080030504FF40050E3E74FF48040E0E74FF40040B8
S31508003060DDE74FF40030DAE74FF48020D7E74FF476
S315080030700020D4E74FF48010D1E74FF40010CEE7D4
S315080030804FF48000CBE74FF48030C8E700000020FB
S31508003090D34D621008E0FFFD70B5264B1B68264C21
S315080030A0A4FB03435C0A41F2883303FB04F35C1E6A
S315080030B0B3B3456B234615F0450FF8D015F4006FEA
S315080030C0F5D1436B13F0040F07D1436B13F0010FCF
S315080030D007D001238363184624E004238363184634
S315080030E020E016460D460446FFF724FFA84201D005
S315080030F0012017E0C523A36300212046FFF71DFF23
S3150800310010F4604F08D010F4804F0CD110F4004F23
S315080031100CD04FF4805005E0000C3080002001E010
S315080031204FF0004070BD4FF40050FBE74FF480307D
S31508003130F8E700BF00000020D34D62100B68436219
S315080031404B6883628B68CA6813430A6913434A69E2
S315080031501343C26A22F0F7021343C3620020704782
S3150800316030B587B005460191102402944023039395
S31508003170002304934FF48063059301A9FFF7C8FE63
S3150800318041F2883221462846FFF7DAFE07B030BDFD
S3150800319030B587B005460191112402944023039364
S315080031A0002304934FF48063059301A9FFF7B0FE4B
S315080031B041F2883221462846FFF7C2FE07B030BDE5
S315080031C030B587B005460191122402944023039333
S315080031D0002304934FF48063059301A9FFF798FE33
S315080031E041F2883221462846FFF7AAFE07B030BDCD
S315080031F030B587B0054601911824029440230393FD
S31508003200002304934FF48063059301A9FFF780FE1A
S3150800321041F2883221462846FFF792FE07B030BDB4
S3150800322030B587B0054601911924029440230393CB
S31508003230002304934FF48063059301A9FFF768FE02
S3150800324041F2883221462846FFF77AFE07B030BD9C
S3150800325030B587B00546002301930C24029440221A
S31508003260039204934FF48063059301A9FFF750FE78
S31508003270034A21462846FFF763FE07B030BD00BF64
S3150800328000E1F50530B587B005460192072402949A
S3150800329040230393002304934FF48063059301A905
S315080032A0FFF736FE41F2883221462846FFF748FEE8
S315080032B007B030BD10B586B00446002301930293CB
S315080032C0039304934FF48063059301A9FFF720FE47
S315080032D02046FFF743FD06B010BD10B586B004467C
S315080032E04FF4D573019308230293402303930023D5
S315080032F004934FF48063059301A9FFF709FE20465E
S31508003300FFF7A0FD06B010BD30B587B005460191A0
S315080033103724029440230393002304934FF48063D5
S31508003320059301A9FFF7F4FD41F2883221462846A4
S31508003330FFF706FE07B030BD10B586B0044641F06B
S31508003340004141F4801101912923029340230393FC
S31508003350002304934FF48063059301A9FFF7D8FD72
S315080033602046FFF747FD06B010BD30B587B00546C5
S3150800337001910624029440230393002304934FF4F7
S315080033808063059301A9FFF7C3FD41F28832214600
S315080033902846FFF7D5FD07B030BD30B587B00546DE
S315080033A000230193332402944022039204934FF49A
S315080033B08063059301A9FFF7ABFD41F288322146E8
S315080033C02846FFF7BDFD07B030BD10B586B00446E8
S315080033D00023019302220292C022039204934FF41F
S315080033E08063059301A9FFF793FD2046FFF7D2FCFA
S315080033F006B010BD10B586B00446019109230293A4
S31508003400C0230393002304934FF48063059301A913
S31508003410FFF77EFD2046FFF7BDFC06B010BD70B570
S3150800342086B005460E4600230193032402944022E3
S31508003430039204934FF48063059301A9FFF768FD8F
S31508003440324621462846FFF727FE06B070BD30B53E
S3150800345087B0054601910D24029440230393002367
S3150800346004934FF48063059301A9FFF751FD41F2D8
S31508003470883221462846FFF763FD07B030BD0000B5
S31508003480C36813F4005F01D0012070472DE9F04BA3
S3150800349084B00D460446C36823F4164323F00C0390
S315080034A04A68C9680A4329690A43A9690A4313434A
S315080034B0C360AB68026922F44052134303616B6927
S315080034C0426922F44072134343616846FFF736FCAB
S315080034D0494B9C4210D0494B9C4214D0484B9C42C5
S315080034E013D0484B9C4212D0474B9C4211D0474BB5
S315080034F09C4210D001207CE00398002878D02B68E5
S315080035005BB9012075E00298F7E70298F5E703989A
S31508003510F3E70298F1E70298EFE7AA69B2F5004FD8
S3150800352030D04FF00009061849EB090716EB000BD7
S3150800353047EB090C4FEACC0242EA5B724FEACB052D
S3150800354094469A009B0F401949EB0C01FCF798FE2C
S315080035502F4DA5FB003149090A0192B2642303FBEA
S3150800356011031B013233A5FB0313C3F34F1303F0F7
S31508003570F0010A4492B203F00F0313449BB2A3600E
S31508003580002036E083464FF0000C06184CEB0C077B
S3150800359016EB000847EB0C094FEAC90242EA5872D3
S315080035A04FEAC80591460021DA1841EB01031BEBE7
S315080035B005004CEB0901FCF763FE154DA5FB003130
S315080035C049090A0192B2642303FB1103DB00323373
S315080035D0A5FB0313C3F34F13590001F4F8710A440A
S315080035E092B203F0070313449BB2A360002000E0E5
S315080035F0012004B0BDE8F08B0010014000440040F3
S315080036000048004000140140004C004000500040B3
S315080036101F85EB51014B1860704700BF0000002062
S3150800362030B585B004F0DCF81A4900250D601A4A51
S3150800363015601A4B1D601A4C1A4802901A480190D8
S315080036400095204604F0F6FC2946204604F0F0FED4
S3150800365010222946204604F041FE012384F8DF3073
S31508003660204604F0EBFD94F8DB3013F0040F0CD180
S315080036700B4804F00BFE0A4C0C49204604F02AFEBF
S3150800368020460BF00DFE05B030BD204604F0DCFDEB
S31508003690F1E700BFB81A0020BC1A0020C01A0020A3
S315080036A0D0190020F54B0108753A0008D93A0008E8
S315080036B008B5034800F0CEF909F08EFC08BD00BF36
S315080036C0D01900202DE9F0473348FDF7FFFD002803
S315080036D05ED1314B998FD3F8409029B94FF0000845
S315080036E02D4B1B6B00213AE04FF4C17205F094F89C
S315080036F080460028F4D0284B1F6B8246002421E020
S31508003700DAF80400C4F5BE62043209EB0401304459
S3150800371011F06BFBFF68D7F80890A5F2F452361B38
S3150800372006F2F4560024A51840F2F4539D42E7D851
S31508003730DAF8040009EB0401304411F056FBDAF814
S3150800374000A02C46BAF1000FCAD0BAF80A20002603
S31508003750E9E71A6842F000421A60DB6801310E4A4E
S31508003760926B8A42F5D80C4B00229A631B6841F289
S3150800377014029A5812F0800F07D041F214028021E1
S31508003780995041F20802002199504046BDE8F08759
S315080037904FF00008F9E700BF943300202DE9F84FF1
S315080037A08B462C4BDE6AD6F808A000242746BBF1C8
S315080037B0000F32D03368002B35DBBBF80A900025A2
S315080037C004EB090840F2F453984519D9DBF80410BC
S315080037D0C4F5BE62043229440AEB040011F005FB65
S315080037E0F6683368002B21DBD6F808A0A8F2F4594E
S315080037F02D1B05F2F4553F1B07F2F4570024DFE7AB
S31508003800DBF804104A4629440AEB040011F0EDFAE5
S315080038104F44DBF800B04446C9E739460D48FDF782
S31508003820C5FC002004E06FF0070001E06FF0070018
S31508003830084B1B6841F214029A5812F0200F07D061
S3150800384041F214022021995041F2040200219950B4
S31508003850BDE8F88F9433002030B585B004460023C0
S3150800386003933A483A4A0260012242604FF4804183
S3150800387081604FF40061C16002828DF804308021B6
S315080038808DF80510E1218DF806108DF80720022223
S315080038908DF8082003228DF8092001AA4261836168
S315080038A0C3614FF400030362FDF7CEFD28B994F80F
S315080038B0DB3043F0040384F8DB30244D2A68536870
S315080038C043F0100353600423224A23492846FDF790
S315080038D0FDFB0423214A22492846FDF730FC06232E
S315080038E084F8DA306B691A7884F8D4205A7884F820
S315080038F0D5209A7884F8D620DA7884F8D7201A79E9
S3150800390084F8D8205B7984F8D93040F2DC53A4F8DF
S31508003910D03094F8DB3043F00A0384F8DB302846CD
S31508003920FDF7BEFE03AA1D212846FDF716FD039ADC
S3150800393042F00B0203921D212846FDF74AFD03AA11
S315080039401D212846FDF709FD05B030BD943300203A
S3150800395000800240DC330020C41A0020441B0020EB
S3150800396014330020F0B58DB000230793089309930C
S315080039700A930B930268334B9A4201D00DB0F0BDFF
S3150800398000240194A3F590431A6B42F000721A635F
S315080039901A6B02F000720192019A02941A6B42F0B5
S315080039A080621A631A6B02F080620292029A03948A
S315080039B01A6B42F000621A631A6B02F000620392F5
S315080039C0039A04941A6B42F004021A631A6B02F003
S315080039D004020492049A05941A6B42F001021A63CF
S315080039E01A6B02F001020592059A06941A6B42F0C8
S315080039F002021A631B6B03F002030693069B32232B
S31508003A0007930227089703260A960B250B9507A9FD
S31508003A100D48FEF7FFF886230793089709940A9638
S31508003A200B9507A90948FEF7F5F84FF46053079375
S31508003A30089709940A960B9507A90548FEF7EAF828
S31508003A409CE700BF008002400008024000000240D8
S31508003A500004024038B50446FFF734FE28B105468F
S31508003A60D4F8B0302146984700B938BD284604F046
S31508003A7071FEFAE710B5044698B1732384F8DC3072
S31508003A80742384F8DD300B4BC4F8B4300A4BC4F801
S31508003A90BC300A4BC4F8B8302046FFF7DDFE0020DC
S31508003AA010BD074B40F209220649074811F0CAF92A
S31508003AB0E3E700BF6DFC0008810C01089D3700088C
S31508003AC0005D01081C5D01082C5D010808B500F0C1
S31508003AD083FC08BD7047000030B583B00446002358
S31508003AE00193009390F8DB3013F0040F51D02B4B61
S31508003AF05B68002B35D04FF4805200212748FDF72C
S31508003B0068FC00F069FC01906A4601212348FDF72C
S31508003B1024FC00F061FC019BC01AB0F57A7F20D81E
S31508003B20009B13F0200FEFD06A461F211B48FDF7B4
S31508003B3014FC009B13F0100F0AD0184A4FF40061CA
S31508003B40D16013F0040F07D0144B00229A6013E0DB
S31508003B50124A0021D160F4E7104B4FF480429A6074
S31508003B600AE00E48C268C2F3CF028368C3F34F0364
S31508003B701A430021FDF72DFC084D00212846FDF7C4
S31508003B80D3FD2846FDF78CFD2046FFF7A3FF03B0BB
S31508003B9030BD0248FDF7A6FDF6E700BF94330020C6
S31508003BA000B583B0009313460A4601460348FEF75C
S31508003BB071FA00B1012003B05DF804FB1419002066
S31508003BC000B583B0009313460A4601460348FEF73C
S31508003BD095FB00B1012003B05DF804FB1419002021
S31508003BE008B50348FEF7B4FE043818BF012008BD1F
S31508003BF01419002008B501460148FEF744FE08BD21
S31508003C001419002082B001238DF807309DF80700AB
S31508003C1002B0704710B5104B104A1A6000225A605D
S31508003C209A60DA601A615A6103229A61FFF7EAFF1D
S31508003C30012802D00124204610BD0748FEF704FEDD
S31508003C4004460028F7D14FF400610348FEF72EFE1C
S31508003C500028F0D00124EEE714190020002C0140BA
S31508003C6008B5064B1B780BB1002008BD034B012293
S31508003C701A70002000F02AF8F7E700BF4404002075
S31508003C8008B5002000F036F808BD08B5002000F099
S31508003C9035F808BD08B5002000F040F808BD08B59D
S31508003CA0002000F04BF808BD08B5074B01221A7032
S31508003CB0FFF796FF20B9044A137803F0FE03137042
S31508003CC0014B187808BD00BF0C00002010B504464B
S31508003CD0074B01221A70FFF79DFF10B1044B1878A5
S31508003CE010BD2046FFF7E0FF014B1870F6E700BF4E
S31508003CF00C00002008B5FFF7D7FF08BD08B5084631
S31508003D0011461A464FF0FF33FFF74AFF20B9FFF76F
S31508003D1067FF0028FBD108BD0120FCE708B5084667
S31508003D2011461A464FF0FF33FFF74AFF20B9FFF74F
S31508003D3057FF0028FBD108BD0120FCE7154B1B786F
S31508003D4013F0010F21D110B588B0144603291ED8E7
S31508003D50DFE801F002050C13002008B010BD684624
S31508003D60FFF748FF069B23600020F6E76846FFF743
S31508003D7041FF079B23800020EFE76846FFF73AFFDD
S31508003D80079B5B0A23600020E7E7032070470420AF
S31508003D90E3E700BF0C00002072B6704762B67047B2
S31508003DA008B5FFF7F9FF08BD10B500F01BFA00B912
S31508003DB010BDFCF7EDFB0028FAD000F0AFFBFCF7CE
S31508003DC06DFF00F0D7FA00F011FA20F0604020F0FD
S31508003DD07F00044B986000F009FA4468FFF7DEFF9D
S31508003DE0A047E5E700ED00E070B508E04D1C461C6D
S31508003DF00B78037000F0D4FB304629462246531E42
S31508003E009CB2002AF2D170BD70B50E4605E0451C7D
S31508003E10067000F0C5FB28462246531E9CB2002AAF
S31508003E20F5D170BD38B50546002401E00134E4B289
S31508003E30082C15D800F0B4FB04EB44029300094A99
S31508003E40D358AB42F2D804EB44029100054A0A441F
S31508003E5052681344AB42E9D9024B0B44187A00E086
S31508003E60FF2038BD545D010808B5C1F3080353B9EE
S31508003E7003688B4209D040F8041B4FF40072FFF721
S31508003E80B3FF012000E0002008BD0120FCE72DE972
S31508003E90F0410746FDF772FD00247F2C14D83E68D2
S31508003EA0A30006EB03083B445D6800F079FB2A464D
S31508003EB0002341460220FDF7B5FD38B956F82430EF
S31508003EC0AB4209D10134E8E7012400E00024FDF7FC
S31508003ED06DFD2046BDE8F0810024F8E738B50D46AB
S31508003EE00C4B984211D004460B4B994207D1094C0A
S31508003EF029462046FFF7B8FF48B1204638BDFFF7E8
S31508003F00C6FF0028F4D10024F7E7044CF0E70024A4
S31508003F10F3E700BF4C06002000C000084804002054
S31508003F202DE9F04106460C4617461D4621F4FF7852
S31508003F3028F001080368B3F1FF3F07D0336843450B
S31508003F400BD13368E41A3444043415E04146FFF7CC
S31508003F508BFF03460028F1D11FE041463046FFF7A4
S31508003F60BDFF06460028ECD1002316E017F8013BF2
S31508003F7004F8013B013D0FD000F012FB331DE31A94
S31508003F80B3F5007FF2D308F500713046FFF7A6FFB8
S31508003F90064628B1041DE9E701231846BDE8F08165
S31508003FA00023FAE72DE9F04186B005468846002346
S31508003FB00093884211D80126022D28D9B8F10B0F93
S31508003FC02AD8012E24D10023019302230593012325
S31508003FD00493FDF7D3FC374604E00026ECE73746A2
S31508003FE00135EDB245450ED800F0DAFA03950024FE
S31508003FF0072CF5DC694601A8FDF7C2FD0028EED0BE
S3150800400001340027F4E7FDF7D1FC3E4600E0002620
S31508004010304606B0BDE8F0810026F9E74FF0FF33D9
S31508004020024A1360024A1360704700BF4804002022
S315080040304C06002070B54B1E154C241AA34201D914
S31508004040002070BD16460D460446FFF7EBFEFF2816
S315080040501AD028190138FFF7E5FEFF2816D024F4F0
S31508004060FF7323F001030B4A934206D02B463246D0
S3150800407021460948FFF754FFE3E72B463246214617
S315080040800648FFF74DFFDCE70020DAE70020D8E70F
S31508004090FFFF0F0800C00008480400204C06002057
S315080040A04A1E0E4B1B1A9A4201D90020704770B55A
S315080040B00C460546FFF7B6FE064660190138FFF7B7
S315080040C0B1FEFF2E06D0FF2806D001463046FFF780
S315080040D069FF70BD0020FCE70020FAE7FFFF0F0824
S315080040E0104B1B68B3F1FF3F1AD000B583B00D4AD9
S315080040F0536891680B44D1680B4411690B445169A4
S315080041000B4491690B44D26913445B4202AA42F8F4
S31508004110043D04210448FFF78DFF03B05DF804FB56
S31508004120012070474C06002088C100080D4B1B680B
S315080041300D4A12681A440D4B1B6813440C4A126840
S3150800414013440C4A12681A440B4B1B681A440B4B4F
S315080041501B6813440A4A1268DA4201D000207047E5
S315080041600120704700C0000804C0000808C0000805
S315080041700CC0000810C0000814C0000818C00008C9
S3150800418088C1000808B50D4B1B68B3F1FF3F0BD17A
S315080041900B4B1B68B3F1FF3F0DD00948FFF777FEBD
S315080041A0034648B1012307E00448FFF770FE0346BB
S315080041B00028EDD100E00123184608BD4C06002072
S315080041C0480400200048704700C0000808B5FFF7FB
S315080041D025FF08BD08B5FFF72DFF08BD08B5FFF791
S315080041E05FFF08BD08B5FFF7A1FF08BD08B5FFF7D3
S315080041F0E9FF08BD08B5FFF773FF034608B9184677
S3150800420008BDFFF7BFFF0346F9E70000054B1B682B
S3150800421013F0200F04D0034B5B680370012070472E
S31508004220002070470014014010B5094B586000F093
S31508004230CBF800F10A04064B1B6813F0800F05D172
S3150800424000F0AEF900F0C0F8A042F4D910BD00BFE6
S315080042500014014010B588B00C4CE36823F40053F1
S31508004260E3604FF46143019300230293039304939D
S315080042700C2205920693079301A92046FFF700F939
S31508004280E36843F40053E36008B010BD001401402E
S3150800429070B506460D46402904D82846FFF7C4FFE0
S315080042A000240BE07B21074800F09AF8F5E700F0B8
S315080042B077F9305DFFF7B8FF0134A4B2ABB2A34279
S315080042C0F5D870BDC05D010870B5254B1C78BCB922
S315080042D02448FFF79BFF012801D0204670BD214BDB
S315080042E01B78013BDBB23F2BF7D800F06DF81E4B6D
S315080042F018601E4B00221A70194B01221A70ECE73F
S3150800430006460D46194B1B78013316481844FFF725
S315080043107DFF0446012815D1144B1A780132D2B212
S315080043201A70104B1B789A4201D00024D5E7104921
S315080043303046FFF759FD0A4B00221A700B4B1B78C3
S315080043402B70CAE700F040F8074B1B6864339842A5
S3150800435003D90024024B1C70BFE70024BDE700BF49
S315080043609108002050080020940800209208002098
S3150800437051080020024B00221A605A609A60704762
S3150800438010E000E008B5FFF7F5FF054B054A5A604F
S3150800439000229A6005211960034B1A6008BD00BF08
S315080043A010E000E03F90020098080020044B1B68CC
S315080043B013F4803F03D0034A136801331360704730
S315080043C010E000E09808002008B5FFF7EFFF014B62
S315080043D0186808BD9808002008B5FFF7F5FF08BD5E
S315080043E008B500F0DDF8FCE708B500F0CDF80128BF
S315080043F006D000F065F918B10C4B1B78012B00D0DC
S3150800440008BDFFF7E1FF0A4B1B680A4A1268134406
S3150800441003F5FA739842F3D3044B00221A7000F09E
S3150800442059F90028ECD1FFF7BFFCE9E7A0080020FE
S315080044309C080020A408002008B5054B1B78012B12
S3150800444000D008BDFFF7C0FF024B1860F9E700BFB0
S31508004450A0080020A408002008B5044B01221A7001
S31508004460FFF7EAFFFFF7C0FF08BD00BFA00800205E
S3150800447008B5FFF795FC00F08FF8FFF783FFFFF705
S31508004480A5FE00F005F900F00FF8FFF7E5FF08BDF7
S3150800449008B500F085F8FFF789FF00F015FA00F077
S315080044A013F8FFF7A1FF08BD10B500F0DBFEFFF714
S315080044B0D1FE044C00232370FCF766F9032323700E
S315080044C010BD00BF0D00002000B583B00DF1070137
S315080044D01048FFF7F9FE012809D00DF107010D482C
S315080044E0FCF754F901280BD003B05DF804FB0A4B1E
S315080044F000221A709DF80710064800F0D3FEECE774
S31508004500054B03221A709DF80710024800F0CAFEF0
S31508004510EAE700BFA80800200D0000207047000049
S3150800452038B504460D46094B1B7833B1074B1B7843
S31508004530032B06D000F0AEFE38BDC9B2FFF7A8FEC1
S31508004540F4E7E9B22046FCF720F9F3E70D0000206E
S31508004550054B1B78012B05D0022B01D04020704754
S3150800456000207047082070470D000020054B1B7877
S31508004570012B05D0022B01D0402070470020704740
S31508004580082070470D00002008B500F079FE0346A4
S3150800459000B10123184608BD08B5FCF707F808BDA1
S315080045A008B5FCF708F808BD10B4034601310D4AF2
S315080045B0A2FB0323DB08F9D100230B70094BA3FBED
S315080045C00023DB081A4603EB83035C00031B303326
S315080045D001F8013D1046002AF0D108465DF8044B63
S315080045E0704700BFCDCCCCCC00F00F03092802D908
S315080045F003F13700704710B503F1300410F0C6FB1D
S315080046002044437803F00303022B01D0E0B210BD27
S31508004610203CFBE738B505460C460009FFF7E4FFE2
S31508004620207005F00F00FFF7DFFF60700023A3700E
S31508004630204638BDF8B507460026354607E0203C33
S3150800464010E02D01EDB2AB18DDB20136F6B2012E3F
S3150800465019D8BC5D10F09AFB2044437803F0030395
S31508004660022BECD0E3B2A3F13002D2B2162A09D853
S31508004670A3F13A01C9B2062907D9092AE1D9373B74
S31508004680DAB2DEE700252846F8BD0025FBE700007C
S3150800469008B50022064B1A700649074802F08EF83C
S315080046A000B908BD77210548FFF79AFEF9E700BF6C
S315080046B0480D0020FC5D0108F0080020005E010896
S315080046C0034B1B780BB1002070470120704700BFD1
S315080046D0480D002008B5FFF757FF01280ED0084BF4
S315080046E01B780BB1002008BDFBF76AFF012801D033
S315080046F00020F8E7024B01221A70F4E70020F2E7DF
S31508004700480D002038B50546047810F03FFB2044D4
S31508004710437803F00303022B03D0532C03D0032062
S3150800472038BD203CF9E710F031FB6B781844427825
S3150800473012F0040F09D0312B09D0322B09D0332BB4
S3150800474001D00320ECE70220EAE70320E8E700208F
S31508004750E6E70120E4E770B506460230FFF76AFF90
S31508004760054684B204363046FFF764FF0544EDB2C9
S31508004770013CA4B20236012CF5D8ED43EDB2304621
S31508004780FFF758FFA84201D0002070BD0120FCE7C2
S31508004790F8B5044617460E46A1B198B12046FFF76C
S315080047A0B1FF0546032800F087802046FFF7D3FFB0
S315080047B0002800F08480012D29D04DB1022D4DD05E
S315080047C000257AE040F263213E48FFF709FEE5E757
S315080047D0A01CFFF72FFF85B2201DFFF72BFF000255
S315080047E03060A01DFFF726FF336818443060083490
S315080047F0033D2DB2002F60D00026AE425DDA20467A
S31508004800FFF718FFB85502340136B6B2F5E7A01C13
S31508004810FFF710FF85B2201DFFF70CFF000430607C
S31508004820A01DFFF707FF336803EB0020306004F193
S315080048300800FFF7FFFE3368184430600A34043D69
S315080048402DB2002F39D00026AE4236DA2046FFF7C1
S31508004850F1FEB85502340136B6B2F5E7A01CFFF7EB
S31508004860E9FE85B2201DFFF7E5FE00063060A01DB3
S31508004870FFF7E0FE336803EB0040306004F1080000
S31508004880FFF7D8FE336803EB0020306004F10A0016
S31508004890FFF7D0FE3368184430600C34053D2DB25E
S315080048A05FB10026AE4208DA2046FFF7C3FEB855C8
S315080048B002340136B6B2F5E700252846F8BD4FF0B2
S315080048C0FF35FAE7005E0108B54B1B78002B00F0B0
S315080048D0F58170B5012B05D0022B30D0032B00F0E3
S315080048E0208170BDFFF772FCFBF78CFEAD48FBF725
S315080048F0CDFEAD48FBF7CAFEFBF780FE0122014656
S31508004900AA4801F087FF48B1A54B00221A70A848AB
S31508004910FBF7BCFE0120FBF7ABFEE2E7A548FBF779
S31508004920B5FEA548FBF7B2FEA448FBF7AFFEA44BBD
S3150800493000221A605A609A4B02221A70D1E7A14CDB
S3150800494004F50C724FF480719F4802F085FB94F8C9
S315080049504132002B5DD1A8B19B48002200F5C071F9
S31508004960FFF716FF0446B0F1FF3F60D0002809DDC7
S31508004970934B5B68002B67D1934BD3F88021904B00
S315080049801A6058608F4BD3F84422D3F83C329A42C7
S31508004990A7D10021854802F01DFA002840F0A7801B
S315080049A0874B5B6873B38348FBF770FE8748FBF752
S315080049B06DFE874D824C29466068FFF7F5FD28464F
S315080049C0FBF764FE8348FBF761FE2946E078FFF7AC
S315080049D021FEA91CA078FFF71DFE291D6078FFF7A8
S315080049E019FEA91D2078FFF715FE2846FBF74EFE8F
S315080049F07948FBF74BFE61682068FFF7EFFB002854
S31508004A0000F082806B48FBF741FE654B03221A7063
S31508004A1067E7634B00221A706548FBF737FE0220EA
S31508004A20FBF726FE04F50C7002F0C0F959E75C4B5B
S31508004A3000221A705E48FBF729FE0320FBF718FED2
S31508004A405A4802F0B3F94CE75F4AD2F880115C4A3B
S31508004A5012681A44914203D10344594A536091E7B4
S31508004A605448FBF713FE5948FBF710FE584E544DB1
S31508004A7031466868FFF798FD3046FBF707FE55484C
S31508004A80FBF704FE3146E878FFF7C4FDB11CA878A9
S31508004A90FFF7C0FD311D6878FFF7BCFDB11D28780A
S31508004AA0FFF7B8FD3046FBF7F1FD4B48FBF7EEFD87
S31508004AB069682868FFF792FB60B13E48FBF7E6FD98
S31508004AC03E48FBF7E3FD404BD3F880213C4B1A6088
S31508004AD05C6057E7324B00221A703548FBF7D6FD63
S31508004AE00520FBF7C5FD314802F060F9F9E62C4BC5
S31508004AF000221A702E48FBF7C9FD0420FBF7B8FD03
S31508004B002A4802F053F9ECE6254B00221A70284889
S31508004B10FBF7BCFD0520FBF7ABFD244802F046F980
S31508004B20DFE6284C04F50C724FF48071264802F033
S31508004B3093FA94F84132002B56D160B1224800F519
S31508004B40807200F5C071FFF723FE0446B0F1FF3FFF
S31508004B5058D0002863DC1B4BD3F84422D3F83C32E8
S31508004B609A427FF4BEAE1D48FBF790FDFFF742FB65
S31508004B70002800F096800F48FBF788FD1848FBF7D9
S31508004B8085FD0A4802F012F91648FBF77FFD044B2B
S31508004B9000221A70FBF74AFDFFF706F9A1E600BFE7
S31508004BA0480D00202C5E0108505E0108200B0020ED
S31508004BB0785E0108805E0108885E0108AC5E01081F
S31508004BC0E8080020F00800204C0D0020DC5E0108F3
S31508004BD0D00E0020E85E01088C5F0108745F0108AA
S31508004BE0905F0108A85F0108354B00221A70354806
S31508004BF0FBF74CFD0220FBF73BFD04F50C7002F0B9
S31508004C00D5F86EE62E4B00221A702F48FBF73EFDAC
S31508004C100320FBF72DFD2D4802F0C8F861E62C4865
S31508004C20FBF734FD2B4D29462046FFF7BDFC2846E9
S31508004C30FBF72CFD2848FBF729FD284E294696F850
S31508004C408301FFF7E7FCA91C96F88201FFF7E2FC4F
S31508004C50291D96F88101FFF7DDFCA91D96F880014C
S31508004C60FFF7D8FC2846FBF711FD1D48FBF70EFD9C
S31508004C7006F580722146D6F88001FFF7ABFA18B11F
S31508004C801848FBF703FD66E70D4B00221A70164815
S31508004C90FBF7FCFC0620FBF7EBFC0C4802F086F859
S31508004CA01FE6074B00221A700F48FBF7EFFC072098
S31508004CB0FBF7DEFC054802F079F812E6704700BFFC
S31508004CC0480D0020045F0108285F0108200B00201A
S31508004CD04C5F0108D00E00205C5F01084C0D0020D7
S31508004CE08C5F0108805E0108785E0108014B10227E
S31508004CF05A707047A00F0020034BFE22DA70187115
S31508004D000222A3F844207047A00F002010B5054CD6
S31508004D1000232370FFF7EAFFFF23E3700123A4F8BB
S31508004D20443010BDA00F0020064BFF22DA70002287
S31508004D301A71597859719A71DA711A720622A3F89A
S31508004D4044207047A00F002008B50020FFF7D4FFC5
S31508004D5008BD0000074BFF22DA70074A9A64002252
S31508004D601A715A719A710722C3F807200822A3F804
S31508004D7044207047A00F002000600108044BFF2262
S31508004D80DA7042689A640122A3F84420704700BF8B
S31508004D90A00F002008B5064B5B7813F0100F03D15F
S31508004DA03120FFF7A9FF08BD2520FFF7A5FFFAE781
S31508004DB0A00F002038B50C4B5B7813F0100F0FD1FD
S31508004DC0094CFF23E370002525716571FFF7C0FBC9
S31508004DD0A071E571257265720723A4F8443038BDC1
S31508004DE02520FFF789FFFAE7A00F002038B5FFF75F
S31508004DF067FCE8B1FFF77AFF0F4C01252570FF2302
S31508004E00E3701023237100236371FFF7A1FBA071E0
S31508004E10FFF7ACFBE071FFF7A9FBC0F30720207290
S31508004E206572A5720823A4F84430FFF7CFF938BD98
S31508004E301020FFF761FFFAE7A00F002038B50446F7
S31508004E404578FFF785FB0138854215DC62780F4BFC
S31508004E505B7813F0100F13D000210D48FEF7D4FF2E
S31508004E600A4BFF22DA7061789A6C0A449A6462786F
S31508004E700132A3F8442038BD2220FFF73DFFFAE7A8
S31508004E800248816C0430FEF7AFFFE9E7A00F002067
S31508004E90A40F002038B504464578FFF759FB0138BA
S31508004EA0854217DC61680F4B996462785B7813F06A
S31508004EB0100F13D000210C48FEF7A6FF094BFF225E
S31508004EC0DA7061789A6C0A449A6462780132A3F8B7
S31508004ED0442038BD2220FFF70FFFFAE70248FEF705
S31508004EE083FFEBE7A00F0020A40F0020F8B50546C6
S31508004EF01746002406E015F8013B1C44E4B2FFF708
S31508004F004FFB31464E1E0029F5D13C600120F8BD05
S31508004F1010B5084CFF23E370E21D4168A06CFFF74B
S31508004F20E5FF207100236371A3710823A4F84430B8
S31508004F3010BD00BFA00F002038B5124B5B7813F0E8
S31508004F40100F17D104460F4B9D6CFFF701FB621C2F
S31508004F50411E2846FFF73EF980B10A4CFF23E3704D
S31508004F60FFF7F6FA0138A36C0344A3640123A4F8F7
S31508004F70443002E02520FFF7BFFE38BD3120FFF799
S31508004F80BBFEFAE7A00F002038B5194B5B7813F083
S31508004F90100F15D104464578FFF7DAFA023885422C
S31508004FA012DC134BFF22DA700122A3F84420617841
S31508004FB071B9FFF71FF930B93120FFF79DFE02E0FE
S31508004FC02520FFF799FE38BD2220FFF795FEFAE760
S31508004FD0A21C074B986CFFF7FDF828B16178044AC4
S31508004FE0936C0B449364EEE73120FFF785FEEAE7FE
S31508004FF0A00F002008B50D4B5B7813F0100F0CD1ED
S3150800500041680A4B986CFFF7E9F850B1074BFF2245
S31508005010DA700122A3F8442002E02520FFF76CFE8F
S3150800502008BD3120FFF768FEFAE700BFA00F002091
S3150800503008B5094B5B7813F0100F08D1FEF7B4FEDC
S31508005040054BFF22DA700122A3F8442008BD25206B
S31508005050FFF752FEFAE700BFA00F002008B5FBF7DE
S3150800506043FB08BDF8B53F4BFF22DA7042781ABBFE
S31508005070837813F0010F03D033F0010100D1012228
S3150800508013F0100F03D033F0100100D1012213F0F2
S31508005090040F03D033F0040100D1012213F0080FE6
S315080050A002D033F0080101D0002A2DD02D4A5278BB
S315080050B013422DD02B4A93704378002B2FD02A4BBE
S315080050C01B78002B41D0294B1C78FFF741FA023890
S315080050D0844241DCA5B2264E224F2A463168781D05
S315080050E0FEF782FE214A13783B711B1BDBB2137055
S315080050F030680444346013B91B4B00221A70023519
S31508005100184BA3F84450F8BD2220FFF7F5FDFAE73F
S31508005110144B00221A710222A3F84420F3E7124B1B
S3150800512001221A7013490F4B9878FFF797FF0F4B18
S315080051301870402803D80E4B0E4A1A60C3E74FF47E
S3150800514079710D48FFF74CF9F5E72920FFF7D4FDEB
S31508005150044B00229A70D6E7FFF7FAF9C4B2023C6C
S31508005160E4B2B7E7A00F00209D0F00209C0F002097
S31508005170980F0020580F0020D45F010808B5FBF7E8
S31508005180BAFA08BD70B54478402C2ED806462C4B82
S315080051901B789C4207D32B4B1C702B4B2B4A1A604F
S315080051A02B4B00221A70264B1C70FFF7D1F90238D8
S315080051B0844223DC244D2246B11C2868FEF714FEDF
S315080051C02B6823442B60224B18780444E4B21C70E5
S315080051D01C4B1A78944217D21E4BFF22DA705A7863
S315080051E01A710222A3F8442070BD0024144B1C70C7
S315080051F02220FFF781FD174B9C70F5E7FFF7A8F90A
S31508005200C4B2023CE4B2D5E70D4B002119700F4930
S31508005210104B9878FFF7B2FF40B10E4B99785A7841
S3150800522022EA01025A7000229A70D5E72520FFF774
S3150800523063FD084B00221A709A70FFF757FDD3E7F3
S31508005240540F0020560F0020500F0020100F00208A
S31508005250550F0020A00F002008B589B2FFF760F9A6
S3150800526008BD0000054B00221A709A6483F8432093
S31508005270A3F844209A705A70704700BFA00F002008
S31508005280034B1B780BB1012070470020704700BF05
S31508005290A00F0020024B002283F84320704700BF6E
S315080052A0A00F002008B50378FF2B04D0384A1278DF
S315080052B0012A14D008BDFFF799FD354B93F8433002
S315080052C0012B60D0324BB3F944100029F2DD1846A1
S315080052D0012380F843300330FFF7BEFFEAE7C93BF6
S315080052E0352B4CD8DFE803F0334B4B424B4B3F365C
S315080052F03C394B4B4B4B4B4B4B4B4B4B4B4B4B4B11
S315080053004B4B4B4B4B4B4B4B4B4B4B4B4B4B4B4BDF
S315080053104B4B241E1B2148454B274B2A2D30FFF7A4
S315080053208DFDCAE7FFF7B6FDC7E7FFF727FDC4E718
S31508005330FFF7EEFDC1E7FFF70DFDBEE7FFF704FD3A
S31508005340BBE7FFF7F1FCB8E7FFF7E0FCB5E7FFF7C7
S31508005350F3FDB2E7FFF718FEAFE7FFF72BFDACE763
S31508005360FFF748FEA9E7FFF763FEA6E7FFF712FD7A
S31508005370A3E7FFF777FEA0E7FFF704FF9DE72020E6
S31508005380FFF7BAFC99E71020FFF7B6FC9AE700BFCB
S31508005390A00F00204278007840EA02207047C278C1
S315080053A0837843EA0222437843EA0223007840EAF4
S315080053B0032070470170090A417070470170C1F3F4
S315080053C007234370C1F307438370090EC170704702
S315080053D013462AB10A78027001300131013BF9D12E
S315080053E0704701700130013AFBD1704730B4451C53
S315080053F0037808781B1A013A04D04C1C2846214623
S31508005400002BF4D0184630BC704700E00130037812
S315080054100BB18B42FAD11846704702394369023BF1
S315080054208B4204D94389806A01FB03007047002038
S31508005430704770B506460D4601F11A00FFF7AAFF38
S315080054403378032B00D070BD044605F11400FFF72E
S31508005450A1FF44EA0040F6E770B506460C46154635
S3150800546091B204F11A00FFF7A5FF3378032B00D099
S3150800547070BD290C04F11400FFF79CFFF8E7000043
S315080054802DE9F04107460E4601F11A00FFF782FFA3
S3150800549060BB357805F03F05013D05EB450305EB97
S315080054A083054FF00108002404E04FF6FF73984285
S315080054B021D101340C2C0ED8124B185D3044FFF75D
S315080054C069FFB8F1000FF0D0FE2D12D827F81500A5
S315080054D080460135EDE7337813F0400F0DD0FE2DE9
S315080054E00DD8002327F81530012000E00020BDE87C
S315080054F0F0810020FBE70020F9E70120F7E700200C
