S02300006F70656E626C745F646973636F766572795F73746D3332663430372E73726563BD
S3150800000000000220A90A0008D9090008DB0900082F
S31508000010DD090008DF090008E10900080000000002
S31508000020000000000000000000000000E3090008CE
S31508000030E509000800000000E7090008E9090008CA
S31508000040F90A0008F90A0008F90A0008F90A000876
S31508000050F90A0008F90A0008F90A0008F90A000866
S31508000060F90A0008F90A0008F90A0008F90A000856
S31508000070F90A0008F90A0008F90A0008F90A000846
S31508000080F90A0008F90A0008F90A0008F90A000836
S31508000090F90A0008F90A0008F90A0008F90A000826
S315080000A0F90A0008F90A0008F90A0008F90A000816
S315080000B0F90A0008F90A0008F90A0008F90A000806
S315080000C0F90A0008F90A0008F90A0008F90A0008F6
S315080000D0F90A0008F90A0008F90A0008F90A0008E6
S315080000E0F90A0008F90A0008F90A0008F90A0008D6
S315080000F0F90A0008F90A0008F90A0008F90A0008C6
S31508000100F90A0008F90A0008F90A0008F90A0008B5
S31508000110F90A0008F90A0008F90A0008F90A0008A5
S31508000120F90A0008F90A0008F90A0008F90A000895
S31508000130F90A0008F90A0008F90A0008F90A000885
S31508000140F90A0008F90A0008F90A0008F90A000875
S31508000150F90A0008F90A0008F90A0008F90A000865
S31508000160F90A0008F90A0008F90A0008F90A000855
S31508000170F90A0008F90A0008F90A00080000000050
S30D08000180F90A0008F90A000853
S31508000188E51B0008CD1C0008F91C0008211C0008FE
S315080001A010B5054C237833B9044B13B10448AFF3A3
S315080001B000800123237010BD740000200000000099
S315080001C0A835000808B5034B1BB103490348AFF32C
S315080001D0008008BD0000000078000020A83500084F
S315080001E001F0FF01102A2BDB10F0070F08D010F8DA
S315080001F0013B013A8B422DD010F0070F42B3F6D1DE
S31508000200F0B441EA012141EA014122F007047FF0F6
S3150800021000070023F0E80256083C85EA010586EA4D
S31508000220010685FA47F5A3FA87F586FA47F6A5FA89
S3150800023087F68EB9EED1F0BC01F0FF0102F0070295
S3150800024032B110F8013B013A83EA010313B1F8D140
S315080002500020704701387047002D06BF3546033821
S31508000260073815F0010F07D1013015F4807F02BF5A
S31508000270013015F4C03F0130F0BC0138704700BFAB
S3150800028053B94AB9002908BF00281CBF4FF0FF31EF
S315080002904FF0FF3000F06EB9ADF1080C6DE904CEF1
S315080002A000F006F8DDF804E0DDE9022304B0704743
S315080002B02DE9F047089D04468C46002B40F08380C4
S315080002C08A42174647D9B2FA82F242B1C2F12000F1
S315080002D024FA00F09140974040EA010C94404FEA16
S315080002E01748230CBCFBF8F61FFA87FE08FB16C155
S315080002F043EA014306FB0EF1994209D9FB1806F1B8
S31508000300FF3080F01981994240F21681023E3B4443
S315080003105B1AA4B2B3FBF8F008FB103344EA0344B3
S3150800032000FB0EFEA64509D93C1900F1FF3380F003
S315080003300581A64540F2028102383C4440EA06405F
S31508000340A4EB0E0400261DB1D4400023C5E90043E2
S315080003503146BDE8F08702B9FFDEB2FA82F2002A1A
S3150800036050D1CB1B4FEA174E1FFA87F80126B3FB6D
S31508000370FEFC210C0EFB1C3341EA034108FB0CF37F
S315080003808B4207D979180CF1FF3002D28B4200F262
S31508000390E9808446C91AA3B2B1FBFEF00EFB101120
S315080003A043EA014408FB00F8A04507D93C1900F1C7
S315080003B0FF3302D2A04500F2D9801846A4EB080400
S315080003C040EA0C40BFE78B4209D9002D00F0B18006
S315080003D00026C5E9000130463146BDE8F087B3FA84
S315080003E083F6002E4AD18B4202D3824200F2B880AD
S315080003F0841A61EB030101208C46002DA8D0C5E9BB
S31508000400004CA5E7C2F1200320FA03F6974001FA4B
S3150800041002F04FEA174ED9403043030CB1FBFEF603
S315080004201FFA87F80EFB161143EA014306FB08F18B
S31508000430994204FA02F409D9FB1806F1FF3C80F048
S315080004408D80994240F28A80023E3B445B1A81B213
S31508000450B3FBFEF00EFB103341EA034100FB08F341
S315080004608B4207D9791800F1FF3C73D28B4271D9B8
S3150800047002383944CB1A40EA064678E7C6F1200C1A
S3150800048003FA06F422FA0CF31C4320FA0CF701FAD5
S3150800049006F34FEA144E21FA0CF11F433B0CB1FB4D
S315080004A0FEF91FFA84F80EFB191143EA014109FB0C
S315080004B008FA8A4502FA06F200FA06F308D961181C
S315080004C009F1FF3048D28A4546D9A9F102092144E3
S315080004D0A1EB0A01BFB2B1FBFEF00EFB101147EA11
S315080004E0014700FB08F8B84507D9E71900F1FF31BD
S315080004F02ED2B8452CD90238274440EA0940A7EB42
S315080005000807A0FB02894F45C64649461AD317D0A5
S315080005105DB1B3EB0E0267EB010707FA0CFCF2407C
S315080005204CEA0202F740C5E9002700263146BDE835
S31508000530F0872E4628460BE70646E9E61846FDE606
S315080005404345E5D2B8EB020E69EB04010138DFE753
S315080005500846D2E760468DE78146B9E7664675E7FD
S3150800056030464AE7ACF1020C394413E702383C44FA
S3150800057024E700BF704700BF08B501F051FC08BD6D
S3150800058008B501F05BFC08BD08B5054B1B6913F0FF
S31508000590010F01D0002008BD00F054F80120FAE749
S315080005A00000024008B5642000F018F808BD08B538
S315080005B000F01AF808BD10F0100F01D055230B7083
S315080005C001207047102801D0002070470B78542B63
S315080005D001D000207047012070470000014B1880A9
S315080005E0704700BF9000002008B501F0CBFB114B07
S315080005F01B68984212D3104B1B7883B90E4B012205
S315080006001A7000224FF400510C4800F0F9FD01F071
S31508000610B9FB0B4B1B880344064A136008BD064BFF
S3150800062000221A7001224FF40051044800F0E8FD38
S31508000630EDE700BF9400002092000020000C024065
S315080006409000002008B501224FF40051014800F03F
S31508000650D7FD08BD000C024070B58CB000240B9481
S31508000660304B1A6B42F004021A631A6B02F004024A
S315080006700592059A1A6B42F080021A631A6B02F009
S3150800068080020492049A1A6B42F001021A631A6BEA
S3150800069002F001020392039A1A6B42F002021A63ED
S315080006A01A6B02F002020292029A1A6B42F00802D0
S315080006B01A631B6B03F008030193019B1A484FF456
S315080006C000538361194E4FF07042B26106930125BB
S315080006D00795089409940A9406A900F07AFE0695E7
S315080006E007940A9406A9124800F073FE4FF4704363
S315080006F006930795089409940A9406A9304600F0CB
S3150800070068FE20230693022307930323089309947C
S315080007100A9409230B9306A9064800F05AFE0CB062
S3150800072070BD00BF0038024000080240000C0240BD
S31508000730000002400004024010B590B0002409945D
S315080007400A940B940C940D940E940F941E4B5A6CA9
S3150800075042F020025A645A6C02F020020292029A6F
S315080007601A6B42F004021A631B6B03F0040301932D
S31508000770019BC02303930223049303230593069442
S3150800078007940823089303A9104800F022FE4FF4A3
S31508000790E13309930A940B940C940C230D930E944D
S315080007A00F940B4C09A9204600F01CFF236923F47B
S315080007B090432361636923F02A036361E36843F482
S315080007C00053E36010B010BD003802400008024034
S315080007D00014014008B50848084B03604FF4E1339C
S315080007E0436000238360C36003610C224261836116
S315080007F0C36100F0BFFD08BD200600200048004088
S3150800080010B50446C0B201F061FA204610BD0000DA
S3150800081008B52E4A136823F0070343F0050313604F
S315080008202A4B1B6803F00703052BF9D1284A1368DE
S3150800083043F48043136002F5E432136823F0F803A7
S3150800084043F080031360136843F001031360214BE0
S315080008501B6813F0020FFAD01E4A51681E4B0B4054
S3150800086043F4285343F008035360536823F4403392
S315080008705360136843F080731360164B1B6813F0BC
S31508000880007FFAD0134B9A6822F0F0029A609A68B1
S3150800089022F4E05242F4A0529A609A6822F4604226
S315080008A042F400429A609A6822F0030242F0020279
S315080008B09A60084B9B6803F00C03082BF9D107488C
S315080008C000F04CFF002000F02FF908BD003C024064
S315080008D000700040003802400080BFFF007A030A1B
S315080008E010B500F047F9FFF793FFFFF7B5FEFFF7DE
S315080008F023FFFFF76FFFFFF73FFE094801F00EFFE2
S31508000900002407E0074B53F824202146064801F047
S315080009107FFE0134032CF5DDFFF732FEFCE700BF4E
S31508000920C035000888010008D435000882B00021C7
S3150800093000910B4B5A6C42F480425A645A6C02F48A
S3150800094080420092009A01911A6C42F080521A6411
S315080009501B6C03F080530193019B02B0704700BFE4
S315080009600038024000B589B0002303930493059329
S31508000970069307930268164B9A4202D009B05DF8AF
S3150800098004FB0022019203F5F833196C41F4802127
S315080009901964196C01F48021019101990292196B6D
S315080009A041F0020119631B6B03F002030293029BD9
S315080009B04FF440630393022304930592032306939B
S315080009C00723079303A9034800F030FBD6E700BFC7
S315080009D000480040000402407047FEE7FEE7FEE7D5
S315080009E0FEE770477047704708B500F0DDF808BDA8
S315080009F070B50C4616460025B54207DAAFF30080F7
S31508000A00214601F8010B01350C46F5E7304670BD65
S31508000A1070B50C4616460025B54205DA14F8010BE2
S31508000A20FFF7EEFE0135F7E7304670BD4FF0FF30B1
S31508000A3070474FF400534B60002070470120704701
S31508000A400020704710B503460C4A0D490D4800684A
S31508000A5040B10C4800680344521A934206D8094A22
S31508000A60136010BD0748084C0460F2E701F09EFDCC
S31508000A700C2303604FF0FF30F3E700BF00000220AD
S31508000A80000800009800002098060020054BD3F8BF
S31508000A90882042F47002C3F888204FF000629A60FA
S31508000AA0704700BF00ED00E0DFF834D0002103E016
S31508000AB00C4B5B58435004310B480C4B42189A4276
S31508000AC0F6D30B4A02E0002342F8043B094B9A424C
S31508000AD0F9D3FFF7DBFF01F06FFDFFF701FF704762
S31508000AE000000220A437000800000020740000203F
S31508000AF07400002098060020FEE7704710B5094BE1
S31508000B004FF0FF321A6200241C625A625C621A6154
S31508000B101C615A615C619A619C61FFF7EEFF204691
S31508000B2010BD00BF0038024010B504460E4B1878B9
S31508000B304FF47A73B3FBF0F30C4A1068B0FBF3F08A
S31508000B4000F084F868B90F2C01D901200AE00022C8
S31508000B5021464FF0FF3000F045F8054B1C60002099
S31508000B6000E0012010BD00BF0400002000000020A6
S31508000B700800002008B50B4B1A6842F400721A6088
S31508000B801A6842F480621A601A6842F480721A601F
S31508000B90032000F015F80020FFF7C6FFFFF7C6FE92
S31508000BA0002008BD003C0240034A1168034B1B782D
S31508000BB00B441360704700BF640600200400002041
S31508000BC0074AD36823F4E0631B041B0C000200F4F5
S31508000BD0E060034343F0BF6343F40033D3607047D8
S31508000BE000ED00E030B4174BDB68C3F30223C3F112
S31508000BF00704042C28BF04241D1D062D18D9033B01
S31508000C004FF0FF3505FA04F421EA0401994005FA84
S31508000C1003F322EA0303194300280BDB0901C9B2CF
S31508000C2000F1604000F5614080F8001330BC704761
S31508000C300023E5E700F00F000901C9B2024B195479
S31508000C40F4E700BF00ED00E014ED00E00138B0F174
S31508000C50807F0AD2064B5860064AF02182F8231094
S31508000C600020986007221A6070470120704700BF6D
S31508000C7010E000E000ED00E010B40A490C6924F425
S31508000C8040740C610C6944F440740C610C6944F0BE
S31508000C9001040C610260BFF36F8F43605DF8044B7B
S31508000CA0704700BF003C0240074B1A6922F44072A5
S31508000CB01A611A6942F400721A611A6942F001024D
S31508000CC01A610160704700BF003C0240074B1A6971
S31508000CD022F440721A611A6942F480721A611A691A
S31508000CE042F001021A610180704700BF003C0240D1
S31508000CF0064B1A6922F440721A611A691A611A694E
S31508000D0042F001021A610170704700BF003C0240C0
S31508000D10204BDB6813F0100F07D01F4AD36943F046
S31508000D201003D3611B4B1022DA601A4BDB6813F0F1
S31508000D30200F07D0184AD36943F00803D361154B2F
S31508000D402022DA60134BDB6813F0400F07D0124AF3
S31508000D50D36943F00403D3610E4B4022DA600D4B8E
S31508000D60DB6813F0800F07D00B4AD36943F0020300
S31508000D70D361084B8022DA60064BDB6813F0020F5A
S31508000D8007D0054AD36943F02003D361014B0222F9
S31508000D90DA607047003C024068060020094B1B6970
S31508000DA0002B01DB00207047064B074A5A6002F108
S31508000DB088325A601B69002B01DB0020704701202E
S31508000DC0704700BF003C024023016745034A136988
S31508000DD043F0004313610020704700BF003C024007
S31508000DE038B50446144B0022DA6100F0D3FF0546F5
S31508000DF0124BDB6813F4803F0AD0B4F1FF3FF7D0FB
S31508000E0024B100F0C7FF401BA042F1D903200DE032
S31508000E100A4BDB6813F0010F02D0084B0122DA6097
S31508000E20064BDB6813F0F20F01D1002038BDFFF73F
S31508000E306FFF0120FAE700BF68060020003C024069
S31508000E40F8B516461B4A127E012A30D004460D46CE
S31508000E501F46184B01221A764CF25030FFF7C0FF96
S31508000E6090B9ACB1012C18D0022C1BD032463B46A7
S31508000E702846FFF701FF4CF25030FFF7B1FF0E4A44
S31508000E80136923F0010313610A4B00221A76F8BD91
S31508000E90F1B22846FFF72CFFEDE7B1B22846FFF777
S31508000EA015FFE8E731462846FFF7FEFEE3E702208E
S31508000EB0EDE700BF68060020003C0240074B1969B1
S31508000EC021F440711961196941F0040119611A691F
S31508000ED042EA002242F480321A617047003C02401E
S31508000EE010B449B1012921D0022902D04FF4407427
S31508000EF003E04FF4007400E000240E4B196921F456
S31508000F00407119611A6922431A611A6922F0F802B6
S31508000F101A611A6942EAC00040F0020018611A69AB
S31508000F2042F480321A615DF8044B70474FF48074BE
S31508000F30E3E700BF003C0240164B1B6813F4007F32
S31508000F4010D0144B1A6822F400721A601A6842F418
S31508000F5000621A601A6822F400621A601A6842F47B
S31508000F6000721A600B4B1B6813F4806F10D0094B84
S31508000F701A6822F480621A601A6842F480521A606B
S31508000F801A6822F480521A601A6842F480621A605B
S31508000F90704700BF003C0240F8B5224B1B7E012B70
S31508000FA03ED004460E461F4B01221A764CF25030AC
S31508000FB0FFF716FF074670BB4FF0FF333360236811
S31508000FC0012B16D0A568E368A2681344AB4220D962
S31508000FD0217C2846FFF784FF4CF25030FFF700FFCC
S31508000FE0114A136923F0FA031361074680B90135DC
S31508000FF0E9E76168207CFFF761FF4CF25030FFF7A4
S31508001000EFFE0746084A136923F00403136100E05C
S315080010103560FFF791FF034B00221A763846F8BD74
S315080010200227FBE768060020003C024000230F2B3E
S3150800103000F2DD80F0B482B05DE086685F000324CC
S31508001040BC4026EA0406CC68BC4034438460466843
S3150800105026EA02064C68C4F300129A4032434260FC
S3150800106057E0DC08083450F8247003F007029600AD
S315080010700F22B24027EA02070A69B2403A4340F80B
S3150800108024205AE0072200E00022B2403A43023404
S31508001090574E46F82420574A1468EA4324EA0506B8
S315080010A04F6817F4803F01D045EA0406514C266084
S315080010B0646802EA04064F6817F4003F01D045EA5F
S315080010C004064C4C6660A46802EA04064F6817F4E6
S315080010D0801F01D045EA0406464CA660E468224013
S315080010E04E6816F4001F01D045EA0402414CE2603E
S315080010F001330F2B78D801229A400C6804EA0205BE
S3150800110032EA0404F4D14C6804F00304013C012CCF
S3150800111093D94A6802F00302032A09D0C4685E001C
S315080011200322B24024EA02048A68B2402243C2601B
S315080011304A6802F00302022A93D004685E0003227A
S31508001140B24024EA02044A6802F00302B24022438B
S3150800115002604A6812F0805FCAD000220192264ACD
S31508001160546C44F480445464526C02F480420192F4
S31508001170019A9C08A61C1E4A52F8267003F0030220
S3150800118096000F22B24027EA02071C4A90423FF413
S315080011907BAF02F5806290421AD002F580629042D7
S315080011A018D002F58062904216D002F5806290420D
S315080011B014D002F58062904212D002F58062904205
S315080011C010D002F5806290423FF45CAF08225CE7DB
S315080011D001225AE7022258E7032256E7042254E777
S315080011E0052252E7062250E702B0F0BC7047704766
S315080011F000380140003C014000380240000002402F
S315080012000AB181617047090481617047014B18680A
S31508001210704700BF0000002008B5FFF7F7FF044B32
S315080012209B68C3F38223034AD35CD84008BD00BF3A
S31508001230003802400036000808B5FFF7E7FF044B00
S315080012409B68C3F34233034AD35CD84008BD00BF4A
S31508001250003802400036000870B504460268136973
S3150800126023F44053C1680B4313618368026913432F
S3150800127042691343C2691A430168CB6823F41643CB
S3150800128023F00C031343CB600268536923F44073BD
S3150800129081690B4353610368344A934206D002F5C9
S315080012A08062934202D0FFF7B7FF01E0FFF7C4FF61
S315080012B0E369B3F5004F2AD00026051846EB060168
S315080012C02D1846EB0101CB0043EA5573EA00154693
S315080012D0194663689A009B0F281846EB0101FEF72A
S315080012E0CFFF234DA5FB00325109642303FB1103ED
S315080012F01B013233A5FB03235B0903F0F00202EB63
S31508001300011203F00F03216813448B6070BD002699
S31508001310051846EB06012D1846EB0101CB0043EAFA
S315080013205573EA001546194662683346921846EB25
S315080013300303281846EB0101FEF7A2FF0C4DA5FB97
S3150800134000325109642303FB1103DB003233A5FB8A
S3150800135003235B095A0002F4F87202EB011203F048
S315080013600703216813448B60D0E700BF00100140D3
S315080013701F85EB5158B310B5044690F83D300BB3B2
S31508001380242384F83D302268D36823F40053D360BD
S315080013902046FFF761FF2268136923F4904313611F
S315080013A02268536923F02A0353612268D36843F4F9
S315080013B00053D36000202064202384F83D3084F84D
S315080013C03E3010BD80F83C30FFF7CCFAD8E7012054
S315080013D07047F0B40C6894FAA4F4B4FA84F44AE0BA
S315080013E08E68826893FAA3F5B5FA85F56D0003272A
S315080013F007FA05F522EA050293FAA3F5B5FA85F583
S315080014006D0006FA05F52A438260CD68426822EA2D
S31508001410030203FB05F52A4342600E69C26893FA84
S31508001420A3F5B5FA85F56D00032707FA05F522EA4F
S31508001430050293FAA3F5B5FA85F56D0006FA05F5E2
S315080014402A43C2604A68022A22D04A68056893FA83
S31508001450A3F6B6FA86F67600032707FA06F625EA0D
S31508001460060593FAA3F3B3FA83F35B0002FA03F3D0
S315080014702B43036001340B6833FA04F23CD0012293
S31508001480A2401340F6D04A68013A012AC5D8A7E710
S3150800149093FAA3F2B2FA82F2072A15D84E69026ABB
S315080014A093FAA3F5B5FA85F5AD000F2707FA05F502
S315080014B022EA050293FAA3F5B5FA85F5AD0006FA10
S315080014C005F52A430262C0E74D69466A1A0A92FA86
S315080014D0A2F7B7FA87F7BF004FF00F0C0CFA07F719
S315080014E026EA070692FAA2F2B2FA82F2920005FA00
S315080014F002F232434262A8E70020F0BC70470000BF
S31508001500034B9B68C3F30313024AD35CD840704766
S3150800151000380240F0350008034B9B68C3F382236A
S31508001520024AD35CD84070470038024000360008AB
S31508001530034B9B68C3F34233024AD35CD8407047D7
S3150800154000380240003600080F4B5B6803F480033E
S3150800155023B90E4B082803D0002070470C4BF9E737
S31508001560094A506800F03F00B3FBF0F35068C0F337
S31508001570881000FB03F05368C3F3014301335B0093
S31508001580B0FBF3F0704700BF003802400024F400B7
S3150800159000127A0008B5084B9B6803F00C03042B6D
S315080015A005D0082B05D10820FFF7CEFF02E0034837
S315080015B000E0034808BD00BF0038024000127A0068
S315080015C00024F40010B50446FFF7E4FF2060FFF797
S315080015D097FF6060FFF7A0FFA0606068FFF7A8FFAD
S315080015E0E06010BDC36813F4005F01D001207047A6
S315080015F0F0B585B004460D46C36823F4164323F0B8
S315080016000C034A68C9680A4329690A43A9690A434F
S315080016101343C360AB68026922F440521343036163
S315080016206B69426922F44072134343616846FFF7C7
S31508001630C9FF434B9C4210D0424B9C4214D0424BAC
S315080016409C4213D0414B9C4212D0414B9C4211D034
S31508001650404B9C4210D0012070E0039800286CD0C3
S315080016602B685BB9012069E00298F7E70298F5E76D
S315080016700398F3E70298F1E70298EFE7AA69B2F54B
S31508001680004F2CD00026051846EB06012D1846EB10
S315080016900101CA0042EA5572EF0011469A009B0FF3
S315080016A0381846EB0101FEF7EBFD2B49A1FB00328A
S315080016B053091A0192B2642505FB13031B01323341
S315080016C0A1FB0313C3F34F1303F0F0010A4492B2CC
S315080016D003F00F0313449BB2A36000202EE00026FC
S315080016E0051846EB06012D1846EB0101CA0042EA29
S315080016F05572EF001146DA1846EB0603381846EB22
S315080017000101FEF7BDFD1449A1FB003253091A0178
S3150800171092B2642505FB1303DB003233A1FB0313E6
S31508001720C3F34F13590001F4F8710A4492B203F057
S31508001730070313449BB2A360CFE7012005B0F0BDB1
S3150800174000100140004400400048004000140140D9
S31508001750004C0040005000401F85EB51014B1860BB
S31508001760704700BF0000002072B6704762B6704727
S3150800177008B5FFF7F9FF08BD10B500F015FA00B96E
S3150800178010BDFEF701FF0028FAD000F087FBFFF72F
S31508001790B5F900F0CDFA00F00BFA20F0604020F021
S315080017A07F00044B986000F003FA4468FFF7DEFFF9
S315080017B0A047E5E700ED00E070B50D460446531E68
S315080017C09EB23AB115F8013B04F8013B00F09CFBC8
S315080017D03246F4E770BD70B50E460446531E9DB2F8
S315080017E02AB104F8016B00F08FFB2A46F6E770BDB4
S315080017F038B50546002401E00134E4B20A2C17D8AE
S3150800180000F082FB04EB44030A4A52F82330AB4249
S31508001810F2D804EB4402074901EB820252681344EA
S31508001820AB42E9D904EB440001EB8000007A00E002
S31508001830FF2038BD0836000808B5C1F3080353B9B8
S3150800184003688B4209D040F8041B4FF40072FFF777
S31508001850B3FF012008BD0020FCE70120FAE72DE9C7
S31508001860F0410746FFF79AFA002400E001347F2C7E
S3150800187014D83E6806EB840807EB84035D6800F01D
S3150800188043FB2A46002341460220FFF7D9FA804641
S3150800189038B956F82430AB42E8D004E04FF00108D6
S315080018A001E04FF00008FFF791FA4046BDE8F081E5
S315080018B038B50D460C4B984211D004460B4B99424D
S315080018C007D1094C29462046FFF7B6FF48B12046FE
S315080018D038BDFFF7C4FF0028F4D10024F7E7044C0D
S315080018E0F0E70024F3E700BFA0020020004000084C
S315080018F09C0000202DE9F04106460C4617461D4679
S3150800190021F4FF7828F001080368B3F1FF3F07D0F8
S31508001910336843450AD13168641A3444043414E000
S315080019204146FFF789FF0028F2D11FE041463046BD
S31508001930FFF7BEFF06460028EDD1002016E017F88F
S31508001940013B04F8013B013D0FD000F0DDFA311DE3
S31508001950611AB1F5007FF2D308F500713046FFF73A
S31508001960A7FF064620B1041DE9E70120BDE8F0817E
S315080019700020FBE72DE9F04186B00446884600239F
S315080019800093884207D8012754B3B8F10B0F26D81D
S315080019901FB93C4624E00027F6E7002301930223FB
S315080019A0059301230493FFF7F9F93E4602E03E4604
S315080019B00134E4B244450ED800F0A6FA0394002593
S315080019C0072DF5DC694601A8FFF7E6FA0028EED0F0
S315080019D001350026F4E7FFF7F9F9344600E000245C
S315080019E0204606B0BDE8F0814FF0FF33024A136087
S315080019F0024A1360704700BF9C000020A002002026
S31508001A0070B50D460139144B1B1A994201D90020AD
S31508001A1070BD04461646FFF7EBFEFF2813D02819BB
S31508001A200138FFF7E5FEFF280DD024F4FF7323F0F5
S31508001A3001030A4A934208D02B46324621460848F3
S31508001A40FFF758FFE4E70020E2E72B463246214637
S31508001A500448FFF74FFFDBE7FFFF0F0800400008C9
S31508001A609C000020A00200204A1E0E4B1B1A9A4218
S31508001A7001D90020704770B505460C46FFF7B8FE39
S31508001A8006462C44601EFFF7B3FE0146FF2E05D01E
S31508001A90FF2805D03046FFF76DFF70BD0020FCE734
S31508001AA00020FAE7FFFF0F08104B1B68B3F1FF3F52
S31508001AB019D000B583B00D4A536891680B44D168B4
S31508001AC00B4411690B4451690B4491690B44D26963
S31508001AD013445B42019301AA04210548FFF790FFCE
S31508001AE003B05DF804FB0120704700BFA002002088
S31508001AF0884100080D4B1B680D4A12681A440D4BA5
S31508001B001B6813440C4A126813440C4A12681A4498
S31508001B100B4B1B681A440B4B1B6813440A4A126882
S31508001B20DA4201D0002070470120704700400008C3
S31508001B3004400008084000080C400008104000084F
S31508001B4014400008184000088841000808B50C4BE6
S31508001B501B68B3F1FF3F06D10A4B1B68B3F1FF3F81
S31508001B6007D1012008BD0648FFF779FE0028F3D102
S31508001B70F8E70448FFF773FE0028F3D00120F1E7E1
S31508001B80A00200209C000020004870470040000882
S31508001B9008B5FFF729FF08BD08B5FFF731FF08BDEF
S31508001BA008B5FFF761FF08BD08B5FFF7A3FF08BD35
S31508001BB008B5FFF7E9FF08BD08B5FFF775FF00B9D7
S31508001BC008BDFFF7C3FFFBE7054B1B6813F0200FA3
S31508001BD001D100207047024B5B68037001207047F3
S31508001BE00014014010B588B00C4CE36823F4005388
S31508001BF0E3604FF4E13301930023029303930493C4
S31508001C000C2205920693079301A92046FFF7EAFCE2
S31508001C10E36843F40053E36008B010BD00140140C4
S31508001C2070B5254B1C78BCB92448FFF7CDFF0128B1
S31508001C3001D0204670BD214B1B78013BDBB23F2B00
S31508001C40F7D800F09FF81E4B18601E4B00221A703A
S31508001C50194B01221A70ECE706460D46194B1B78FC
S31508001C60013316481844FFF7AFFF0446012815D17B
S31508001C70144B1A780132D2B21A70104B1B789A425A
S31508001C8001D00024D5E710493046FFF795FD0A4BE9
S31508001C9000221A700B4B1B782B70CAE700F072F8FB
S31508001CA0074B1B686433984203D90024024B1C7007
S31508001CB0BFE70024BDE700BFE5040020A404002018
S31508001CC0E8040020E6040020A504002010B5094B0E
S31508001CD0586000F057F800F10A04064B1B6813F029
S31508001CE0800F05D100F010F900F04CF8A042F4D9A5
S31508001CF010BD00BF0014014070B506460D464029C8
S31508001D000ED82846FFF7E2FF0024ABB2A3420CD94F
S31508001D1000F0FAF8305DFFF7D9FF0134A4B2F4E712
S31508001D207B21024800F03AF8EBE770BD8C360008D4
S31508001D30024B00221A605A609A60704710E000E071
S31508001D4008B5FFF7F5FF054B054A5A6000229A6069
S31508001D5005211960034B1A6008BD00BF10E000E0BA
S31508001D603F900200EC040020044B1B6813F4803FEC
S31508001D7003D0034A136801331360704710E000E08C
S31508001D80EC04002008B5FFF7EFFF014B186808BD03
S31508001D90EC04002008B5FFF7F5FF08BD08B500F00C
S31508001DA0B3F8FCE708B500F0A5F8012803D00B4BFB
S31508001DB01B78012B00D008BDFFF7E4FF084B1B6812
S31508001DC0084A1268134403F59C5308339842F2D321
S31508001DD0024B00221A70FFF7CFFCECE7F404002050
S31508001DE0F0040020F804002008B5054B1B78012BE9
S31508001DF000D008BDFFF7C6FF024B1860F9E700BF21
S31508001E00F4040020F804002008B5044B01221A70D7
S31508001E10FFF7EAFFFFF7C6FF08BD00BFF40400207E
S31508001E2008B5FFF7A5FC00F06BF8FFF789FFFFF789
S31508001E30AFFE00F00DF8FFF7E7FF08BD08B500F0A4
S31508001E4063F8FFF791FF00F00FF8FFF7ABFF08BD47
S31508001E5008B500F015FBFFF7C5FE024B00221A7005
S31508001E6008BD00BF0C00002000B583B00DF10701C6
S31508001E700848FFF7D5FE012802D003B05DF804FB39
S31508001E80054B00221A709DF80710024800F016FB51
S31508001E90F3E700BFFC0400200C0000207047000098
S31508001EA008B5054B1B7813B100F000FB08BDC9B295
S31508001EB0FFF722FFF8E700BF0C000020054B1B7850
S31508001EC0012B03D0022B03D100207047082070474E
S31508001ED0402070470C000020054B1B78012B03D0CF
S31508001EE0022B03D100207047082070474020704716
S31508001EF00C00002008B500F0D1FA00B1012008BD99
S31508001F0008B5FEF74FFB08BD08B5FEF750FB08BD40
S31508001F10014B10225A707047CC050020034BFE2255
S31508001F20DA7018710222A3F844207047CC05002005
S31508001F3010B5054C00232370FFF7EAFFFF23E37073
S31508001F400123A4F8443010BDCC050020064BFF221F
S31508001F50DA7000221A71597859719A71DA711A72FF
S31508001F600622A3F844207047CC05002008B50020B7
S31508001F70FFF7D4FF08BD0000074BFF22DA70074AB7
S31508001F809A6400221A715A719A710722C3F80720B7
S31508001F900822A3F844207047CC050020F436000830
S31508001FA0044BFF22DA7042689A640122A3F844209F
S31508001FB0704700BFCC05002008B5064B5B7813F0C8
S31508001FC0100F03D13120FFF7A9FF08BD2520FFF721
S31508001FD0A5FFFAE7CC05002038B50C4B5B7813F063
S31508001FE0100F0FD1094CFF23E37000252571657189
S31508001FF0FFF764FFA071E571257265720723A4F8DF
S31508002000443038BD2520FFF789FFFAE7CC050020C4
S3150800201038B5FFF77DFF0E4C01252570FF23E370C9
S315080020201023237100236371FFF748FFA071FFF7A0
S3150800203053FFE071FFF750FFC0F307202072657267
S31508002040A5720823A4F84430FFF7A2FD38BD00BFE7
S31508002050CC05002010B50446FFF730FF62789042A1
S3150800206014D90F4B5B7813F0100F13D000210D48CD
S31508002070FFF7B1FB0A4BFF22DA7061789A6C0A44C3
S315080020809A6462780132A3F8442010BD2220FFF733
S3150800209045FFFAE70248816C0430FFF78DFBE9E754
S315080020A0CC050020D005002010B50446FFF706FF32
S315080020B06378984217D961680F4B996462785B78A0
S315080020C013F0100F13D000210C48FFF784FB0A4BBE
S315080020D0FF22DA7061789A6C0A449A64627801324F
S315080020E0A3F8442010BD2220FFF718FFFAE703489B
S315080020F0FFF762FBEBE700BFCC050020D005002008
S31508002100F8B50546174600244E1E39B115F8013BA9
S315080021101C44E4B2FFF7F8FE3146F5E73C600120BF
S31508002120F8BD000010B5084CFF23E370E21D4168B6
S31508002130A06CFFF7E5FF207100236371A3710823E4
S31508002140A4F8443010BD00BFCC05002038B5124BAA
S315080021505B7813F0100F17D104460F4B9D6CFFF7F1
S31508002160ADFE621C411E2846FFF716FD80B10A4CDB
S31508002170FF23E370FFF7A2FE0138A36C0344A364B0
S315080021800123A4F8443038BD2520FFF7C7FEFAE737
S315080021903120FFF7C3FEF6E7CC05002010B51A4B31
S315080021A05B7813F0100F1AD10446FFF787FE013843
S315080021B06378984217DD144BFF22DA700122A3F8E0
S315080021C04420617899B1A21C0F4B986CFFF7E4FC88
S315080021D0A8B161780C4A936C0B44936402E02520FD
S315080021E0FFF79CFE10BD2220FFF798FEFAE7FFF7DF
S315080021F0E3FC0028F6D13120FFF790FEF2E7312004
S31508002200FFF78CFEEEE700BFCC05002008B50D4BA6
S315080022105B7813F0100F0CD141680A4B986CFFF7E6
S31508002220BFFC50B1074BFF22DA700122A3F8442005
S3150800223008BD2520FFF772FEFAE73120FFF76EFE8C
S31508002240F6E700BFCC05002008B5094B5B7813F00C
S31508002250100F08D1FFF790FA054BFF22DA7001221A
S31508002260A3F8442008BD2520FFF758FEFAE700BF6B
S31508002270CC05002008B5FEF79EF908BDF8B5404B19
S31508002280FF22DA7042781ABB837813F0010103D073
S3150800229033F0010144D0114613F0100F03D033F088
S315080022A0100200D1012113F0040F03D033F0040209
S315080022B000D1012113F0080F02D033F0080201D033
S315080022C000292FD02E4A527813422FD02C4A9370C9
S315080022D04378002B31D02B4B1B78002B43D02A4B4D
S315080022E01C78FFF7EBFD0138A04243DDA5B2274E67
S315080022F0234F2A463168781DFFF75EFA224A13787B
S315080023003B711B1BDBB2137032681444346013B97B
S315080023101C4B00221A700235194BA3F84450F8BD1D
S315080023200121B9E72220FFF7F9FDF8E7144B00224F
S315080023301A710222A3F84420F1E7124B01221A70FF
S3150800234013490F4B9878FFF795FF0F4B18704028E5
S3150800235003D80E4B0E4A1A60C1E74FF479710D483F
S31508002360FFF71CFDF5E72920FFF7D8FD044B0022EF
S315080023709A70D4E7FFF7A2FDC4B2023CE4B2B5E70F
S31508002380CC050020C9050020C8050020C40500208A
S3150800239084050020C836000808B5FEF713F908BDFD
S315080023A070B54478402C2ED805462C4B1B789C4299
S315080023B007D32B4B1C702B4B2B4A1A602B4B002236
S315080023C01A70264B1C70FFF779FD0138A04223DDF1
S315080023D0244E2246A91C3068FFF7EEF933682344D9
S315080023E03360224B1A781444E4B21C701C4B1A78DA
S315080023F0944217D21E4BFF22DA705A781A710222BB
S31508002400A3F8442070BD0024144B1C702220FFF74B
S3150800241085FD174B9C70F5E7FFF750FDC4B2023CEB
S31508002420E4B2D5E70D4B002119700F49104B987887
S31508002430FFF7B2FF40B10E4B99785A7822EA0102AB
S315080024405A7000229A70D5E72520FFF767FD084BDA
S3150800245000221A709A70FFF75BFDD3E7800500200B
S31508002460820500207C0500203C050020810500200F
S31508002470CC05002008B589B2FFF712FD08BD00009B
S31508002480054B00221A709A6483F84320A3F8442067
S315080024909A705A70704700BFCC050020024B187816
S315080024A000B10120704700BFCC050020024B002276
S315080024B083F84320704700BFCC05002008B5037891
S315080024C0FF2B23D0384A1278012A2BD1C93B352B4A
S315080024D059D8DFE803F04058584F58584C434946F6
S315080024E0585858585858585858585858585858585E
S315080024F0585858585858585858585858585858584E
S31508002500312B282E5552583458373A3DFFF780FD5F
S31508002510254B93F84330012B39D0234BB3F944109C
S31508002520002938DC08BDFFF795FDF1E7FFF7BCFD8C
S31508002530EEE7FFF735FDEBE7FFF7F4FDE8E7FFF712
S315080025401BFDE5E7FFF712FDE2E7FFF7FFFCDFE714
S31508002550FFF7EEFCDCE7FFF7F9FDD9E7FFF71EFE0C
S31508002560D6E7FFF739FDD3E7FFF750FED0E7FFF7C9
S315080025706BFECDE7FFF720FDCAE7FFF77FFEC7E74B
S31508002580FFF70EFFC4E72020FFF7C8FCC0E71020BE
S31508002590FFF7C4FCC1E71846012380F8433003302F
S315080025A0FFF768FFBEE700BFCC050020014B18689F
S315080025B0704700BF1000002070B50D4D0D4C641B10
S315080025C0A4100026A64209D10B4D0C4C00F0ECFFD6
S315080025D0641BA4100026A64205D170BD55F8043B1D
S315080025E098470136EEE755F8043B98470136F2E777
S315080025F09C3700089C3700089C370008A03700085D
S3150800260002440346934200D1704703F8011BF9E7D9
S315080026100FB40A4B13B51C6824B1A36913B9204635
S3150800262000F05EFA05AB049AA1680193204600F013
S315080026302FFC02B0BDE8104004B07047100000201F
S3150800264070B50E46054618B183690BB900F048FA0D
S31508002650AB69AC6813B9284600F042FA2C4B9C4289
S3150800266020D16C68636EDB0705D4A389980502D46C
S31508002670A06D00F0D3FAA38919071DD52369DBB12C
S31508002680013EA36816F8011F013BA36039BB002B66
S3150800269038DA22460A21284600F048F8013011D0D7
S315080026A00A2511E01B4B9C4201D1AC68DAE71A4BAC
S315080026B09C4208BFEC68D5E72146284600F088F812
S315080026C00028DDD04FF0FF35636EDA0705D4A389FD
S315080026D09B0502D4A06D00F0A2FA284670BD002B17
S315080026E004DAA2699A4206DC0A2904D023685A1C2D
S315080026F022601970C5E72246284600F017F801300F
S31508002700BFD1DFE723680A255A1C22601D70DBE764
S31508002710203700084037000800370008024B0146FA
S315080027201868FFF78DBF00BF10000020F8B50E46E9
S315080027301446054618B183690BB900F0D1F9214B47
S315080027409C422BD16C68A369A360A3891A072FD56D
S3150800275023696BB323692068C01A6369F6B283429A
S31508002760374604DC2146284600F026F930BBA36824
S31508002770013BA36023685A1C22601E7063690130FE
S31508002780834204D0A389DB0706D50A2E04D1214645
S31508002790284600F011F988B93846F8BD0A4B9C421C
S315080027A001D1AC68CFE7094B9C4208BFEC68CAE781
S315080027B02146284600F00CF80028CBD04FF0FF370A
S315080027C0EAE700BF2037000840370008003700084E
S315080027D0324B70B51D6806460C4625B1AB6913B970
S315080027E0284600F07DF92E4B9C420FD16C68A389D0
S315080027F0B4F90C2019072CD4DD0611D4092333604B
S3150800280042F04003A3814FF0FF303EE0254B9C4247
S3150800281001D1AC68EBE7244B9C4208BFEC68E6E7BD
S31508002820580712D5616B41B104F14403994202D0AD
S31508002830304600F059FA00236363A38923F0240382
S31508002840A3810023636023692360A38943F00803F7
S31508002850A38123694BB9A38903F42073B3F5007FD9
S3150800286003D02146304600F0FFF9A089B4F90C20C0
S3150800287010F001030AD00023A36063695B42A361D9
S31508002880236943B910F08000BAD170BD810758BFDB
S315080028906369A360F4E70020F7E700BF1000002093
S315080028A02037000840370008003700088A892DE9D4
S315080028B0F041054610070C4658D44B68002B05DC3A
S315080028C00B6C002B02DC0020BDE8F081E66A002EC6
S315080028D0F9D0002312F480522F682B6032D0606D35
S315080028E0A3895A0705D56368C01A636B0BB1236CB5
S315080028F0C01A00230246E66A216A2846B047431CE6
S31508002900A38906D129681D292CD82A4ACA40D60780
S3150800291028D500226260D9042269226004D5421CA7
S3150800292001D12B6803B96065616B2F600029CAD095
S3150800293004F14403994202D0284600F0D5F9002054
S315080029406063C1E7216A01232846B047411CC7D105
S315080029502B68002BC4D01D2B01D0162B01D12F605C
S31508002960B1E7A38943F04003A381ADE70F69002FC0
S31508002970A9D093070E6808BF4B690F6018BF0023DC
S31508002980A6EB07088B60B8F1000F9CDD216AA66AE2
S3150800299043463A462846B047002806DCA38943F052
S315080029A04003A3814FF0FF308EE70744A8EB0008E9
S315080029B0E9E700BF0100402038B50B6905460C461B
S315080029C013B90025284638BD18B183690BB900F03C
S315080029D087F8144B9C421BD16C68B4F90C30002B59
S315080029E0EFD0626ED00704D4990502D4A06D00F02A
S315080029F015F928462146FFF759FF636EDA0705469B
S31508002A00E0D4A3899B05DDD4A06D00F008F9D9E7C9
S31508002A10054B9C4201D1AC68DFE7044B9C4208BFDA
S31508002A20EC68DAE720370008403700080037000866
S31508002A30002310B50446C0E90033C0E904338360B7
S31508002A4081814366C2818361194608225C30FFF79B
S31508002A50D7FD054B6362054BA362054BE362054B45
S31508002A602462236310BD00BF393400085B340008B4
S31508002A7093340008B7340008014900F0AFB800BF26
S31508002A80B929000870B54A1E682555430E4605F152
S31508002A90740100F079F9044640B10021C0E9001636
S31508002AA00C30A06005F16802FFF7AAFD204670BD4C
S31508002AB0014800F0B3B800BF90060020014800F0B6
S31508002AC0AEB800BF90060020014800F0A7B800BFC6
S31508002AD08B060020014800F0A2B800BF8B06002034
S31508002AE010B50446FFF7F0FFA3691BB1BDE8104017
S31508002AF0FFF7F0BFC4E912332365134B134A1B686B
S31508002B00A262A34204BF0123A361204600F020F875
S31508002B106060204600F01CF8A060204600F018F817
S31508002B200022E06004216068FFF782FFA0680122A6
S31508002B300921FFF77DFFE06802221221FFF778FFDF
S31508002B400123A361D2E700BFFC360008792A0008F2
S31508002B50F8B50746FFF7ACFF1E4B1E68B36913B9F5
S31508002B603046FFF7BDFF4836D6E90134013B03D5A9
S31508002B7033680BB33668F7E7B4F90C50D5B9164B7A
S31508002B80E36004F15800656600F047F8FFF796FF22
S31508002B90C4E90155C4E904552560A56108222946FA
S31508002BA004F15C00FFF72CFDC4E90D55C4E9125584
S31508002BB02046F8BD6834D9E704213846FFF762FF96
S31508002BC0044630600028D5D1FFF778FF0C233B6018
S31508002BD0EEE700BFFC3600080100FFFF2DE9F843C9
S31508002BE00646884600F148040027D4E90195B9F15C
S31508002BF0010905D52468002CF7D13846BDE8F883C5
S31508002C00AB89012B07D9B5F90E30013303D0294614
S31508002C103046C04707436835E9E77047704770474D
S31508002C2070B50E46B1F90E10002996B014461D4629
S31508002C3007DA00232B60B3891A0610D44FF4806391
S31508002C400EE06A4600F05EFC0028F2DB019A02F408
S31508002C507042A2F500535A425A412A60EEE74023D1
S31508002C600020236016B070BD8B8973B59D07064694
S31508002C700C4607D504F147032360236101236361EA
S31508002C8002B070BD01AB6A46FFF7CAFF0099054658
S31508002C90304600F079F848B9B4F90C309A05EFD403
S31508002CA023F0030343F00203A381E3E70D4BB3626A
S31508002CB0A389206043F08003A381009B6361019B85
S31508002CC020615BB1B4F90E10304600F02DFC28B136
S31508002CD0A38923F0030343F00103A381A0890543D5
S31508002CE0A581CDE7792A000837B5002948D051F8DB
S31508002CF0043C0190002BA1F10404B8BFE41800F0CD
S31508002D0035FC204A01981368154633B96360146088
S31508002D1003B0BDE8304000F02FBCA3420BD92168B0
S31508002D206218934204BF1A685B68636004BF52184E
S31508002D3022602C60ECE71A465B680BB1A342FAD90D
S31508002D4011685518A5420BD1246821445418A3428A
S31508002D501160DDD11C685B68536021441160D7E7B8
S31508002D6002D90C230360D3E7256861198B4204BF97
S31508002D7019685B68636004BF491921605460C7E736
S31508002D8003B030BD18060020F8B5CD1C25F00305A4
S31508002D9008350C2D38BF0C25002D064601DBA94247
S31508002DA003D90C2333600020F8BD00F0DFFB21496E
S31508002DB00A6814469CB9204F3B6823B92146304619
S31508002DC000F02AFB38602946304600F025FB431CF4
S31508002DD023D10C233360304600F0CEFBE3E72368AB
S31508002DE05B1B17D40B2B03D923601C44256004E016
S31508002DF06368A2420CBF0B605360304600F0BCFB10
S31508002E0004F10B00231D20F00700C21ACCD01B1AB0
S31508002E10A350C9E722466468CCE7C41C24F003041F
S31508002E20A042E3D0211A304600F0F6FA0130DDD18F
S31508002E30CFE700BF180600201C0600209368013B58
S31508002E40002B10B4936008DA9469A34201DB0A29BF
S31508002E5003D15DF8044BFFF769BC1368581C106072
S31508002E60197008465DF8044B7047F8B506460F46D4
S31508002E701446D518AC4201D1002007E014F8011B0E
S31508002E803A463046FFF7DAFF431CF3D1F8BD000097
S31508002E902DE9F04F0D469DB014469846064618B1E2
S31508002EA083690BB9FFF71CFE894B9D421BD17568D8
S31508002EB06B6ED90705D4AB899A0502D4A86DFFF7BE
S31508002EC0ADFEAB891B0701D52B69EBB92946304600
S31508002ED0FFF77EFCC0B16B6EDC070ED54FF0FF30F6
S31508002EE01DB0BDE8F08F7B4B9D4201D1B568DFE789
S31508002EF0794B9D4208BFF568DAE7AB899805EDD4AA
S31508002F00A86DFFF78CFEE9E70023099320238DF8C7
S31508002F102930CDF80C803023DFF8C0818DF82A30AF
S31508002F204FF0010923469A4613F8012B0AB1252AC0
S31508002F30F9D1BAEB040B0BD05B462246294630463C
S31508002F40FFF793FF013000F0AA80099A5A440992C4
S31508002F509AF80030002B00F0A28000234FF0FF32D1
S31508002F60CDE905230AF1010A049307938DF8533036
S31508002F701A935446052214F8011B5848FDF730F9F0
S31508002F80049AD8B9D10644BF20238DF853301307C5
S31508002F9044BF2B238DF853309AF800302A2B15D0CE
S31508002FA0079A544600204FF00A0C214611F8013BB7
S31508002FB0303B092B4ED9B0B1079214E0A0EB0803B9
S31508002FC009FA03F313430493A246D2E7039B191D98
S31508002FD01B680391002BBBBF5B4242F002020793BA
S31508002FE00793B8BF049223782E2B0CD163782A2B2B
S31508002FF035D1039B1A1D1B680392002BB8BF4FF0EF
S31508003000FF3302340593DFF8E4A021780322504603
S31508003010FDF7E6F840B14023A0EB0A0003FA00F0FA
S31508003020049B03430134049314F8011B2C488DF8C0
S3150800303028100622FDF7D4F800283FD0294B1BBBE1
S31508003040039B073323F0070308330393099B3B4489
S31508003050099367E70CFB02320C460120A5E700231B
S315080030600134059319464FF00A0C204610F8012B37
S31508003070303A092A03D9002BC5D00591C3E70CFBC2
S31508003080012104460123F0E703AB00932A46164BB9
S3150800309004A93046AFF300800746781CD6D16B6E7C
S315080030A0D90705D4AB899A0502D4A86DFFF7B7FDF1
S315080030B0AB895B063FF512AF099811E703AB00939E
S315080030C02A46094B04A9304600F080F8E4E700BF19
S315080030D02037000840370008003700086037000826
S315080030E06A370008000000006B2E000866370008E3
S315080030F02DE9F047164699468A680B69DDF820805F
S315080031009342B8BF1346336091F8432007460C46EE
S315080031100AB1013333602368990642BF3368023324
S315080031203360256815F0060506D104F1190AE36827
S3150800313032689B1AAB4226DC94F84320131E226899
S3150800314018BF012392062BD404F143024946384698
S31508003150C04701301ED02368E568326803F00603CD
S31508003160042B08BFAD1AA36822690CBF25EAE575CA
S3150800317000259342C4BF9B1AED1800261A34B5429F
S315080031801AD1002008E00123524649463846C0476E
S31508003190013003D14FF0FF30BDE8F0870135C6E7AF
S315080031A0E1185A1C302081F84300224494F845104F
S315080031B082F843100233C7E70123224649463846B8
S315080031C0C0470130E6D00136D9E700002DE9FF47B0
S315080031D00C469146277E0C99782F80469A4604F12C
S315080031E0430207D8622F0AD8002F00F0D880582F3C
S315080031F000F0A38004F1420684F842703AE0A7F191
S315080032006303152BF6D801A050F823F065320008A1
S3150800321079320008F5310008F5310008F531000863
S31508003220F531000879320008F5310008F531000853
S31508003230F5310008F531000885330008A932000881
S3150800324067330008F5310008F5310008A733000890
S31508003250F5310008A9320008F5310008F5310008F3
S315080032606F3300080B681A1D1B680A6004F14206D2
S3150800327084F842300123A3E0256808682E0600F189
S3150800328004030AD505680B60002D03DA2D236D4269
S3150800329084F843305E480A2319E015F0400F0568A4
S315080032A00B6018BF2DB2EFE70B682568181D08607C
S315080032B0280601D51D6802E06906FBD51D88544815
S315080032C06F2F0CBF08230A23002184F84310666871
S315080032D0A660002EA2BF216821F0040121600DB965
S315080032E0002E4DD01646B5FBF3F103FB1157C75D0B
S315080032F006F8017D2F46BB420D46F4D9082B0BD1A3
S315080033002368DF0708D5236961689942DEBF302341
S3150800331006F8013C06F1FF36921B2261CDF800A0A3
S315080033204B4603AA21464046FFF7E2FE01304CD140
S315080033304FF0FF3004B0BDE8F087354884F8457093
S3150800334023680E681F0656F8045B0E6014D5D90765
S3150800335044BF43F0200323601DB9236823F02003EC
S3150800336023601023B0E7236843F020032360782303
S31508003370284884F84530E3E75E0648BFADB2E6E77D
S315080033801646BBE70B68266860691D1D0D60350685
S315080033901B6801D5186002E07106FBD5188000236A
S315080033A023611646BAE70B681A1D0A601E6862682A
S315080033B000213046FCF714FF08B1801B6060636883
S315080033C02361002384F84330A8E723693246494637
S315080033D04046D0470130ABD023689B0713D4E0683A
S315080033E0039B9842B8BF1846A4E7012332464946CC
S315080033F04046D04701309BD00135E36803995B1AF4
S31508003400AB42F2DCEBE7002504F11906F5E700BF4D
S31508003410713700088237000838B5064D0023044680
S3150800342008462B60FDF70EFB431C02D12B6803B13F
S31508003430236038BD9406002010B50C46B1F90E106D
S3150800344000F0A0F80028ABBF636DA3891B1823F40E
S315080034508053ACBF6365A38110BD2DE9F0411F46BB
S315080034608B89DB0505460C46164605D5B1F90E10BF
S315080034700223002200F068F8A389B4F90E1023F499
S315080034808053A38132463B462846BDE8F04100F00A
S3150800349017B810B50C46B1F90E1000F055F8431CD4
S315080034A0A38915BF606523F4805343F48053A38131
S315080034B018BFA38110BDB1F90E1000F013B80000B3
S315080034C038B5074D04460846114600222A601A46B2
S315080034D0FDF79EFA431C02D12B6803B1236038BD61
S315080034E09406002038B5064D0023044608462B608E
S315080034F0FDF79CFA431C02D12B6803B1236038BD43
S315080035009406002038B5074D0023044608461146A0
S315080035102B60FDF78EFA431C02D12B6803B123609A
S3150800352038BD00BF9406002038B5064D0023044672
S3150800353008462B60FDF782FA431C02D12B6803B1BB
S31508003540236038BD9406002038B5074D0446084662
S31508003550114600222A601A46FDF772FA431C02D168
S315080035602B6803B1236038BD940600200148FFF795
S3150800357055BB00BF8C0600200148FFF750BB00BFB3
S315080035808C06002038B5074D044608461146002229
S315080035902A601A46FDF72CFA431C02D12B6803B1A0
S315080035A0236038BD94060020F8B500BFF8BC08BCF7
S315080035B09E467047F8B500BFF8BC08BC9E467047E3
S315080035C02E2E2E204D61696E207374617274202E22
S315080035D02E2E200068616C5F766563746F725B25BA
S315080035E0645D203D20307825382E386C580A000056
S315080035F00000000000000000010203040607080995
S31508003600000000000102030400400008004000001A
S3150800361001000000008000080040000002000000D1
S3150800362000C0000800400000030000000000010878
S31508003630000001000400000000000208000002006B
S315080036400500000000000408000002000600000053
S315080036500000060800000200070000000000080835
S31508003660000002000800000000000A08000002002E
S315080036700900000000000C08000002000A00000013
S3150800368000000E08000002000B000000433A2F70ED
S31508003690726F6A656374732F73742F6F70656E62C9
S315080036A06C742F5461726765742F536F75726365F6
S315080036B02F41524D434D345F53544D333246342FC8
S315080036C072733233322E6300433A2F70726F6A6513
S315080036D06374732F73742F6F70656E626C742F54D6
S315080036E061726765742F536F757263652F7863709F
S315080036F02E6300004F70656E424C54001400002083
S3150800370000000000000000000000000000000000AB
S31508003710000000000000000000000000000000009B
S31508003720000000000000000000000000000000008B
S31508003730000000000000000000000000000000007B
S31508003740000000000000000000000000000000006B
S31508003750000000000000000000000000000000005B
S31508003760232D302B2000686C4C006566674546475C
S3150800377000303132333435363738394142434445DF
S31508003780460030313233343536373839616263644E
S30908003790656600005C
S30D080037941CCBFF7F01000000B9
S3090800379CC50100084D
S309080037A0A10100086D
S315080037A40024F400010000001000000004000000DA
S315080037B414000020000000002037000840370008E5
S315080037C400370008000000000000000000000000A8
S315080037D400000000000000000000000000000000D7
S315080037E400000000000000000000000000000000C7
S315080037F400000000000000000000000000000000B7
S3150800380400000000000000000000000000000000A6
S3090800381400000000A2
S70508000AA93F
